{
  "abi": [
    {
      "inputs": [
        {
          "components": [
            {
              "internalType": "uint256",
              "name": "x",
              "type": "uint256"
            },
            {
              "internalType": "uint256",
              "name": "y",
              "type": "uint256"
            }
          ],
          "internalType": "struct Position",
          "name": "_pos",
          "type": "tuple"
        }
      ],
      "name": "_getMapChunk",
      "outputs": [
        {
          "components": [
            {
              "internalType": "enum TERRAIN",
              "name": "terrain",
              "type": "uint8"
            },
            {
              "internalType": "uint256",
              "name": "occupantId",
              "type": "uint256"
            },
            {
              "internalType": "uint256",
              "name": "baseId",
              "type": "uint256"
            }
          ],
          "internalType": "struct Tile[]",
          "name": "",
          "type": "tuple[]"
        },
        {
          "components": [
            {
              "internalType": "uint256",
              "name": "x",
              "type": "uint256"
            },
            {
              "internalType": "uint256",
              "name": "y",
              "type": "uint256"
            }
          ],
          "internalType": "struct Position[]",
          "name": "",
          "type": "tuple[]"
        }
      ],
      "stateMutability": "view",
      "type": "function"
    },
    {
      "inputs": [],
      "name": "_getSample",
      "outputs": [
        {
          "internalType": "uint256",
          "name": "",
          "type": "uint256"
        }
      ],
      "stateMutability": "view",
      "type": "function"
    },
    {
      "inputs": [
        {
          "components": [
            {
              "internalType": "uint256",
              "name": "x",
              "type": "uint256"
            },
            {
              "internalType": "uint256",
              "name": "y",
              "type": "uint256"
            }
          ],
          "internalType": "struct Position",
          "name": "_pos",
          "type": "tuple"
        }
      ],
      "name": "_getTroopAt",
      "outputs": [
        {
          "components": [
            {
              "internalType": "address",
              "name": "owner",
              "type": "address"
            },
            {
              "internalType": "uint256",
              "name": "troopTypeId",
              "type": "uint256"
            },
            {
              "internalType": "uint256",
              "name": "lastMoved",
              "type": "uint256"
            },
            {
              "internalType": "uint256",
              "name": "movesLeftInEpoch",
              "type": "uint256"
            },
            {
              "internalType": "uint256",
              "name": "lastAttacked",
              "type": "uint256"
            },
            {
              "internalType": "uint256",
              "name": "lastRepaired",
              "type": "uint256"
            },
            {
              "internalType": "uint256",
              "name": "health",
              "type": "uint256"
            },
            {
              "components": [
                {
                  "internalType": "uint256",
                  "name": "x",
                  "type": "uint256"
                },
                {
                  "internalType": "uint256",
                  "name": "y",
                  "type": "uint256"
                }
              ],
              "internalType": "struct Position",
              "name": "pos",
              "type": "tuple"
            },
            {
              "internalType": "uint256[]",
              "name": "cargoTroopIds",
              "type": "uint256[]"
            }
          ],
          "internalType": "struct Troop",
          "name": "",
          "type": "tuple"
        }
      ],
      "stateMutability": "view",
      "type": "function"
    },
    {
      "inputs": [],
      "name": "bulkGetAllTroops",
      "outputs": [
        {
          "components": [
            {
              "internalType": "address",
              "name": "owner",
              "type": "address"
            },
            {
              "internalType": "uint256",
              "name": "troopTypeId",
              "type": "uint256"
            },
            {
              "internalType": "uint256",
              "name": "lastMoved",
              "type": "uint256"
            },
            {
              "internalType": "uint256",
              "name": "movesLeftInEpoch",
              "type": "uint256"
            },
            {
              "internalType": "uint256",
              "name": "lastAttacked",
              "type": "uint256"
            },
            {
              "internalType": "uint256",
              "name": "lastRepaired",
              "type": "uint256"
            },
            {
              "internalType": "uint256",
              "name": "health",
              "type": "uint256"
            },
            {
              "components": [
                {
                  "internalType": "uint256",
                  "name": "x",
                  "type": "uint256"
                },
                {
                  "internalType": "uint256",
                  "name": "y",
                  "type": "uint256"
                }
              ],
              "internalType": "struct Position",
              "name": "pos",
              "type": "tuple"
            },
            {
              "internalType": "uint256[]",
              "name": "cargoTroopIds",
              "type": "uint256[]"
            }
          ],
          "internalType": "struct Troop[]",
          "name": "",
          "type": "tuple[]"
        }
      ],
      "stateMutability": "view",
      "type": "function"
    }
  ],
  "bytecode": {
    "object": "0x608060405234801561001057600080fd5b50610b93806100206000396000f3fe608060405234801561001057600080fd5b506004361061004c5760003560e01c8063863eaa0b14610051578063af248a3414610086578063d4db1684146100a7578063fa5ba3fb146100c7575b600080fd5b7f8d1bebda6a12a792ffba01f92494c5be0cd4ce8e2d8e46d2c616016d7e9ec3f4546040519081526020015b60405180910390f35b61009961009436600461081f565b6100dc565b60405161007d9291906109f3565b6100ba6100b536600461081f565b6103ca565b60405161007d9190610adb565b6100cf610568565b60405161007d9190610a7a565b7f8d1bebda6a12a792ffba01f92494c5be0cd4ce8e2d8e46d2c616016d7e70fd25546060908190600061010f8280610b0d565b67ffffffffffffffff81111561013557634e487b7160e01b600052604160045260246000fd5b60405190808252806020026020018201604052801561018b57816020015b6101786040805160608101909152806000815260200160008152602001600081525090565b8152602001906001900390816101535790505b509050600061019a8380610b0d565b67ffffffffffffffff8111156101c057634e487b7160e01b600052604160045260246000fd5b60405190808252806020026020018201604052801561020557816020015b60408051808201909152600080825260208201528152602001906001900390816101de5790505b5086519091506000905b875161021c908690610af5565b8110156103bd5760208801515b8589602001516102399190610af5565b8110156103aa57604080518082019091528281526020810182905289517f8d1bebda6a12a792ffba01f92494c5be0cd4ce8e2d8e46d2c616016d7e70fd29906103e8811061029757634e487b7160e01b600052603260045260246000fd5b610bb802018a602001516103e881106102c057634e487b7160e01b600052603260045260246000fd5b6040805160608101909152600391909102919091018054829060ff1660028111156102fb57634e487b7160e01b600052602160045260246000fd5b600281111561031a57634e487b7160e01b600052602160045260246000fd5b81526020016001820154815260200160028201548152505086858151811061035257634e487b7160e01b600052603260045260246000fd5b60200260200101819052508085858151811061037e57634e487b7160e01b600052603260045260246000fd5b6020908102919091010152610394600185610af5565b93505080806103a290610b2c565b915050610229565b50806103b581610b2c565b91505061020f565b5091969095509350505050565b6103d26107af565b60405163342a412360e01b815282516004820152602083015160248201527f8d1bebda6a12a792ffba01f92494c5be0cd4ce8e2d8e46d2c616016d7e9ec3f19060009073__$8a461d6baeda20cc8b97c0d95fb84681dd$__9063342a41239060440160606040518083038186803b15801561044c57600080fd5b505af4158015610460573d6000803e3d6000fd5b505050506040513d601f19601f820116820180604052508101906104849190610879565b602090810151825281810192909252604090810160002081516101208101835281546001600160a01b031681526001820154818501526002820154818401526003820154606082015260048201546080820152600582015460a0820152600682015460c0820152825180840184526007830154815260088301548186015260e08201526009820180548451818702810187019095528085529194929361010086019390929083018282801561055857602002820191906000526020600020905b815481526020019060010190808311610544575b5050505050815250509050919050565b606060007f8d1bebda6a12a792ffba01f92494c5be0cd4ce8e2d8e46d2c616016d7e70fd20622dc6d0015467ffffffffffffffff8111156105b957634e487b7160e01b600052604160045260246000fd5b6040519080825280602002602001820160405280156105f257816020015b6105df6107af565b8152602001906001900390816105d75790505b50905060005b7f8d1bebda6a12a792ffba01f92494c5be0cd4ce8e2d8e46d2c616016d7e9ec3f0548110156107a9577f8d1bebda6a12a792ffba01f92494c5be0cd4ce8e2d8e46d2c616016d7e9ec3ef80547f8d1bebda6a12a792ffba01f92494c5be0cd4ce8e2d8e46d2c616016d7e9ec3f1916000918490811061068757634e487b7160e01b600052603260045260246000fd5b60009182526020808320909101548352828101939093526040918201902081516101208101835281546001600160a01b031681526001820154818501526002820154818401526003820154606082015260048201546080820152600582015460a0820152600682015460c0820152825180840184526007830154815260088301548186015260e08201526009820180548451818702810187019095528085529194929361010086019390929083018282801561076257602002820191906000526020600020905b81548152602001906001019080831161074e575b50505050508152505082828151811061078b57634e487b7160e01b600052603260045260246000fd5b602002602001018190525080806107a190610b2c565b9150506105f8565b50919050565b60405180610120016040528060006001600160a01b03168152602001600081526020016000815260200160008152602001600081526020016000815260200160008152602001610812604051806040016040528060008152602001600081525090565b8152602001606081525090565b600060408284031215610830578081fd5b6040516040810181811067ffffffffffffffff8211171561085f57634e487b7160e01b83526041600452602483fd5b604052823581526020928301359281019290925250919050565b60006060828403121561088a578081fd5b6040516060810181811067ffffffffffffffff821117156108b957634e487b7160e01b83526041600452602483fd5b6040528251600381106108ca578283fd5b8152602083810151908201526040928301519281019290925250919050565b6000815180845260208085019450808401835b8381101561092c5761091987835180518252602090810151910152565b60409690960195908201906001016108fc565b509495945050505050565b6000815180845260208085019450808401835b8381101561092c5781518752958201959082019060010161094a565b80516001600160a01b0316825260006101406020830151602085015260408301516040850152606083015160608501526080830151608085015260a083015160a085015260c083015160c085015260e08301516109d060e086018280518252602090810151910152565b50610100830151816101208601526109ea82860182610937565b95945050505050565b6040808252835182820181905260009190606090818501906020808901865b83811015610a5b578151805160038110610a3a57634e487b7160e01b8a52602160045260248afd5b86528084015184870152870151878601529385019390820190600101610a12565b50508683039087015250610a6f81876108e9565b979650505050505050565b6000602080830181845280855180835260408601915060408160051b8701019250838701855b82811015610ace57603f19888603018452610abc858351610966565b94509285019290850190600101610aa0565b5092979650505050505050565b602081526000610aee6020830184610966565b9392505050565b60008219821115610b0857610b08610b47565b500190565b6000816000190483118215151615610b2757610b27610b47565b500290565b6000600019821415610b4057610b40610b47565b5060010190565b634e487b7160e01b600052601160045260246000fdfea2646970667358221220596fa78ed06a59fa2c5c9e4d479a254a34b4241b4f8e9ea5550d9fdcf4268fdf64736f6c63430008040033",
    "linkReferences": {
      "contracts/libraries/GameUtil.sol": {
        "Util": [
          {
            "start": 1079,
            "length": 20
          }
        ]
      }
    }
  },
  "methodIdentifiers": {
    "_getMapChunk((uint256,uint256))": "af248a34",
    "_getSample()": "863eaa0b",
    "_getTroopAt((uint256,uint256))": "d4db1684",
    "bulkGetAllTroops()": "fa5ba3fb"
  },
  "id": 4
}