{
  "abi": [
    {
      "inputs": [],
      "name": "bulkGetAllTroops",
      "outputs": [
        {
          "components": [
            {
              "internalType": "address",
              "name": "owner",
              "type": "address"
            },
            {
              "internalType": "uint256",
              "name": "troopTypeId",
              "type": "uint256"
            },
            {
              "internalType": "uint256",
              "name": "lastMoved",
              "type": "uint256"
            },
            {
              "internalType": "uint256",
              "name": "movesLeftInEpoch",
              "type": "uint256"
            },
            {
              "internalType": "uint256",
              "name": "lastAttacked",
              "type": "uint256"
            },
            {
              "internalType": "uint256",
              "name": "lastRepaired",
              "type": "uint256"
            },
            {
              "internalType": "uint256",
              "name": "health",
              "type": "uint256"
            },
            {
              "components": [
                {
                  "internalType": "uint256",
                  "name": "x",
                  "type": "uint256"
                },
                {
                  "internalType": "uint256",
                  "name": "y",
                  "type": "uint256"
                }
              ],
              "internalType": "struct Position",
              "name": "pos",
              "type": "tuple"
            },
            {
              "internalType": "uint256[]",
              "name": "cargoTroopIds",
              "type": "uint256[]"
            }
          ],
          "internalType": "struct Troop[]",
          "name": "",
          "type": "tuple[]"
        }
      ],
      "stateMutability": "view",
      "type": "function"
    },
    {
      "inputs": [
        {
          "internalType": "uint256",
          "name": "_id",
          "type": "uint256"
        }
      ],
      "name": "getBase",
      "outputs": [
        {
          "components": [
            {
              "internalType": "enum BASE_NAME",
              "name": "name",
              "type": "uint8"
            },
            {
              "internalType": "address",
              "name": "owner",
              "type": "address"
            },
            {
              "internalType": "uint256",
              "name": "attackFactor",
              "type": "uint256"
            },
            {
              "internalType": "uint256",
              "name": "defenseFactor",
              "type": "uint256"
            },
            {
              "internalType": "uint256",
              "name": "health",
              "type": "uint256"
            }
          ],
          "internalType": "struct Base",
          "name": "",
          "type": "tuple"
        }
      ],
      "stateMutability": "view",
      "type": "function"
    },
    {
      "inputs": [
        {
          "components": [
            {
              "internalType": "uint256",
              "name": "x",
              "type": "uint256"
            },
            {
              "internalType": "uint256",
              "name": "y",
              "type": "uint256"
            }
          ],
          "internalType": "struct Position",
          "name": "_pos",
          "type": "tuple"
        }
      ],
      "name": "getBaseAt",
      "outputs": [
        {
          "components": [
            {
              "internalType": "enum BASE_NAME",
              "name": "name",
              "type": "uint8"
            },
            {
              "internalType": "address",
              "name": "owner",
              "type": "address"
            },
            {
              "internalType": "uint256",
              "name": "attackFactor",
              "type": "uint256"
            },
            {
              "internalType": "uint256",
              "name": "defenseFactor",
              "type": "uint256"
            },
            {
              "internalType": "uint256",
              "name": "health",
              "type": "uint256"
            }
          ],
          "internalType": "struct Base",
          "name": "",
          "type": "tuple"
        }
      ],
      "stateMutability": "view",
      "type": "function"
    },
    {
      "inputs": [],
      "name": "getBaseNonce",
      "outputs": [
        {
          "internalType": "uint256",
          "name": "",
          "type": "uint256"
        }
      ],
      "stateMutability": "view",
      "type": "function"
    },
    {
      "inputs": [
        {
          "internalType": "uint256",
          "name": "_startId",
          "type": "uint256"
        },
        {
          "internalType": "uint256",
          "name": "_endId",
          "type": "uint256"
        }
      ],
      "name": "getBulkBase",
      "outputs": [
        {
          "components": [
            {
              "internalType": "enum BASE_NAME",
              "name": "name",
              "type": "uint8"
            },
            {
              "internalType": "address",
              "name": "owner",
              "type": "address"
            },
            {
              "internalType": "uint256",
              "name": "attackFactor",
              "type": "uint256"
            },
            {
              "internalType": "uint256",
              "name": "defenseFactor",
              "type": "uint256"
            },
            {
              "internalType": "uint256",
              "name": "health",
              "type": "uint256"
            }
          ],
          "internalType": "struct Base[]",
          "name": "",
          "type": "tuple[]"
        }
      ],
      "stateMutability": "view",
      "type": "function"
    },
    {
      "inputs": [
        {
          "internalType": "uint256",
          "name": "_startId",
          "type": "uint256"
        },
        {
          "internalType": "uint256",
          "name": "_endId",
          "type": "uint256"
        }
      ],
      "name": "getBulkTroopTypes",
      "outputs": [
        {
          "components": [
            {
              "internalType": "enum TROOP_NAME",
              "name": "name",
              "type": "uint8"
            },
            {
              "internalType": "uint256",
              "name": "movesPerEpoch",
              "type": "uint256"
            },
            {
              "internalType": "uint256",
              "name": "maxHealth",
              "type": "uint256"
            },
            {
              "internalType": "uint256",
              "name": "damagePerHit",
              "type": "uint256"
            },
            {
              "internalType": "uint256",
              "name": "attackFactor",
              "type": "uint256"
            },
            {
              "internalType": "uint256",
              "name": "defenseFactor",
              "type": "uint256"
            },
            {
              "internalType": "uint256",
              "name": "cargoCapacity",
              "type": "uint256"
            },
            {
              "internalType": "uint256",
              "name": "epochsToProduce",
              "type": "uint256"
            },
            {
              "internalType": "uint256",
              "name": "movementCooldown",
              "type": "uint256"
            },
            {
              "internalType": "uint256",
              "name": "attackCooldown",
              "type": "uint256"
            },
            {
              "internalType": "bool",
              "name": "isLandTroop",
              "type": "bool"
            }
          ],
          "internalType": "struct TroopType[]",
          "name": "",
          "type": "tuple[]"
        }
      ],
      "stateMutability": "view",
      "type": "function"
    },
    {
      "inputs": [],
      "name": "getEpoch",
      "outputs": [
        {
          "internalType": "uint256",
          "name": "",
          "type": "uint256"
        }
      ],
      "stateMutability": "view",
      "type": "function"
    },
    {
      "inputs": [
        {
          "components": [
            {
              "internalType": "uint256",
              "name": "x",
              "type": "uint256"
            },
            {
              "internalType": "uint256",
              "name": "y",
              "type": "uint256"
            }
          ],
          "internalType": "struct Position",
          "name": "_startPos",
          "type": "tuple"
        }
      ],
      "name": "getMapChunk",
      "outputs": [
        {
          "components": [
            {
              "internalType": "enum TERRAIN",
              "name": "terrain",
              "type": "uint8"
            },
            {
              "internalType": "uint256",
              "name": "occupantId",
              "type": "uint256"
            },
            {
              "internalType": "uint256",
              "name": "baseId",
              "type": "uint256"
            }
          ],
          "internalType": "struct Tile[]",
          "name": "",
          "type": "tuple[]"
        },
        {
          "components": [
            {
              "internalType": "uint256",
              "name": "x",
              "type": "uint256"
            },
            {
              "internalType": "uint256",
              "name": "y",
              "type": "uint256"
            }
          ],
          "internalType": "struct Position[]",
          "name": "",
          "type": "tuple[]"
        }
      ],
      "stateMutability": "view",
      "type": "function"
    },
    {
      "inputs": [
        {
          "internalType": "address",
          "name": "_addr",
          "type": "address"
        }
      ],
      "name": "getPlayer",
      "outputs": [
        {
          "components": [
            {
              "internalType": "uint256",
              "name": "initEpoch",
              "type": "uint256"
            },
            {
              "internalType": "bool",
              "name": "active",
              "type": "bool"
            }
          ],
          "internalType": "struct Player",
          "name": "",
          "type": "tuple"
        }
      ],
      "stateMutability": "view",
      "type": "function"
    },
    {
      "inputs": [
        {
          "components": [
            {
              "internalType": "uint256",
              "name": "x",
              "type": "uint256"
            },
            {
              "internalType": "uint256",
              "name": "y",
              "type": "uint256"
            }
          ],
          "internalType": "struct Position",
          "name": "_pos",
          "type": "tuple"
        }
      ],
      "name": "getTileAt",
      "outputs": [
        {
          "components": [
            {
              "internalType": "enum TERRAIN",
              "name": "terrain",
              "type": "uint8"
            },
            {
              "internalType": "uint256",
              "name": "occupantId",
              "type": "uint256"
            },
            {
              "internalType": "uint256",
              "name": "baseId",
              "type": "uint256"
            }
          ],
          "internalType": "struct Tile",
          "name": "",
          "type": "tuple"
        }
      ],
      "stateMutability": "view",
      "type": "function"
    },
    {
      "inputs": [
        {
          "internalType": "uint256",
          "name": "_troopId",
          "type": "uint256"
        }
      ],
      "name": "getTroop",
      "outputs": [
        {
          "components": [
            {
              "internalType": "address",
              "name": "owner",
              "type": "address"
            },
            {
              "internalType": "uint256",
              "name": "troopTypeId",
              "type": "uint256"
            },
            {
              "internalType": "uint256",
              "name": "lastMoved",
              "type": "uint256"
            },
            {
              "internalType": "uint256",
              "name": "movesLeftInEpoch",
              "type": "uint256"
            },
            {
              "internalType": "uint256",
              "name": "lastAttacked",
              "type": "uint256"
            },
            {
              "internalType": "uint256",
              "name": "lastRepaired",
              "type": "uint256"
            },
            {
              "internalType": "uint256",
              "name": "health",
              "type": "uint256"
            },
            {
              "components": [
                {
                  "internalType": "uint256",
                  "name": "x",
                  "type": "uint256"
                },
                {
                  "internalType": "uint256",
                  "name": "y",
                  "type": "uint256"
                }
              ],
              "internalType": "struct Position",
              "name": "pos",
              "type": "tuple"
            },
            {
              "internalType": "uint256[]",
              "name": "cargoTroopIds",
              "type": "uint256[]"
            }
          ],
          "internalType": "struct Troop",
          "name": "",
          "type": "tuple"
        }
      ],
      "stateMutability": "view",
      "type": "function"
    },
    {
      "inputs": [
        {
          "components": [
            {
              "internalType": "uint256",
              "name": "x",
              "type": "uint256"
            },
            {
              "internalType": "uint256",
              "name": "y",
              "type": "uint256"
            }
          ],
          "internalType": "struct Position",
          "name": "_pos",
          "type": "tuple"
        }
      ],
      "name": "getTroopAt",
      "outputs": [
        {
          "components": [
            {
              "internalType": "address",
              "name": "owner",
              "type": "address"
            },
            {
              "internalType": "uint256",
              "name": "troopTypeId",
              "type": "uint256"
            },
            {
              "internalType": "uint256",
              "name": "lastMoved",
              "type": "uint256"
            },
            {
              "internalType": "uint256",
              "name": "movesLeftInEpoch",
              "type": "uint256"
            },
            {
              "internalType": "uint256",
              "name": "lastAttacked",
              "type": "uint256"
            },
            {
              "internalType": "uint256",
              "name": "lastRepaired",
              "type": "uint256"
            },
            {
              "internalType": "uint256",
              "name": "health",
              "type": "uint256"
            },
            {
              "components": [
                {
                  "internalType": "uint256",
                  "name": "x",
                  "type": "uint256"
                },
                {
                  "internalType": "uint256",
                  "name": "y",
                  "type": "uint256"
                }
              ],
              "internalType": "struct Position",
              "name": "pos",
              "type": "tuple"
            },
            {
              "internalType": "uint256[]",
              "name": "cargoTroopIds",
              "type": "uint256[]"
            }
          ],
          "internalType": "struct Troop",
          "name": "",
          "type": "tuple"
        }
      ],
      "stateMutability": "view",
      "type": "function"
    },
    {
      "inputs": [
        {
          "internalType": "uint256",
          "name": "_troopTypeId",
          "type": "uint256"
        }
      ],
      "name": "getTroopType",
      "outputs": [
        {
          "components": [
            {
              "internalType": "enum TROOP_NAME",
              "name": "name",
              "type": "uint8"
            },
            {
              "internalType": "uint256",
              "name": "movesPerEpoch",
              "type": "uint256"
            },
            {
              "internalType": "uint256",
              "name": "maxHealth",
              "type": "uint256"
            },
            {
              "internalType": "uint256",
              "name": "damagePerHit",
              "type": "uint256"
            },
            {
              "internalType": "uint256",
              "name": "attackFactor",
              "type": "uint256"
            },
            {
              "internalType": "uint256",
              "name": "defenseFactor",
              "type": "uint256"
            },
            {
              "internalType": "uint256",
              "name": "cargoCapacity",
              "type": "uint256"
            },
            {
              "internalType": "uint256",
              "name": "epochsToProduce",
              "type": "uint256"
            },
            {
              "internalType": "uint256",
              "name": "movementCooldown",
              "type": "uint256"
            },
            {
              "internalType": "uint256",
              "name": "attackCooldown",
              "type": "uint256"
            },
            {
              "internalType": "bool",
              "name": "isLandTroop",
              "type": "bool"
            }
          ],
          "internalType": "struct TroopType",
          "name": "",
          "type": "tuple"
        }
      ],
      "stateMutability": "view",
      "type": "function"
    },
    {
      "inputs": [],
      "name": "getWorldConstants",
      "outputs": [
        {
          "components": [
            {
              "internalType": "address",
              "name": "admin",
              "type": "address"
            },
            {
              "internalType": "uint256",
              "name": "worldWidth",
              "type": "uint256"
            },
            {
              "internalType": "uint256",
              "name": "worldHeight",
              "type": "uint256"
            },
            {
              "internalType": "uint256",
              "name": "numPorts",
              "type": "uint256"
            },
            {
              "internalType": "uint256",
              "name": "numCities",
              "type": "uint256"
            },
            {
              "internalType": "uint256",
              "name": "mapInterval",
              "type": "uint256"
            },
            {
              "internalType": "uint256",
              "name": "secondsPerEpoch",
              "type": "uint256"
            },
            {
              "internalType": "uint256",
              "name": "combatEfficiency",
              "type": "uint256"
            }
          ],
          "internalType": "struct WorldConstants",
          "name": "",
          "type": "tuple"
        }
      ],
      "stateMutability": "view",
      "type": "function"
    }
  ],
  "bytecode": {
    "object": "0x608060405234801561001057600080fd5b50611b1a806100206000396000f3fe608060405234801561001057600080fd5b50600436106100ea5760003560e01c8063785b47241161008c578063b278cc4a11610066578063b278cc4a14610305578063ef51ddf114610318578063fa5ba3fb14610339578063fbde0b9e1461034e57600080fd5b8063785b4724146102b2578063898ce75c146102c5578063969f14ac146102e557600080fd5b80634c40951e116100c85780634c40951e146101b65780635c12cd4b146101d65780637239d5ca1461026b578063757991a81461028b57600080fd5b806321c3b522146100ef5780632fb5ac32146101655780633c763c9214610196575b600080fd5b6100f761036e565b60405161015c919081516001600160a01b031681526020808301519082015260408083015190820152606080830151908201526080808301519082015260a0828101519082015260c0808301519082015260e091820151918101919091526101000190565b60405180910390f35b7f8d1bebda6a12a792ffba01f92494c5be0cd4ce8e2d8e46d2c616016d7e9ec3ee545b60405190815260200161015c565b6101a96101a436600461166a565b61050e565b60405161015c9190611858565b6101c96101c4366004611588565b6106a2565b60405161015c9190611a24565b61024e6101e43660046114d5565b604080518082018252600080825260209182018190526001600160a01b039390931683527f8d1bebda6a12a792ffba01f92494c5be0cd4ce8e2d8e46d2c616016d7e70fd298152918190208151808301909252805482526001015460ff1615159181019190915290565b60408051825181526020928301511515928101929092520161015c565b61027e610279366004611652565b61083a565b60405161015c9190611a15565b7f8d1bebda6a12a792ffba01f92494c5be0cd4ce8e2d8e46d2c616016d7e9ec3ea54610188565b6101c96102c0366004611652565b610936565b6102d86102d3366004611588565b610a39565b60405161015c9190611a07565b6102f86102f3366004611588565b610ae5565b60405161015c91906119e2565b6102f8610313366004611652565b610c39565b61032b610326366004611588565b610cc4565b60405161015c9291906118a6565b610341610fac565b60405161015c9190611981565b61036161035c36600461166a565b61120b565b60405161015c919061193e565b6103bf60405180610100016040528060006001600160a01b03168152602001600081526020016000815260200160008152602001600081526020016000815260200160008152602001600081525090565b5060408051610100810182527f8d1bebda6a12a792ffba01f92494c5be0cd4ce8e2d8e46d2c616016d7e70fd20546001600160a01b031681527f8d1bebda6a12a792ffba01f92494c5be0cd4ce8e2d8e46d2c616016d7e70fd215460208201527f8d1bebda6a12a792ffba01f92494c5be0cd4ce8e2d8e46d2c616016d7e70fd2254918101919091527f8d1bebda6a12a792ffba01f92494c5be0cd4ce8e2d8e46d2c616016d7e70fd235460608201527f8d1bebda6a12a792ffba01f92494c5be0cd4ce8e2d8e46d2c616016d7e70fd245460808201527f8d1bebda6a12a792ffba01f92494c5be0cd4ce8e2d8e46d2c616016d7e70fd255460a08201527f8d1bebda6a12a792ffba01f92494c5be0cd4ce8e2d8e46d2c616016d7e70fd265460c08201527f8d1bebda6a12a792ffba01f92494c5be0cd4ce8e2d8e46d2c616016d7e70fd275460e082015290565b6060600061051c8484611a6e565b610527906001611a37565b67ffffffffffffffff81111561054d57634e487b7160e01b600052604160045260246000fd5b60405190808252806020026020018201604052801561058657816020015b6105736113cf565b81526020019060019003908161056b5790505b50905060005b83811015610698577f8d1bebda6a12a792ffba01f92494c5be0cd4ce8e2d8e46d2c616016d7e9ec3ef60006105c18784611a37565b815260208101919091526040908101600020815160a081019092528054829060ff16600181111561060257634e487b7160e01b600052602160045260246000fd5b600181111561062157634e487b7160e01b600052602160045260246000fd5b8152815461010090046001600160a01b031660208201526001820154604082015260028201546060820152600390910154608090910152825183908390811061067a57634e487b7160e01b600052603260045260246000fd5b6020026020010181905250808061069090611a85565b91505061058c565b5090505b92915050565b6106aa611408565b60405163342a412360e01b81527f8d1bebda6a12a792ffba01f92494c5be0cd4ce8e2d8e46d2c616016d7e9ec3f29060009073__$8a461d6baeda20cc8b97c0d95fb84681dd$__9063342a4123906107069087906004016119f0565b60606040518083038186803b15801561071e57600080fd5b505af4158015610732573d6000803e3d6000fd5b505050506040513d601f19601f8201168201806040525081019061075691906115e2565b602090810151825281810192909252604090810160002081516101208101835281546001600160a01b031681526001820154818501526002820154818401526003820154606082015260048201546080820152600582015460a0820152600682015460c0820152825180840184526007830154815260088301548186015260e08201526009820180548451818702810187019095528085529194929361010086019390929083018282801561082a57602002820191906000526020600020905b815481526020019060010190808311610816575b5050505050815250509050919050565b610842611478565b60008281527f8d1bebda6a12a792ffba01f92494c5be0cd4ce8e2d8e46d2c616016d7e9ec3f4602052604090819020815161016081019092528054829060ff1660058111156108a157634e487b7160e01b600052602160045260246000fd5b60058111156108c057634e487b7160e01b600052602160045260246000fd5b815260018201546020820152600282015460408201526003820154606082015260048201546080820152600582015460a0820152600682015460c0820152600782015460e082015260088201546101008201526009820154610120820152600a9091015460ff1615156101409091015292915050565b61093e611408565b60008281527f8d1bebda6a12a792ffba01f92494c5be0cd4ce8e2d8e46d2c616016d7e9ec3f2602090815260409182902082516101208101845281546001600160a01b031681526001820154818401526002820154818501526003820154606082015260048201546080820152600582015460a0820152600682015460c0820152835180850185526007830154815260088301548185015260e082015260098201805485518186028101860190965280865291949293610100860193929083018282801561082a5760200282019190600052602060002090815481526020019060010190808311610816575050505050815250509050919050565b610a5e6040805160608101909152806000815260200160008152602001600081525090565b60405163342a412360e01b815273__$8a461d6baeda20cc8b97c0d95fb84681dd$__9063342a412390610a959085906004016119f0565b60606040518083038186803b158015610aad57600080fd5b505af4158015610ac1573d6000803e3d6000fd5b505050506040513d601f19601f8201168201806040525081019061069c91906115e2565b610aed6113cf565b60405163342a412360e01b81527f8d1bebda6a12a792ffba01f92494c5be0cd4ce8e2d8e46d2c616016d7e9ec3ef9060009073__$8a461d6baeda20cc8b97c0d95fb84681dd$__9063342a412390610b499087906004016119f0565b60606040518083038186803b158015610b6157600080fd5b505af4158015610b75573d6000803e3d6000fd5b505050506040513d601f19601f82011682018060405250810190610b9991906115e2565b604090810151825260208201929092528101600020815160a081019092528054829060ff166001811115610bdd57634e487b7160e01b600052602160045260246000fd5b6001811115610bfc57634e487b7160e01b600052602160045260246000fd5b8152815461010090046001600160a01b03166020820152600182015460408201526002820154606082015260039091015460809091015292915050565b610c416113cf565b604051632231a81d60e21b81526004810183905273__$8a461d6baeda20cc8b97c0d95fb84681dd$__906388c6a0749060240160a06040518083038186803b158015610c8c57600080fd5b505af4158015610ca0573d6000803e3d6000fd5b505050506040513d601f19601f8201168201806040525081019061069c91906114f8565b7f8d1bebda6a12a792ffba01f92494c5be0cd4ce8e2d8e46d2c616016d7e70fd255460609081906000610cf78280611a4f565b67ffffffffffffffff811115610d1d57634e487b7160e01b600052604160045260246000fd5b604051908082528060200260200182016040528015610d7357816020015b610d606040805160608101909152806000815260200160008152602001600081525090565b815260200190600190039081610d3b5790505b5090506000610d828380611a4f565b67ffffffffffffffff811115610da857634e487b7160e01b600052604160045260246000fd5b604051908082528060200260200182016040528015610ded57816020015b6040805180820190915260008082526020820152815260200190600190039081610dc65790505b5086519091506000905b8751610e04908690611a37565b811015610f9f5760208801515b858960200151610e219190611a37565b811015610f8c5760408051808201909152828152602081018290527f8d1bebda6a12a792ffba01f92494c5be0cd4ce8e2d8e46d2c616016d7e70fd2a836103e88110610e7d57634e487b7160e01b600052603260045260246000fd5b610bb80201826103e88110610ea257634e487b7160e01b600052603260045260246000fd5b6040805160608101909152600391909102919091018054829060ff166002811115610edd57634e487b7160e01b600052602160045260246000fd5b6002811115610efc57634e487b7160e01b600052602160045260246000fd5b815260200160018201548152602001600282015481525050868581518110610f3457634e487b7160e01b600052603260045260246000fd5b602002602001018190525080858581518110610f6057634e487b7160e01b600052603260045260246000fd5b6020908102919091010152610f76600185611a37565b9350508080610f8490611a85565b915050610e11565b5080610f9781611a85565b915050610df7565b5091969095509350505050565b6060600060017f8d1bebda6a12a792ffba01f92494c5be0cd4ce8e2d8e46d2c616016d7e70fd20622dc6d10154610fe39190611a6e565b67ffffffffffffffff81111561100957634e487b7160e01b600052604160045260246000fd5b60405190808252806020026020018201604052801561104257816020015b61102f611408565b8152602001906001900390816110275790505b50905060005b7f8d1bebda6a12a792ffba01f92494c5be0cd4ce8e2d8e46d2c616016d7e9ec3f15461107690600190611a6e565b811015611205577f8d1bebda6a12a792ffba01f92494c5be0cd4ce8e2d8e46d2c616016d7e9ec3f080547f8d1bebda6a12a792ffba01f92494c5be0cd4ce8e2d8e46d2c616016d7e9ec3f291600091849081106110e357634e487b7160e01b600052603260045260246000fd5b60009182526020808320909101548352828101939093526040918201902081516101208101835281546001600160a01b031681526001820154818501526002820154818401526003820154606082015260048201546080820152600582015460a0820152600682015460c0820152825180840184526007830154815260088301548186015260e0820152600982018054845181870281018701909552808552919492936101008601939092908301828280156111be57602002820191906000526020600020905b8154815260200190600101908083116111aa575b5050505050815250508282815181106111e757634e487b7160e01b600052603260045260246000fd5b602002602001018190525080806111fd90611a85565b915050611048565b50919050565b606060006112198484611a6e565b611224906001611a37565b67ffffffffffffffff81111561124a57634e487b7160e01b600052604160045260246000fd5b60405190808252806020026020018201604052801561128357816020015b611270611478565b8152602001906001900390816112685790505b50905060005b83811015610698577f8d1bebda6a12a792ffba01f92494c5be0cd4ce8e2d8e46d2c616016d7e9ec3f460006112be8388611a37565b815260208101919091526040908101600020815161016081019092528054829060ff16600581111561130057634e487b7160e01b600052602160045260246000fd5b600581111561131f57634e487b7160e01b600052602160045260246000fd5b815260018201546020820152600282015460408201526003820154606082015260048201546080820152600582015460a0820152600682015460c0820152600782015460e082015260088201546101008201526009820154610120820152600a9091015460ff1615156101409091015282518390839081106113b157634e487b7160e01b600052603260045260246000fd5b602002602001018190525080806113c790611a85565b915050611289565b6040805160a08101909152806000815260200160006001600160a01b031681526020016000815260200160008152602001600081525090565b60405180610120016040528060006001600160a01b0316815260200160008152602001600081526020016000815260200160008152602001600081526020016000815260200161146b604051806040016040528060008152602001600081525090565b8152602001606081525090565b60408051610160810190915280600081526020016000815260200160008152602001600081526020016000815260200160008152602001600081526020016000815260200160008152602001600081526020016000151581525090565b6000602082840312156114e6578081fd5b81356114f181611acc565b9392505050565b600060a08284031215611509578081fd5b60405160a0810181811067ffffffffffffffff8211171561153857634e487b7160e01b83526041600452602483fd5b604052825160028110611549578283fd5b8152602083015161155981611acc565b806020830152506040830151604082015260608301516060820152608083015160808201528091505092915050565b600060408284031215611599578081fd5b6040516040810181811067ffffffffffffffff821117156115c857634e487b7160e01b83526041600452602483fd5b604052823581526020928301359281019290925250919050565b6000606082840312156115f3578081fd5b6040516060810181811067ffffffffffffffff8211171561162257634e487b7160e01b83526041600452602483fd5b604052825160038110611633578283fd5b8152602083810151908201526040928301519281019290925250919050565b600060208284031215611663578081fd5b5035919050565b6000806040838503121561167c578081fd5b50508035926020909101359150565b6000815180845260208085019450808401835b838110156116ba5781518752958201959082019060010161169e565b509495945050505050565b600681106116d5576116d5611ab6565b9052565b8051600281106116eb576116eb611ab6565b82526020818101516001600160a01b0316908301526040808201519083015260608082015190830152608090810151910152565b80516003811061173157611731611ab6565b825260208181015190830152604090810151910152565b6117538282516116c5565b6020810151602083015260408101516040830152606081015160608301526080810151608083015260a081015160a083015260c081015160c083015260e081015160e0830152610100808201518184015250610120808201518184015250610140808201516117c58285018215159052565b50505050565b80516001600160a01b0316825260006101406020830151602085015260408301516040850152606083015160608501526080830151608085015260a083015160a085015260c083015160c085015260e083015161183560e086018280518252602090810151910152565b506101008301518161012086015261184f8286018261168b565b95945050505050565b6020808252825182820181905260009190848201906040850190845b8181101561189a576118878385516116d9565b9284019260a09290920191600101611874565b50909695505050505050565b6040808252835182820181905260009190606090818501906020808901865b838110156118e8576118d885835161171f565b93850193908201906001016118c5565b50508683038188015287518084529281019350878101929150855b828110156119305761192085855180518252602090810151910152565b9385019392810192600101611903565b509298975050505050505050565b6020808252825182820181905260009190848201906040850190845b8181101561189a5761196d838551611748565b92840192610160929092019160010161195a565b6000602080830181845280855180835260408601915060408160051b8701019250838701855b828110156119d557603f198886030184526119c38583516117cb565b945092850192908501906001016119a7565b5092979650505050505050565b60a0810161069c82846116d9565b81518152602080830151908201526040810161069c565b6060810161069c828461171f565b610160810161069c8284611748565b6020815260006114f160208301846117cb565b60008219821115611a4a57611a4a611aa0565b500190565b6000816000190483118215151615611a6957611a69611aa0565b500290565b600082821015611a8057611a80611aa0565b500390565b6000600019821415611a9957611a99611aa0565b5060010190565b634e487b7160e01b600052601160045260246000fd5b634e487b7160e01b600052602160045260246000fd5b6001600160a01b0381168114611ae157600080fd5b5056fea2646970667358221220e05fdd5c51538be5a3a3a07718cc893bdf555ea5d98524c129e010a0c372ead964736f6c63430008040033",
    "linkReferences": {
      "contracts/libraries/GameUtil.sol": {
        "Util": [
          {
            "start": 1790,
            "length": 20
          },
          {
            "start": 2701,
            "length": 20
          },
          {
            "start": 2881,
            "length": 20
          },
          {
            "start": 3191,
            "length": 20
          }
        ]
      }
    }
  },
  "methodIdentifiers": {
    "bulkGetAllTroops()": "fa5ba3fb",
    "getBase(uint256)": "b278cc4a",
    "getBaseAt((uint256,uint256))": "969f14ac",
    "getBaseNonce()": "2fb5ac32",
    "getBulkBase(uint256,uint256)": "3c763c92",
    "getBulkTroopTypes(uint256,uint256)": "fbde0b9e",
    "getEpoch()": "757991a8",
    "getMapChunk((uint256,uint256))": "ef51ddf1",
    "getPlayer(address)": "5c12cd4b",
    "getTileAt((uint256,uint256))": "898ce75c",
    "getTroop(uint256)": "785b4724",
    "getTroopAt((uint256,uint256))": "4c40951e",
    "getTroopType(uint256)": "7239d5ca",
    "getWorldConstants()": "21c3b522"
  },
  "id": 4
}