{
  "abi": [
    {
      "inputs": [
        {
          "components": [
            {
              "internalType": "uint256",
              "name": "x",
              "type": "uint256"
            },
            {
              "internalType": "uint256",
              "name": "y",
              "type": "uint256"
            }
          ],
          "internalType": "struct Position",
          "name": "_pos",
          "type": "tuple"
        }
      ],
      "name": "_getMapChunk",
      "outputs": [
        {
          "components": [
            {
              "internalType": "enum TERRAIN",
              "name": "terrain",
              "type": "uint8"
            },
            {
              "internalType": "uint256",
              "name": "occupantId",
              "type": "uint256"
            },
            {
              "internalType": "uint256",
              "name": "baseId",
              "type": "uint256"
            }
          ],
          "internalType": "struct Tile[]",
          "name": "",
          "type": "tuple[]"
        },
        {
          "components": [
            {
              "internalType": "uint256",
              "name": "x",
              "type": "uint256"
            },
            {
              "internalType": "uint256",
              "name": "y",
              "type": "uint256"
            }
          ],
          "internalType": "struct Position[]",
          "name": "",
          "type": "tuple[]"
        }
      ],
      "stateMutability": "view",
      "type": "function"
    },
    {
      "inputs": [],
      "name": "_getSample",
      "outputs": [
        {
          "internalType": "uint256",
          "name": "",
          "type": "uint256"
        }
      ],
      "stateMutability": "view",
      "type": "function"
    },
    {
      "inputs": [
        {
          "components": [
            {
              "internalType": "uint256",
              "name": "x",
              "type": "uint256"
            },
            {
              "internalType": "uint256",
              "name": "y",
              "type": "uint256"
            }
          ],
          "internalType": "struct Position",
          "name": "_pos",
          "type": "tuple"
        }
      ],
      "name": "_getTroopAt",
      "outputs": [
        {
          "components": [
            {
              "internalType": "address",
              "name": "owner",
              "type": "address"
            },
            {
              "internalType": "uint256",
              "name": "troopTypeId",
              "type": "uint256"
            },
            {
              "internalType": "uint256",
              "name": "lastMoved",
              "type": "uint256"
            },
            {
              "internalType": "uint256",
              "name": "lastAttacked",
              "type": "uint256"
            },
            {
              "internalType": "uint256",
              "name": "lastRepaired",
              "type": "uint256"
            },
            {
              "internalType": "uint256",
              "name": "health",
              "type": "uint256"
            },
            {
              "components": [
                {
                  "internalType": "uint256",
                  "name": "x",
                  "type": "uint256"
                },
                {
                  "internalType": "uint256",
                  "name": "y",
                  "type": "uint256"
                }
              ],
              "internalType": "struct Position",
              "name": "pos",
              "type": "tuple"
            },
            {
              "internalType": "uint256[]",
              "name": "cargoTroopIds",
              "type": "uint256[]"
            }
          ],
          "internalType": "struct Troop",
          "name": "",
          "type": "tuple"
        }
      ],
      "stateMutability": "view",
      "type": "function"
    },
    {
      "inputs": [],
      "name": "bulkGetAllTroops",
      "outputs": [
        {
          "components": [
            {
              "internalType": "address",
              "name": "owner",
              "type": "address"
            },
            {
              "internalType": "uint256",
              "name": "troopTypeId",
              "type": "uint256"
            },
            {
              "internalType": "uint256",
              "name": "lastMoved",
              "type": "uint256"
            },
            {
              "internalType": "uint256",
              "name": "lastAttacked",
              "type": "uint256"
            },
            {
              "internalType": "uint256",
              "name": "lastRepaired",
              "type": "uint256"
            },
            {
              "internalType": "uint256",
              "name": "health",
              "type": "uint256"
            },
            {
              "components": [
                {
                  "internalType": "uint256",
                  "name": "x",
                  "type": "uint256"
                },
                {
                  "internalType": "uint256",
                  "name": "y",
                  "type": "uint256"
                }
              ],
              "internalType": "struct Position",
              "name": "pos",
              "type": "tuple"
            },
            {
              "internalType": "uint256[]",
              "name": "cargoTroopIds",
              "type": "uint256[]"
            }
          ],
          "internalType": "struct Troop[]",
          "name": "",
          "type": "tuple[]"
        }
      ],
      "stateMutability": "view",
      "type": "function"
    }
  ],
  "bytecode": {
    "object": "0x608060405234801561001057600080fd5b50610b69806100206000396000f3fe608060405234801561001057600080fd5b506004361061004c5760003560e01c8063863eaa0b14610051578063af248a3414610086578063d4db1684146100a7578063fa5ba3fb146100c7575b600080fd5b7f8d1bebda6a12a792ffba01f92494c5be0cd4ce8e2d8e46d2c616016d7e9ec3f4546040519081526020015b60405180910390f35b610099610094366004610802565b6100dc565b60405161007d9291906109c9565b6100ba6100b5366004610802565b6103ca565b60405161007d9190610ab1565b6100cf61055d565b60405161007d9190610a50565b7f8d1bebda6a12a792ffba01f92494c5be0cd4ce8e2d8e46d2c616016d7e70fd25546060908190600061010f8280610ae3565b67ffffffffffffffff81111561013557634e487b7160e01b600052604160045260246000fd5b60405190808252806020026020018201604052801561018b57816020015b6101786040805160608101909152806000815260200160008152602001600081525090565b8152602001906001900390816101535790505b509050600061019a8380610ae3565b67ffffffffffffffff8111156101c057634e487b7160e01b600052604160045260246000fd5b60405190808252806020026020018201604052801561020557816020015b60408051808201909152600080825260208201528152602001906001900390816101de5790505b5086519091506000905b875161021c908690610acb565b8110156103bd5760208801515b8589602001516102399190610acb565b8110156103aa57604080518082019091528281526020810182905289517f8d1bebda6a12a792ffba01f92494c5be0cd4ce8e2d8e46d2c616016d7e70fd29906103e8811061029757634e487b7160e01b600052603260045260246000fd5b610bb802018a602001516103e881106102c057634e487b7160e01b600052603260045260246000fd5b6040805160608101909152600391909102919091018054829060ff1660028111156102fb57634e487b7160e01b600052602160045260246000fd5b600281111561031a57634e487b7160e01b600052602160045260246000fd5b81526020016001820154815260200160028201548152505086858151811061035257634e487b7160e01b600052603260045260246000fd5b60200260200101819052508085858151811061037e57634e487b7160e01b600052603260045260246000fd5b6020908102919091010152610394600185610acb565b93505080806103a290610b02565b915050610229565b50806103b581610b02565b91505061020f565b5091969095509350505050565b6103d2610799565b60405163342a412360e01b815282516004820152602083015160248201527f8d1bebda6a12a792ffba01f92494c5be0cd4ce8e2d8e46d2c616016d7e9ec3f19060009073__$8a461d6baeda20cc8b97c0d95fb84681dd$__9063342a41239060440160606040518083038186803b15801561044c57600080fd5b505af4158015610460573d6000803e3d6000fd5b505050506040513d601f19601f82011682018060405250810190610484919061085c565b602090810151825281810192909252604090810160002081516101008101835281546001600160a01b031681526001820154818501526002820154818401526003820154606082015260048201546080820152600582015460a0820152825180840184526006830154815260078301548186015260c08201526008820180548451818702810187019095528085529194929360e086019390929083018282801561054d57602002820191906000526020600020905b815481526020019060010190808311610539575b5050505050815250509050919050565b606060007f8d1bebda6a12a792ffba01f92494c5be0cd4ce8e2d8e46d2c616016d7e70fd20622dc6d0015467ffffffffffffffff8111156105ae57634e487b7160e01b600052604160045260246000fd5b6040519080825280602002602001820160405280156105e757816020015b6105d4610799565b8152602001906001900390816105cc5790505b50905060005b7f8d1bebda6a12a792ffba01f92494c5be0cd4ce8e2d8e46d2c616016d7e9ec3f054811015610793577f8d1bebda6a12a792ffba01f92494c5be0cd4ce8e2d8e46d2c616016d7e9ec3ef80547f8d1bebda6a12a792ffba01f92494c5be0cd4ce8e2d8e46d2c616016d7e9ec3f1916000918490811061067c57634e487b7160e01b600052603260045260246000fd5b60009182526020808320909101548352828101939093526040918201902081516101008101835281546001600160a01b031681526001820154818501526002820154818401526003820154606082015260048201546080820152600582015460a0820152825180840184526006830154815260078301548186015260c08201526008820180548451818702810187019095528085529194929360e086019390929083018282801561074c57602002820191906000526020600020905b815481526020019060010190808311610738575b50505050508152505082828151811061077557634e487b7160e01b600052603260045260246000fd5b6020026020010181905250808061078b90610b02565b9150506105ed565b50919050565b60405180610100016040528060006001600160a01b0316815260200160008152602001600081526020016000815260200160008152602001600081526020016107f5604051806040016040528060008152602001600081525090565b8152602001606081525090565b600060408284031215610813578081fd5b6040516040810181811067ffffffffffffffff8211171561084257634e487b7160e01b83526041600452602483fd5b604052823581526020928301359281019290925250919050565b60006060828403121561086d578081fd5b6040516060810181811067ffffffffffffffff8211171561089c57634e487b7160e01b83526041600452602483fd5b6040528251600381106108ad578283fd5b8152602083810151908201526040928301519281019290925250919050565b6000815180845260208085019450808401835b8381101561090f576108fc87835180518252602090810151910152565b60409690960195908201906001016108df565b509495945050505050565b600061012080840160018060a01b0384511685526020808501518187015260408501516040870152606085015160608701526080850151608087015260a085015160a087015260c085015161097c60c088018280518252602090810151910152565b5060e085015161010087019390935282519182905261014086019281019184905b808210156109bd578351855293820193928201926001919091019061099d565b50929695505050505050565b6040808252835182820181905260009190606090818501906020808901865b83811015610a31578151805160038110610a1057634e487b7160e01b8a52602160045260248afd5b865280840151848701528701518786015293850193908201906001016109e8565b50508683039087015250610a4581876108cc565b979650505050505050565b6000602080830181845280855180835260408601915060408160051b8701019250838701855b82811015610aa457603f19888603018452610a9285835161091a565b94509285019290850190600101610a76565b5092979650505050505050565b602081526000610ac4602083018461091a565b9392505050565b60008219821115610ade57610ade610b1d565b500190565b6000816000190483118215151615610afd57610afd610b1d565b500290565b6000600019821415610b1657610b16610b1d565b5060010190565b634e487b7160e01b600052601160045260246000fdfea264697066735822122018673eb30c556cb95e93dda452b976c83ade2b202f25eb23dcd89071c5041d5964736f6c63430008040033",
    "linkReferences": {
      "contracts/libraries/GameUtil.sol": {
        "Util": [
          {
            "start": 1079,
            "length": 20
          }
        ]
      }
    }
  },
  "methodIdentifiers": {
    "_getMapChunk((uint256,uint256))": "af248a34",
    "_getSample()": "863eaa0b",
    "_getTroopAt((uint256,uint256))": "d4db1684",
    "bulkGetAllTroops()": "fa5ba3fb"
  },
  "id": 4
}