{
  "abi": [
    {
      "inputs": [
        {
          "components": [
            {
              "internalType": "uint256",
              "name": "x",
              "type": "uint256"
            },
            {
              "internalType": "uint256",
              "name": "y",
              "type": "uint256"
            }
          ],
          "internalType": "struct Position",
          "name": "_pos",
          "type": "tuple"
        }
      ],
      "name": "_getMapChunk",
      "outputs": [
        {
          "components": [
            {
              "internalType": "enum TERRAIN",
              "name": "terrain",
              "type": "uint8"
            },
            {
              "internalType": "uint256",
              "name": "occupantId",
              "type": "uint256"
            },
            {
              "internalType": "uint256",
              "name": "baseId",
              "type": "uint256"
            }
          ],
          "internalType": "struct Tile[]",
          "name": "",
          "type": "tuple[]"
        },
        {
          "components": [
            {
              "internalType": "uint256",
              "name": "x",
              "type": "uint256"
            },
            {
              "internalType": "uint256",
              "name": "y",
              "type": "uint256"
            }
          ],
          "internalType": "struct Position[]",
          "name": "",
          "type": "tuple[]"
        }
      ],
      "stateMutability": "view",
      "type": "function"
    },
    {
      "inputs": [
        {
          "components": [
            {
              "internalType": "uint256",
              "name": "x",
              "type": "uint256"
            },
            {
              "internalType": "uint256",
              "name": "y",
              "type": "uint256"
            }
          ],
          "internalType": "struct Position",
          "name": "_pos",
          "type": "tuple"
        }
      ],
      "name": "_getTroopAt",
      "outputs": [
        {
          "components": [
            {
              "internalType": "address",
              "name": "owner",
              "type": "address"
            },
            {
              "internalType": "uint256",
              "name": "troopTypeId",
              "type": "uint256"
            },
            {
              "internalType": "uint256",
              "name": "lastMoved",
              "type": "uint256"
            },
            {
              "internalType": "uint256",
              "name": "movesLeftInEpoch",
              "type": "uint256"
            },
            {
              "internalType": "uint256",
              "name": "lastAttacked",
              "type": "uint256"
            },
            {
              "internalType": "uint256",
              "name": "lastRepaired",
              "type": "uint256"
            },
            {
              "internalType": "uint256",
              "name": "health",
              "type": "uint256"
            },
            {
              "components": [
                {
                  "internalType": "uint256",
                  "name": "x",
                  "type": "uint256"
                },
                {
                  "internalType": "uint256",
                  "name": "y",
                  "type": "uint256"
                }
              ],
              "internalType": "struct Position",
              "name": "pos",
              "type": "tuple"
            },
            {
              "internalType": "uint256[]",
              "name": "cargoTroopIds",
              "type": "uint256[]"
            }
          ],
          "internalType": "struct Troop",
          "name": "",
          "type": "tuple"
        }
      ],
      "stateMutability": "view",
      "type": "function"
    },
    {
      "inputs": [],
      "name": "_getWorldConstants",
      "outputs": [
        {
          "components": [
            {
              "internalType": "address",
              "name": "admin",
              "type": "address"
            },
            {
              "internalType": "uint256",
              "name": "worldWidth",
              "type": "uint256"
            },
            {
              "internalType": "uint256",
              "name": "worldHeight",
              "type": "uint256"
            },
            {
              "internalType": "uint256",
              "name": "numPorts",
              "type": "uint256"
            },
            {
              "internalType": "uint256",
              "name": "numCities",
              "type": "uint256"
            },
            {
              "internalType": "uint256",
              "name": "mapInterval",
              "type": "uint256"
            },
            {
              "internalType": "uint256",
              "name": "secondsPerTurn",
              "type": "uint256"
            }
          ],
          "internalType": "struct WorldConstants",
          "name": "",
          "type": "tuple"
        }
      ],
      "stateMutability": "view",
      "type": "function"
    },
    {
      "inputs": [],
      "name": "bulkGetAllTroops",
      "outputs": [
        {
          "components": [
            {
              "internalType": "address",
              "name": "owner",
              "type": "address"
            },
            {
              "internalType": "uint256",
              "name": "troopTypeId",
              "type": "uint256"
            },
            {
              "internalType": "uint256",
              "name": "lastMoved",
              "type": "uint256"
            },
            {
              "internalType": "uint256",
              "name": "movesLeftInEpoch",
              "type": "uint256"
            },
            {
              "internalType": "uint256",
              "name": "lastAttacked",
              "type": "uint256"
            },
            {
              "internalType": "uint256",
              "name": "lastRepaired",
              "type": "uint256"
            },
            {
              "internalType": "uint256",
              "name": "health",
              "type": "uint256"
            },
            {
              "components": [
                {
                  "internalType": "uint256",
                  "name": "x",
                  "type": "uint256"
                },
                {
                  "internalType": "uint256",
                  "name": "y",
                  "type": "uint256"
                }
              ],
              "internalType": "struct Position",
              "name": "pos",
              "type": "tuple"
            },
            {
              "internalType": "uint256[]",
              "name": "cargoTroopIds",
              "type": "uint256[]"
            }
          ],
          "internalType": "struct Troop[]",
          "name": "",
          "type": "tuple[]"
        }
      ],
      "stateMutability": "view",
      "type": "function"
    }
  ],
  "bytecode": {
    "object": "0x608060405234801561001057600080fd5b50610d39806100206000396000f3fe608060405234801561001057600080fd5b506004361061004c5760003560e01c80632e22b84314610051578063af248a34146100bc578063d4db1684146100dd578063fa5ba3fb146100fd575b600080fd5b610059610112565b6040516100b3919081516001600160a01b031681526020808301519082015260408083015190820152606080830151908201526080808301519082015260a0828101519082015260c0918201519181019190915260e00190565b60405180910390f35b6100cf6100ca3660046109c5565b610282565b6040516100b3929190610b99565b6100f06100eb3660046109c5565b610570565b6040516100b39190610c81565b61010561070e565b6040516100b39190610c20565b61015b6040518060e0016040528060006001600160a01b031681526020016000815260200160008152602001600081526020016000815260200160008152602001600081525090565b506040805160e0810182527f8d1bebda6a12a792ffba01f92494c5be0cd4ce8e2d8e46d2c616016d7e70fd20546001600160a01b031681527f8d1bebda6a12a792ffba01f92494c5be0cd4ce8e2d8e46d2c616016d7e70fd215460208201527f8d1bebda6a12a792ffba01f92494c5be0cd4ce8e2d8e46d2c616016d7e70fd2254918101919091527f8d1bebda6a12a792ffba01f92494c5be0cd4ce8e2d8e46d2c616016d7e70fd235460608201527f8d1bebda6a12a792ffba01f92494c5be0cd4ce8e2d8e46d2c616016d7e70fd245460808201527f8d1bebda6a12a792ffba01f92494c5be0cd4ce8e2d8e46d2c616016d7e70fd255460a08201527f8d1bebda6a12a792ffba01f92494c5be0cd4ce8e2d8e46d2c616016d7e70fd265460c082015290565b7f8d1bebda6a12a792ffba01f92494c5be0cd4ce8e2d8e46d2c616016d7e70fd2554606090819060006102b58280610cb3565b67ffffffffffffffff8111156102db57634e487b7160e01b600052604160045260246000fd5b60405190808252806020026020018201604052801561033157816020015b61031e6040805160608101909152806000815260200160008152602001600081525090565b8152602001906001900390816102f95790505b50905060006103408380610cb3565b67ffffffffffffffff81111561036657634e487b7160e01b600052604160045260246000fd5b6040519080825280602002602001820160405280156103ab57816020015b60408051808201909152600080825260208201528152602001906001900390816103845790505b5086519091506000905b87516103c2908690610c9b565b8110156105635760208801515b8589602001516103df9190610c9b565b81101561055057604080518082019091528281526020810182905289517f8d1bebda6a12a792ffba01f92494c5be0cd4ce8e2d8e46d2c616016d7e70fd29906103e8811061043d57634e487b7160e01b600052603260045260246000fd5b610bb802018a602001516103e8811061046657634e487b7160e01b600052603260045260246000fd5b6040805160608101909152600391909102919091018054829060ff1660028111156104a157634e487b7160e01b600052602160045260246000fd5b60028111156104c057634e487b7160e01b600052602160045260246000fd5b8152602001600182015481526020016002820154815250508685815181106104f857634e487b7160e01b600052603260045260246000fd5b60200260200101819052508085858151811061052457634e487b7160e01b600052603260045260246000fd5b602090810291909101015261053a600185610c9b565b935050808061054890610cd2565b9150506103cf565b508061055b81610cd2565b9150506103b5565b5091969095509350505050565b610578610955565b60405163342a412360e01b815282516004820152602083015160248201527f8d1bebda6a12a792ffba01f92494c5be0cd4ce8e2d8e46d2c616016d7e9ec3f19060009073__$8a461d6baeda20cc8b97c0d95fb84681dd$__9063342a41239060440160606040518083038186803b1580156105f257600080fd5b505af4158015610606573d6000803e3d6000fd5b505050506040513d601f19601f8201168201806040525081019061062a9190610a1f565b602090810151825281810192909252604090810160002081516101208101835281546001600160a01b031681526001820154818501526002820154818401526003820154606082015260048201546080820152600582015460a0820152600682015460c0820152825180840184526007830154815260088301548186015260e0820152600982018054845181870281018701909552808552919492936101008601939092908301828280156106fe57602002820191906000526020600020905b8154815260200190600101908083116106ea575b5050505050815250509050919050565b606060007f8d1bebda6a12a792ffba01f92494c5be0cd4ce8e2d8e46d2c616016d7e70fd20622dc6d0015467ffffffffffffffff81111561075f57634e487b7160e01b600052604160045260246000fd5b60405190808252806020026020018201604052801561079857816020015b610785610955565b81526020019060019003908161077d5790505b50905060005b7f8d1bebda6a12a792ffba01f92494c5be0cd4ce8e2d8e46d2c616016d7e9ec3f05481101561094f577f8d1bebda6a12a792ffba01f92494c5be0cd4ce8e2d8e46d2c616016d7e9ec3ef80547f8d1bebda6a12a792ffba01f92494c5be0cd4ce8e2d8e46d2c616016d7e9ec3f1916000918490811061082d57634e487b7160e01b600052603260045260246000fd5b60009182526020808320909101548352828101939093526040918201902081516101208101835281546001600160a01b031681526001820154818501526002820154818401526003820154606082015260048201546080820152600582015460a0820152600682015460c0820152825180840184526007830154815260088301548186015260e08201526009820180548451818702810187019095528085529194929361010086019390929083018282801561090857602002820191906000526020600020905b8154815260200190600101908083116108f4575b50505050508152505082828151811061093157634e487b7160e01b600052603260045260246000fd5b6020026020010181905250808061094790610cd2565b91505061079e565b50919050565b60405180610120016040528060006001600160a01b031681526020016000815260200160008152602001600081526020016000815260200160008152602001600081526020016109b8604051806040016040528060008152602001600081525090565b8152602001606081525090565b6000604082840312156109d6578081fd5b6040516040810181811067ffffffffffffffff82111715610a0557634e487b7160e01b83526041600452602483fd5b604052823581526020928301359281019290925250919050565b600060608284031215610a30578081fd5b6040516060810181811067ffffffffffffffff82111715610a5f57634e487b7160e01b83526041600452602483fd5b604052825160038110610a70578283fd5b8152602083810151908201526040928301519281019290925250919050565b6000815180845260208085019450808401835b83811015610ad257610abf87835180518252602090810151910152565b6040969096019590820190600101610aa2565b509495945050505050565b6000815180845260208085019450808401835b83811015610ad257815187529582019590820190600101610af0565b80516001600160a01b0316825260006101406020830151602085015260408301516040850152606083015160608501526080830151608085015260a083015160a085015260c083015160c085015260e0830151610b7660e086018280518252602090810151910152565b5061010083015181610120860152610b9082860182610add565b95945050505050565b6040808252835182820181905260009190606090818501906020808901865b83811015610c01578151805160038110610be057634e487b7160e01b8a52602160045260248afd5b86528084015184870152870151878601529385019390820190600101610bb8565b50508683039087015250610c158187610a8f565b979650505050505050565b6000602080830181845280855180835260408601915060408160051b8701019250838701855b82811015610c7457603f19888603018452610c62858351610b0c565b94509285019290850190600101610c46565b5092979650505050505050565b602081526000610c946020830184610b0c565b9392505050565b60008219821115610cae57610cae610ced565b500190565b6000816000190483118215151615610ccd57610ccd610ced565b500290565b6000600019821415610ce657610ce6610ced565b5060010190565b634e487b7160e01b600052601160045260246000fdfea2646970667358221220b426f3db43c4710cb324b4983f6976176ad776de3efd8203626d28409634fdf964736f6c63430008040033",
    "linkReferences": {
      "contracts/libraries/GameUtil.sol": {
        "Util": [
          {
            "start": 1501,
            "length": 20
          }
        ]
      }
    }
  },
  "methodIdentifiers": {
    "_getMapChunk((uint256,uint256))": "af248a34",
    "_getTroopAt((uint256,uint256))": "d4db1684",
    "_getWorldConstants()": "2e22b843",
    "bulkGetAllTroops()": "fa5ba3fb"
  },
  "id": 4
}