{
  "abi": [
    {
      "inputs": [
        {
          "components": [
            {
              "internalType": "uint256",
              "name": "x",
              "type": "uint256"
            },
            {
              "internalType": "uint256",
              "name": "y",
              "type": "uint256"
            }
          ],
          "internalType": "struct Position",
          "name": "_pos",
          "type": "tuple"
        }
      ],
      "name": "_getMapChunk",
      "outputs": [
        {
          "components": [
            {
              "internalType": "enum Terrain",
              "name": "terrain",
              "type": "uint8"
            },
            {
              "internalType": "uint256",
              "name": "occupantId",
              "type": "uint256"
            },
            {
              "internalType": "uint256",
              "name": "baseId",
              "type": "uint256"
            }
          ],
          "internalType": "struct Tile[]",
          "name": "",
          "type": "tuple[]"
        },
        {
          "components": [
            {
              "internalType": "uint256",
              "name": "x",
              "type": "uint256"
            },
            {
              "internalType": "uint256",
              "name": "y",
              "type": "uint256"
            }
          ],
          "internalType": "struct Position[]",
          "name": "",
          "type": "tuple[]"
        }
      ],
      "stateMutability": "view",
      "type": "function"
    },
    {
      "inputs": [],
      "name": "_getSample",
      "outputs": [
        {
          "internalType": "uint256",
          "name": "",
          "type": "uint256"
        }
      ],
      "stateMutability": "view",
      "type": "function"
    },
    {
      "inputs": [],
      "name": "bulkGetAllTroops",
      "outputs": [
        {
          "components": [
            {
              "internalType": "address",
              "name": "owner",
              "type": "address"
            },
            {
              "internalType": "uint256",
              "name": "troopTypeId",
              "type": "uint256"
            },
            {
              "internalType": "uint256",
              "name": "lastMoved",
              "type": "uint256"
            },
            {
              "internalType": "uint256",
              "name": "lastAttacked",
              "type": "uint256"
            },
            {
              "internalType": "uint256",
              "name": "health",
              "type": "uint256"
            },
            {
              "components": [
                {
                  "internalType": "uint256",
                  "name": "x",
                  "type": "uint256"
                },
                {
                  "internalType": "uint256",
                  "name": "y",
                  "type": "uint256"
                }
              ],
              "internalType": "struct Position",
              "name": "pos",
              "type": "tuple"
            },
            {
              "internalType": "uint256[]",
              "name": "cargoTroopIds",
              "type": "uint256[]"
            }
          ],
          "internalType": "struct Troop[]",
          "name": "",
          "type": "tuple[]"
        }
      ],
      "stateMutability": "view",
      "type": "function"
    }
  ],
  "bytecode": {
    "object": "0x608060405234801561001057600080fd5b506108e8806100206000396000f3fe608060405234801561001057600080fd5b50600436106100415760003560e01c8063863eaa0b14610046578063af248a341461007b578063fa5ba3fb1461009c575b600080fd5b7f8d1bebda6a12a792ffba01f92494c5be0cd4ce8e2d8e46d2c616016d7e9ec3f2546040519081526020015b60405180910390f35b61008e610089366004610631565b6100b1565b6040516100729291906106d9565b6100a461039f565b6040516100729190610760565b7f8d1bebda6a12a792ffba01f92494c5be0cd4ce8e2d8e46d2c616016d7e70fd2354606090819060006100e48280610862565b67ffffffffffffffff81111561010a57634e487b7160e01b600052604160045260246000fd5b60405190808252806020026020018201604052801561016057816020015b61014d6040805160608101909152806000815260200160008152602001600081525090565b8152602001906001900390816101285790505b509050600061016f8380610862565b67ffffffffffffffff81111561019557634e487b7160e01b600052604160045260246000fd5b6040519080825280602002602001820160405280156101da57816020015b60408051808201909152600080825260208201528152602001906001900390816101b35790505b5086519091506000905b87516101f190869061084a565b8110156103925760208801515b85896020015161020e919061084a565b81101561037f57604080518082019091528281526020810182905289517f8d1bebda6a12a792ffba01f92494c5be0cd4ce8e2d8e46d2c616016d7e70fd28906103e8811061026c57634e487b7160e01b600052603260045260246000fd5b610bb802018a602001516103e8811061029557634e487b7160e01b600052603260045260246000fd5b6040805160608101909152600391909102919091018054829060ff1660028111156102d057634e487b7160e01b600052602160045260246000fd5b60028111156102ef57634e487b7160e01b600052602160045260246000fd5b81526020016001820154815260200160028201548152505086858151811061032757634e487b7160e01b600052603260045260246000fd5b60200260200101819052508085858151811061035357634e487b7160e01b600052603260045260246000fd5b602090810291909101015261036960018561084a565b935050808061037790610881565b9150506101fe565b508061038a81610881565b9150506101e4565b5091969095509350505050565b606060007f8d1bebda6a12a792ffba01f92494c5be0cd4ce8e2d8e46d2c616016d7e70fd20622dc6ce015467ffffffffffffffff8111156103f057634e487b7160e01b600052604160045260246000fd5b60405190808252806020026020018201604052801561042957816020015b6104166105d0565b81526020019060019003908161040e5790505b50905060005b7f8d1bebda6a12a792ffba01f92494c5be0cd4ce8e2d8e46d2c616016d7e9ec3ee548110156105ca577f8d1bebda6a12a792ffba01f92494c5be0cd4ce8e2d8e46d2c616016d7e9ec3ed80547f8d1bebda6a12a792ffba01f92494c5be0cd4ce8e2d8e46d2c616016d7e9ec3ef91600091849081106104be57634e487b7160e01b600052603260045260246000fd5b600091825260208083209091015483528281019390935260409182019020815160e08101835281546001600160a01b031681526001820154818501526002820154818401526003820154606082015260048201546080820152825180840184526005830154815260068301548186015260a08201526007820180548451818702810187019095528085529194929360c086019390929083018282801561058357602002820191906000526020600020905b81548152602001906001019080831161056f575b5050505050815250508282815181106105ac57634e487b7160e01b600052603260045260246000fd5b602002602001018190525080806105c290610881565b91505061042f565b50919050565b6040518060e0016040528060006001600160a01b0316815260200160008152602001600081526020016000815260200160008152602001610624604051806040016040528060008152602001600081525090565b8152602001606081525090565b600060408284031215610642578081fd5b6040516040810181811067ffffffffffffffff8211171561067157634e487b7160e01b83526041600452602483fd5b604052823581526020928301359281019290925250919050565b6000815180845260208085019450808401835b838110156106ce576106bb87835180518252602090810151910152565b604096909601959082019060010161069e565b509495945050505050565b6040808252835182820181905260009190606090818501906020808901865b8381101561074157815180516003811061072057634e487b7160e01b8a52602160045260248afd5b865280840151848701528701518786015293850193908201906001016106f8565b50508683039087015250610755818761068b565b979650505050505050565b60006020808301818452808551808352604092508286019150828160051b870101848801865b8381101561083c57888303603f19018552815180516001600160a01b0316845287810151888501528681015187850152606080820151908501526080808201519085015260a0808201518051918601919091526020015160c080860191909152015161010060e085018190528151908501819052908801906101208501908a905b808210156108275783518352928a0192918a019160019190910190610807565b50509588019593505090860190600101610786565b509098975050505050505050565b6000821982111561085d5761085d61089c565b500190565b600081600019048311821515161561087c5761087c61089c565b500290565b60006000198214156108955761089561089c565b5060010190565b634e487b7160e01b600052601160045260246000fdfea2646970667358221220a6bf64946c8645a09d6943bc0b951d4f403b74401daab6895f8dcf4a69e43a4c64736f6c63430008040033",
    "linkReferences": {}
  },
  "methodIdentifiers": {
    "_getMapChunk((uint256,uint256))": "af248a34",
    "_getSample()": "863eaa0b",
    "bulkGetAllTroops()": "fa5ba3fb"
  },
  "id": 5
}