{
  "abi": [
    {
      "inputs": [
        {
          "components": [
            {
              "internalType": "uint256",
              "name": "x",
              "type": "uint256"
            },
            {
              "internalType": "uint256",
              "name": "y",
              "type": "uint256"
            }
          ],
          "internalType": "struct Position",
          "name": "_pos",
          "type": "tuple"
        }
      ],
      "name": "_getBlockChunkData",
      "outputs": [
        {
          "components": [
            {
              "internalType": "uint256",
              "name": "blockId",
              "type": "uint256"
            },
            {
              "internalType": "uint256",
              "name": "health",
              "type": "uint256"
            },
            {
              "internalType": "address",
              "name": "owner",
              "type": "address"
            },
            {
              "internalType": "uint256",
              "name": "lastAttacked",
              "type": "uint256"
            },
            {
              "internalType": "uint256",
              "name": "lastMoved",
              "type": "uint256"
            },
            {
              "internalType": "bool",
              "name": "occupiable",
              "type": "bool"
            }
          ],
          "internalType": "struct BlockData[]",
          "name": "",
          "type": "tuple[]"
        },
        {
          "components": [
            {
              "internalType": "uint256",
              "name": "x",
              "type": "uint256"
            },
            {
              "internalType": "uint256",
              "name": "y",
              "type": "uint256"
            }
          ],
          "internalType": "struct Position[]",
          "name": "",
          "type": "tuple[]"
        }
      ],
      "stateMutability": "view",
      "type": "function"
    },
    {
      "inputs": [
        {
          "components": [
            {
              "internalType": "uint256",
              "name": "x",
              "type": "uint256"
            },
            {
              "internalType": "uint256",
              "name": "y",
              "type": "uint256"
            }
          ],
          "internalType": "struct Position",
          "name": "_pos",
          "type": "tuple"
        }
      ],
      "name": "_getBlockDataAtPos",
      "outputs": [
        {
          "components": [
            {
              "internalType": "uint256",
              "name": "blockId",
              "type": "uint256"
            },
            {
              "internalType": "uint256",
              "name": "health",
              "type": "uint256"
            },
            {
              "internalType": "address",
              "name": "owner",
              "type": "address"
            },
            {
              "internalType": "uint256",
              "name": "lastAttacked",
              "type": "uint256"
            },
            {
              "internalType": "uint256",
              "name": "lastMoved",
              "type": "uint256"
            },
            {
              "internalType": "bool",
              "name": "occupiable",
              "type": "bool"
            }
          ],
          "internalType": "struct BlockData",
          "name": "",
          "type": "tuple"
        }
      ],
      "stateMutability": "view",
      "type": "function"
    },
    {
      "inputs": [],
      "name": "_getCurrentEpoch",
      "outputs": [
        {
          "internalType": "uint256",
          "name": "",
          "type": "uint256"
        }
      ],
      "stateMutability": "view",
      "type": "function"
    },
    {
      "inputs": [
        {
          "internalType": "address",
          "name": "_player",
          "type": "address"
        }
      ],
      "name": "_getInventoryByPlayer",
      "outputs": [
        {
          "components": [
            {
              "internalType": "uint256[]",
              "name": "craftItemIds",
              "type": "uint256[]"
            },
            {
              "internalType": "uint256[]",
              "name": "craftItemAmounts",
              "type": "uint256[]"
            }
          ],
          "internalType": "struct Recipe",
          "name": "",
          "type": "tuple"
        }
      ],
      "stateMutability": "view",
      "type": "function"
    },
    {
      "inputs": [
        {
          "components": [
            {
              "internalType": "uint256",
              "name": "x",
              "type": "uint256"
            },
            {
              "internalType": "uint256",
              "name": "y",
              "type": "uint256"
            }
          ],
          "internalType": "struct Position",
          "name": "_pos",
          "type": "tuple"
        }
      ],
      "name": "_getMap",
      "outputs": [
        {
          "components": [
            {
              "internalType": "address",
              "name": "occupier",
              "type": "address"
            },
            {
              "internalType": "uint256",
              "name": "worldBlockId",
              "type": "uint256"
            },
            {
              "internalType": "uint256",
              "name": "tileType",
              "type": "uint256"
            },
            {
              "internalType": "uint256",
              "name": "lastOccupied",
              "type": "uint256"
            },
            {
              "internalType": "uint256",
              "name": "tileContractId",
              "type": "uint256"
            }
          ],
          "internalType": "struct Tile[]",
          "name": "",
          "type": "tuple[]"
        },
        {
          "components": [
            {
              "internalType": "uint256",
              "name": "x",
              "type": "uint256"
            },
            {
              "internalType": "uint256",
              "name": "y",
              "type": "uint256"
            }
          ],
          "internalType": "struct Position[]",
          "name": "",
          "type": "tuple[]"
        }
      ],
      "stateMutability": "view",
      "type": "function"
    },
    {
      "inputs": [
        {
          "internalType": "address",
          "name": "_player",
          "type": "address"
        }
      ],
      "name": "_getPlayer",
      "outputs": [
        {
          "components": [
            {
              "internalType": "bool",
              "name": "initialized",
              "type": "bool"
            },
            {
              "internalType": "uint256",
              "name": "initTimestamp",
              "type": "uint256"
            },
            {
              "internalType": "address",
              "name": "playerAddr",
              "type": "address"
            },
            {
              "internalType": "uint256",
              "name": "health",
              "type": "uint256"
            },
            {
              "internalType": "uint256",
              "name": "reach",
              "type": "uint256"
            },
            {
              "internalType": "uint256",
              "name": "lastMoved",
              "type": "uint256"
            },
            {
              "components": [
                {
                  "internalType": "uint256",
                  "name": "x",
                  "type": "uint256"
                },
                {
                  "internalType": "uint256",
                  "name": "y",
                  "type": "uint256"
                }
              ],
              "internalType": "struct Position",
              "name": "position",
              "type": "tuple"
            }
          ],
          "internalType": "struct PlayerData",
          "name": "playerData",
          "type": "tuple"
        }
      ],
      "stateMutability": "view",
      "type": "function"
    },
    {
      "inputs": [
        {
          "components": [
            {
              "internalType": "uint256",
              "name": "x",
              "type": "uint256"
            },
            {
              "internalType": "uint256",
              "name": "y",
              "type": "uint256"
            }
          ],
          "internalType": "struct Position",
          "name": "_pos",
          "type": "tuple"
        }
      ],
      "name": "_getTileData",
      "outputs": [
        {
          "components": [
            {
              "internalType": "address",
              "name": "occupier",
              "type": "address"
            },
            {
              "internalType": "uint256",
              "name": "worldBlockId",
              "type": "uint256"
            },
            {
              "internalType": "uint256",
              "name": "tileType",
              "type": "uint256"
            },
            {
              "internalType": "uint256",
              "name": "lastOccupied",
              "type": "uint256"
            },
            {
              "internalType": "uint256",
              "name": "tileContractId",
              "type": "uint256"
            }
          ],
          "internalType": "struct Tile",
          "name": "",
          "type": "tuple"
        }
      ],
      "stateMutability": "view",
      "type": "function"
    },
    {
      "inputs": [
        {
          "internalType": "uint256",
          "name": "_worldBlockIdx",
          "type": "uint256"
        }
      ],
      "name": "_getWorldBlockData",
      "outputs": [
        {
          "components": [
            {
              "internalType": "uint256",
              "name": "blockId",
              "type": "uint256"
            },
            {
              "internalType": "uint256",
              "name": "health",
              "type": "uint256"
            },
            {
              "internalType": "address",
              "name": "owner",
              "type": "address"
            },
            {
              "internalType": "uint256",
              "name": "lastAttacked",
              "type": "uint256"
            },
            {
              "internalType": "uint256",
              "name": "lastMoved",
              "type": "uint256"
            },
            {
              "internalType": "bool",
              "name": "occupiable",
              "type": "bool"
            }
          ],
          "internalType": "struct BlockData",
          "name": "",
          "type": "tuple"
        }
      ],
      "stateMutability": "view",
      "type": "function"
    },
    {
      "inputs": [],
      "name": "_getWorldConstants",
      "outputs": [
        {
          "components": [
            {
              "internalType": "uint256",
              "name": "worldWidth",
              "type": "uint256"
            },
            {
              "internalType": "uint256",
              "name": "worldHeight",
              "type": "uint256"
            },
            {
              "internalType": "uint256",
              "name": "startPlayerHealth",
              "type": "uint256"
            },
            {
              "internalType": "uint256",
              "name": "startingReach",
              "type": "uint256"
            },
            {
              "internalType": "uint256",
              "name": "startingPlayerDefaultCurrencyAmount",
              "type": "uint256"
            },
            {
              "internalType": "uint256",
              "name": "playerMoveCooldown",
              "type": "uint256"
            },
            {
              "internalType": "uint256",
              "name": "getMapInterval",
              "type": "uint256"
            }
          ],
          "internalType": "struct WorldConstants",
          "name": "",
          "type": "tuple"
        }
      ],
      "stateMutability": "view",
      "type": "function"
    },
    {
      "inputs": [
        {
          "components": [
            {
              "internalType": "uint256",
              "name": "x",
              "type": "uint256"
            },
            {
              "internalType": "uint256",
              "name": "y",
              "type": "uint256"
            }
          ],
          "internalType": "struct Position",
          "name": "_pos",
          "type": "tuple"
        }
      ],
      "name": "_isOccupied",
      "outputs": [
        {
          "internalType": "bool",
          "name": "",
          "type": "bool"
        }
      ],
      "stateMutability": "view",
      "type": "function"
    },
    {
      "inputs": [],
      "name": "bulkGetAllItems",
      "outputs": [
        {
          "components": [
            {
              "internalType": "bool",
              "name": "mineable",
              "type": "bool"
            },
            {
              "internalType": "bool",
              "name": "craftable",
              "type": "bool"
            },
            {
              "internalType": "bool",
              "name": "occupiable",
              "type": "bool"
            },
            {
              "internalType": "uint256",
              "name": "health",
              "type": "uint256"
            },
            {
              "internalType": "uint256[]",
              "name": "mineItemIds",
              "type": "uint256[]"
            },
            {
              "internalType": "uint256[]",
              "name": "craftItemIds",
              "type": "uint256[]"
            },
            {
              "internalType": "uint256[]",
              "name": "craftItemAmounts",
              "type": "uint256[]"
            },
            {
              "internalType": "uint256",
              "name": "moveCooldown",
              "type": "uint256"
            },
            {
              "internalType": "uint256",
              "name": "attackDamage",
              "type": "uint256"
            },
            {
              "internalType": "uint256",
              "name": "attackRange",
              "type": "uint256"
            },
            {
              "internalType": "uint256",
              "name": "attackCooldown",
              "type": "uint256"
            },
            {
              "internalType": "bool",
              "name": "programmable",
              "type": "bool"
            },
            {
              "internalType": "string",
              "name": "abiEncoding",
              "type": "string"
            },
            {
              "internalType": "string",
              "name": "contractAddr",
              "type": "string"
            }
          ],
          "internalType": "struct Item[]",
          "name": "",
          "type": "tuple[]"
        }
      ],
      "stateMutability": "view",
      "type": "function"
    },
    {
      "inputs": [],
      "name": "bulkGetAllPlayerData",
      "outputs": [
        {
          "components": [
            {
              "internalType": "bool",
              "name": "initialized",
              "type": "bool"
            },
            {
              "internalType": "uint256",
              "name": "initTimestamp",
              "type": "uint256"
            },
            {
              "internalType": "address",
              "name": "playerAddr",
              "type": "address"
            },
            {
              "internalType": "uint256",
              "name": "health",
              "type": "uint256"
            },
            {
              "internalType": "uint256",
              "name": "reach",
              "type": "uint256"
            },
            {
              "internalType": "uint256",
              "name": "lastMoved",
              "type": "uint256"
            },
            {
              "components": [
                {
                  "internalType": "uint256",
                  "name": "x",
                  "type": "uint256"
                },
                {
                  "internalType": "uint256",
                  "name": "y",
                  "type": "uint256"
                }
              ],
              "internalType": "struct Position",
              "name": "position",
              "type": "tuple"
            }
          ],
          "internalType": "struct PlayerData[]",
          "name": "",
          "type": "tuple[]"
        }
      ],
      "stateMutability": "view",
      "type": "function"
    }
  ],
  "bytecode": {
    "object": "0x608060405234801561001057600080fd5b50611ce4806100206000396000f3fe608060405234801561001057600080fd5b50600436106100b45760003560e01c80637dbefbac116100715780637dbefbac146101b4578063a1088b6b146101c9578063c537e3e5146101df578063cdb74b0214610202578063f095277c14610223578063fab6a1b81461024357600080fd5b8063074a8016146100b95780632e22b843146100e257806332e08fea1461014057806350607fee146101605780636b7af8cb146101815780636d82e7bb146101a1575b600080fd5b6100cc6100c73660046116ae565b610258565b6040516100d99190611a96565b60405180910390f35b6100ea6102ea565b6040516100d99190600060e082019050825182526020830151602083015260408301516040830152606083015160608301526080830151608083015260a083015160a083015260c083015160c083015292915050565b61015361014e3660046111f3565b610448565b6040516100d99190611aa4565b61017361016e36600461155f565b6104dc565b6040516100d9929190611a22565b61019461018f36600461155f565b610752565b6040516100d99190611b0c565b6100cc6101af36600461155f565b6107e1565b6101bc610820565b6040516100d991906119d3565b6101d1610a1a565b6040519081526020016100d9565b6101f26101ed36600461155f565b610a9d565b60405190151581526020016100d9565b61021561021036600461155f565b610b27565b6040516100d992919061182a565b6102366102313660046111f3565b610d90565b6040516100d99190611aca565b61024b610e31565b6040516100d9919061188b565b610260610ffc565b6040516303a5400b60e11b81526004810183905273__$addd8c1c9a6687457e8e4f326e39dfd0da$__9063074a8016906024015b60c06040518083038186803b1580156102ac57600080fd5b505af41580156102c0573d6000803e3d6000fd5b505050506040513d601f19601f820116820180604052508101906102e491906112cb565b92915050565b61032a6040518060e00160405280600081526020016000815260200160008152602001600081526020016000815260200160008152602001600081525090565b506040805160e0810182527f8d1bebda6a12a792ffba01f92494c5be0cd4ce8e2d8e46d2c616016d7e70fd205481527f8d1bebda6a12a792ffba01f92494c5be0cd4ce8e2d8e46d2c616016d7e70fd215460208201527f8d1bebda6a12a792ffba01f92494c5be0cd4ce8e2d8e46d2c616016d7e70fd2254918101919091527f8d1bebda6a12a792ffba01f92494c5be0cd4ce8e2d8e46d2c616016d7e70fd235460608201527f8d1bebda6a12a792ffba01f92494c5be0cd4ce8e2d8e46d2c616016d7e70fd245460808201527f8d1bebda6a12a792ffba01f92494c5be0cd4ce8e2d8e46d2c616016d7e70fd255460a08201527f8d1bebda6a12a792ffba01f92494c5be0cd4ce8e2d8e46d2c616016d7e70fd265460c082015290565b61045061103d565b60405163197047f560e11b81526001600160a01b038316600482015273__$addd8c1c9a6687457e8e4f326e39dfd0da$__906332e08fea906024016101006040518083038186803b1580156104a457600080fd5b505af41580156104b8573d6000803e3d6000fd5b505050506040513d601f19601f820116820180604052508101906102e491906114c7565b7f8d1bebda6a12a792ffba01f92494c5be0cd4ce8e2d8e46d2c616016d7e70fd26546060908190600061050f8280611c00565b6001600160401b0381111561053457634e487b7160e01b600052604160045260246000fd5b60405190808252806020026020018201604052801561056d57816020015b61055a61109f565b8152602001906001900390816105525790505b509050600061057c8380611c00565b6001600160401b038111156105a157634e487b7160e01b600052604160045260246000fd5b6040519080825280602002602001820160405280156105e657816020015b60408051808201909152600080825260208201528152602001906001900390816105bf5790505b5086519091506000905b87516105fd908690611be8565b8110156107455760208801515b85896020015161061a9190611be8565b8110156107325760408051808201825283815260208101839052905163ee8bc57960e01b815273__$addd8c1c9a6687457e8e4f326e39dfd0da$__9063ee8bc5799061066a908490600401611ab3565b60a06040518083038186803b15801561068257600080fd5b505af4158015610696573d6000803e3d6000fd5b505050506040513d601f19601f820116820180604052508101906106ba9190611637565b8685815181106106da57634e487b7160e01b600052603260045260246000fd5b60200260200101819052508085858151811061070657634e487b7160e01b600052603260045260246000fd5b602090810291909101015261071c600185611be8565b935050808061072a90611c4f565b91505061060a565b508061073d81611c4f565b9150506105f0565b5091969095509350505050565b61075a61109f565b60405163ee8bc57960e01b815273__$addd8c1c9a6687457e8e4f326e39dfd0da$__9063ee8bc57990610791908590600401611ab3565b60a06040518083038186803b1580156107a957600080fd5b505af41580156107bd573d6000803e3d6000fd5b505050506040513d601f19601f820116820180604052508101906102e49190611637565b6107e9610ffc565b604051638ca0796f60e01b815273__$addd8c1c9a6687457e8e4f326e39dfd0da$__90638ca0796f90610294908590600401611ab3565b6060600073__$addd8c1c9a6687457e8e4f326e39dfd0da$__633f261e076040518163ffffffff1660e01b815260040160006040518083038186803b15801561086857600080fd5b505af415801561087c573d6000803e3d6000fd5b505050506040513d6000823e601f3d908101601f191682016040526108a49190810190611216565b9050600081516001600160401b038111156108cf57634e487b7160e01b600052604160045260246000fd5b60405190808252806020026020018201604052801561090857816020015b6108f561103d565b8152602001906001900390816108ed5790505b50905060005b8251811015610a135773__$addd8c1c9a6687457e8e4f326e39dfd0da$__6332e08fea84838151811061095157634e487b7160e01b600052603260045260246000fd5b60200260200101516040518263ffffffff1660e01b815260040161098491906001600160a01b0391909116815260200190565b6101006040518083038186803b15801561099d57600080fd5b505af41580156109b1573d6000803e3d6000fd5b505050506040513d601f19601f820116820180604052508101906109d591906114c7565b8282815181106109f557634e487b7160e01b600052603260045260246000fd5b60200260200101819052508080610a0b90611c4f565b91505061090e565b5092915050565b600073__$addd8c1c9a6687457e8e4f326e39dfd0da$__63a1088b6b6040518163ffffffff1660e01b815260040160206040518083038186803b158015610a6057600080fd5b505af4158015610a74573d6000803e3d6000fd5b505050506040513d601f19601f82011682018060405250810190610a9891906116c6565b905090565b60405163613c264360e11b815260009073__$addd8c1c9a6687457e8e4f326e39dfd0da$__9063c2784c8690610ad7908590600401611ab3565b60206040518083038186803b158015610aef57600080fd5b505af4158015610b03573d6000803e3d6000fd5b505050506040513d601f19601f820116820180604052508101906102e491906112b1565b7f8d1bebda6a12a792ffba01f92494c5be0cd4ce8e2d8e46d2c616016d7e70fd265460609081906000610b5a8280611c00565b6001600160401b03811115610b7f57634e487b7160e01b600052604160045260246000fd5b604051908082528060200260200182016040528015610bb857816020015b610ba5610ffc565b815260200190600190039081610b9d5790505b5090506000610bc78380611c00565b6001600160401b03811115610bec57634e487b7160e01b600052604160045260246000fd5b604051908082528060200260200182016040528015610c3157816020015b6040805180820190915260008082526020820152815260200190600190039081610c0a5790505b5086519091506000905b8751610c48908690611be8565b8110156107455760208801515b858960200151610c659190611be8565b811015610d7d57604080518082018252838152602081018390529051638ca0796f60e01b815273__$addd8c1c9a6687457e8e4f326e39dfd0da$__90638ca0796f90610cb5908490600401611ab3565b60c06040518083038186803b158015610ccd57600080fd5b505af4158015610ce1573d6000803e3d6000fd5b505050506040513d601f19601f82011682018060405250810190610d0591906112cb565b868581518110610d2557634e487b7160e01b600052603260045260246000fd5b602002602001018190525080858581518110610d5157634e487b7160e01b600052603260045260246000fd5b6020908102919091010152610d67600185611be8565b9350508080610d7590611c4f565b915050610c55565b5080610d8881611c4f565b915050610c3b565b604080518082018252606080825260208201529051633c2549df60e21b81526001600160a01b038316600482015273__$addd8c1c9a6687457e8e4f326e39dfd0da$__9063f095277c9060240160006040518083038186803b158015610df557600080fd5b505af4158015610e09573d6000803e3d6000fd5b505050506040513d6000823e601f3d908101601f191682016040526102e491908101906115ac565b7f8d1bebda6a12a792ffba01f92494c5be0cd4ce8e2d8e46d2c616016d7ebd4869546060906000816001600160401b03811115610e7e57634e487b7160e01b600052604160045260246000fd5b604051908082528060200260200182016040528015610f2957816020015b610f16604051806101c00160405280600015158152602001600015158152602001600015158152602001600081526020016060815260200160608152602001606081526020016000815260200160008152602001600081526020016000815260200160001515815260200160608152602001606081525090565b815260200190600190039081610e9c5790505b50905060005b82811015610a1357604051637b5bee1d60e01b81526004810182905273__$addd8c1c9a6687457e8e4f326e39dfd0da$__90637b5bee1d9060240160006040518083038186803b158015610f8257600080fd5b505af4158015610f96573d6000803e3d6000fd5b505050506040513d6000823e601f3d908101601f19168201604052610fbe9190810190611352565b828281518110610fde57634e487b7160e01b600052603260045260246000fd5b60200260200101819052508080610ff490611c4f565b915050610f2f565b6040518060c00160405280600081526020016000815260200160006001600160a01b0316815260200160008152602001600081526020016000151581525090565b6040518060e001604052806000151581526020016000815260200160006001600160a01b0316815260200160008152602001600081526020016000815260200161109a604051806040016040528060008152602001600081525090565b905290565b6040518060a0016040528060006001600160a01b03168152602001600081526020016000815260200160008152602001600081525090565b600082601f8301126110e7578081fd5b815160206110fc6110f783611bc5565b611b95565b80838252828201915082860187848660051b890101111561111b578586fd5b855b858110156111395781518452928401929084019060010161111d565b5090979650505050505050565b8051801515811461115657600080fd5b919050565b600082601f83011261116b578081fd5b81516001600160401b0381111561118457611184611c80565b611197601f8201601f1916602001611b95565b8181528460208386010111156111ab578283fd5b6111bc826020830160208701611c1f565b949350505050565b6000604082840312156111d5578081fd5b6111dd611b4a565b9050815181526020820151602082015292915050565b600060208284031215611204578081fd5b813561120f81611c96565b9392505050565b60006020808385031215611228578182fd5b82516001600160401b0381111561123d578283fd5b8301601f8101851361124d578283fd5b805161125b6110f782611bc5565b80828252848201915084840188868560051b870101111561127a578687fd5b8694505b838510156112a557805161129181611c96565b83526001949094019391850191850161127e565b50979650505050505050565b6000602082840312156112c2578081fd5b61120f82611146565b600060c082840312156112dc578081fd5b60405160c081018181106001600160401b03821117156112fe576112fe611c80565b80604052508251815260208301516020820152604083015161131f81611c96565b80604083015250606083015160608201526080830151608082015261134660a08401611146565b60a08201529392505050565b600060208284031215611363578081fd5b81516001600160401b0380821115611379578283fd5b908301906101c0828603121561138d578283fd5b611395611b72565b61139e83611146565b81526113ac60208401611146565b60208201526113bd60408401611146565b6040820152606083015160608201526080830151828111156113dd578485fd5b6113e9878286016110d7565b60808301525060a083015182811115611400578485fd5b61140c878286016110d7565b60a08301525060c083015182811115611423578485fd5b61142f878286016110d7565b60c08301525060e0838101519082015261010080840151908201526101208084015190820152610140808401519082015261016061146e818501611146565b908201526101808381015183811115611485578586fd5b6114918882870161115b565b8284015250506101a080840151838111156114aa578586fd5b6114b68882870161115b565b918301919091525095945050505050565b600061010082840312156114d9578081fd5b60405160e081018181106001600160401b03821117156114fb576114fb611c80565b60405261150783611146565b815260208301516020820152604083015161152181611c96565b80604083015250606083015160608201526080830151608082015260a083015160a08201526115538460c085016111c4565b60c08201529392505050565b600060408284031215611570578081fd5b604051604081018181106001600160401b038211171561159257611592611c80565b604052823581526020928301359281019290925250919050565b6000602082840312156115bd578081fd5b81516001600160401b03808211156115d3578283fd5b90830190604082860312156115e6578283fd5b6115ee611b4a565b8251828111156115fc578485fd5b611608878286016110d7565b82525060208301518281111561161c578485fd5b611628878286016110d7565b60208301525095945050505050565b600060a08284031215611648578081fd5b60405160a081018181106001600160401b038211171561166a5761166a611c80565b604052825161167881611c96565b80825250602083015160208201526040830151604082015260608301516060820152608083015160808201528091505092915050565b6000602082840312156116bf578081fd5b5035919050565b6000602082840312156116d7578081fd5b5051919050565b6000815180845260208085019450808401835b838110156117215761170e87835180518252602090810151910152565b60409690960195908201906001016116f1565b509495945050505050565b6000815180845260208085019450808401835b838110156117215781518752958201959082019060010161173f565b60008151808452611773816020860160208601611c1f565b601f01601f19169290920160200192915050565b80518252602080820151908301526040808201516001600160a01b031690830152606080820151908301526080808201519083015260a0908101511515910152565b8051151582526020810151602083015260018060a01b036040820151166040830152606081015160608301526080810151608083015260a081015160a083015260c081015161182560c084018280518252602090810151910152565b505050565b604080825283519082018190526000906020906060840190828701845b8281101561186d5761185a848351611787565b60c0939093019290840190600101611847565b5050508381038285015261188181866116de565b9695505050505050565b60006020808301818452808551808352604092508286019150828160051b870101848801865b838110156119c557603f1989840301855281518051151584528781015115158885015286810151151587850152606080820151908501526080808201516101c082870181905291906119058388018261172c565b9250505060a08083015186830382880152611920838261172c565b9250505060c0808301518683038288015261193b838261172c565b60e085810151908901526101008086015190890152610120808601519089015261014080860151908901526101608086015115159089015261018080860151898303828b015291945092509050611992838261175b565b925050506101a080830151925085820381870152506119b1818361175b565b9689019694505050908601906001016118b1565b509098975050505050505050565b6020808252825182820181905260009190848201906040850190845b81811015611a1657611a028385516117c9565b9284019261010092909201916001016119ef565b50909695505050505050565b604080825283519082018190526000906020906060840190828701845b8281101561186d57611a8384835180516001600160a01b03168252602080820151908301526040808201519083015260608082015190830152608090810151910152565b60a0939093019290840190600101611a3f565b60c081016102e48284611787565b61010081016102e482846117c9565b8151815260208083015190820152604081016102e4565b602081526000825160406020840152611ae6606084018261172c565b90506020840151601f19848303016040850152611b03828261172c565b95945050505050565b81516001600160a01b031681526020808301519082015260408083015190820152606080830151908201526080808301519082015260a081016102e4565b604080519081016001600160401b0381118282101715611b6c57611b6c611c80565b60405290565b6040516101c081016001600160401b0381118282101715611b6c57611b6c611c80565b604051601f8201601f191681016001600160401b0381118282101715611bbd57611bbd611c80565b604052919050565b60006001600160401b03821115611bde57611bde611c80565b5060051b60200190565b60008219821115611bfb57611bfb611c6a565b500190565b6000816000190483118215151615611c1a57611c1a611c6a565b500290565b60005b83811015611c3a578181015183820152602001611c22565b83811115611c49576000848401525b50505050565b6000600019821415611c6357611c63611c6a565b5060010190565b634e487b7160e01b600052601160045260246000fd5b634e487b7160e01b600052604160045260246000fd5b6001600160a01b0381168114611cab57600080fd5b5056fea264697066735822122026b17bf42f1c042ee86c9d075cb725a92953ab644c6a0e0c22a55c2962525b4264736f6c63430008040033",
    "linkReferences": {
      "/Users/K.Z./Desktop/projects/engine/contracts/libraries/GameUtil.sol": {
        "GameUtils": [
          {
            "start": 662,
            "length": 20
          },
          {
            "start": 1166,
            "length": 20
          },
          {
            "start": 1634,
            "length": 20
          },
          {
            "start": 1929,
            "length": 20
          },
          {
            "start": 2072,
            "length": 20
          },
          {
            "start": 2118,
            "length": 20
          },
          {
            "start": 2361,
            "length": 20
          },
          {
            "start": 2622,
            "length": 20
          },
          {
            "start": 2767,
            "length": 20
          },
          {
            "start": 3245,
            "length": 20
          },
          {
            "start": 3552,
            "length": 20
          },
          {
            "start": 3949,
            "length": 20
          }
        ]
      }
    }
  }
}