{
  "abi": [
    {
      "inputs": [
        {
          "components": [
            {
              "internalType": "uint256",
              "name": "x",
              "type": "uint256"
            },
            {
              "internalType": "uint256",
              "name": "y",
              "type": "uint256"
            }
          ],
          "internalType": "struct Position",
          "name": "_pos",
          "type": "tuple"
        }
      ],
      "name": "_getBlockChunkData",
      "outputs": [
        {
          "components": [
            {
              "internalType": "uint256",
              "name": "blockId",
              "type": "uint256"
            },
            {
              "internalType": "uint256",
              "name": "health",
              "type": "uint256"
            },
            {
              "internalType": "address",
              "name": "owner",
              "type": "address"
            },
            {
              "internalType": "uint256",
              "name": "lastAttacked",
              "type": "uint256"
            },
            {
              "internalType": "uint256",
              "name": "lastMoved",
              "type": "uint256"
            },
            {
              "internalType": "bool",
              "name": "occupiable",
              "type": "bool"
            }
          ],
          "internalType": "struct BlockData[]",
          "name": "",
          "type": "tuple[]"
        },
        {
          "components": [
            {
              "internalType": "uint256",
              "name": "x",
              "type": "uint256"
            },
            {
              "internalType": "uint256",
              "name": "y",
              "type": "uint256"
            }
          ],
          "internalType": "struct Position[]",
          "name": "",
          "type": "tuple[]"
        }
      ],
      "stateMutability": "view",
      "type": "function"
    },
    {
      "inputs": [
        {
          "components": [
            {
              "internalType": "uint256",
              "name": "x",
              "type": "uint256"
            },
            {
              "internalType": "uint256",
              "name": "y",
              "type": "uint256"
            }
          ],
          "internalType": "struct Position",
          "name": "_pos",
          "type": "tuple"
        }
      ],
      "name": "_getBlockDataAtPos",
      "outputs": [
        {
          "components": [
            {
              "internalType": "uint256",
              "name": "blockId",
              "type": "uint256"
            },
            {
              "internalType": "uint256",
              "name": "health",
              "type": "uint256"
            },
            {
              "internalType": "address",
              "name": "owner",
              "type": "address"
            },
            {
              "internalType": "uint256",
              "name": "lastAttacked",
              "type": "uint256"
            },
            {
              "internalType": "uint256",
              "name": "lastMoved",
              "type": "uint256"
            },
            {
              "internalType": "bool",
              "name": "occupiable",
              "type": "bool"
            }
          ],
          "internalType": "struct BlockData",
          "name": "",
          "type": "tuple"
        }
      ],
      "stateMutability": "view",
      "type": "function"
    },
    {
      "inputs": [],
      "name": "_getCurrentEpoch",
      "outputs": [
        {
          "internalType": "uint256",
          "name": "",
          "type": "uint256"
        }
      ],
      "stateMutability": "view",
      "type": "function"
    },
    {
      "inputs": [
        {
          "internalType": "address",
          "name": "_player",
          "type": "address"
        }
      ],
      "name": "_getInventoryByPlayer",
      "outputs": [
        {
          "components": [
            {
              "internalType": "uint256[]",
              "name": "craftItemIds",
              "type": "uint256[]"
            },
            {
              "internalType": "uint256[]",
              "name": "craftItemAmounts",
              "type": "uint256[]"
            }
          ],
          "internalType": "struct Recipe",
          "name": "",
          "type": "tuple"
        }
      ],
      "stateMutability": "view",
      "type": "function"
    },
    {
      "inputs": [
        {
          "components": [
            {
              "internalType": "uint256",
              "name": "x",
              "type": "uint256"
            },
            {
              "internalType": "uint256",
              "name": "y",
              "type": "uint256"
            }
          ],
          "internalType": "struct Position",
          "name": "_pos",
          "type": "tuple"
        }
      ],
      "name": "_getMap",
      "outputs": [
        {
          "components": [
            {
              "internalType": "address",
              "name": "occupier",
              "type": "address"
            },
            {
              "internalType": "uint256",
              "name": "worldBlockId",
              "type": "uint256"
            },
            {
              "internalType": "uint256",
              "name": "tileType",
              "type": "uint256"
            },
            {
              "internalType": "uint256",
              "name": "lastOccupied",
              "type": "uint256"
            },
            {
              "internalType": "uint256",
              "name": "tileContractId",
              "type": "uint256"
            }
          ],
          "internalType": "struct Tile[]",
          "name": "",
          "type": "tuple[]"
        },
        {
          "components": [
            {
              "internalType": "uint256",
              "name": "x",
              "type": "uint256"
            },
            {
              "internalType": "uint256",
              "name": "y",
              "type": "uint256"
            }
          ],
          "internalType": "struct Position[]",
          "name": "",
          "type": "tuple[]"
        }
      ],
      "stateMutability": "view",
      "type": "function"
    },
    {
      "inputs": [
        {
          "internalType": "address",
          "name": "_player",
          "type": "address"
        }
      ],
      "name": "_getPlayer",
      "outputs": [
        {
          "components": [
            {
              "internalType": "bool",
              "name": "initialized",
              "type": "bool"
            },
            {
              "internalType": "uint256",
              "name": "initTimestamp",
              "type": "uint256"
            },
            {
              "internalType": "address",
              "name": "playerAddr",
              "type": "address"
            },
            {
              "internalType": "uint256",
              "name": "health",
              "type": "uint256"
            },
            {
              "internalType": "uint256",
              "name": "reach",
              "type": "uint256"
            },
            {
              "internalType": "uint256",
              "name": "lastMoved",
              "type": "uint256"
            },
            {
              "components": [
                {
                  "internalType": "uint256",
                  "name": "x",
                  "type": "uint256"
                },
                {
                  "internalType": "uint256",
                  "name": "y",
                  "type": "uint256"
                }
              ],
              "internalType": "struct Position",
              "name": "position",
              "type": "tuple"
            }
          ],
          "internalType": "struct PlayerData",
          "name": "playerData",
          "type": "tuple"
        }
      ],
      "stateMutability": "view",
      "type": "function"
    },
    {
      "inputs": [],
      "name": "_getSample",
      "outputs": [
        {
          "internalType": "uint256",
          "name": "",
          "type": "uint256"
        }
      ],
      "stateMutability": "view",
      "type": "function"
    },
    {
      "inputs": [
        {
          "components": [
            {
              "internalType": "uint256",
              "name": "x",
              "type": "uint256"
            },
            {
              "internalType": "uint256",
              "name": "y",
              "type": "uint256"
            }
          ],
          "internalType": "struct Position",
          "name": "_pos",
          "type": "tuple"
        }
      ],
      "name": "_getTileData",
      "outputs": [
        {
          "components": [
            {
              "internalType": "address",
              "name": "occupier",
              "type": "address"
            },
            {
              "internalType": "uint256",
              "name": "worldBlockId",
              "type": "uint256"
            },
            {
              "internalType": "uint256",
              "name": "tileType",
              "type": "uint256"
            },
            {
              "internalType": "uint256",
              "name": "lastOccupied",
              "type": "uint256"
            },
            {
              "internalType": "uint256",
              "name": "tileContractId",
              "type": "uint256"
            }
          ],
          "internalType": "struct Tile",
          "name": "",
          "type": "tuple"
        }
      ],
      "stateMutability": "view",
      "type": "function"
    },
    {
      "inputs": [
        {
          "internalType": "uint256",
          "name": "_worldBlockIdx",
          "type": "uint256"
        }
      ],
      "name": "_getWorldBlockData",
      "outputs": [
        {
          "components": [
            {
              "internalType": "uint256",
              "name": "blockId",
              "type": "uint256"
            },
            {
              "internalType": "uint256",
              "name": "health",
              "type": "uint256"
            },
            {
              "internalType": "address",
              "name": "owner",
              "type": "address"
            },
            {
              "internalType": "uint256",
              "name": "lastAttacked",
              "type": "uint256"
            },
            {
              "internalType": "uint256",
              "name": "lastMoved",
              "type": "uint256"
            },
            {
              "internalType": "bool",
              "name": "occupiable",
              "type": "bool"
            }
          ],
          "internalType": "struct BlockData",
          "name": "",
          "type": "tuple"
        }
      ],
      "stateMutability": "view",
      "type": "function"
    },
    {
      "inputs": [],
      "name": "_getWorldConstants",
      "outputs": [
        {
          "components": [
            {
              "internalType": "uint256",
              "name": "worldWidth",
              "type": "uint256"
            },
            {
              "internalType": "uint256",
              "name": "worldHeight",
              "type": "uint256"
            },
            {
              "internalType": "uint256",
              "name": "startPlayerHealth",
              "type": "uint256"
            },
            {
              "internalType": "uint256",
              "name": "startingReach",
              "type": "uint256"
            },
            {
              "internalType": "uint256",
              "name": "startingPlayerDefaultCurrencyAmount",
              "type": "uint256"
            },
            {
              "internalType": "uint256",
              "name": "playerMoveCooldown",
              "type": "uint256"
            },
            {
              "internalType": "uint256",
              "name": "getMapInterval",
              "type": "uint256"
            }
          ],
          "internalType": "struct WorldConstants",
          "name": "",
          "type": "tuple"
        }
      ],
      "stateMutability": "view",
      "type": "function"
    },
    {
      "inputs": [
        {
          "components": [
            {
              "internalType": "uint256",
              "name": "x",
              "type": "uint256"
            },
            {
              "internalType": "uint256",
              "name": "y",
              "type": "uint256"
            }
          ],
          "internalType": "struct Position",
          "name": "_pos",
          "type": "tuple"
        }
      ],
      "name": "_isOccupied",
      "outputs": [
        {
          "internalType": "bool",
          "name": "",
          "type": "bool"
        }
      ],
      "stateMutability": "view",
      "type": "function"
    },
    {
      "inputs": [],
      "name": "bulkGetAllItems",
      "outputs": [
        {
          "components": [
            {
              "internalType": "bool",
              "name": "mineable",
              "type": "bool"
            },
            {
              "internalType": "bool",
              "name": "craftable",
              "type": "bool"
            },
            {
              "internalType": "bool",
              "name": "occupiable",
              "type": "bool"
            },
            {
              "internalType": "uint256",
              "name": "health",
              "type": "uint256"
            },
            {
              "internalType": "uint256[]",
              "name": "mineItemIds",
              "type": "uint256[]"
            },
            {
              "internalType": "uint256[]",
              "name": "craftItemIds",
              "type": "uint256[]"
            },
            {
              "internalType": "uint256[]",
              "name": "craftItemAmounts",
              "type": "uint256[]"
            },
            {
              "internalType": "uint256",
              "name": "moveCooldown",
              "type": "uint256"
            },
            {
              "internalType": "uint256",
              "name": "attackDamage",
              "type": "uint256"
            },
            {
              "internalType": "uint256",
              "name": "attackRange",
              "type": "uint256"
            },
            {
              "internalType": "uint256",
              "name": "attackCooldown",
              "type": "uint256"
            },
            {
              "internalType": "bool",
              "name": "programmable",
              "type": "bool"
            },
            {
              "internalType": "string",
              "name": "abiEncoding",
              "type": "string"
            },
            {
              "internalType": "string",
              "name": "contractAddr",
              "type": "string"
            }
          ],
          "internalType": "struct Item[]",
          "name": "",
          "type": "tuple[]"
        }
      ],
      "stateMutability": "view",
      "type": "function"
    },
    {
      "inputs": [],
      "name": "bulkGetAllPlayerData",
      "outputs": [
        {
          "components": [
            {
              "internalType": "bool",
              "name": "initialized",
              "type": "bool"
            },
            {
              "internalType": "uint256",
              "name": "initTimestamp",
              "type": "uint256"
            },
            {
              "internalType": "address",
              "name": "playerAddr",
              "type": "address"
            },
            {
              "internalType": "uint256",
              "name": "health",
              "type": "uint256"
            },
            {
              "internalType": "uint256",
              "name": "reach",
              "type": "uint256"
            },
            {
              "internalType": "uint256",
              "name": "lastMoved",
              "type": "uint256"
            },
            {
              "components": [
                {
                  "internalType": "uint256",
                  "name": "x",
                  "type": "uint256"
                },
                {
                  "internalType": "uint256",
                  "name": "y",
                  "type": "uint256"
                }
              ],
              "internalType": "struct Position",
              "name": "position",
              "type": "tuple"
            }
          ],
          "internalType": "struct PlayerData[]",
          "name": "",
          "type": "tuple[]"
        }
      ],
      "stateMutability": "view",
      "type": "function"
    }
  ],
  "bytecode": {
    "object": "0x608060405234801561001057600080fd5b50611d22806100206000396000f3fe608060405234801561001057600080fd5b50600436106100cf5760003560e01c80637dbefbac1161008c578063c537e3e511610066578063c537e3e51461021d578063cdb74b0214610240578063f095277c14610261578063fab6a1b81461028157600080fd5b80637dbefbac146101cf578063863eaa0b146101e4578063a1088b6b1461021557600080fd5b8063074a8016146100d45780632e22b843146100fd57806332e08fea1461015b57806350607fee1461017b5780636b7af8cb1461019c5780636d82e7bb146101bc575b600080fd5b6100e76100e23660046116ec565b610296565b6040516100f49190611ad4565b60405180910390f35b610105610328565b6040516100f49190600060e082019050825182526020830151602083015260408301516040830152606083015160608301526080830151608083015260a083015160a083015260c083015160c083015292915050565b61016e610169366004611231565b610486565b6040516100f49190611ae2565b61018e61018936600461159d565b61051a565b6040516100f4929190611a60565b6101af6101aa36600461159d565b610790565b6040516100f49190611b4a565b6100e76101ca36600461159d565b61081f565b6101d761085e565b6040516100f49190611a11565b7f8d1bebda6a12a792ffba01f92494c5be0cd4ce8e2d8e46d2c616016d7ebd4875545b6040519081526020016100f4565b610207610a58565b61023061022b36600461159d565b610adb565b60405190151581526020016100f4565b61025361024e36600461159d565b610b65565b6040516100f4929190611868565b61027461026f366004611231565b610dce565b6040516100f49190611b08565b610289610e6f565b6040516100f491906118c9565b61029e61103a565b6040516303a5400b60e11b81526004810183905273__$addd8c1c9a6687457e8e4f326e39dfd0da$__9063074a8016906024015b60c06040518083038186803b1580156102ea57600080fd5b505af41580156102fe573d6000803e3d6000fd5b505050506040513d601f19601f820116820180604052508101906103229190611309565b92915050565b6103686040518060e00160405280600081526020016000815260200160008152602001600081526020016000815260200160008152602001600081525090565b506040805160e0810182527f8d1bebda6a12a792ffba01f92494c5be0cd4ce8e2d8e46d2c616016d7e70fd205481527f8d1bebda6a12a792ffba01f92494c5be0cd4ce8e2d8e46d2c616016d7e70fd215460208201527f8d1bebda6a12a792ffba01f92494c5be0cd4ce8e2d8e46d2c616016d7e70fd2254918101919091527f8d1bebda6a12a792ffba01f92494c5be0cd4ce8e2d8e46d2c616016d7e70fd235460608201527f8d1bebda6a12a792ffba01f92494c5be0cd4ce8e2d8e46d2c616016d7e70fd245460808201527f8d1bebda6a12a792ffba01f92494c5be0cd4ce8e2d8e46d2c616016d7e70fd255460a08201527f8d1bebda6a12a792ffba01f92494c5be0cd4ce8e2d8e46d2c616016d7e70fd265460c082015290565b61048e61107b565b60405163197047f560e11b81526001600160a01b038316600482015273__$addd8c1c9a6687457e8e4f326e39dfd0da$__906332e08fea906024016101006040518083038186803b1580156104e257600080fd5b505af41580156104f6573d6000803e3d6000fd5b505050506040513d601f19601f820116820180604052508101906103229190611505565b7f8d1bebda6a12a792ffba01f92494c5be0cd4ce8e2d8e46d2c616016d7e70fd26546060908190600061054d8280611c3e565b6001600160401b0381111561057257634e487b7160e01b600052604160045260246000fd5b6040519080825280602002602001820160405280156105ab57816020015b6105986110dd565b8152602001906001900390816105905790505b50905060006105ba8380611c3e565b6001600160401b038111156105df57634e487b7160e01b600052604160045260246000fd5b60405190808252806020026020018201604052801561062457816020015b60408051808201909152600080825260208201528152602001906001900390816105fd5790505b5086519091506000905b875161063b908690611c26565b8110156107835760208801515b8589602001516106589190611c26565b8110156107705760408051808201825283815260208101839052905163ee8bc57960e01b815273__$addd8c1c9a6687457e8e4f326e39dfd0da$__9063ee8bc579906106a8908490600401611af1565b60a06040518083038186803b1580156106c057600080fd5b505af41580156106d4573d6000803e3d6000fd5b505050506040513d601f19601f820116820180604052508101906106f89190611675565b86858151811061071857634e487b7160e01b600052603260045260246000fd5b60200260200101819052508085858151811061074457634e487b7160e01b600052603260045260246000fd5b602090810291909101015261075a600185611c26565b935050808061076890611c8d565b915050610648565b508061077b81611c8d565b91505061062e565b5091969095509350505050565b6107986110dd565b60405163ee8bc57960e01b815273__$addd8c1c9a6687457e8e4f326e39dfd0da$__9063ee8bc579906107cf908590600401611af1565b60a06040518083038186803b1580156107e757600080fd5b505af41580156107fb573d6000803e3d6000fd5b505050506040513d601f19601f820116820180604052508101906103229190611675565b61082761103a565b604051638ca0796f60e01b815273__$addd8c1c9a6687457e8e4f326e39dfd0da$__90638ca0796f906102d2908590600401611af1565b6060600073__$addd8c1c9a6687457e8e4f326e39dfd0da$__633f261e076040518163ffffffff1660e01b815260040160006040518083038186803b1580156108a657600080fd5b505af41580156108ba573d6000803e3d6000fd5b505050506040513d6000823e601f3d908101601f191682016040526108e29190810190611254565b9050600081516001600160401b0381111561090d57634e487b7160e01b600052604160045260246000fd5b60405190808252806020026020018201604052801561094657816020015b61093361107b565b81526020019060019003908161092b5790505b50905060005b8251811015610a515773__$addd8c1c9a6687457e8e4f326e39dfd0da$__6332e08fea84838151811061098f57634e487b7160e01b600052603260045260246000fd5b60200260200101516040518263ffffffff1660e01b81526004016109c291906001600160a01b0391909116815260200190565b6101006040518083038186803b1580156109db57600080fd5b505af41580156109ef573d6000803e3d6000fd5b505050506040513d601f19601f82011682018060405250810190610a139190611505565b828281518110610a3357634e487b7160e01b600052603260045260246000fd5b60200260200101819052508080610a4990611c8d565b91505061094c565b5092915050565b600073__$addd8c1c9a6687457e8e4f326e39dfd0da$__63a1088b6b6040518163ffffffff1660e01b815260040160206040518083038186803b158015610a9e57600080fd5b505af4158015610ab2573d6000803e3d6000fd5b505050506040513d601f19601f82011682018060405250810190610ad69190611704565b905090565b60405163613c264360e11b815260009073__$addd8c1c9a6687457e8e4f326e39dfd0da$__9063c2784c8690610b15908590600401611af1565b60206040518083038186803b158015610b2d57600080fd5b505af4158015610b41573d6000803e3d6000fd5b505050506040513d601f19601f8201168201806040525081019061032291906112ef565b7f8d1bebda6a12a792ffba01f92494c5be0cd4ce8e2d8e46d2c616016d7e70fd265460609081906000610b988280611c3e565b6001600160401b03811115610bbd57634e487b7160e01b600052604160045260246000fd5b604051908082528060200260200182016040528015610bf657816020015b610be361103a565b815260200190600190039081610bdb5790505b5090506000610c058380611c3e565b6001600160401b03811115610c2a57634e487b7160e01b600052604160045260246000fd5b604051908082528060200260200182016040528015610c6f57816020015b6040805180820190915260008082526020820152815260200190600190039081610c485790505b5086519091506000905b8751610c86908690611c26565b8110156107835760208801515b858960200151610ca39190611c26565b811015610dbb57604080518082018252838152602081018390529051638ca0796f60e01b815273__$addd8c1c9a6687457e8e4f326e39dfd0da$__90638ca0796f90610cf3908490600401611af1565b60c06040518083038186803b158015610d0b57600080fd5b505af4158015610d1f573d6000803e3d6000fd5b505050506040513d601f19601f82011682018060405250810190610d439190611309565b868581518110610d6357634e487b7160e01b600052603260045260246000fd5b602002602001018190525080858581518110610d8f57634e487b7160e01b600052603260045260246000fd5b6020908102919091010152610da5600185611c26565b9350508080610db390611c8d565b915050610c93565b5080610dc681611c8d565b915050610c79565b604080518082018252606080825260208201529051633c2549df60e21b81526001600160a01b038316600482015273__$addd8c1c9a6687457e8e4f326e39dfd0da$__9063f095277c9060240160006040518083038186803b158015610e3357600080fd5b505af4158015610e47573d6000803e3d6000fd5b505050506040513d6000823e601f3d908101601f1916820160405261032291908101906115ea565b7f8d1bebda6a12a792ffba01f92494c5be0cd4ce8e2d8e46d2c616016d7ebd4869546060906000816001600160401b03811115610ebc57634e487b7160e01b600052604160045260246000fd5b604051908082528060200260200182016040528015610f6757816020015b610f54604051806101c00160405280600015158152602001600015158152602001600015158152602001600081526020016060815260200160608152602001606081526020016000815260200160008152602001600081526020016000815260200160001515815260200160608152602001606081525090565b815260200190600190039081610eda5790505b50905060005b82811015610a5157604051637b5bee1d60e01b81526004810182905273__$addd8c1c9a6687457e8e4f326e39dfd0da$__90637b5bee1d9060240160006040518083038186803b158015610fc057600080fd5b505af4158015610fd4573d6000803e3d6000fd5b505050506040513d6000823e601f3d908101601f19168201604052610ffc9190810190611390565b82828151811061101c57634e487b7160e01b600052603260045260246000fd5b6020026020010181905250808061103290611c8d565b915050610f6d565b6040518060c00160405280600081526020016000815260200160006001600160a01b0316815260200160008152602001600081526020016000151581525090565b6040518060e001604052806000151581526020016000815260200160006001600160a01b031681526020016000815260200160008152602001600081526020016110d8604051806040016040528060008152602001600081525090565b905290565b6040518060a0016040528060006001600160a01b03168152602001600081526020016000815260200160008152602001600081525090565b600082601f830112611125578081fd5b8151602061113a61113583611c03565b611bd3565b80838252828201915082860187848660051b8901011115611159578586fd5b855b858110156111775781518452928401929084019060010161115b565b5090979650505050505050565b8051801515811461119457600080fd5b919050565b600082601f8301126111a9578081fd5b81516001600160401b038111156111c2576111c2611cbe565b6111d5601f8201601f1916602001611bd3565b8181528460208386010111156111e9578283fd5b6111fa826020830160208701611c5d565b949350505050565b600060408284031215611213578081fd5b61121b611b88565b9050815181526020820151602082015292915050565b600060208284031215611242578081fd5b813561124d81611cd4565b9392505050565b60006020808385031215611266578182fd5b82516001600160401b0381111561127b578283fd5b8301601f8101851361128b578283fd5b805161129961113582611c03565b80828252848201915084840188868560051b87010111156112b8578687fd5b8694505b838510156112e35780516112cf81611cd4565b8352600194909401939185019185016112bc565b50979650505050505050565b600060208284031215611300578081fd5b61124d82611184565b600060c0828403121561131a578081fd5b60405160c081018181106001600160401b038211171561133c5761133c611cbe565b80604052508251815260208301516020820152604083015161135d81611cd4565b80604083015250606083015160608201526080830151608082015261138460a08401611184565b60a08201529392505050565b6000602082840312156113a1578081fd5b81516001600160401b03808211156113b7578283fd5b908301906101c082860312156113cb578283fd5b6113d3611bb0565b6113dc83611184565b81526113ea60208401611184565b60208201526113fb60408401611184565b60408201526060830151606082015260808301518281111561141b578485fd5b61142787828601611115565b60808301525060a08301518281111561143e578485fd5b61144a87828601611115565b60a08301525060c083015182811115611461578485fd5b61146d87828601611115565b60c08301525060e083810151908201526101008084015190820152610120808401519082015261014080840151908201526101606114ac818501611184565b9082015261018083810151838111156114c3578586fd5b6114cf88828701611199565b8284015250506101a080840151838111156114e8578586fd5b6114f488828701611199565b918301919091525095945050505050565b60006101008284031215611517578081fd5b60405160e081018181106001600160401b038211171561153957611539611cbe565b60405261154583611184565b815260208301516020820152604083015161155f81611cd4565b80604083015250606083015160608201526080830151608082015260a083015160a08201526115918460c08501611202565b60c08201529392505050565b6000604082840312156115ae578081fd5b604051604081018181106001600160401b03821117156115d0576115d0611cbe565b604052823581526020928301359281019290925250919050565b6000602082840312156115fb578081fd5b81516001600160401b0380821115611611578283fd5b9083019060408286031215611624578283fd5b61162c611b88565b82518281111561163a578485fd5b61164687828601611115565b82525060208301518281111561165a578485fd5b61166687828601611115565b60208301525095945050505050565b600060a08284031215611686578081fd5b60405160a081018181106001600160401b03821117156116a8576116a8611cbe565b60405282516116b681611cd4565b80825250602083015160208201526040830151604082015260608301516060820152608083015160808201528091505092915050565b6000602082840312156116fd578081fd5b5035919050565b600060208284031215611715578081fd5b5051919050565b6000815180845260208085019450808401835b8381101561175f5761174c87835180518252602090810151910152565b604096909601959082019060010161172f565b509495945050505050565b6000815180845260208085019450808401835b8381101561175f5781518752958201959082019060010161177d565b600081518084526117b1816020860160208601611c5d565b601f01601f19169290920160200192915050565b80518252602080820151908301526040808201516001600160a01b031690830152606080820151908301526080808201519083015260a0908101511515910152565b8051151582526020810151602083015260018060a01b036040820151166040830152606081015160608301526080810151608083015260a081015160a083015260c081015161186360c084018280518252602090810151910152565b505050565b604080825283519082018190526000906020906060840190828701845b828110156118ab576118988483516117c5565b60c0939093019290840190600101611885565b505050838103828501526118bf818661171c565b9695505050505050565b60006020808301818452808551808352604092508286019150828160051b870101848801865b83811015611a0357603f1989840301855281518051151584528781015115158885015286810151151587850152606080820151908501526080808201516101c082870181905291906119438388018261176a565b9250505060a0808301518683038288015261195e838261176a565b9250505060c08083015186830382880152611979838261176a565b60e085810151908901526101008086015190890152610120808601519089015261014080860151908901526101608086015115159089015261018080860151898303828b0152919450925090506119d08382611799565b925050506101a080830151925085820381870152506119ef8183611799565b9689019694505050908601906001016118ef565b509098975050505050505050565b6020808252825182820181905260009190848201906040850190845b81811015611a5457611a40838551611807565b928401926101009290920191600101611a2d565b50909695505050505050565b604080825283519082018190526000906020906060840190828701845b828110156118ab57611ac184835180516001600160a01b03168252602080820151908301526040808201519083015260608082015190830152608090810151910152565b60a0939093019290840190600101611a7d565b60c0810161032282846117c5565b61010081016103228284611807565b815181526020808301519082015260408101610322565b602081526000825160406020840152611b24606084018261176a565b90506020840151601f19848303016040850152611b41828261176a565b95945050505050565b81516001600160a01b031681526020808301519082015260408083015190820152606080830151908201526080808301519082015260a08101610322565b604080519081016001600160401b0381118282101715611baa57611baa611cbe565b60405290565b6040516101c081016001600160401b0381118282101715611baa57611baa611cbe565b604051601f8201601f191681016001600160401b0381118282101715611bfb57611bfb611cbe565b604052919050565b60006001600160401b03821115611c1c57611c1c611cbe565b5060051b60200190565b60008219821115611c3957611c39611ca8565b500190565b6000816000190483118215151615611c5857611c58611ca8565b500290565b60005b83811015611c78578181015183820152602001611c60565b83811115611c87576000848401525b50505050565b6000600019821415611ca157611ca1611ca8565b5060010190565b634e487b7160e01b600052601160045260246000fd5b634e487b7160e01b600052604160045260246000fd5b6001600160a01b0381168114611ce957600080fd5b5056fea2646970667358221220808c93aa24ef7202c06b5144afcf7630f7659d062e8a1645e83baf77c211cac164736f6c63430008040033",
    "linkReferences": {
      "/Users/K.Z./Desktop/projects/engine/contracts/libraries/GameUtil.sol": {
        "GameUtils": [
          {
            "start": 724,
            "length": 20
          },
          {
            "start": 1228,
            "length": 20
          },
          {
            "start": 1696,
            "length": 20
          },
          {
            "start": 1991,
            "length": 20
          },
          {
            "start": 2134,
            "length": 20
          },
          {
            "start": 2180,
            "length": 20
          },
          {
            "start": 2423,
            "length": 20
          },
          {
            "start": 2684,
            "length": 20
          },
          {
            "start": 2829,
            "length": 20
          },
          {
            "start": 3307,
            "length": 20
          },
          {
            "start": 3614,
            "length": 20
          },
          {
            "start": 4011,
            "length": 20
          }
        ]
      }
    }
  }
}