{
  "abi": [
    {
      "inputs": [],
      "name": "bulkGetAllTroops",
      "outputs": [
        {
          "components": [
            {
              "internalType": "address",
              "name": "owner",
              "type": "address"
            },
            {
              "internalType": "uint256",
              "name": "troopTypeId",
              "type": "uint256"
            },
            {
              "internalType": "uint256",
              "name": "lastMoved",
              "type": "uint256"
            },
            {
              "internalType": "uint256",
              "name": "movesLeftInEpoch",
              "type": "uint256"
            },
            {
              "internalType": "uint256",
              "name": "lastAttacked",
              "type": "uint256"
            },
            {
              "internalType": "uint256",
              "name": "lastRepaired",
              "type": "uint256"
            },
            {
              "internalType": "uint256",
              "name": "health",
              "type": "uint256"
            },
            {
              "components": [
                {
                  "internalType": "uint256",
                  "name": "x",
                  "type": "uint256"
                },
                {
                  "internalType": "uint256",
                  "name": "y",
                  "type": "uint256"
                }
              ],
              "internalType": "struct Position",
              "name": "pos",
              "type": "tuple"
            },
            {
              "internalType": "uint256[]",
              "name": "cargoTroopIds",
              "type": "uint256[]"
            }
          ],
          "internalType": "struct Troop[]",
          "name": "",
          "type": "tuple[]"
        }
      ],
      "stateMutability": "view",
      "type": "function"
    },
    {
      "inputs": [
        {
          "components": [
            {
              "internalType": "uint256",
              "name": "x",
              "type": "uint256"
            },
            {
              "internalType": "uint256",
              "name": "y",
              "type": "uint256"
            }
          ],
          "internalType": "struct Position",
          "name": "_pos",
          "type": "tuple"
        }
      ],
      "name": "getBaseAt",
      "outputs": [
        {
          "components": [
            {
              "internalType": "enum BASE_NAME",
              "name": "name",
              "type": "uint8"
            },
            {
              "internalType": "address",
              "name": "owner",
              "type": "address"
            },
            {
              "internalType": "uint256",
              "name": "attackFactor",
              "type": "uint256"
            },
            {
              "internalType": "uint256",
              "name": "defenseFactor",
              "type": "uint256"
            },
            {
              "internalType": "uint256",
              "name": "health",
              "type": "uint256"
            }
          ],
          "internalType": "struct Base",
          "name": "",
          "type": "tuple"
        }
      ],
      "stateMutability": "view",
      "type": "function"
    },
    {
      "inputs": [
        {
          "internalType": "uint256",
          "name": "_id",
          "type": "uint256"
        }
      ],
      "name": "getBaseById",
      "outputs": [
        {
          "components": [
            {
              "internalType": "enum BASE_NAME",
              "name": "name",
              "type": "uint8"
            },
            {
              "internalType": "address",
              "name": "owner",
              "type": "address"
            },
            {
              "internalType": "uint256",
              "name": "attackFactor",
              "type": "uint256"
            },
            {
              "internalType": "uint256",
              "name": "defenseFactor",
              "type": "uint256"
            },
            {
              "internalType": "uint256",
              "name": "health",
              "type": "uint256"
            }
          ],
          "internalType": "struct Base",
          "name": "",
          "type": "tuple"
        }
      ],
      "stateMutability": "view",
      "type": "function"
    },
    {
      "inputs": [
        {
          "components": [
            {
              "internalType": "uint256",
              "name": "x",
              "type": "uint256"
            },
            {
              "internalType": "uint256",
              "name": "y",
              "type": "uint256"
            }
          ],
          "internalType": "struct Position",
          "name": "_pos",
          "type": "tuple"
        }
      ],
      "name": "getMapChunk",
      "outputs": [
        {
          "components": [
            {
              "internalType": "enum TERRAIN",
              "name": "terrain",
              "type": "uint8"
            },
            {
              "internalType": "uint256",
              "name": "occupantId",
              "type": "uint256"
            },
            {
              "internalType": "uint256",
              "name": "baseId",
              "type": "uint256"
            }
          ],
          "internalType": "struct Tile[]",
          "name": "",
          "type": "tuple[]"
        },
        {
          "components": [
            {
              "internalType": "uint256",
              "name": "x",
              "type": "uint256"
            },
            {
              "internalType": "uint256",
              "name": "y",
              "type": "uint256"
            }
          ],
          "internalType": "struct Position[]",
          "name": "",
          "type": "tuple[]"
        }
      ],
      "stateMutability": "view",
      "type": "function"
    },
    {
      "inputs": [
        {
          "components": [
            {
              "internalType": "uint256",
              "name": "x",
              "type": "uint256"
            },
            {
              "internalType": "uint256",
              "name": "y",
              "type": "uint256"
            }
          ],
          "internalType": "struct Position",
          "name": "_pos",
          "type": "tuple"
        }
      ],
      "name": "getTileAt",
      "outputs": [
        {
          "components": [
            {
              "internalType": "enum TERRAIN",
              "name": "terrain",
              "type": "uint8"
            },
            {
              "internalType": "uint256",
              "name": "occupantId",
              "type": "uint256"
            },
            {
              "internalType": "uint256",
              "name": "baseId",
              "type": "uint256"
            }
          ],
          "internalType": "struct Tile",
          "name": "",
          "type": "tuple"
        }
      ],
      "stateMutability": "view",
      "type": "function"
    },
    {
      "inputs": [
        {
          "components": [
            {
              "internalType": "uint256",
              "name": "x",
              "type": "uint256"
            },
            {
              "internalType": "uint256",
              "name": "y",
              "type": "uint256"
            }
          ],
          "internalType": "struct Position",
          "name": "_pos",
          "type": "tuple"
        }
      ],
      "name": "getTroopAt",
      "outputs": [
        {
          "components": [
            {
              "internalType": "address",
              "name": "owner",
              "type": "address"
            },
            {
              "internalType": "uint256",
              "name": "troopTypeId",
              "type": "uint256"
            },
            {
              "internalType": "uint256",
              "name": "lastMoved",
              "type": "uint256"
            },
            {
              "internalType": "uint256",
              "name": "movesLeftInEpoch",
              "type": "uint256"
            },
            {
              "internalType": "uint256",
              "name": "lastAttacked",
              "type": "uint256"
            },
            {
              "internalType": "uint256",
              "name": "lastRepaired",
              "type": "uint256"
            },
            {
              "internalType": "uint256",
              "name": "health",
              "type": "uint256"
            },
            {
              "components": [
                {
                  "internalType": "uint256",
                  "name": "x",
                  "type": "uint256"
                },
                {
                  "internalType": "uint256",
                  "name": "y",
                  "type": "uint256"
                }
              ],
              "internalType": "struct Position",
              "name": "pos",
              "type": "tuple"
            },
            {
              "internalType": "uint256[]",
              "name": "cargoTroopIds",
              "type": "uint256[]"
            }
          ],
          "internalType": "struct Troop",
          "name": "",
          "type": "tuple"
        }
      ],
      "stateMutability": "view",
      "type": "function"
    },
    {
      "inputs": [],
      "name": "getWorldConstants",
      "outputs": [
        {
          "components": [
            {
              "internalType": "address",
              "name": "admin",
              "type": "address"
            },
            {
              "internalType": "uint256",
              "name": "worldWidth",
              "type": "uint256"
            },
            {
              "internalType": "uint256",
              "name": "worldHeight",
              "type": "uint256"
            },
            {
              "internalType": "uint256",
              "name": "numPorts",
              "type": "uint256"
            },
            {
              "internalType": "uint256",
              "name": "numCities",
              "type": "uint256"
            },
            {
              "internalType": "uint256",
              "name": "mapInterval",
              "type": "uint256"
            },
            {
              "internalType": "uint256",
              "name": "secondsPerTurn",
              "type": "uint256"
            }
          ],
          "internalType": "struct WorldConstants",
          "name": "",
          "type": "tuple"
        }
      ],
      "stateMutability": "view",
      "type": "function"
    }
  ],
  "bytecode": {
    "object": "0x608060405234801561001057600080fd5b506110f7806100206000396000f3fe608060405234801561001057600080fd5b506004361061007d5760003560e01c8063969f14ac1161005b578063969f14ac1461012d578063b7bbb2f71461014d578063ef51ddf114610160578063fa5ba3fb1461018157600080fd5b806321c3b522146100825780634c40951e146100ed578063898ce75c1461010d575b600080fd5b61008a610196565b6040516100e4919081516001600160a01b031681526020808301519082015260408083015190820152606080830151908201526080808301519082015260a0828101519082015260c0918201519181019190915260e00190565b60405180910390f35b6101006100fb366004610ce8565b610306565b6040516100e49190611029565b61012061011b366004610ce8565b61049e565b6040516100e4919061101b565b61014061013b366004610ce8565b610550565b6040516100e49190610fb3565b61014061015b366004610db2565b6106a4565b61017361016e366004610ce8565b61070a565b6040516100e4929190610eba565b6101896109f8565b6040516100e49190610f52565b6101df6040518060e0016040528060006001600160a01b031681526020016000815260200160008152602001600081526020016000815260200160008152602001600081525090565b506040805160e0810182527f8d1bebda6a12a792ffba01f92494c5be0cd4ce8e2d8e46d2c616016d7e70fd20546001600160a01b031681527f8d1bebda6a12a792ffba01f92494c5be0cd4ce8e2d8e46d2c616016d7e70fd215460208201527f8d1bebda6a12a792ffba01f92494c5be0cd4ce8e2d8e46d2c616016d7e70fd2254918101919091527f8d1bebda6a12a792ffba01f92494c5be0cd4ce8e2d8e46d2c616016d7e70fd235460608201527f8d1bebda6a12a792ffba01f92494c5be0cd4ce8e2d8e46d2c616016d7e70fd245460808201527f8d1bebda6a12a792ffba01f92494c5be0cd4ce8e2d8e46d2c616016d7e70fd255460a08201527f8d1bebda6a12a792ffba01f92494c5be0cd4ce8e2d8e46d2c616016d7e70fd265460c082015290565b61030e610c3f565b60405163342a412360e01b81527f8d1bebda6a12a792ffba01f92494c5be0cd4ce8e2d8e46d2c616016d7e9ec3f19060009073__$8a461d6baeda20cc8b97c0d95fb84681dd$__9063342a41239061036a908790600401611004565b60606040518083038186803b15801561038257600080fd5b505af4158015610396573d6000803e3d6000fd5b505050506040513d601f19601f820116820180604052508101906103ba9190610d42565b602090810151825281810192909252604090810160002081516101208101835281546001600160a01b031681526001820154818501526002820154818401526003820154606082015260048201546080820152600582015460a0820152600682015460c0820152825180840184526007830154815260088301548186015260e08201526009820180548451818702810187019095528085529194929361010086019390929083018282801561048e57602002820191906000526020600020905b81548152602001906001019080831161047a575b5050505050815250509050919050565b6104c36040805160608101909152806000815260200160008152602001600081525090565b60405163342a412360e01b815273__$8a461d6baeda20cc8b97c0d95fb84681dd$__9063342a4123906104fa908590600401611004565b60606040518083038186803b15801561051257600080fd5b505af4158015610526573d6000803e3d6000fd5b505050506040513d601f19601f8201168201806040525081019061054a9190610d42565b92915050565b610558610caf565b60405163342a412360e01b81527f8d1bebda6a12a792ffba01f92494c5be0cd4ce8e2d8e46d2c616016d7e9ec3ee9060009073__$8a461d6baeda20cc8b97c0d95fb84681dd$__9063342a4123906105b4908790600401611004565b60606040518083038186803b1580156105cc57600080fd5b505af41580156105e0573d6000803e3d6000fd5b505050506040513d601f19601f820116820180604052508101906106049190610d42565b604090810151825260208201929092528101600020815160a081019092528054829060ff16600181111561064857634e487b7160e01b600052602160045260246000fd5b600181111561066757634e487b7160e01b600052602160045260246000fd5b8152815461010090046001600160a01b03166020820152600182015460408201526002820154606082015260039091015460809091015292915050565b6106ac610caf565b60008281527f8d1bebda6a12a792ffba01f92494c5be0cd4ce8e2d8e46d2c616016d7e9ec3ee602052604090819020815160a081019092528054829060ff16600181111561064857634e487b7160e01b600052602160045260246000fd5b7f8d1bebda6a12a792ffba01f92494c5be0cd4ce8e2d8e46d2c616016d7e70fd25546060908190600061073d828061105b565b67ffffffffffffffff81111561076357634e487b7160e01b600052604160045260246000fd5b6040519080825280602002602001820160405280156107b957816020015b6107a66040805160608101909152806000815260200160008152602001600081525090565b8152602001906001900390816107815790505b50905060006107c8838061105b565b67ffffffffffffffff8111156107ee57634e487b7160e01b600052604160045260246000fd5b60405190808252806020026020018201604052801561083357816020015b604080518082019091526000808252602082015281526020019060019003908161080c5790505b5086519091506000905b875161084a908690611043565b8110156109eb5760208801515b8589602001516108679190611043565b8110156109d857604080518082019091528281526020810182905289517f8d1bebda6a12a792ffba01f92494c5be0cd4ce8e2d8e46d2c616016d7e70fd29906103e881106108c557634e487b7160e01b600052603260045260246000fd5b610bb802018a602001516103e881106108ee57634e487b7160e01b600052603260045260246000fd5b6040805160608101909152600391909102919091018054829060ff16600281111561092957634e487b7160e01b600052602160045260246000fd5b600281111561094857634e487b7160e01b600052602160045260246000fd5b81526020016001820154815260200160028201548152505086858151811061098057634e487b7160e01b600052603260045260246000fd5b6020026020010181905250808585815181106109ac57634e487b7160e01b600052603260045260246000fd5b60209081029190910101526109c2600185611043565b93505080806109d09061107a565b915050610857565b50806109e38161107a565b91505061083d565b5091969095509350505050565b606060007f8d1bebda6a12a792ffba01f92494c5be0cd4ce8e2d8e46d2c616016d7e70fd20622dc6d0015467ffffffffffffffff811115610a4957634e487b7160e01b600052604160045260246000fd5b604051908082528060200260200182016040528015610a8257816020015b610a6f610c3f565b815260200190600190039081610a675790505b50905060005b7f8d1bebda6a12a792ffba01f92494c5be0cd4ce8e2d8e46d2c616016d7e9ec3f054811015610c39577f8d1bebda6a12a792ffba01f92494c5be0cd4ce8e2d8e46d2c616016d7e9ec3ef80547f8d1bebda6a12a792ffba01f92494c5be0cd4ce8e2d8e46d2c616016d7e9ec3f19160009184908110610b1757634e487b7160e01b600052603260045260246000fd5b60009182526020808320909101548352828101939093526040918201902081516101208101835281546001600160a01b031681526001820154818501526002820154818401526003820154606082015260048201546080820152600582015460a0820152600682015460c0820152825180840184526007830154815260088301548186015260e082015260098201805484518187028101870190955280855291949293610100860193909290830182828015610bf257602002820191906000526020600020905b815481526020019060010190808311610bde575b505050505081525050828281518110610c1b57634e487b7160e01b600052603260045260246000fd5b60200260200101819052508080610c319061107a565b915050610a88565b50919050565b60405180610120016040528060006001600160a01b03168152602001600081526020016000815260200160008152602001600081526020016000815260200160008152602001610ca2604051806040016040528060008152602001600081525090565b8152602001606081525090565b6040805160a08101909152806000815260200160006001600160a01b031681526020016000815260200160008152602001600081525090565b600060408284031215610cf9578081fd5b6040516040810181811067ffffffffffffffff82111715610d2857634e487b7160e01b83526041600452602483fd5b604052823581526020928301359281019290925250919050565b600060608284031215610d53578081fd5b6040516060810181811067ffffffffffffffff82111715610d8257634e487b7160e01b83526041600452602483fd5b604052825160038110610d93578283fd5b8152602083810151908201526040928301519281019290925250919050565b600060208284031215610dc3578081fd5b5035919050565b6000815180845260208085019450808401835b83811015610df957815187529582019590820190600101610ddd565b509495945050505050565b805160038110610e1657610e166110ab565b825260208181015190830152604090810151910152565b80516001600160a01b0316825260006101406020830151602085015260408301516040850152606083015160608501526080830151608085015260a083015160a085015260c083015160c085015260e0830151610e9760e086018280518252602090810151910152565b5061010083015181610120860152610eb182860182610dca565b95945050505050565b6040808252835182820181905260009190606090818501906020808901865b83811015610efc57610eec858351610e04565b9385019390820190600101610ed9565b50508683038188015287518084529281019350878101929150855b82811015610f4457610f3485855180518252602090810151910152565b9385019392810192600101610f17565b509298975050505050505050565b6000602080830181845280855180835260408601915060408160051b8701019250838701855b82811015610fa657603f19888603018452610f94858351610e2d565b94509285019290850190600101610f78565b5092979650505050505050565b815160a082019060028110610fca57610fca6110ab565b82526020838101516001600160a01b0316908301526040808401519083015260608084015190830152608092830151929091019190915290565b81518152602080830151908201526040810161054a565b6060810161054a8284610e04565b60208152600061103c6020830184610e2d565b9392505050565b6000821982111561105657611056611095565b500190565b600081600019048311821515161561107557611075611095565b500290565b600060001982141561108e5761108e611095565b5060010190565b634e487b7160e01b600052601160045260246000fd5b634e487b7160e01b600052602160045260246000fdfea2646970667358221220def961082cf158154375869d7711bd548d2fe9bf9bdf995584f9971e01735d1664736f6c63430008040033",
    "linkReferences": {
      "contracts/libraries/GameUtil.sol": {
        "Util": [
          {
            "start": 866,
            "length": 20
          },
          {
            "start": 1266,
            "length": 20
          },
          {
            "start": 1452,
            "length": 20
          }
        ]
      }
    }
  },
  "methodIdentifiers": {
    "bulkGetAllTroops()": "fa5ba3fb",
    "getBaseAt((uint256,uint256))": "969f14ac",
    "getBaseById(uint256)": "b7bbb2f7",
    "getMapChunk((uint256,uint256))": "ef51ddf1",
    "getTileAt((uint256,uint256))": "898ce75c",
    "getTroopAt((uint256,uint256))": "4c40951e",
    "getWorldConstants()": "21c3b522"
  },
  "id": 4
}