{
  "abi": [
    {
      "anonymous": false,
      "inputs": [
        {
          "indexed": false,
          "internalType": "address",
          "name": "_player",
          "type": "address"
        },
        {
          "components": [
            {
              "internalType": "uint256",
              "name": "x",
              "type": "uint256"
            },
            {
              "internalType": "uint256",
              "name": "y",
              "type": "uint256"
            }
          ],
          "indexed": false,
          "internalType": "struct Position",
          "name": "_position",
          "type": "tuple"
        }
      ],
      "name": "Capture",
      "type": "event"
    },
    {
      "anonymous": false,
      "inputs": [
        {
          "indexed": false,
          "internalType": "address",
          "name": "_player",
          "type": "address"
        },
        {
          "components": [
            {
              "internalType": "uint256",
              "name": "x",
              "type": "uint256"
            },
            {
              "internalType": "uint256",
              "name": "y",
              "type": "uint256"
            }
          ],
          "indexed": false,
          "internalType": "struct Position",
          "name": "_position",
          "type": "tuple"
        },
        {
          "indexed": false,
          "internalType": "uint256",
          "name": "_itemId",
          "type": "uint256"
        },
        {
          "indexed": false,
          "internalType": "uint256",
          "name": "_itemAmount",
          "type": "uint256"
        },
        {
          "indexed": false,
          "internalType": "uint256",
          "name": "_epoch",
          "type": "uint256"
        }
      ],
      "name": "ClaimReward",
      "type": "event"
    },
    {
      "inputs": [
        {
          "components": [
            {
              "internalType": "uint256",
              "name": "x",
              "type": "uint256"
            },
            {
              "internalType": "uint256",
              "name": "y",
              "type": "uint256"
            }
          ],
          "internalType": "struct Position",
          "name": "_position",
          "type": "tuple"
        },
        {
          "components": [
            {
              "internalType": "uint256",
              "name": "rewardPerEpoch",
              "type": "uint256"
            },
            {
              "internalType": "uint256",
              "name": "itemId",
              "type": "uint256"
            },
            {
              "internalType": "uint256",
              "name": "lastCapturedEpoch",
              "type": "uint256"
            },
            {
              "internalType": "address",
              "name": "owner",
              "type": "address"
            }
          ],
          "internalType": "struct Tower",
          "name": "_tower",
          "type": "tuple"
        }
      ],
      "name": "addTower",
      "outputs": [],
      "stateMutability": "nonpayable",
      "type": "function"
    },
    {
      "inputs": [
        {
          "components": [
            {
              "internalType": "uint256",
              "name": "x",
              "type": "uint256"
            },
            {
              "internalType": "uint256",
              "name": "y",
              "type": "uint256"
            }
          ],
          "internalType": "struct Position[]",
          "name": "_positions",
          "type": "tuple[]"
        },
        {
          "components": [
            {
              "internalType": "uint256",
              "name": "rewardPerEpoch",
              "type": "uint256"
            },
            {
              "internalType": "uint256",
              "name": "itemId",
              "type": "uint256"
            },
            {
              "internalType": "uint256",
              "name": "lastCapturedEpoch",
              "type": "uint256"
            },
            {
              "internalType": "address",
              "name": "owner",
              "type": "address"
            }
          ],
          "internalType": "struct Tower[]",
          "name": "_towers",
          "type": "tuple[]"
        }
      ],
      "name": "addTowerBulk",
      "outputs": [],
      "stateMutability": "nonpayable",
      "type": "function"
    },
    {
      "inputs": [
        {
          "components": [
            {
              "internalType": "uint256",
              "name": "x",
              "type": "uint256"
            },
            {
              "internalType": "uint256",
              "name": "y",
              "type": "uint256"
            }
          ],
          "internalType": "struct Position",
          "name": "_position",
          "type": "tuple"
        }
      ],
      "name": "capture",
      "outputs": [],
      "stateMutability": "nonpayable",
      "type": "function"
    },
    {
      "inputs": [
        {
          "components": [
            {
              "internalType": "uint256",
              "name": "x",
              "type": "uint256"
            },
            {
              "internalType": "uint256",
              "name": "y",
              "type": "uint256"
            }
          ],
          "internalType": "struct Position",
          "name": "_position",
          "type": "tuple"
        }
      ],
      "name": "claimReward",
      "outputs": [],
      "stateMutability": "nonpayable",
      "type": "function"
    },
    {
      "inputs": [
        {
          "components": [
            {
              "internalType": "uint256",
              "name": "x",
              "type": "uint256"
            },
            {
              "internalType": "uint256",
              "name": "y",
              "type": "uint256"
            }
          ],
          "internalType": "struct Position",
          "name": "_position",
          "type": "tuple"
        }
      ],
      "name": "getTowerById",
      "outputs": [
        {
          "components": [
            {
              "internalType": "uint256",
              "name": "rewardPerEpoch",
              "type": "uint256"
            },
            {
              "internalType": "uint256",
              "name": "itemId",
              "type": "uint256"
            },
            {
              "internalType": "uint256",
              "name": "lastCapturedEpoch",
              "type": "uint256"
            },
            {
              "internalType": "address",
              "name": "owner",
              "type": "address"
            }
          ],
          "internalType": "struct Tower",
          "name": "",
          "type": "tuple"
        }
      ],
      "stateMutability": "view",
      "type": "function"
    },
    {
      "inputs": [
        {
          "internalType": "address",
          "name": "_player",
          "type": "address"
        },
        {
          "components": [
            {
              "internalType": "uint256",
              "name": "x",
              "type": "uint256"
            },
            {
              "internalType": "uint256",
              "name": "y",
              "type": "uint256"
            }
          ],
          "internalType": "struct Position",
          "name": "_position",
          "type": "tuple"
        }
      ],
      "name": "isValidCapture",
      "outputs": [
        {
          "internalType": "bool",
          "name": "",
          "type": "bool"
        }
      ],
      "stateMutability": "view",
      "type": "function"
    }
  ],
  "bytecode": {
    "object": "0x60806040526000805534801561001457600080fd5b5061128a806100246000396000f3fe608060405234801561001057600080fd5b50600436106100625760003560e01c80630b7e789f146100675780635b3ec2c31461007c5780635b60fcca1461008f57806367573095146100a2578063d9b3f7ce146100fa578063e3d9a42e1461010d575b600080fd5b61007a610075366004610f81565b610130565b005b61007a61008a366004610f9c565b61033d565b61007a61009d366004610f81565b610443565b6100b56100b0366004610f81565b6106fb565b6040516100f191908151815260208083015190820152604080830151908201526060918201516001600160a01b03169181019190915260800190565b60405180910390f35b61007a610108366004610d9f565b6107f3565b61012061011b366004610d6a565b61086e565b60405190151581526020016100f1565b61013a338261086e565b6101835760405162461bcd60e51b8152602060048201526015602482015274746f7765722f696e76616c69642d6361707475726560581b60448201526064015b60405180910390fd5b604051639578591560e01b815260009073__$addd8c1c9a6687457e8e4f326e39dfd0da$__906395785915906101bd9085906004016110eb565b60006040518083038186803b1580156101d557600080fd5b505af41580156101e9573d6000803e3d6000fd5b505050506040513d6000823e601f3d908101601f191682016040526102119190810190610e63565b90506000600080516020611235833981519152624c4b4f01826040516102379190611032565b908152604080519182900360209081018320608084018352805484526001810154918401919091526002015490820152336060820152905061028460008051602061123583398151915290565b624c4b520154604082015280600080516020611235833981519152624c4b4f01836040516102b29190611032565b908152604080516020928190038301812084518155928401516001840155908301516002830155606090920151600390910180546001600160a01b0319166001600160a01b039092169190911790557fcc744583cb3fa48d57d2cb70034d58293afb7714d22b2b8f1c37b4075f3cf24890610330903390869061104e565b60405180910390a1505050565b604051639578591560e01b815260009073__$addd8c1c9a6687457e8e4f326e39dfd0da$__906395785915906103779086906004016110eb565b60006040518083038186803b15801561038f57600080fd5b505af41580156103a3573d6000803e3d6000fd5b505050506040513d6000823e601f3d908101601f191682016040526103cb9190810190610e63565b905081600080516020611235833981519152624c4b4f01826040516103f09190611032565b9081526040805160209281900383019020835181559183015160018301558201516002820155606090910151600390910180546001600160a01b0319166001600160a01b03909216919091179055505050565b604051639578591560e01b815260009073__$addd8c1c9a6687457e8e4f326e39dfd0da$__9063957859159061047d9085906004016110eb565b60006040518083038186803b15801561049557600080fd5b505af41580156104a9573d6000803e3d6000fd5b505050506040513d6000823e601f3d908101601f191682016040526104d19190810190610e63565b90506000600080516020611235833981519152624c4b4f01826040516104f79190611032565b90815260408051918290036020908101832060808401835280548452600181015491840191909152600281015491830191909152600301546001600160a01b03166060820181905290915033146105825760405162461bcd60e51b815260206004820152600f60248201526e3a37bbb2b917b737ba16b7bbb732b960891b604482015260640161017a565b7f8d1bebda6a12a792ffba01f92494c5be0cd4ce8e2d8e46d2c616016d7ebd48725481516040830151600091906105b9908461118e565b6105c3919061116f565b6020840151604051630f2ac8d160e31b815233600482015260248101919091526044810182905290915073__$addd8c1c9a6687457e8e4f326e39dfd0da$__9063795646889060640160006040518083038186803b15801561062457600080fd5b505af4158015610638573d6000803e3d6000fd5b505050506040830182905282600080516020611235833981519152624c4b4f01856040516106669190611032565b908152604080516020928190038301812084518155848401516001820155918401516002830155606090930151600390910180546001600160a01b0319166001600160a01b039092169190911790558401517f2b81fe872ef50bbc12e5c0a0749474733b3709977575a34d0e1bf0105d64b3ca916106ec91339189919086908890611075565b60405180910390a15050505050565b61072f604051806080016040528060008152602001600081526020016000815260200160006001600160a01b031681525090565b600082600001518360200151604051602001610755929190918252602082015260400190565b60408051601f1981840301815290829052631478a66760e31b8252915073__$addd8c1c9a6687457e8e4f326e39dfd0da$__9063a3c533389061079c9084906004016110b8565b60806040518083038186803b1580156107b457600080fd5b505af41580156107c8573d6000803e3d6000fd5b505050506040513d601f19601f820116820180604052508101906107ec9190610fc7565b9392505050565b60005b82518110156108695761085783828151811061082257634e487b7160e01b600052603260045260246000fd5b602002602001015183838151811061084a57634e487b7160e01b600052603260045260246000fd5b602002602001015161033d565b80610861816111d5565b9150506107f6565b505050565b60008073__$addd8c1c9a6687457e8e4f326e39dfd0da$__638ca0796f6040518060400160405280600187600001516108a7919061118e565b815260200186602001518152506040518263ffffffff1660e01b81526004016108d091906110eb565b60c06040518083038186803b1580156108e857600080fd5b505af41580156108fc573d6000803e3d6000fd5b505050506040513d601f19601f820116820180604052508101906109209190610ef3565b604001519050600073__$addd8c1c9a6687457e8e4f326e39dfd0da$__638ca0796f60405180604001604052808760000151600161095e9190611157565b815260200187602001518152506040518263ffffffff1660e01b815260040161098791906110eb565b60c06040518083038186803b15801561099f57600080fd5b505af41580156109b3573d6000803e3d6000fd5b505050506040513d601f19601f820116820180604052508101906109d79190610ef3565b604001519050600073__$addd8c1c9a6687457e8e4f326e39dfd0da$__638ca0796f60405180604001604052808860000151815260200160018960200151610a1f919061118e565b8152506040518263ffffffff1660e01b8152600401610a3e91906110eb565b60c06040518083038186803b158015610a5657600080fd5b505af4158015610a6a573d6000803e3d6000fd5b505050506040513d601f19601f82011682018060405250810190610a8e9190610ef3565b604001519050600073__$addd8c1c9a6687457e8e4f326e39dfd0da$__638ca0796f60405180604001604052808960000151815260200189602001516001610ad69190611157565b8152506040518263ffffffff1660e01b8152600401610af591906110eb565b60c06040518083038186803b158015610b0d57600080fd5b505af4158015610b21573d6000803e3d6000fd5b505050506040513d601f19601f82011682018060405250810190610b459190610ef3565b60409081015181516080810183526001600160a01b038088168252868116602083015285811693820193909352918116606083015291506000805b6004811015610c0c576000838260048110610bab57634e487b7160e01b600052603260045260246000fd5b602002015190506001600160a01b03811615610bf957806001600160a01b03168b6001600160a01b031614610beb57600098505050505050505050610c2d565b610bf6600184611157565b92505b5080610c04816111d5565b915050610b80565b508015610c225760019650505050505050610c2d565b600096505050505050505b92915050565b600082601f830112610c43578081fd5b81356020610c58610c5383611133565b611102565b80838252828201915082860187848660071b8901011115610c77578586fd5b855b85811015610ca057610c8b8983610cfb565b84529284019260809190910190600101610c79565b5090979650505050505050565b600060408284031215610cbe578081fd5b6040516040810181811067ffffffffffffffff82111715610ce157610ce1611206565b604052823581526020928301359281019290925250919050565b600060808284031215610d0c578081fd5b6040516080810181811067ffffffffffffffff82111715610d2f57610d2f611206565b80604052508091508235815260208301356020820152604083013560408201526060830135610d5d8161121c565b6060919091015292915050565b60008060608385031215610d7c578182fd5b8235610d878161121c565b9150610d968460208501610cad565b90509250929050565b6000806040808486031215610db2578283fd5b833567ffffffffffffffff80821115610dc9578485fd5b818601915086601f830112610ddc578485fd5b81356020610dec610c5383611133565b8083825282820191508286018b848660061b8901011115610e0b57898afd5b8996505b84871015610e3557610e218c82610cad565b835260019690960195918301918701610e0f565b5097505087013593505080831115610e4b578384fd5b5050610e5985828601610c33565b9150509250929050565b600060208284031215610e74578081fd5b815167ffffffffffffffff80821115610e8b578283fd5b818401915084601f830112610e9e578283fd5b815181811115610eb057610eb0611206565b610ec3601f8201601f1916602001611102565b9150808252856020828501011115610ed9578384fd5b610eea8160208401602086016111a5565b50949350505050565b600060c08284031215610f04578081fd5b60405160c0810181811067ffffffffffffffff82111715610f2757610f27611206565b806040525082518152602083015160208201526040830151610f488161121c565b80604083015250606083015160608201526080830151608082015260a08301518015158114610f75578283fd5b60a08201529392505050565b600060408284031215610f92578081fd5b6107ec8383610cad565b60008060c08385031215610fae578182fd5b610fb88484610cad565b9150610d968460408501610cfb565b600060808284031215610fd8578081fd5b6040516080810181811067ffffffffffffffff82111715610ffb57610ffb611206565b806040525082518152602083015160208201526040830151604082015260608301516110268161121c565b60608201529392505050565b600082516110448184602087016111a5565b9190910192915050565b6001600160a01b0383168152606081016107ec602083018480518252602090810151910152565b6001600160a01b038616815260c0810161109c602083018780518252602090810151910152565b8460608301528360808301528260a08301529695505050505050565b60208152600082518060208401526110d78160408501602087016111a5565b601f01601f19169190910160400192915050565b815181526020808301519082015260408101610c2d565b604051601f8201601f1916810167ffffffffffffffff8111828210171561112b5761112b611206565b604052919050565b600067ffffffffffffffff82111561114d5761114d611206565b5060051b60200190565b6000821982111561116a5761116a6111f0565b500190565b6000816000190483118215151615611189576111896111f0565b500290565b6000828210156111a0576111a06111f0565b500390565b60005b838110156111c05781810151838201526020016111a8565b838111156111cf576000848401525b50505050565b60006000198214156111e9576111e96111f0565b5060010190565b634e487b7160e01b600052601160045260246000fd5b634e487b7160e01b600052604160045260246000fd5b6001600160a01b038116811461123157600080fd5b5056fe8d1bebda6a12a792ffba01f92494c5be0cd4ce8e2d8e46d2c616016d7e70fd20a264697066735822122095f0a56933e49db0d78ac4bd26dfa264f76bc4952907dd2b0d979f8fdae0e84364736f6c63430008040033",
    "linkReferences": {
      "/Users/K.Z./Desktop/projects/engine/contracts/libraries/GameUtil.sol": {
        "GameUtils": [
          {
            "start": 441,
            "length": 20
          },
          {
            "start": 883,
            "length": 20
          },
          {
            "start": 1145,
            "length": 20
          },
          {
            "start": 1555,
            "length": 20
          },
          {
            "start": 1944,
            "length": 20
          },
          {
            "start": 2199,
            "length": 20
          },
          {
            "start": 2382,
            "length": 20
          },
          {
            "start": 2565,
            "length": 20
          },
          {
            "start": 2748,
            "length": 20
          }
        ]
      }
    }
  }
}