{
  "abi": [
    {
      "inputs": [
        {
          "components": [
            {
              "internalType": "uint256",
              "name": "x",
              "type": "uint256"
            },
            {
              "internalType": "uint256",
              "name": "y",
              "type": "uint256"
            }
          ],
          "internalType": "struct Position[]",
          "name": "_positions",
          "type": "tuple[]"
        }
      ],
      "name": "bulkInitializeTiles",
      "outputs": [],
      "stateMutability": "nonpayable",
      "type": "function"
    },
    {
      "inputs": [
        {
          "components": [
            {
              "internalType": "uint256",
              "name": "x",
              "type": "uint256"
            },
            {
              "internalType": "uint256",
              "name": "y",
              "type": "uint256"
            }
          ],
          "internalType": "struct Position",
          "name": "_pos",
          "type": "tuple"
        }
      ],
      "name": "endProduction",
      "outputs": [],
      "stateMutability": "nonpayable",
      "type": "function"
    },
    {
      "inputs": [
        {
          "components": [
            {
              "internalType": "uint256",
              "name": "x",
              "type": "uint256"
            },
            {
              "internalType": "uint256",
              "name": "y",
              "type": "uint256"
            }
          ],
          "internalType": "struct Position",
          "name": "_pos",
          "type": "tuple"
        },
        {
          "internalType": "address",
          "name": "_player",
          "type": "address"
        }
      ],
      "name": "initializePlayer",
      "outputs": [],
      "stateMutability": "nonpayable",
      "type": "function"
    },
    {
      "inputs": [
        {
          "components": [
            {
              "internalType": "uint256",
              "name": "x",
              "type": "uint256"
            },
            {
              "internalType": "uint256",
              "name": "y",
              "type": "uint256"
            }
          ],
          "internalType": "struct Position",
          "name": "_pos",
          "type": "tuple"
        }
      ],
      "name": "repair",
      "outputs": [],
      "stateMutability": "nonpayable",
      "type": "function"
    },
    {
      "inputs": [
        {
          "components": [
            {
              "internalType": "uint256",
              "name": "x",
              "type": "uint256"
            },
            {
              "internalType": "uint256",
              "name": "y",
              "type": "uint256"
            }
          ],
          "internalType": "struct Position",
          "name": "_pos",
          "type": "tuple"
        },
        {
          "internalType": "address",
          "name": "_player",
          "type": "address"
        },
        {
          "internalType": "uint256",
          "name": "_troopTypeId",
          "type": "uint256"
        }
      ],
      "name": "spawnTroop",
      "outputs": [],
      "stateMutability": "nonpayable",
      "type": "function"
    },
    {
      "inputs": [
        {
          "internalType": "uint256[]",
          "name": "_cols",
          "type": "uint256[]"
        }
      ],
      "name": "storeEncodedRawMapCols",
      "outputs": [],
      "stateMutability": "nonpayable",
      "type": "function"
    },
    {
      "inputs": [
        {
          "components": [
            {
              "internalType": "uint256",
              "name": "x",
              "type": "uint256"
            },
            {
              "internalType": "uint256",
              "name": "y",
              "type": "uint256"
            }
          ],
          "internalType": "struct Position",
          "name": "_pos",
          "type": "tuple"
        },
        {
          "internalType": "address",
          "name": "_player",
          "type": "address"
        }
      ],
      "name": "transferBaseOwnership",
      "outputs": [],
      "stateMutability": "nonpayable",
      "type": "function"
    },
    {
      "inputs": [],
      "name": "updateEpoch",
      "outputs": [],
      "stateMutability": "nonpayable",
      "type": "function"
    }
  ],
  "bytecode": {
    "object": "0x608060405260008055600180546001600160a01b031916905534801561002457600080fd5b506129ab806100346000396000f3fe608060405234801561001057600080fd5b50600436106100885760003560e01c8063ac344fb71161005b578063ac344fb7146100d0578063d08b70f4146100e3578063d9a8ae7d146100f6578063d9c327f71461010957600080fd5b80630a8ac9071461008d57806336f4fb02146100a257806360a03a2a146100aa578063954b855d146100bd575b600080fd5b6100a061009b3660046124aa565b61011c565b005b6100a06108ef565b6100a06100b83660046124fc565b610a03565b6100a06100cb3660046124c5565b61102c565b6100a06100de3660046122e9565b61149a565b6100a06100f13660046124aa565b611589565b6100a06101043660046124c5565b611c42565b6100a0610117366004612385565b612104565b604051600162ba669960e01b03198152815160048201526020820151602482015273__$8a461d6baeda20cc8b97c0d95fb84681dd$__9063ff4599679060440160206040518083038186803b15801561017457600080fd5b505af4158015610188573d6000803e3d6000fd5b505050506040513d601f19601f820116820180604052508101906101ac919061240c565b6101d15760405162461bcd60e51b81526004016101c890612830565b60405180910390fd5b60405163342a412360e01b8152815160048201526020820151602482015273__$8a461d6baeda20cc8b97c0d95fb84681dd$__9063342a41239060440160806040518083038186803b15801561022657600080fd5b505af415801561023a573d6000803e3d6000fd5b505050506040513d601f19601f8201168201806040525081019061025e919061253b565b516102d1576040516313ab5ce160e01b8152815160048201526020820151602482015273__$8a461d6baeda20cc8b97c0d95fb84681dd$__906313ab5ce19060440160006040518083038186803b1580156102b857600080fd5b505af41580156102cc573d6000803e3d6000fd5b505050505b60405163342a412360e01b8152815160048201526020820151602482015260009073__$8a461d6baeda20cc8b97c0d95fb84681dd$__9063342a41239060440160806040518083038186803b15801561032957600080fd5b505af415801561033d573d6000803e3d6000fd5b505050506040513d601f19601f82011682018060405250810190610361919061253b565b9050600054816060015114156103895760405162461bcd60e51b81526004016101c8906127d5565b60608101516040516303d8e5b360e41b8152339173__$8a461d6baeda20cc8b97c0d95fb84681dd$__91633d8e5b30916103c99160040190815260200190565b60206040518083038186803b1580156103e157600080fd5b505af41580156103f5573d6000803e3d6000fd5b505050506040513d601f19601f8201168201806040525081019061041991906122c6565b6001600160a01b03161461047a5760405162461bcd60e51b815260206004820152602260248201527f435552494f3a2043616e206f6e6c792072657061697220696e206f776e206261604482015261736560f01b60648201526084016101c8565b60408101516000548114156104d15760405162461bcd60e51b815260206004820152601960248201527f435552494f3a204e6f2074726f6f7020746f207265706169720000000000000060448201526064016101c8565b60006104db612155565b6000838152622dc6d391909101602090815260409182902082516101208101845281546001600160a01b031681526001820154818401526002820154818501526003820154606082015260048201546080820152600582015460a0820152600682015460c0820152835180850185526007830154815260088301548185015260e08201526009820180548551818602810186019096528086529194929361010086019392908301828280156105af57602002820191906000526020600020905b81548152602001906001019080831161059b575b5050509190925250508151919250506001600160a01b031633146106155760405162461bcd60e51b815260206004820181905260248201527f435552494f3a2043616e206f6e6c7920726570616972206f776e2074726f6f7060448201526064016101c8565b60208101516040516383bcfd8b60e01b8152600481019190915273__$8a461d6baeda20cc8b97c0d95fb84681dd$__906383bcfd8b9060240160206040518083038186803b15801561066657600080fd5b505af415801561067a573d6000803e3d6000fd5b505050506040513d601f19601f8201168201806040525081019061069e91906125b0565b8160c00151106106fc5760405162461bcd60e51b815260206004820152602360248201527f435552494f3a2054726f6f7020616c72656164792061742066756c6c206865616044820152620d8e8d60eb1b60648201526084016101c8565b60018160a0015161070b612155565b622dc6cb015461071b91906128ff565b10156107695760405162461bcd60e51b815260206004820152601c60248201527f435552494f3a20526570616972656420746f6f20726563656e746c790000000060448201526064016101c8565b60c0810180519061077982612916565b90525060c0810151610789612155565b6000848152622dc6d39190910160205260409020600601556107a9612155565b622dc6cb01546107b7612155565b6000848152622dc6d3919091016020908152604091829020600501929092558481015160c084015182513381529384019190915282820152517f8c6ef3a83ce15ee809a6310211efd15d7eb305c557db89478d972c2778f73cd99181900360600190a160208101516040516383bcfd8b60e01b8152600481019190915273__$8a461d6baeda20cc8b97c0d95fb84681dd$__906383bcfd8b9060240160206040518083038186803b15801561086b57600080fd5b505af415801561087f573d6000803e3d6000fd5b505050506040513d601f19601f820116820180604052508101906108a391906125b0565b8160c0015114156108e95760408051338152602081018490527f8c1256b8896378cd5044f80c202f9772b9d77dc85c8a6eb51967210b09bfaa2891015b60405180910390a15b50505050565b6108f7612155565b60060154610903612155565b622dc6cc015461091390426128ff565b101561097d5760405162461bcd60e51b815260206004820152603360248201527f435552494f3a204e6f7420656e6f7567682074696d652068617320656c6170736044820152720cac840e6d2dcc6ca40d8c2e6e840cae0dec6d606b1b60648201526084016101c8565b610985612155565b622dc6cb01805490600061099883612916565b9190505550426109a6612155565b622dc6cc01557fcb62e14f4587604f4099c842d98789e47ebdd0ccbf6fd86a0581aa337a602eb16109d5612155565b622dc6cb01546109e3612155565b622dc6cc01546040805192835260208301919091520160405180910390a1565b610a0b612155565b546001600160a01b03163314610a335760405162461bcd60e51b81526004016101c890612803565b604051600162ba669960e01b03198152835160048201526020840151602482015273__$8a461d6baeda20cc8b97c0d95fb84681dd$__9063ff4599679060440160206040518083038186803b158015610a8b57600080fd5b505af4158015610a9f573d6000803e3d6000fd5b505050506040513d601f19601f82011682018060405250810190610ac3919061240c565b610adf5760405162461bcd60e51b81526004016101c890612830565b60405163342a412360e01b8152835160048201526020840151602482015273__$8a461d6baeda20cc8b97c0d95fb84681dd$__9063342a41239060440160806040518083038186803b158015610b3457600080fd5b505af4158015610b48573d6000803e3d6000fd5b505050506040513d601f19601f82011682018060405250810190610b6c919061253b565b51610bdf576040516313ab5ce160e01b8152835160048201526020840151602482015273__$8a461d6baeda20cc8b97c0d95fb84681dd$__906313ab5ce19060440160006040518083038186803b158015610bc657600080fd5b505af4158015610bda573d6000803e3d6000fd5b505050505b60405163342a412360e01b8152835160048201526020840151602482015260009073__$8a461d6baeda20cc8b97c0d95fb84681dd$__9063342a41239060440160806040518083038186803b158015610c3757600080fd5b505af4158015610c4b573d6000803e3d6000fd5b505050506040513d601f19601f82011682018060405250810190610c6f919061253b565b9050600054816040015114610cbd5760405162461bcd60e51b815260206004820152601460248201527310d5549253ce88151a5b19481bd8d8dd5c1a595960621b60448201526064016101c8565b600054816060015114610f37576000610cd4612155565b60608301516000908152622dc6d091909101602052604090819020815160a081019092528054829060ff166001811115610d1e57634e487b7160e01b600052602160045260246000fd5b6001811115610d3d57634e487b7160e01b600052602160045260246000fd5b81526020016000820160019054906101000a90046001600160a01b03166001600160a01b03166001600160a01b0316815260200160018201548152602001600282015481526020016003820154815250509050836001600160a01b031681602001516001600160a01b03161480610dc6575060015460208201516001600160a01b039081169116145b610e275760405162461bcd60e51b815260206004820152602c60248201527f435552494f3a2043616e206f6e6c7920737061776e2074726f6f7020696e207060448201526b6c617965722773206261736560a01b60648201526084016101c8565b6040516355c6801760e11b81526004810184905273__$8a461d6baeda20cc8b97c0d95fb84681dd$__9063ab8d002e9060240160206040518083038186803b158015610e7257600080fd5b505af4158015610e86573d6000803e3d6000fd5b505050506040513d601f19601f82011682018060405250810190610eaa919061240c565b80610ed55750600081516001811115610ed357634e487b7160e01b600052602160045260246000fd5b145b610f355760405162461bcd60e51b815260206004820152602b60248201527f435552494f3a2043616e206f6e6c7920737061776e2077617465722074726f6f60448201526a707320696e20706f72747360a81b60648201526084016101c8565b505b604051630cbad10f60e21b81528451600482015260208501516024820152604481018390526001600160a01b0384166064820152600090819073__$8a461d6baeda20cc8b97c0d95fb84681dd$__906332eb443c9060840160006040518083038186803b158015610fa757600080fd5b505af4158015610fbb573d6000803e3d6000fd5b505050506040513d6000823e601f3d908101601f19168201604052610fe391908101906125c8565b915091507fa4499f4acaa7c58f1df4c9adc999d0c9ef0dcae3d4e4fdab0b1929a4ce4b26738583838960405161101c9493929190612700565b60405180910390a1505050505050565b611034612155565b546001600160a01b0316331461105c5760405162461bcd60e51b81526004016101c890612803565b604051600162ba669960e01b03198152825160048201526020830151602482015273__$8a461d6baeda20cc8b97c0d95fb84681dd$__9063ff4599679060440160206040518083038186803b1580156110b457600080fd5b505af41580156110c8573d6000803e3d6000fd5b505050506040513d601f19601f820116820180604052508101906110ec919061240c565b6111085760405162461bcd60e51b81526004016101c890612830565b60405163342a412360e01b8152825160048201526020830151602482015273__$8a461d6baeda20cc8b97c0d95fb84681dd$__9063342a41239060440160806040518083038186803b15801561115d57600080fd5b505af4158015611171573d6000803e3d6000fd5b505050506040513d601f19601f82011682018060405250810190611195919061253b565b51611208576040516313ab5ce160e01b8152825160048201526020830151602482015273__$8a461d6baeda20cc8b97c0d95fb84681dd$__906313ab5ce19060440160006040518083038186803b1580156111ef57600080fd5b505af4158015611203573d6000803e3d6000fd5b505050505b60405163342a412360e01b8152825160048201526020830151602482015260009073__$8a461d6baeda20cc8b97c0d95fb84681dd$__9063342a41239060440160806040518083038186803b15801561126057600080fd5b505af4158015611274573d6000803e3d6000fd5b505050506040513d601f19601f82011682018060405250810190611298919061253b565b9050600054816060015114156112c05760405162461bcd60e51b81526004016101c8906127d5565b60005481604001511461130c5760405162461bcd60e51b815260206004820152601460248201527310d5549253ce88151a5b19481bd8d8dd5c1a595960621b60448201526064016101c8565b6060810151604051632231a81d60e21b815260009173__$8a461d6baeda20cc8b97c0d95fb84681dd$__916388c6a0749161134d9160040190815260200190565b60a06040518083038186803b15801561136557600080fd5b505af4158015611379573d6000803e3d6000fd5b505050506040513d601f19601f8201168201806040525081019061139d9190612426565b9050826001600160a01b031681602001516001600160a01b031614156114135760405162461bcd60e51b815260206004820152602560248201527f435552494f3a204261736520616c72656164792062656c6f6e677320746f20706044820152643630bcb2b960d91b60648201526084016101c8565b8261141c612155565b606084810180516000908152622dc6d093909301602090815260408085208054610100600160a81b0319166101006001600160a01b0398891602179055935491518451958916865290850191909152918301919091527f746c135c6a9dcae5aed7b5c2ed677b2442befe9f3c236ab24d165059cf63ad8691016108e0565b6114a2612155565b546001600160a01b031633146114ca5760405162461bcd60e51b81526004016101c890612803565b60005b81518110156115855773__$8a461d6baeda20cc8b97c0d95fb84681dd$__6313ab5ce183838151811061151057634e487b7160e01b600052603260045260246000fd5b6020908102919091018101516040516001600160e01b031960e085901b16815281516004820152910151602482015260440160006040518083038186803b15801561155a57600080fd5b505af415801561156e573d6000803e3d6000fd5b50505050808061157d90612916565b9150506114cd565b5050565b604051600162ba669960e01b03198152815160048201526020820151602482015273__$8a461d6baeda20cc8b97c0d95fb84681dd$__9063ff4599679060440160206040518083038186803b1580156115e157600080fd5b505af41580156115f5573d6000803e3d6000fd5b505050506040513d601f19601f82011682018060405250810190611619919061240c565b6116355760405162461bcd60e51b81526004016101c890612830565b60405163342a412360e01b8152815160048201526020820151602482015273__$8a461d6baeda20cc8b97c0d95fb84681dd$__9063342a41239060440160806040518083038186803b15801561168a57600080fd5b505af415801561169e573d6000803e3d6000fd5b505050506040513d601f19601f820116820180604052508101906116c2919061253b565b51611735576040516313ab5ce160e01b8152815160048201526020820151602482015273__$8a461d6baeda20cc8b97c0d95fb84681dd$__906313ab5ce19060440160006040518083038186803b15801561171c57600080fd5b505af4158015611730573d6000803e3d6000fd5b505050505b60405163342a412360e01b8152815160048201526020820151602482015260009073__$8a461d6baeda20cc8b97c0d95fb84681dd$__9063342a41239060440160806040518083038186803b15801561178d57600080fd5b505af41580156117a1573d6000803e3d6000fd5b505050506040513d601f19601f820116820180604052508101906117c5919061253b565b9050600054816060015114156117ed5760405162461bcd60e51b81526004016101c8906127d5565b60608101516040516303d8e5b360e41b8152339173__$8a461d6baeda20cc8b97c0d95fb84681dd$__91633d8e5b309161182d9160040190815260200190565b60206040518083038186803b15801561184557600080fd5b505af4158015611859573d6000803e3d6000fd5b505050506040513d601f19601f8201168201806040525081019061187d91906122c6565b6001600160a01b0316146118df5760405162461bcd60e51b815260206004820152602360248201527f435552494f3a2043616e206f6e6c792070726f6475636520696e206f776e206260448201526261736560e81b60648201526084016101c8565b6000548160400151146119425760405162461bcd60e51b815260206004820152602560248201527f435552494f3a2042617365206f6363757069656420627920616e6f7468657220604482015264074726f6f760dc1b60648201526084016101c8565b600061194c612155565b622dc6cd01600083606001518152602001908152602001600020604051806040016040529081600082015481526020016001820154815250509050600054816000015114156119e85760405162461bcd60e51b815260206004820152602260248201527f435552494f3a204e6f2070726f64756374696f6e20666f756e6420696e206261604482015261736560f01b60648201526084016101c8565b80602001516119f5612155565b622dc6cb0154611a0591906128ff565b8151604051632f877ccb60e21b8152600481019190915273__$8a461d6baeda20cc8b97c0d95fb84681dd$__9063be1df32c9060240160206040518083038186803b158015611a5357600080fd5b505af4158015611a67573d6000803e3d6000fd5b505050506040513d601f19601f82011682018060405250810190611a8b91906125b0565b1115611aef5760405162461bcd60e51b815260206004820152602d60248201527f435552494f3a2054726f6f70206e65656473206d6f72652065706f636873206660448201526c37b910383937b23ab1ba34b7b760991b60648201526084016101c8565b8051604051630cbad10f60e21b815284516004820152602085015160248201526044810191909152336064820152600090819073__$8a461d6baeda20cc8b97c0d95fb84681dd$__906332eb443c9060840160006040518083038186803b158015611b5957600080fd5b505af4158015611b6d573d6000803e3d6000fd5b505050506040513d6000823e601f3d908101601f19168201604052611b9591908101906125c8565b91509150611ba1612155565b6060850180516000908152622dc6cd92909201602090815260408084208481556001019390935590518251338152918201527f090cd2d087c6868b958016cd34e5d03e269aed344f78042bd95eb0bd74b3253f910160405180910390a17fa4499f4acaa7c58f1df4c9adc999d0c9ef0dcae3d4e4fdab0b1929a4ce4b267333838388604051611c339493929190612700565b60405180910390a15050505050565b604051600162ba669960e01b03198152825160048201526020830151602482015273__$8a461d6baeda20cc8b97c0d95fb84681dd$__9063ff4599679060440160206040518083038186803b158015611c9a57600080fd5b505af4158015611cae573d6000803e3d6000fd5b505050506040513d601f19601f82011682018060405250810190611cd2919061240c565b611cee5760405162461bcd60e51b81526004016101c890612830565b60405163342a412360e01b8152825160048201526020830151602482015273__$8a461d6baeda20cc8b97c0d95fb84681dd$__9063342a41239060440160806040518083038186803b158015611d4357600080fd5b505af4158015611d57573d6000803e3d6000fd5b505050506040513d601f19601f82011682018060405250810190611d7b919061253b565b51611dee576040516313ab5ce160e01b8152825160048201526020830151602482015273__$8a461d6baeda20cc8b97c0d95fb84681dd$__906313ab5ce19060440160006040518083038186803b158015611dd557600080fd5b505af4158015611de9573d6000803e3d6000fd5b505050505b60405163342a412360e01b8152825160048201526020830151602482015260009073__$8a461d6baeda20cc8b97c0d95fb84681dd$__9063342a41239060440160806040518083038186803b158015611e4657600080fd5b505af4158015611e5a573d6000803e3d6000fd5b505050506040513d601f19601f82011682018060405250810190611e7e919061253b565b606001516001546040516303d8e5b360e41b8152600481018390529192506001600160a01b03169073__$8a461d6baeda20cc8b97c0d95fb84681dd$__90633d8e5b309060240160206040518083038186803b158015611edd57600080fd5b505af4158015611ef1573d6000803e3d6000fd5b505050506040513d601f19601f82011682018060405250810190611f1591906122c6565b6001600160a01b031614611f625760405162461bcd60e51b815260206004820152601460248201527321aaa924a79d102130b9b29034b9903a30b5b2b760611b60448201526064016101c8565b611f6a612155565b6001600160a01b0383166000908152600a91909101602052604090206001015460ff1615611fe45760405162461bcd60e51b815260206004820152602160248201527f435552494f3a20506c6179657220616c726561647920696e697469616c697a656044820152601960fa1b60648201526084016101c8565b611fec612155565b6009018054600181018255600091825260209091200180546001600160a01b0319166001600160a01b038416179055604080518082019091528061202e612155565b622dc6cb015481526001602090910152612046612155565b6001600160a01b0384166000908152600a9190910160209081526040909120825181559101516001909101805460ff191691151591909117905581612089612155565b622dc6d001600083815260200190815260200160002060000160016101000a8154816001600160a01b0302191690836001600160a01b031602179055507ff0a6a142d1cdc04619a8fd8924155cd64ff41b31e4226fb7ffa08e5ade8d6f9d82846040516120f79291906126d9565b60405180910390a1505050565b61210c612155565b546001600160a01b031633146121345760405162461bcd60e51b81526004016101c890612803565b8061213d612155565b622dc6d6019080519060200190611585929190612179565b7f8d1bebda6a12a792ffba01f92494c5be0cd4ce8e2d8e46d2c616016d7e70fd2090565b8280548282559060005260206000209081019282156121b4579160200282015b828111156121b4578251825591602001919060010190612199565b506121c09291506121c4565b5090565b5b808211156121c057600081556001016121c5565b80516121e48161295d565b919050565b600082601f8301126121f9578081fd5b8151602061220e612209836128db565b6128aa565b80838252828201915082860187848660051b890101111561222d578586fd5b855b8581101561224b5781518452928401929084019060010161222f565b5090979650505050505050565b805180151581146121e457600080fd5b600060408284031215612279578081fd5b61228161285d565b9050813581526020820135602082015292915050565b6000604082840312156122a8578081fd5b6122b061285d565b9050815181526020820151602082015292915050565b6000602082840312156122d7578081fd5b81516122e28161295d565b9392505050565b600060208083850312156122fb578182fd5b823567ffffffffffffffff811115612311578283fd5b8301601f81018513612321578283fd5b803561232f612209826128db565b80828252848201915084840188868560061b870101111561234e578687fd5b8694505b83851015612379576123648982612268565b83526001949094019391850191604001612352565b50979650505050505050565b60006020808385031215612397578182fd5b823567ffffffffffffffff8111156123ad578283fd5b8301601f810185136123bd578283fd5b80356123cb612209826128db565b80828252848201915084840188868560051b87010111156123ea578687fd5b8694505b838510156123795780358352600194909401939185019185016123ee565b60006020828403121561241d578081fd5b6122e282612258565b600060a08284031215612437578081fd5b60405160a0810181811067ffffffffffffffff8211171561245a5761245a612947565b60405282516002811061246b578283fd5b8152602083015161247b8161295d565b806020830152506040830151604082015260608301516060820152608083015160808201528091505092915050565b6000604082840312156124bb578081fd5b6122e28383612268565b600080606083850312156124d7578081fd5b6124e18484612268565b915060408301356124f18161295d565b809150509250929050565b600080600060808486031215612510578081fd5b61251a8585612268565b9250604084013561252a8161295d565b929592945050506060919091013590565b60006080828403121561254c578081fd5b6040516080810181811067ffffffffffffffff8211171561256f5761256f612947565b60405261257b83612258565b815260208301516003811061258e578283fd5b6020820152604083810151908201526060928301519281019290925250919050565b6000602082840312156125c1578081fd5b5051919050565b600080604083850312156125da578182fd5b82519150602083015167ffffffffffffffff808211156125f8578283fd5b90840190610140828703121561260c578283fd5b612614612886565b61261d836121d9565b81526020830151602082015260408301516040820152606083015160608201526080830151608082015260a083015160a082015260c083015160c08201526126688760e08501612297565b60e08201526101208301518281111561267f578485fd5b61268b888286016121e9565b610100830152508093505050509250929050565b6000815180845260208085019450808401835b838110156126ce578151875295820195908201906001016126b2565b509495945050505050565b6001600160a01b0383168152606081016122e2602083018480518252602090810151910152565b60018060a01b038516815283602082015260a0604082015261272e60a0820184516001600160a01b03169052565b602083015160c0820152604083015160e0820152600060608401516101008181850152608086015161012085015260a08601519150610140828186015260c087015161016086015260e0870151925061279561018086018480518252602090810151910152565b818701519250806101c086015250506127b26101e084018261269f565b845160608501526020850151608085015291506127cc9050565b95945050505050565b60208082526014908201527310d5549253ce88139bc818985cd948199bdd5b9960621b604082015260600190565b60208082526013908201527210d5549253ce88155b985d5d1a1bdc9a5e9959606a1b604082015260600190565b60208082526013908201527210d5549253ce8813dd5d081bd988189bdd5b99606a1b604082015260600190565b6040805190810167ffffffffffffffff8111828210171561288057612880612947565b60405290565b604051610120810167ffffffffffffffff8111828210171561288057612880612947565b604051601f8201601f1916810167ffffffffffffffff811182821017156128d3576128d3612947565b604052919050565b600067ffffffffffffffff8211156128f5576128f5612947565b5060051b60200190565b60008282101561291157612911612931565b500390565b600060001982141561292a5761292a612931565b5060010190565b634e487b7160e01b600052601160045260246000fd5b634e487b7160e01b600052604160045260246000fd5b6001600160a01b038116811461297257600080fd5b5056fea26469706673582212203598908f0d38a7c85063f2b17ff75eddd497039da5ad773a29f6218c54138f1964736f6c63430008040033",
    "linkReferences": {
      "contracts/libraries/GameUtil.sol": {
        "Util": [
          {
            "start": 371,
            "length": 20
          },
          {
            "start": 549,
            "length": 20
          },
          {
            "start": 695,
            "length": 20
          },
          {
            "start": 808,
            "length": 20
          },
          {
            "start": 979,
            "length": 20
          },
          {
            "start": 1637,
            "length": 20
          },
          {
            "start": 2154,
            "length": 20
          },
          {
            "start": 2698,
            "length": 20
          },
          {
            "start": 2867,
            "length": 20
          },
          {
            "start": 3013,
            "length": 20
          },
          {
            "start": 3126,
            "length": 20
          },
          {
            "start": 3697,
            "length": 20
          },
          {
            "start": 4006,
            "length": 20
          },
          {
            "start": 4275,
            "length": 20
          },
          {
            "start": 4444,
            "length": 20
          },
          {
            "start": 4590,
            "length": 20
          },
          {
            "start": 4703,
            "length": 20
          },
          {
            "start": 4951,
            "length": 20
          },
          {
            "start": 5388,
            "length": 20
          },
          {
            "start": 5600,
            "length": 20
          },
          {
            "start": 5769,
            "length": 20
          },
          {
            "start": 5915,
            "length": 20
          },
          {
            "start": 6028,
            "length": 20
          },
          {
            "start": 6199,
            "length": 20
          },
          {
            "start": 6738,
            "length": 20
          },
          {
            "start": 7000,
            "length": 20
          },
          {
            "start": 7321,
            "length": 20
          },
          {
            "start": 7490,
            "length": 20
          },
          {
            "start": 7636,
            "length": 20
          },
          {
            "start": 7749,
            "length": 20
          },
          {
            "start": 7900,
            "length": 20
          }
        ]
      }
    }
  },
  "methodIdentifiers": {
    "bulkInitializeTiles((uint256,uint256)[])": "ac344fb7",
    "endProduction((uint256,uint256))": "d08b70f4",
    "initializePlayer((uint256,uint256),address)": "d9a8ae7d",
    "repair((uint256,uint256))": "0a8ac907",
    "spawnTroop((uint256,uint256),address,uint256)": "60a03a2a",
    "storeEncodedRawMapCols(uint256[])": "d9c327f7",
    "transferBaseOwnership((uint256,uint256),address)": "954b855d",
    "updateEpoch()": "36f4fb02"
  },
  "id": 5
}