{
  "abi": [
    {
      "inputs": [],
      "name": "Unauthorized",
      "type": "error"
    },
    {
      "anonymous": false,
      "inputs": [
        {
          "indexed": false,
          "internalType": "address",
          "name": "_player",
          "type": "address"
        },
        {
          "indexed": false,
          "internalType": "uint256",
          "name": "_troopId",
          "type": "uint256"
        },
        {
          "indexed": false,
          "internalType": "address",
          "name": "_targetPlayer",
          "type": "address"
        },
        {
          "indexed": false,
          "internalType": "uint256",
          "name": "_targetId",
          "type": "uint256"
        }
      ],
      "name": "Attacked",
      "type": "event"
    },
    {
      "anonymous": false,
      "inputs": [
        {
          "indexed": false,
          "internalType": "address",
          "name": "_player",
          "type": "address"
        },
        {
          "indexed": false,
          "internalType": "uint256",
          "name": "_troopId",
          "type": "uint256"
        },
        {
          "indexed": false,
          "internalType": "uint256",
          "name": "_baseId",
          "type": "uint256"
        }
      ],
      "name": "BaseCaptured",
      "type": "event"
    },
    {
      "anonymous": false,
      "inputs": [
        {
          "indexed": false,
          "internalType": "address",
          "name": "_player",
          "type": "address"
        },
        {
          "indexed": false,
          "internalType": "uint256",
          "name": "_troopId",
          "type": "uint256"
        }
      ],
      "name": "Death",
      "type": "event"
    },
    {
      "anonymous": false,
      "inputs": [
        {
          "indexed": false,
          "internalType": "uint256",
          "name": "_epoch",
          "type": "uint256"
        },
        {
          "indexed": false,
          "internalType": "uint256",
          "name": "_time",
          "type": "uint256"
        }
      ],
      "name": "EpochUpdate",
      "type": "event"
    },
    {
      "anonymous": false,
      "inputs": [
        {
          "indexed": false,
          "internalType": "address",
          "name": "_player",
          "type": "address"
        },
        {
          "indexed": false,
          "internalType": "uint256",
          "name": "_troopId",
          "type": "uint256"
        },
        {
          "components": [
            {
              "internalType": "uint256",
              "name": "x",
              "type": "uint256"
            },
            {
              "internalType": "uint256",
              "name": "y",
              "type": "uint256"
            }
          ],
          "indexed": false,
          "internalType": "struct Position",
          "name": "_pos",
          "type": "tuple"
        }
      ],
      "name": "Moved",
      "type": "event"
    },
    {
      "anonymous": false,
      "inputs": [
        {
          "indexed": false,
          "internalType": "address",
          "name": "_player",
          "type": "address"
        },
        {
          "components": [
            {
              "internalType": "uint256",
              "name": "x",
              "type": "uint256"
            },
            {
              "internalType": "uint256",
              "name": "y",
              "type": "uint256"
            }
          ],
          "indexed": false,
          "internalType": "struct Position",
          "name": "_pos",
          "type": "tuple"
        }
      ],
      "name": "NewPlayer",
      "type": "event"
    },
    {
      "anonymous": false,
      "inputs": [
        {
          "indexed": false,
          "internalType": "address",
          "name": "_player",
          "type": "address"
        },
        {
          "indexed": false,
          "internalType": "uint256",
          "name": "_troopId",
          "type": "uint256"
        },
        {
          "components": [
            {
              "internalType": "uint256",
              "name": "x",
              "type": "uint256"
            },
            {
              "internalType": "uint256",
              "name": "y",
              "type": "uint256"
            }
          ],
          "indexed": false,
          "internalType": "struct Position",
          "name": "_pos",
          "type": "tuple"
        }
      ],
      "name": "NewTroop",
      "type": "event"
    },
    {
      "anonymous": false,
      "inputs": [
        {
          "indexed": false,
          "internalType": "address",
          "name": "_player",
          "type": "address"
        },
        {
          "indexed": false,
          "internalType": "uint256",
          "name": "_baseId",
          "type": "uint256"
        },
        {
          "indexed": false,
          "internalType": "uint256",
          "name": "_troopTypeId",
          "type": "uint256"
        }
      ],
      "name": "ProductionStarted",
      "type": "event"
    },
    {
      "anonymous": false,
      "inputs": [
        {
          "indexed": false,
          "internalType": "address",
          "name": "_player",
          "type": "address"
        },
        {
          "indexed": false,
          "internalType": "uint256",
          "name": "_troopId",
          "type": "uint256"
        }
      ],
      "name": "Recovered",
      "type": "event"
    },
    {
      "anonymous": false,
      "inputs": [
        {
          "indexed": false,
          "internalType": "address",
          "name": "_player",
          "type": "address"
        },
        {
          "indexed": false,
          "internalType": "uint256",
          "name": "_troopId",
          "type": "uint256"
        },
        {
          "indexed": false,
          "internalType": "uint256",
          "name": "_health",
          "type": "uint256"
        }
      ],
      "name": "Repaired",
      "type": "event"
    },
    {
      "inputs": [
        {
          "internalType": "uint256",
          "name": "_troopId",
          "type": "uint256"
        },
        {
          "components": [
            {
              "internalType": "uint256",
              "name": "x",
              "type": "uint256"
            },
            {
              "internalType": "uint256",
              "name": "y",
              "type": "uint256"
            }
          ],
          "internalType": "struct Position",
          "name": "_targetPos",
          "type": "tuple"
        }
      ],
      "name": "battle",
      "outputs": [],
      "stateMutability": "nonpayable",
      "type": "function"
    },
    {
      "inputs": [
        {
          "internalType": "uint256",
          "name": "_troopId",
          "type": "uint256"
        },
        {
          "components": [
            {
              "internalType": "uint256",
              "name": "x",
              "type": "uint256"
            },
            {
              "internalType": "uint256",
              "name": "y",
              "type": "uint256"
            }
          ],
          "internalType": "struct Position",
          "name": "_targetPos",
          "type": "tuple"
        }
      ],
      "name": "captureBase",
      "outputs": [],
      "stateMutability": "nonpayable",
      "type": "function"
    },
    {
      "inputs": [
        {
          "components": [
            {
              "internalType": "uint256",
              "name": "x",
              "type": "uint256"
            },
            {
              "internalType": "uint256",
              "name": "y",
              "type": "uint256"
            }
          ],
          "internalType": "struct Position",
          "name": "_pos",
          "type": "tuple"
        }
      ],
      "name": "endProduction",
      "outputs": [],
      "stateMutability": "nonpayable",
      "type": "function"
    },
    {
      "inputs": [
        {
          "components": [
            {
              "internalType": "uint256",
              "name": "x",
              "type": "uint256"
            },
            {
              "internalType": "uint256",
              "name": "y",
              "type": "uint256"
            }
          ],
          "internalType": "struct Position",
          "name": "_pos",
          "type": "tuple"
        },
        {
          "internalType": "address",
          "name": "_player",
          "type": "address"
        }
      ],
      "name": "initializePlayer",
      "outputs": [],
      "stateMutability": "nonpayable",
      "type": "function"
    },
    {
      "inputs": [
        {
          "internalType": "uint256",
          "name": "_troopId",
          "type": "uint256"
        },
        {
          "components": [
            {
              "internalType": "uint256",
              "name": "x",
              "type": "uint256"
            },
            {
              "internalType": "uint256",
              "name": "y",
              "type": "uint256"
            }
          ],
          "internalType": "struct Position",
          "name": "_targetPos",
          "type": "tuple"
        }
      ],
      "name": "move",
      "outputs": [],
      "stateMutability": "nonpayable",
      "type": "function"
    },
    {
      "inputs": [
        {
          "components": [
            {
              "internalType": "uint256",
              "name": "x",
              "type": "uint256"
            },
            {
              "internalType": "uint256",
              "name": "y",
              "type": "uint256"
            }
          ],
          "internalType": "struct Position",
          "name": "_pos",
          "type": "tuple"
        }
      ],
      "name": "repair",
      "outputs": [],
      "stateMutability": "nonpayable",
      "type": "function"
    },
    {
      "inputs": [
        {
          "components": [
            {
              "internalType": "uint256",
              "name": "x",
              "type": "uint256"
            },
            {
              "internalType": "uint256",
              "name": "y",
              "type": "uint256"
            }
          ],
          "internalType": "struct Position",
          "name": "_startPos",
          "type": "tuple"
        },
        {
          "internalType": "uint256[][]",
          "name": "_chunk",
          "type": "uint256[][]"
        }
      ],
      "name": "setMapChunk",
      "outputs": [],
      "stateMutability": "nonpayable",
      "type": "function"
    },
    {
      "inputs": [
        {
          "components": [
            {
              "internalType": "uint256",
              "name": "x",
              "type": "uint256"
            },
            {
              "internalType": "uint256",
              "name": "y",
              "type": "uint256"
            }
          ],
          "internalType": "struct Position",
          "name": "_pos",
          "type": "tuple"
        },
        {
          "internalType": "address",
          "name": "_player",
          "type": "address"
        },
        {
          "internalType": "uint256",
          "name": "_troopTypeId",
          "type": "uint256"
        }
      ],
      "name": "spawnTroop",
      "outputs": [],
      "stateMutability": "nonpayable",
      "type": "function"
    },
    {
      "inputs": [
        {
          "components": [
            {
              "internalType": "uint256",
              "name": "x",
              "type": "uint256"
            },
            {
              "internalType": "uint256",
              "name": "y",
              "type": "uint256"
            }
          ],
          "internalType": "struct Position",
          "name": "_pos",
          "type": "tuple"
        },
        {
          "internalType": "uint256",
          "name": "_troopTypeId",
          "type": "uint256"
        }
      ],
      "name": "startProduction",
      "outputs": [],
      "stateMutability": "nonpayable",
      "type": "function"
    },
    {
      "inputs": [],
      "name": "updateEpoch",
      "outputs": [],
      "stateMutability": "nonpayable",
      "type": "function"
    }
  ],
  "bytecode": {
    "object": "0x608060405260008055600180546001600160a01b031916905534801561002457600080fd5b50614648806100346000396000f3fe608060405234801561001057600080fd5b506004361061009e5760003560e01c8063d08b70f411610066578063d08b70f4146100f9578063d91c29831461010c578063d9a8ae7d1461011f578063f7d12dd014610132578063fa3c7db01461014557600080fd5b80630a8ac907146100a357806331b9f0d1146100b857806336f4fb02146100cb57806360a03a2a146100d3578063c3c5ec4c146100e6575b600080fd5b6100b66100b13660046140b9565b610158565b005b6100b66100c636600461414a565b610727565b6100b66109af565b6100b66100e136600461410b565b610abc565b6100b66100f4366004614318565b610efe565b6100b66101073660046140b9565b611fe7565b6100b661011a366004614318565b61244a565b6100b661012d3660046140d4565b612c10565b6100b6610140366004614272565b612ec4565b6100b6610153366004614318565b6132cb565b60405163342a412360e01b8152815160048201526020820151602482015260009073__$8a461d6baeda20cc8b97c0d95fb84681dd$__9063342a41239060440160606040518083038186803b1580156101b057600080fd5b505af41580156101c4573d6000803e3d6000fd5b505050506040513d601f19601f820116820180604052508101906101e8919061429c565b9050600054816040015114156102195760405162461bcd60e51b81526004016102109061441a565b60405180910390fd5b60408082015190516303d8e5b360e41b8152339173__$8a461d6baeda20cc8b97c0d95fb84681dd$__91633d8e5b30916102599160040190815260200190565b60206040518083038186803b15801561027157600080fd5b505af4158015610285573d6000803e3d6000fd5b505050506040513d601f19601f820116820180604052508101906102a99190614076565b6001600160a01b0316146102ff5760405162461bcd60e51b815260206004820152601b60248201527f43616e206f6e6c792072657061697220696e206f776e206261736500000000006044820152606401610210565b602081015160005481141561034b5760405162461bcd60e51b81526020600482015260126024820152712737903a3937b7b8103a37903932b830b4b960711b6044820152606401610210565b6000610355614004565b6000838152622dc6d191909101602090815260409182902082516101208101845281546001600160a01b031681526001820154818401526002820154818501526003820154606082015260048201546080820152600582015460a0820152600682015460c0820152835180850185526007830154815260088301548185015260e082015260098201805485518186028101860190965280865291949293610100860193929083018282801561042957602002820191906000526020600020905b815481526020019060010190808311610415575b5050509190925250508151919250506001600160a01b0316331461048f5760405162461bcd60e51b815260206004820152601960248201527f43616e206f6e6c7920726570616972206f776e2074726f6f70000000000000006044820152606401610210565b60208101516040516383bcfd8b60e01b8152600481019190915273__$8a461d6baeda20cc8b97c0d95fb84681dd$__906383bcfd8b9060240160206040518083038186803b1580156104e057600080fd5b505af41580156104f4573d6000803e3d6000fd5b505050506040513d601f19601f820116820180604052508101906105189190614300565b8160c001511061056a5760405162461bcd60e51b815260206004820152601c60248201527f54726f6f7020616c72656164792061742066756c6c206865616c7468000000006044820152606401610210565b60018160a00151610579614004565b622dc6c90154610589919061454f565b10156105cf5760405162461bcd60e51b8152602060048201526015602482015274526570616972656420746f6f20726563656e746c7960581b6044820152606401610210565b60c081018051906105df8261457d565b90525060c08101516105ef614004565b6000848152622dc6d1919091016020908152604091829020600601929092558482015160c084015182513381529384019190915282820152517f8c6ef3a83ce15ee809a6310211efd15d7eb305c557db89478d972c2778f73cd99181900360600190a160208101516040516383bcfd8b60e01b8152600481019190915273__$8a461d6baeda20cc8b97c0d95fb84681dd$__906383bcfd8b9060240160206040518083038186803b1580156106a357600080fd5b505af41580156106b7573d6000803e3d6000fd5b505050506040513d601f19601f820116820180604052508101906106db9190614300565b8160c0015114156107215760408051338152602081018490527f8c1256b8896378cd5044f80c202f9772b9d77dc85c8a6eb51967210b09bfaa2891015b60405180910390a15b50505050565b61072f614004565b546001600160a01b03163314610757576040516282b42960e81b815260040160405180910390fd5b60005b81518110156109aa5760005b8260008151811061078757634e487b7160e01b600052603260045260246000fd5b60200260200101515181101561099757600060405180604001604052808487600001516107b49190614537565b81526020018387602001516107c99190614537565b815250905060008484815181106107f057634e487b7160e01b600052603260045260246000fd5b6020026020010151838151811061081757634e487b7160e01b600052603260045260246000fd5b60200260200101519050600381106108d95760008160031461083a57600161083d565b60005b6040516339e83f3b60e21b815290915073__$8a461d6baeda20cc8b97c0d95fb84681dd$__9063e7a0fcec906108799086908590600401614441565b60206040518083038186803b15801561089157600080fd5b505af41580156108a5573d6000803e3d6000fd5b505050506040513d601f19601f820116820180604052508101906108c99190614300565b506108d560038361454f565b9150505b8060028111156108f957634e487b7160e01b600052602160045260246000fd5b610901614004565b60090183600001516103e8811061092857634e487b7160e01b600052603260045260246000fd5b610bb8020183602001516103e8811061095157634e487b7160e01b600052603260045260246000fd5b60030201805460ff1916600183600281111561097d57634e487b7160e01b600052602160045260246000fd5b02179055505050808061098f9061457d565b915050610766565b50806109a28161457d565b91505061075a565b505050565b6109b7614004565b600601546109c3614004565b622dc6ca01546109d3904261454f565b1015610a365760405162461bcd60e51b815260206004820152602c60248201527f4e6f7420656e6f7567682074696d652068617320656c61707365642073696e6360448201526b0ca40d8c2e6e840cae0dec6d60a31b6064820152608401610210565b610a3e614004565b622dc6c9018054906000610a518361457d565b919050555042610a5f614004565b622dc6ca01557fcb62e14f4587604f4099c842d98789e47ebdd0ccbf6fd86a0581aa337a602eb1610a8e614004565b622dc6c90154610a9c614004565b622dc6ca01546040805192835260208301919091520160405180910390a1565b610ac4614004565b546001600160a01b03163314610aec576040516282b42960e81b815260040160405180910390fd5b60405163342a412360e01b8152835160048201526020840151602482015260009073__$8a461d6baeda20cc8b97c0d95fb84681dd$__9063342a41239060440160606040518083038186803b158015610b4457600080fd5b505af4158015610b58573d6000803e3d6000fd5b505050506040513d601f19601f82011682018060405250810190610b7c919061429c565b9050600054816020015114610bc35760405162461bcd60e51b815260206004820152600d60248201526c151a5b19481bd8d8dd5c1a5959609a1b6044820152606401610210565b600054816040015114610e14576000610bda614004565b6040808401516000908152622dc6ce9290920160205290819020815160a081019092528054829060ff166001811115610c2357634e487b7160e01b600052602160045260246000fd5b6001811115610c4257634e487b7160e01b600052602160045260246000fd5b81526020016000820160019054906101000a90046001600160a01b03166001600160a01b03166001600160a01b0316815260200160018201548152602001600282015481526020016003820154815250509050836001600160a01b031681602001516001600160a01b031614610d085760405162461bcd60e51b815260206004820152602560248201527f43616e206f6e6c7920737061776e2074726f6f7020696e20706c617965722773604482015264206261736560d81b6064820152608401610210565b6040516355c6801760e11b81526004810184905273__$8a461d6baeda20cc8b97c0d95fb84681dd$__9063ab8d002e9060240160206040518083038186803b158015610d5357600080fd5b505af4158015610d67573d6000803e3d6000fd5b505050506040513d601f19601f82011682018060405250810190610d8b9190614099565b158015610db95750600081516001811115610db657634e487b7160e01b600052602160045260246000fd5b14155b15610e125760405162461bcd60e51b8152602060048201526024808201527f43616e206f6e6c7920737061776e2077617465722074726f6f707320696e20706044820152636f72747360e01b6064820152608401610210565b505b604051630cbad10f60e21b81528451600482015260208501516024820152604481018390526001600160a01b038416606482015260009073__$8a461d6baeda20cc8b97c0d95fb84681dd$__906332eb443c9060840160206040518083038186803b158015610e8257600080fd5b505af4158015610e96573d6000803e3d6000fd5b505050506040513d601f19601f82011682018060405250810190610eba9190614300565b90507f0224a232bfc1cdf83a29442d7fc98c1bd70e4a4d0c0e888ed6c01677e45b7042848287604051610eef93929190614395565b60405180910390a15050505050565b604051600162ba669960e01b03198152815160048201526020820151602482015273__$8a461d6baeda20cc8b97c0d95fb84681dd$__9063ff4599679060440160206040518083038186803b158015610f5657600080fd5b505af4158015610f6a573d6000803e3d6000fd5b505050506040513d601f19601f82011682018060405250810190610f8e9190614099565b610faa5760405162461bcd60e51b8152600401610210906143ed565b6000610fb4614004565b6000848152622dc6d191909101602090815260409182902082516101208101845281546001600160a01b031681526001820154818401526002820154818501526003820154606082015260048201546080820152600582015460a0820152600682015460c0820152835180850185526007830154815260088301548185015260e082015260098201805485518186028101860190965280865291949293610100860193929083018282801561108857602002820191906000526020600020905b815481526020019060010190808311611074575b5050509190925250508151919250506001600160a01b031633146110ee5760405162461bcd60e51b815260206004820152601f60248201527f43616e206f6e6c7920626174746c65207573696e67206f776e2074726f6f70006044820152606401610210565b60e081015160405163d18036a960e01b815273__$8a461d6baeda20cc8b97c0d95fb84681dd$__9163d18036a99161112b91908690600401614470565b60206040518083038186803b15801561114357600080fd5b505af4158015611157573d6000803e3d6000fd5b505050506040513d601f19601f8201168201806040525081019061117b9190614099565b156111c15760405162461bcd60e51b815260206004820152601660248201527520b63932b0b23c9030ba103232b9ba34b730ba34b7b760511b6044820152606401610210565b60e08101516040516314adce4360e21b8152815160048201526020918201516024820152835160448201529083015160648201526001608482015273__$8a461d6baeda20cc8b97c0d95fb84681dd$__906352b7390c9060a40160206040518083038186803b15801561123357600080fd5b505af4158015611247573d6000803e3d6000fd5b505050506040513d601f19601f8201168201806040525081019061126b9190614099565b6112875760405162461bcd60e51b8152600401610210906143c0565b60208101516040516387900eed60e01b8152600481019190915273__$8a461d6baeda20cc8b97c0d95fb84681dd$__906387900eed9060240160206040518083038186803b1580156112d857600080fd5b505af41580156112ec573d6000803e3d6000fd5b505050506040513d601f19601f820116820180604052508101906113109190614300565b816080015161131d614004565b622dc6c9015461132d919061454f565b10156113735760405162461bcd60e51b815260206004820152601560248201527441747461636b656420746f6f20726563656e746c7960581b6044820152606401610210565b60405163342a412360e01b8152825160048201526020830151602482015260009073__$8a461d6baeda20cc8b97c0d95fb84681dd$__9063342a41239060440160606040518083038186803b1580156113cb57600080fd5b505af41580156113df573d6000803e3d6000fd5b505050506040513d601f19601f82011682018060405250810190611403919061429c565b90506000806000806000805486602001511461171f576000611423614004565b6020808901516000908152622dc6d192909201815260409182902082516101208101845281546001600160a01b031681526001820154818401526002820154818501526003820154606082015260048201546080820152600582015460a0820152600682015460c0820152835180850185526007830154815260088301548185015260e08201526009820180548551818602810186019096528086529194929361010086019392908301828280156114fa57602002820191906000526020600020905b8154815260200190600101908083116114e6575b5050509190925250508151919250506001600160a01b03163314156115615760405162461bcd60e51b815260206004820152601760248201527f43616e6e6f742061747461636b206f776e2074726f6f700000000000000000006044820152606401610210565b602081015160405163357de1eb60e01b815260048101919091526000965073__$8a461d6baeda20cc8b97c0d95fb84681dd$__9063357de1eb9060240160206040518083038186803b1580156115b657600080fd5b505af41580156115ca573d6000803e3d6000fd5b505050506040513d601f19601f820116820180604052508101906115ee9190614300565b6020820151604051630e67e8b560e31b815291965073__$8a461d6baeda20cc8b97c0d95fb84681dd$__9163733f45a89161162f9160040190815260200190565b60206040518083038186803b15801561164757600080fd5b505af415801561165b573d6000803e3d6000fd5b505050506040513d601f19601f8201168201806040525081019061167f9190614300565b6020820151604051639f07295d60e01b815291955073__$8a461d6baeda20cc8b97c0d95fb84681dd$__91639f07295d916116c09160040190815260200190565b60206040518083038186803b1580156116d857600080fd5b505af41580156116ec573d6000803e3d6000fd5b505050506040513d601f19601f820116820180604052508101906117109190614300565b92508060c0015191505061188c565b6000548660400151141561176b5760405162461bcd60e51b81526020600482015260136024820152724e6f2074617267657420746f2061747461636b60681b6044820152606401610210565b6000611775614004565b6040808901516000908152622dc6ce9290920160205290819020815160a081019092528054829060ff1660018111156117be57634e487b7160e01b600052602160045260246000fd5b60018111156117dd57634e487b7160e01b600052602160045260246000fd5b815281546001600160a01b0361010090910481166020808401919091526001840154604084015260028401546060840152600390930154608090920191909152908201519192501633141561186d5760405162461bcd60e51b815260206004820152601660248201527543616e6e6f742061747461636b206f776e206261736560501b6044820152606401610210565b6001955080604001519450806060015193506000925080608001519150505b60405163faf3edd160e01b81526004810185905273__$8a461d6baeda20cc8b97c0d95fb84681dd$__9063faf3edd19060240160206040518083038186803b1580156118d757600080fd5b505af41580156118eb573d6000803e3d6000fd5b505050506040513d601f19601f8201168201806040525081019061190f9190614099565b15611cdc576020870151604051639f07295d60e01b815260009173__$8a461d6baeda20cc8b97c0d95fb84681dd$__91639f07295d916119559160040190815260200190565b60206040518083038186803b15801561196d57600080fd5b505af4158015611981573d6000803e3d6000fd5b505050506040513d601f19601f820116820180604052508101906119a59190614300565b90508181106119b757600091506119c4565b6119c1818361454f565b91505b8515611ab457816119d3614004565b622dc6ce01600089604001518152602001908152602001600020600301819055506000805160206145f3833981519152338b73__$8a461d6baeda20cc8b97c0d95fb84681dd$__633d8e5b308b604001516040518263ffffffff1660e01b8152600401611a4291815260200190565b60206040518083038186803b158015611a5a57600080fd5b505af4158015611a6e573d6000803e3d6000fd5b505050506040513d601f19601f82011682018060405250810190611a929190614076565b8a60400151604051611aa7949392919061436b565b60405180910390a1611cda565b81611abd614004565b622dc6d101600089602001518152602001908152602001600020600601819055506000805160206145f3833981519152338b73__$8a461d6baeda20cc8b97c0d95fb84681dd$__63a596a1068b602001516040518263ffffffff1660e01b8152600401611b2c91815260200190565b60206040518083038186803b158015611b4457600080fd5b505af4158015611b58573d6000803e3d6000fd5b505050506040513d601f19601f82011682018060405250810190611b7c9190614076565b8a60200151604051611b91949392919061436b565b60405180910390a181611cda57602087015160405163877fbaf160e01b815273__$8a461d6baeda20cc8b97c0d95fb84681dd$__9163877fbaf191611bda918d91600401614496565b60006040518083038186803b158015611bf257600080fd5b505af4158015611c06573d6000803e3d6000fd5b5050505060208701516040516303d8e5b360e41b815260048101919091527fae995c79a88e396955e94cb3d6a80e56e1269ee8f5f9c3ab36de945cb05affbe9073__$8a461d6baeda20cc8b97c0d95fb84681dd$__90633d8e5b309060240160206040518083038186803b158015611c7d57600080fd5b505af4158015611c91573d6000803e3d6000fd5b505050506040513d601f19601f82011682018060405250810190611cb59190614076565b6020808a0151604080516001600160a01b039094168452918301520160405180910390a15b505b60405163faf3edd160e01b81526004810184905273__$8a461d6baeda20cc8b97c0d95fb84681dd$__9063faf3edd19060240160206040518083038186803b158015611d2757600080fd5b505af4158015611d3b573d6000803e3d6000fd5b505050506040513d601f19601f82011682018060405250810190611d5f9190614099565b15611fdc578415611e2c5760408087015190516303d8e5b360e41b81526000805160206145f38339815191529173__$8a461d6baeda20cc8b97c0d95fb84681dd$__91633d8e5b3091611db89160040190815260200190565b60206040518083038186803b158015611dd057600080fd5b505af4158015611de4573d6000803e3d6000fd5b505050506040513d601f19601f82011682018060405250810190611e089190614076565b8760400151338c604051611e1f949392919061436b565b60405180910390a1611eea565b60208601516040516352cb508360e11b81526000805160206145f38339815191529173__$8a461d6baeda20cc8b97c0d95fb84681dd$__9163a596a10691611e7a9160040190815260200190565b60206040518083038186803b158015611e9257600080fd5b505af4158015611ea6573d6000803e3d6000fd5b505050506040513d601f19601f82011682018060405250810190611eca9190614076565b8760200151338c604051611ee1949392919061436b565b60405180910390a15b8660c001518210611fa15760e087015160405163877fbaf160e01b815273__$8a461d6baeda20cc8b97c0d95fb84681dd$__9163877fbaf191611f3291908d90600401614496565b60006040518083038186803b158015611f4a57600080fd5b505af4158015611f5e573d6000803e3d6000fd5b505060408051338152602081018d90527fae995c79a88e396955e94cb3d6a80e56e1269ee8f5f9c3ab36de945cb05affbe935001905060405180910390a1611fdc565b81611faa614004565b622dc6d1016000886020015181526020019081526020016000206006016000828254611fd6919061454f565b90915550505b505050505050505050565b60405163342a412360e01b8152815160048201526020820151602482015260009073__$8a461d6baeda20cc8b97c0d95fb84681dd$__9063342a41239060440160606040518083038186803b15801561203f57600080fd5b505af4158015612053573d6000803e3d6000fd5b505050506040513d601f19601f82011682018060405250810190612077919061429c565b90506000548160400151141561209f5760405162461bcd60e51b81526004016102109061441a565b60408082015190516303d8e5b360e41b8152339173__$8a461d6baeda20cc8b97c0d95fb84681dd$__91633d8e5b30916120df9160040190815260200190565b60206040518083038186803b1580156120f757600080fd5b505af415801561210b573d6000803e3d6000fd5b505050506040513d601f19601f8201168201806040525081019061212f9190614076565b6001600160a01b0316146121855760405162461bcd60e51b815260206004820152601c60248201527f43616e206f6e6c792070726f6475636520696e206f776e2062617365000000006044820152606401610210565b6000548160200151146121da5760405162461bcd60e51b815260206004820152601e60248201527f42617365206f6363757069656420627920616e6f746865722074726f6f7000006044820152606401610210565b60006121e4614004565b622dc6cb01600083604001518152602001908152602001600020604051806040016040529081600082015481526020016001820154815250509050600054816000015114156122755760405162461bcd60e51b815260206004820152601b60248201527f4e6f2070726f64756374696f6e20666f756e6420696e206261736500000000006044820152606401610210565b8060200151612282614004565b622dc6c90154612292919061454f565b8151604051632f877ccb60e21b8152600481019190915273__$8a461d6baeda20cc8b97c0d95fb84681dd$__9063be1df32c9060240160206040518083038186803b1580156122e057600080fd5b505af41580156122f4573d6000803e3d6000fd5b505050506040513d601f19601f820116820180604052508101906123189190614300565b11156123755760405162461bcd60e51b815260206004820152602660248201527f54726f6f70206e65656473206d6f72652065706f63687320666f722070726f646044820152653ab1ba34b7b760d11b6064820152608401610210565b8051604051630cbad10f60e21b81528451600482015260208501516024820152604481019190915233606482015260009073__$8a461d6baeda20cc8b97c0d95fb84681dd$__906332eb443c9060840160206040518083038186803b1580156123dd57600080fd5b505af41580156123f1573d6000803e3d6000fd5b505050506040513d601f19601f820116820180604052508101906124159190614300565b90507f0224a232bfc1cdf83a29442d7fc98c1bd70e4a4d0c0e888ed6c01677e45b704233828660405161071893929190614395565b604051600162ba669960e01b03198152815160048201526020820151602482015273__$8a461d6baeda20cc8b97c0d95fb84681dd$__9063ff4599679060440160206040518083038186803b1580156124a257600080fd5b505af41580156124b6573d6000803e3d6000fd5b505050506040513d601f19601f820116820180604052508101906124da9190614099565b6124f65760405162461bcd60e51b8152600401610210906143ed565b6000612500614004565b6000848152622dc6d191909101602090815260409182902082516101208101845281546001600160a01b031681526001820154818401526002820154818501526003820154606082015260048201546080820152600582015460a0820152600682015460c0820152835180850185526007830154815260088301548185015260e08201526009820180548551818602810186019096528086529194929361010086019392908301828280156125d457602002820191906000526020600020905b8154815260200190600101908083116125c0575b5050509190925250508151919250506001600160a01b0316331461263a5760405162461bcd60e51b815260206004820152601f60248201527f43616e206f6e6c7920636170747572652077697468206f776e2074726f6f70006044820152606401610210565b60e08101516040516314adce4360e21b8152815160048201526020918201516024820152835160448201529083015160648201526001608482015273__$8a461d6baeda20cc8b97c0d95fb84681dd$__906352b7390c9060a40160206040518083038186803b1580156126ac57600080fd5b505af41580156126c0573d6000803e3d6000fd5b505050506040513d601f19601f820116820180604052508101906126e49190614099565b6127005760405162461bcd60e51b8152600401610210906143c0565b60208101516040516355c6801760e11b8152600481019190915273__$8a461d6baeda20cc8b97c0d95fb84681dd$__9063ab8d002e9060240160206040518083038186803b15801561275157600080fd5b505af4158015612765573d6000803e3d6000fd5b505050506040513d601f19601f820116820180604052508101906127899190614099565b6127e15760405162461bcd60e51b815260206004820152602360248201527f4f6e6c792061206c616e642074726f6f702063616e206361707475726520626160448201526273657360e81b6064820152608401610210565b60405163342a412360e01b8152825160048201526020830151602482015260009073__$8a461d6baeda20cc8b97c0d95fb84681dd$__9063342a41239060440160606040518083038186803b15801561283957600080fd5b505af415801561284d573d6000803e3d6000fd5b505050506040513d601f19601f82011682018060405250810190612871919061429c565b9050600054816040015114156128be5760405162461bcd60e51b81526020600482015260126024820152714e6f206261736520746f206361707475726560701b6044820152606401610210565b60408082015190516303d8e5b360e41b8152339173__$8a461d6baeda20cc8b97c0d95fb84681dd$__91633d8e5b30916128fe9160040190815260200190565b60206040518083038186803b15801561291657600080fd5b505af415801561292a573d6000803e3d6000fd5b505050506040513d601f19601f8201168201806040525081019061294e9190614076565b6001600160a01b0316141561299d5760405162461bcd60e51b815260206004820152601560248201527410985cd948185b1c9958591e4818d85c1d1d5c9959605a1b6044820152606401610210565b6000548160200151146129ee5760405162461bcd60e51b815260206004820152601960248201527811195cdd1a5b985d1a5bdb881d1a5b19481bd8d8dd5c1a5959603a1b6044820152606401610210565b604080820151905163044a21dd60e31b815260009173__$8a461d6baeda20cc8b97c0d95fb84681dd$__916322510ee891612a2f9160040190815260200190565b60206040518083038186803b158015612a4757600080fd5b505af4158015612a5b573d6000803e3d6000fd5b505050506040513d601f19601f82011682018060405250810190612a7f9190614300565b1115612ac45760405162461bcd60e51b815260206004820152601460248201527313995959081d1bc8185d1d1858dac8199a5c9cdd60621b6044820152606401610210565b600054612acf614004565b6009018360e00151600001516103e88110612afa57634e487b7160e01b600052603260045260246000fd5b610bb802018360e00151602001516103e88110612b2757634e487b7160e01b600052603260045260246000fd5b600302016001018190555082612b3b614004565b6000868152622dc6d191909101602090815260409091208251600782015591015160089091015533612b6b614004565b6040808401516000908152622dc6ce92909201602052902080546001600160a01b039290921661010002610100600160a81b0319909216919091179055612bb0614004565b604082810180516000908152622dc6cb93909301602090815282842084815560010193909355518151338152928301879052908201527f746c135c6a9dcae5aed7b5c2ed677b2442befe9f3c236ab24d165059cf63ad8690606001610718565b612c18614004565b546001600160a01b03163314612c40576040516282b42960e81b815260040160405180910390fd5b60405163342a412360e01b8152825160048201526020830151602482015260009073__$8a461d6baeda20cc8b97c0d95fb84681dd$__9063342a41239060440160606040518083038186803b158015612c9857600080fd5b505af4158015612cac573d6000803e3d6000fd5b505050506040513d601f19601f82011682018060405250810190612cd0919061429c565b60409081015190516303d8e5b360e41b81526004810182905290915060009073__$8a461d6baeda20cc8b97c0d95fb84681dd$__90633d8e5b309060240160206040518083038186803b158015612d2657600080fd5b505af4158015612d3a573d6000803e3d6000fd5b505050506040513d601f19601f82011682018060405250810190612d5e9190614076565b6001600160a01b031614612da45760405162461bcd60e51b815260206004820152600d60248201526c2130b9b29034b9903a30b5b2b760991b6044820152606401610210565b612dac614004565b6007018054600181018255600091825260209091200180546001600160a01b0319166001600160a01b0384161790556040805180820190915280612dee614004565b622dc6c9015481526001602090910152612e06614004565b6001600160a01b038416600090815260089190910160209081526040909120825181559101516001909101805460ff191691151591909117905581612e49614004565b622dc6ce01600083815260200190815260200160002060000160016101000a8154816001600160a01b0302191690836001600160a01b031602179055507ff0a6a142d1cdc04619a8fd8924155cd64ff41b31e4226fb7ffa08e5ade8d6f9d8284604051612eb7929190614344565b60405180910390a1505050565b60405163342a412360e01b8152825160048201526020830151602482015260009073__$8a461d6baeda20cc8b97c0d95fb84681dd$__9063342a41239060440160606040518083038186803b158015612f1c57600080fd5b505af4158015612f30573d6000803e3d6000fd5b505050506040513d601f19601f82011682018060405250810190612f54919061429c565b905060005481604001511415612f7c5760405162461bcd60e51b81526004016102109061441a565b60408082015190516303d8e5b360e41b8152339173__$8a461d6baeda20cc8b97c0d95fb84681dd$__91633d8e5b3091612fbc9160040190815260200190565b60206040518083038186803b158015612fd457600080fd5b505af4158015612fe8573d6000803e3d6000fd5b505050506040513d601f19601f8201168201806040525081019061300c9190614076565b6001600160a01b0316146130625760405162461bcd60e51b815260206004820152601c60248201527f43616e206f6e6c792070726f6475636520696e206f776e2062617365000000006044820152606401610210565b604051630d7db19960e41b815273__$8a461d6baeda20cc8b97c0d95fb84681dd$__9063d7db1990906130999084906004016144ad565b60206040518083038186803b1580156130b157600080fd5b505af41580156130c5573d6000803e3d6000fd5b505050506040513d601f19601f820116820180604052508101906130e99190614099565b15801561317657506040516355c6801760e11b81526004810183905273__$8a461d6baeda20cc8b97c0d95fb84681dd$__9063ab8d002e9060240160206040518083038186803b15801561313c57600080fd5b505af4158015613150573d6000803e3d6000fd5b505050506040513d601f19601f820116820180604052508101906131749190614099565b155b156131cf5760405162461bcd60e51b815260206004820152602360248201527f4f6e6c7920706f7274732063616e2070726f647563652077617465722074726f6044820152626f707360e81b6064820152608401610210565b6000546131da614004565b6040808401516000908152622dc6cb92909201602052902054146132395760405162461bcd60e51b81526020600482015260166024820152754261736520616c72656164792070726f647563696e6760501b6044820152606401610210565b6040518060400160405280838152602001613252614004565b622dc6c901549052613262614004565b604080840180516000908152622dc6cb93909301602090815292829020845181559383015160019094019390935591518251338152918201529081018390527f9620217d1cc9c776bf452b145f77ef9c2f4b6dc4ab6221d2db13ef5f18f56c5a90606001612eb7565b604051600162ba669960e01b03198152815160048201526020820151602482015273__$8a461d6baeda20cc8b97c0d95fb84681dd$__9063ff4599679060440160206040518083038186803b15801561332357600080fd5b505af4158015613337573d6000803e3d6000fd5b505050506040513d601f19601f8201168201806040525081019061335b9190614099565b6133775760405162461bcd60e51b8152600401610210906143ed565b6000613381614004565b6000848152622dc6d191909101602090815260409182902082516101208101845281546001600160a01b031681526001820154818401526002820154818501526003820154606082015260048201546080820152600582015460a0820152600682015460c0820152835180850185526007830154815260088301548185015260e082015260098201805485518186028101860190965280865291949293610100860193929083018282801561345557602002820191906000526020600020905b815481526020019060010190808311613441575b5050509190925250508151919250506001600160a01b031633146134bb5760405162461bcd60e51b815260206004820152601760248201527f43616e206f6e6c79206d6f7665206f776e2074726f6f700000000000000000006044820152606401610210565b60e081015160405163d18036a960e01b815273__$8a461d6baeda20cc8b97c0d95fb84681dd$__9163d18036a9916134f891908690600401614470565b60206040518083038186803b15801561351057600080fd5b505af4158015613524573d6000803e3d6000fd5b505050506040513d601f19601f820116820180604052508101906135489190614099565b1561358e5760405162461bcd60e51b815260206004820152601660248201527520b63932b0b23c9030ba103232b9ba34b730ba34b7b760511b6044820152606401610210565b60e08101516040516314adce4360e21b8152815160048201526020918201516024820152835160448201529083015160648201526001608482015273__$8a461d6baeda20cc8b97c0d95fb84681dd$__906352b7390c9060a40160206040518083038186803b15801561360057600080fd5b505af4158015613614573d6000803e3d6000fd5b505050506040513d601f19601f820116820180604052508101906136389190614099565b6136545760405162461bcd60e51b8152600401610210906143c0565b60608101516020820151604051631b66033160e31b8152600481019190915273__$8a461d6baeda20cc8b97c0d95fb84681dd$__9063db3019889060240160206040518083038186803b1580156136aa57600080fd5b505af41580156136be573d6000803e3d6000fd5b505050506040513d601f19601f820116820180604052508101906136e29190614300565b82604001516136ef614004565b622dc6c901546136ff919061454f565b106137b157602082015160405163d7eeafa360e01b8152600481019190915273__$8a461d6baeda20cc8b97c0d95fb84681dd$__9063d7eeafa39060240160206040518083038186803b15801561375557600080fd5b505af4158015613769573d6000803e3d6000fd5b505050506040513d601f19601f8201168201806040525081019061378d9190614300565b905080613798614004565b6000868152622dc6d19190910160205260409020600301555b60608201516138025760405162461bcd60e51b815260206004820152601860248201527f4e6f206d6f766573206c65667420746869732065706f636800000000000000006044820152606401610210565b60405163342a412360e01b8152835160048201526020840151602482015260009073__$8a461d6baeda20cc8b97c0d95fb84681dd$__9063342a41239060440160606040518083038186803b15801561385a57600080fd5b505af415801561386e573d6000803e3d6000fd5b505050506040513d601f19601f82011682018060405250810190613892919061429c565b60208401516040516355c6801760e11b815291925073__$8a461d6baeda20cc8b97c0d95fb84681dd$__9163ab8d002e916138d39160040190815260200190565b60206040518083038186803b1580156138eb57600080fd5b505af41580156138ff573d6000803e3d6000fd5b505050506040513d601f19601f820116820180604052508101906139239190614099565b156139955760028151600281111561394b57634e487b7160e01b600052602160045260246000fd5b14156139905760405162461bcd60e51b815260206004820152601460248201527321b0b73737ba1036b7bb329037b7103bb0ba32b960611b6044820152606401610210565b613a8d565b6002815160028111156139b857634e487b7160e01b600052602160045260246000fd5b14158015613a4a5750604051630d7db19960e41b815273__$8a461d6baeda20cc8b97c0d95fb84681dd$__9063d7db1990906139f89084906004016144ad565b60206040518083038186803b158015613a1057600080fd5b505af4158015613a24573d6000803e3d6000fd5b505050506040513d601f19601f82011682018060405250810190613a489190614099565b155b15613a8d5760405162461bcd60e51b815260206004820152601360248201527210d85b9b9bdd081b5bdd99481bdb881b185b99606a1b6044820152606401610210565b600054816040015114158015613b3a575060408082015190516303d8e5b360e41b8152339173__$8a461d6baeda20cc8b97c0d95fb84681dd$__91633d8e5b3091613ade9160040190815260200190565b60206040518083038186803b158015613af657600080fd5b505af4158015613b0a573d6000803e3d6000fd5b505050506040513d601f19601f82011682018060405250810190613b2e9190614076565b6001600160a01b031614155b15613b875760405162461bcd60e51b815260206004820152601e60248201527f43616e6e6f74206d6f7665206f6e746f206f70706f6e656e74206261736500006044820152606401610210565b600054816020015114613d9557604051631172592d60e31b815273__$8a461d6baeda20cc8b97c0d95fb84681dd$__90638b92c96890613bcb9084906004016144ad565b60206040518083038186803b158015613be357600080fd5b505af4158015613bf7573d6000803e3d6000fd5b505050506040513d601f19601f82011682018060405250810190613c1b9190614099565b613c635760405162461bcd60e51b815260206004820152601960248201527811195cdd1a5b985d1a5bdb881d1a5b19481bd8d8dd5c1a5959603a1b6044820152606401610210565b60208101516040516352cb508360e11b8152339173__$8a461d6baeda20cc8b97c0d95fb84681dd$__9163a596a10691613ca39160040190815260200190565b60206040518083038186803b158015613cbb57600080fd5b505af4158015613ccf573d6000803e3d6000fd5b505050506040513d601f19601f82011682018060405250810190613cf39190614076565b6001600160a01b031614613d5b5760405162461bcd60e51b815260206004820152602960248201527f43616e6e6f74206d6f7665206f6e746f206f70706f6e656e742074726f6f70206044820152681d1c985b9cdc1bdc9d60ba1b6064820152608401610210565b613d63614004565b6020808301516000908152622dc6d1929092018152604082206009018054600181018255908352912001859055613dfa565b84613d9e614004565b60090185600001516103e88110613dc557634e487b7160e01b600052603260045260246000fd5b610bb8020185602001516103e88110613dee57634e487b7160e01b600052603260045260246000fd5b60030201600101819055505b600054613e05614004565b6009018460e00151600001516103e88110613e3057634e487b7160e01b600052603260045260246000fd5b610bb802018460e00151602001516103e88110613e5d57634e487b7160e01b600052603260045260246000fd5b600302016001018190555083613e71614004565b6000878152622dc6d1919091016020908152604090912082516007820155910151600890910155613ea0614004565b6000868152622dc6d19190910160205260408120600301805491613ec383614566565b91905055506000613ed2614004565b622dc6d1016000878152602001908152602001600020600901805480602002602001604051908101604052809291908181526020018280548015613f3557602002820191906000526020600020905b815481526020019060010190808311613f21575b50505050509050600081511115613fc15760005b8151811015613fbf5785613f5b614004565b622dc6d1016000848481518110613f8257634e487b7160e01b600052603260045260246000fd5b6020908102919091018101518252818101929092526040016000208251600782015591015160089091015580613fb78161457d565b915050613f49565b505b7fa7782439b83e57044d60e67405bf17689b58e4edba6110dd5a0b65d532972d87338787604051613ff493929190614395565b60405180910390a1505050505050565b7f8d1bebda6a12a792ffba01f92494c5be0cd4ce8e2d8e46d2c616016d7e70fd2090565b600060408284031215614039578081fd5b6040516040810181811067ffffffffffffffff8211171561405c5761405c6145c4565b604052823581526020928301359281019290925250919050565b600060208284031215614087578081fd5b8151614092816145da565b9392505050565b6000602082840312156140aa578081fd5b81518015158114614092578182fd5b6000604082840312156140ca578081fd5b6140928383614028565b600080606083850312156140e6578081fd5b6140f08484614028565b91506040830135614100816145da565b809150509250929050565b60008060006080848603121561411f578081fd5b6141298585614028565b92506040840135614139816145da565b929592945050506060919091013590565b6000806060838503121561415c578182fd5b6141668484614028565b9150604083013567ffffffffffffffff80821115614182578283fd5b818501915085601f830112614195578283fd5b81356141a86141a382614513565b6144e2565b80828252602082019150602085018960208560051b88010111156141ca578687fd5b865b848110156142625785823511156141e1578788fd5b813587018b603f8201126141f3578889fd5b60208101356142046141a382614513565b80828252602082019150604084018f60408560051b8701011115614226578c8dfd5b8c94505b838510156142495780358352600194909401936020928301920161422a565b50875250506020948501949290920191506001016141cc565b5096999098509650505050505050565b60008060608385031215614284578182fd5b61428e8484614028565b946040939093013593505050565b6000606082840312156142ad578081fd5b6040516060810181811067ffffffffffffffff821117156142d0576142d06145c4565b6040528251600381106142e1578283fd5b8152602083810151908201526040928301519281019290925250919050565b600060208284031215614311578081fd5b5051919050565b6000806060838503121561432a578182fd5b8235915061433b8460208501614028565b90509250929050565b6001600160a01b038316815260608101614092602083018480518252602090810151910152565b6001600160a01b039485168152602081019390935292166040820152606081019190915260800190565b6001600160a01b03939093168352602080840192909252805160408401520151606082015260800190565b6020808252601390820152722232b9ba34b730ba34b7b7103a37b7903330b960691b604082015260600190565b60208082526013908201527215185c99d95d081bdd5d081bd988189bdd5b99606a1b604082015260600190565b6020808252600d908201526c139bc818985cd948199bdd5b99609a1b604082015260600190565b82518152602080840151908201526060810160028310614463576144636145ae565b8260408301529392505050565b825181526020808401518183015282516040830152820151606082015260808101614092565b825181526020808401519082015260608101614463565b81516060820190600381106144c4576144c46145ae565b80835250602083015160208301526040830151604083015292915050565b604051601f8201601f1916810167ffffffffffffffff8111828210171561450b5761450b6145c4565b604052919050565b600067ffffffffffffffff82111561452d5761452d6145c4565b5060051b60200190565b6000821982111561454a5761454a614598565b500190565b60008282101561456157614561614598565b500390565b60008161457557614575614598565b506000190190565b600060001982141561459157614591614598565b5060010190565b634e487b7160e01b600052601160045260246000fd5b634e487b7160e01b600052602160045260246000fd5b634e487b7160e01b600052604160045260246000fd5b6001600160a01b03811681146145ef57600080fd5b5056fe392967f48a99f35df9fe179b05d020c46fc27acd36945082b2430515d473ffdda2646970667358221220d70e1f4b1ca20de10907cf1a279c061affadd995790061e3063f0c51b5d2204064736f6c63430008040033",
    "linkReferences": {
      "contracts/libraries/GameUtil.sol": {
        "Util": [
          {
            "start": 431,
            "length": 20
          },
          {
            "start": 611,
            "length": 20
          },
          {
            "start": 1247,
            "length": 20
          },
          {
            "start": 1698,
            "length": 20
          },
          {
            "start": 2179,
            "length": 20
          },
          {
            "start": 2883,
            "length": 20
          },
          {
            "start": 3410,
            "length": 20
          },
          {
            "start": 3713,
            "length": 20
          },
          {
            "start": 3925,
            "length": 20
          },
          {
            "start": 4406,
            "length": 20
          },
          {
            "start": 4658,
            "length": 20
          },
          {
            "start": 4823,
            "length": 20
          },
          {
            "start": 5066,
            "length": 20
          },
          {
            "start": 5557,
            "length": 20
          },
          {
            "start": 5689,
            "length": 20
          },
          {
            "start": 5834,
            "length": 20
          },
          {
            "start": 6358,
            "length": 20
          },
          {
            "start": 6495,
            "length": 20
          },
          {
            "start": 6715,
            "length": 20
          },
          {
            "start": 6949,
            "length": 20
          },
          {
            "start": 7142,
            "length": 20
          },
          {
            "start": 7292,
            "length": 20
          },
          {
            "start": 7462,
            "length": 20
          },
          {
            "start": 7618,
            "length": 20
          },
          {
            "start": 7812,
            "length": 20
          },
          {
            "start": 7997,
            "length": 20
          },
          {
            "start": 8254,
            "length": 20
          },
          {
            "start": 8425,
            "length": 20
          },
          {
            "start": 8927,
            "length": 20
          },
          {
            "start": 9180,
            "length": 20
          },
          {
            "start": 9377,
            "length": 20
          },
          {
            "start": 9899,
            "length": 20
          },
          {
            "start": 10064,
            "length": 20
          },
          {
            "start": 10296,
            "length": 20
          },
          {
            "start": 10504,
            "length": 20
          },
          {
            "start": 10809,
            "length": 20
          },
          {
            "start": 11415,
            "length": 20
          },
          {
            "start": 11557,
            "length": 20
          },
          {
            "start": 12059,
            "length": 20
          },
          {
            "start": 12230,
            "length": 20
          },
          {
            "start": 12453,
            "length": 20
          },
          {
            "start": 12603,
            "length": 20
          },
          {
            "start": 13090,
            "length": 20
          },
          {
            "start": 13571,
            "length": 20
          },
          {
            "start": 13823,
            "length": 20
          },
          {
            "start": 13993,
            "length": 20
          },
          {
            "start": 14164,
            "length": 20
          },
          {
            "start": 14425,
            "length": 20
          },
          {
            "start": 14557,
            "length": 20
          },
          {
            "start": 14852,
            "length": 20
          },
          {
            "start": 15080,
            "length": 20
          },
          {
            "start": 15319,
            "length": 20
          },
          {
            "start": 15533,
            "length": 20
          }
        ]
      }
    }
  },
  "methodIdentifiers": {
    "battle(uint256,(uint256,uint256))": "c3c5ec4c",
    "captureBase(uint256,(uint256,uint256))": "d91c2983",
    "endProduction((uint256,uint256))": "d08b70f4",
    "initializePlayer((uint256,uint256),address)": "d9a8ae7d",
    "move(uint256,(uint256,uint256))": "fa3c7db0",
    "repair((uint256,uint256))": "0a8ac907",
    "setMapChunk((uint256,uint256),uint256[][])": "31b9f0d1",
    "spawnTroop((uint256,uint256),address,uint256)": "60a03a2a",
    "startProduction((uint256,uint256),uint256)": "f7d12dd0",
    "updateEpoch()": "36f4fb02"
  },
  "id": 3
}