{
  "abi": [
    {
      "anonymous": false,
      "inputs": [
        {
          "indexed": false,
          "internalType": "address",
          "name": "_player",
          "type": "address"
        },
        {
          "indexed": false,
          "internalType": "uint256",
          "name": "_troopId",
          "type": "uint256"
        },
        {
          "indexed": false,
          "internalType": "address",
          "name": "_targetPlayer",
          "type": "address"
        },
        {
          "indexed": false,
          "internalType": "uint256",
          "name": "_targetId",
          "type": "uint256"
        }
      ],
      "name": "Attacked",
      "type": "event"
    },
    {
      "anonymous": false,
      "inputs": [
        {
          "indexed": false,
          "internalType": "address",
          "name": "_player",
          "type": "address"
        },
        {
          "indexed": false,
          "internalType": "uint256",
          "name": "_troopId",
          "type": "uint256"
        },
        {
          "indexed": false,
          "internalType": "uint256",
          "name": "_baseId",
          "type": "uint256"
        }
      ],
      "name": "BaseCaptured",
      "type": "event"
    },
    {
      "anonymous": false,
      "inputs": [
        {
          "indexed": false,
          "internalType": "address",
          "name": "_player",
          "type": "address"
        },
        {
          "indexed": false,
          "internalType": "uint256",
          "name": "_troopId",
          "type": "uint256"
        }
      ],
      "name": "Death",
      "type": "event"
    },
    {
      "anonymous": false,
      "inputs": [
        {
          "indexed": false,
          "internalType": "uint256",
          "name": "_epoch",
          "type": "uint256"
        },
        {
          "indexed": false,
          "internalType": "uint256",
          "name": "_time",
          "type": "uint256"
        }
      ],
      "name": "EpochUpdate",
      "type": "event"
    },
    {
      "anonymous": false,
      "inputs": [
        {
          "indexed": false,
          "internalType": "address",
          "name": "_player",
          "type": "address"
        },
        {
          "indexed": false,
          "internalType": "uint256",
          "name": "_troopId",
          "type": "uint256"
        },
        {
          "components": [
            {
              "internalType": "uint256",
              "name": "x",
              "type": "uint256"
            },
            {
              "internalType": "uint256",
              "name": "y",
              "type": "uint256"
            }
          ],
          "indexed": false,
          "internalType": "struct Position",
          "name": "_pos",
          "type": "tuple"
        }
      ],
      "name": "Moved",
      "type": "event"
    },
    {
      "anonymous": false,
      "inputs": [
        {
          "indexed": false,
          "internalType": "address",
          "name": "_player",
          "type": "address"
        },
        {
          "components": [
            {
              "internalType": "uint256",
              "name": "x",
              "type": "uint256"
            },
            {
              "internalType": "uint256",
              "name": "y",
              "type": "uint256"
            }
          ],
          "indexed": false,
          "internalType": "struct Position",
          "name": "_pos",
          "type": "tuple"
        }
      ],
      "name": "NewPlayer",
      "type": "event"
    },
    {
      "anonymous": false,
      "inputs": [
        {
          "indexed": false,
          "internalType": "address",
          "name": "_player",
          "type": "address"
        },
        {
          "indexed": false,
          "internalType": "uint256",
          "name": "_troopId",
          "type": "uint256"
        },
        {
          "components": [
            {
              "internalType": "uint256",
              "name": "x",
              "type": "uint256"
            },
            {
              "internalType": "uint256",
              "name": "y",
              "type": "uint256"
            }
          ],
          "indexed": false,
          "internalType": "struct Position",
          "name": "_pos",
          "type": "tuple"
        }
      ],
      "name": "NewTroop",
      "type": "event"
    },
    {
      "anonymous": false,
      "inputs": [
        {
          "indexed": false,
          "internalType": "address",
          "name": "_player",
          "type": "address"
        },
        {
          "indexed": false,
          "internalType": "uint256",
          "name": "_baseId",
          "type": "uint256"
        },
        {
          "indexed": false,
          "internalType": "uint256",
          "name": "_troopTypeId",
          "type": "uint256"
        }
      ],
      "name": "ProductionStarted",
      "type": "event"
    },
    {
      "anonymous": false,
      "inputs": [
        {
          "indexed": false,
          "internalType": "address",
          "name": "_player",
          "type": "address"
        },
        {
          "indexed": false,
          "internalType": "uint256",
          "name": "_troopId",
          "type": "uint256"
        }
      ],
      "name": "Recovered",
      "type": "event"
    },
    {
      "anonymous": false,
      "inputs": [
        {
          "indexed": false,
          "internalType": "address",
          "name": "_player",
          "type": "address"
        },
        {
          "indexed": false,
          "internalType": "uint256",
          "name": "_troopId",
          "type": "uint256"
        },
        {
          "indexed": false,
          "internalType": "uint256",
          "name": "_health",
          "type": "uint256"
        }
      ],
      "name": "Repaired",
      "type": "event"
    },
    {
      "inputs": [
        {
          "internalType": "uint256",
          "name": "_troopId",
          "type": "uint256"
        },
        {
          "components": [
            {
              "internalType": "uint256",
              "name": "x",
              "type": "uint256"
            },
            {
              "internalType": "uint256",
              "name": "y",
              "type": "uint256"
            }
          ],
          "internalType": "struct Position",
          "name": "_targetPos",
          "type": "tuple"
        }
      ],
      "name": "battle",
      "outputs": [],
      "stateMutability": "nonpayable",
      "type": "function"
    },
    {
      "inputs": [
        {
          "internalType": "uint256",
          "name": "_troopId",
          "type": "uint256"
        },
        {
          "components": [
            {
              "internalType": "uint256",
              "name": "x",
              "type": "uint256"
            },
            {
              "internalType": "uint256",
              "name": "y",
              "type": "uint256"
            }
          ],
          "internalType": "struct Position",
          "name": "_targetPos",
          "type": "tuple"
        }
      ],
      "name": "captureBase",
      "outputs": [],
      "stateMutability": "nonpayable",
      "type": "function"
    },
    {
      "inputs": [
        {
          "components": [
            {
              "internalType": "uint256",
              "name": "x",
              "type": "uint256"
            },
            {
              "internalType": "uint256",
              "name": "y",
              "type": "uint256"
            }
          ],
          "internalType": "struct Position",
          "name": "_pos",
          "type": "tuple"
        }
      ],
      "name": "endProduction",
      "outputs": [],
      "stateMutability": "nonpayable",
      "type": "function"
    },
    {
      "inputs": [
        {
          "components": [
            {
              "internalType": "uint256",
              "name": "x",
              "type": "uint256"
            },
            {
              "internalType": "uint256",
              "name": "y",
              "type": "uint256"
            }
          ],
          "internalType": "struct Position",
          "name": "_pos",
          "type": "tuple"
        },
        {
          "internalType": "address",
          "name": "_player",
          "type": "address"
        }
      ],
      "name": "initializePlayer",
      "outputs": [],
      "stateMutability": "nonpayable",
      "type": "function"
    },
    {
      "inputs": [
        {
          "internalType": "uint256",
          "name": "_troopId",
          "type": "uint256"
        },
        {
          "components": [
            {
              "internalType": "uint256",
              "name": "x",
              "type": "uint256"
            },
            {
              "internalType": "uint256",
              "name": "y",
              "type": "uint256"
            }
          ],
          "internalType": "struct Position",
          "name": "_targetPos",
          "type": "tuple"
        }
      ],
      "name": "move",
      "outputs": [],
      "stateMutability": "nonpayable",
      "type": "function"
    },
    {
      "inputs": [
        {
          "components": [
            {
              "internalType": "uint256",
              "name": "x",
              "type": "uint256"
            },
            {
              "internalType": "uint256",
              "name": "y",
              "type": "uint256"
            }
          ],
          "internalType": "struct Position",
          "name": "_pos",
          "type": "tuple"
        }
      ],
      "name": "repair",
      "outputs": [],
      "stateMutability": "nonpayable",
      "type": "function"
    },
    {
      "inputs": [
        {
          "components": [
            {
              "internalType": "uint256",
              "name": "x",
              "type": "uint256"
            },
            {
              "internalType": "uint256",
              "name": "y",
              "type": "uint256"
            }
          ],
          "internalType": "struct Position",
          "name": "_startPos",
          "type": "tuple"
        },
        {
          "internalType": "uint256[][]",
          "name": "_chunk",
          "type": "uint256[][]"
        }
      ],
      "name": "setMapChunk",
      "outputs": [],
      "stateMutability": "nonpayable",
      "type": "function"
    },
    {
      "inputs": [
        {
          "components": [
            {
              "internalType": "uint256",
              "name": "x",
              "type": "uint256"
            },
            {
              "internalType": "uint256",
              "name": "y",
              "type": "uint256"
            }
          ],
          "internalType": "struct Position",
          "name": "_pos",
          "type": "tuple"
        },
        {
          "internalType": "address",
          "name": "_player",
          "type": "address"
        },
        {
          "internalType": "uint256",
          "name": "_troopTypeId",
          "type": "uint256"
        }
      ],
      "name": "spawnTroop",
      "outputs": [],
      "stateMutability": "nonpayable",
      "type": "function"
    },
    {
      "inputs": [
        {
          "components": [
            {
              "internalType": "uint256",
              "name": "x",
              "type": "uint256"
            },
            {
              "internalType": "uint256",
              "name": "y",
              "type": "uint256"
            }
          ],
          "internalType": "struct Position",
          "name": "_pos",
          "type": "tuple"
        },
        {
          "internalType": "uint256",
          "name": "_troopTypeId",
          "type": "uint256"
        }
      ],
      "name": "startProduction",
      "outputs": [],
      "stateMutability": "nonpayable",
      "type": "function"
    },
    {
      "inputs": [],
      "name": "updateEpoch",
      "outputs": [],
      "stateMutability": "nonpayable",
      "type": "function"
    }
  ],
  "bytecode": {
    "object": "0x60806040526000805534801561001457600080fd5b5061460f806100246000396000f3fe608060405234801561001057600080fd5b506004361061009e5760003560e01c8063d08b70f411610066578063d08b70f4146100f9578063d91c29831461010c578063d9a8ae7d1461011f578063f7d12dd014610132578063fa3c7db01461014557600080fd5b80630a8ac907146100a357806331b9f0d1146100b857806336f4fb02146100cb57806360a03a2a146100d3578063c3c5ec4c146100e6575b600080fd5b6100b66100b1366004614080565b610158565b005b6100b66100c6366004614111565b610727565b6100b661099c565b6100b66100e13660046140d2565b610aa9565b6100b66100f43660046142df565b610ed8565b6100b6610107366004614080565b611fc1565b6100b661011a3660046142df565b612424565b6100b661012d36600461409b565b612bea565b6100b6610140366004614239565b612e8b565b6100b66101533660046142df565b613292565b60405163342a412360e01b8152815160048201526020820151602482015260009073__$8a461d6baeda20cc8b97c0d95fb84681dd$__9063342a41239060440160606040518083038186803b1580156101b057600080fd5b505af41580156101c4573d6000803e3d6000fd5b505050506040513d601f19601f820116820180604052508101906101e89190614263565b9050600054816040015114156102195760405162461bcd60e51b8152600401610210906143e1565b60405180910390fd5b60408082015190516303d8e5b360e41b8152339173__$8a461d6baeda20cc8b97c0d95fb84681dd$__91633d8e5b30916102599160040190815260200190565b60206040518083038186803b15801561027157600080fd5b505af4158015610285573d6000803e3d6000fd5b505050506040513d601f19601f820116820180604052508101906102a9919061403d565b6001600160a01b0316146102ff5760405162461bcd60e51b815260206004820152601b60248201527f43616e206f6e6c792072657061697220696e206f776e206261736500000000006044820152606401610210565b602081015160005481141561034b5760405162461bcd60e51b81526020600482015260126024820152712737903a3937b7b8103a37903932b830b4b960711b6044820152606401610210565b6000610355613fcb565b6000838152622dc6d191909101602090815260409182902082516101208101845281546001600160a01b031681526001820154818401526002820154818501526003820154606082015260048201546080820152600582015460a0820152600682015460c0820152835180850185526007830154815260088301548185015260e082015260098201805485518186028101860190965280865291949293610100860193929083018282801561042957602002820191906000526020600020905b815481526020019060010190808311610415575b5050509190925250508151919250506001600160a01b0316331461048f5760405162461bcd60e51b815260206004820152601960248201527f43616e206f6e6c7920726570616972206f776e2074726f6f70000000000000006044820152606401610210565b60208101516040516383bcfd8b60e01b8152600481019190915273__$8a461d6baeda20cc8b97c0d95fb84681dd$__906383bcfd8b9060240160206040518083038186803b1580156104e057600080fd5b505af41580156104f4573d6000803e3d6000fd5b505050506040513d601f19601f8201168201806040525081019061051891906142c7565b8160c001511061056a5760405162461bcd60e51b815260206004820152601c60248201527f54726f6f7020616c72656164792061742066756c6c206865616c7468000000006044820152606401610210565b60018160a00151610579613fcb565b622dc6c901546105899190614516565b10156105cf5760405162461bcd60e51b8152602060048201526015602482015274526570616972656420746f6f20726563656e746c7960581b6044820152606401610210565b60c081018051906105df82614544565b90525060c08101516105ef613fcb565b6000848152622dc6d1919091016020908152604091829020600601929092558482015160c084015182513381529384019190915282820152517f8c6ef3a83ce15ee809a6310211efd15d7eb305c557db89478d972c2778f73cd99181900360600190a160208101516040516383bcfd8b60e01b8152600481019190915273__$8a461d6baeda20cc8b97c0d95fb84681dd$__906383bcfd8b9060240160206040518083038186803b1580156106a357600080fd5b505af41580156106b7573d6000803e3d6000fd5b505050506040513d601f19601f820116820180604052508101906106db91906142c7565b8160c0015114156107215760408051338152602081018490527f8c1256b8896378cd5044f80c202f9772b9d77dc85c8a6eb51967210b09bfaa2891015b60405180910390a15b50505050565b61072f613fcb565b546001600160a01b0316331461074457600080fd5b60005b81518110156109975760005b8260008151811061077457634e487b7160e01b600052603260045260246000fd5b60200260200101515181101561098457600060405180604001604052808487600001516107a191906144fe565b81526020018387602001516107b691906144fe565b815250905060008484815181106107dd57634e487b7160e01b600052603260045260246000fd5b6020026020010151838151811061080457634e487b7160e01b600052603260045260246000fd5b60200260200101519050600381106108c65760008160031461082757600161082a565b60005b6040516339e83f3b60e21b815290915073__$8a461d6baeda20cc8b97c0d95fb84681dd$__9063e7a0fcec906108669086908590600401614408565b60206040518083038186803b15801561087e57600080fd5b505af4158015610892573d6000803e3d6000fd5b505050506040513d601f19601f820116820180604052508101906108b691906142c7565b506108c2600383614516565b9150505b8060028111156108e657634e487b7160e01b600052602160045260246000fd5b6108ee613fcb565b60090183600001516103e8811061091557634e487b7160e01b600052603260045260246000fd5b610bb8020183602001516103e8811061093e57634e487b7160e01b600052603260045260246000fd5b60030201805460ff1916600183600281111561096a57634e487b7160e01b600052602160045260246000fd5b02179055505050808061097c90614544565b915050610753565b508061098f81614544565b915050610747565b505050565b6109a4613fcb565b600601546109b0613fcb565b622dc6ca01546109c09042614516565b1015610a235760405162461bcd60e51b815260206004820152602c60248201527f4e6f7420656e6f7567682074696d652068617320656c61707365642073696e6360448201526b0ca40d8c2e6e840cae0dec6d60a31b6064820152608401610210565b610a2b613fcb565b622dc6c9018054906000610a3e83614544565b919050555042610a4c613fcb565b622dc6ca01557fcb62e14f4587604f4099c842d98789e47ebdd0ccbf6fd86a0581aa337a602eb1610a7b613fcb565b622dc6c90154610a89613fcb565b622dc6ca01546040805192835260208301919091520160405180910390a1565b610ab1613fcb565b546001600160a01b03163314610ac657600080fd5b60405163342a412360e01b8152835160048201526020840151602482015260009073__$8a461d6baeda20cc8b97c0d95fb84681dd$__9063342a41239060440160606040518083038186803b158015610b1e57600080fd5b505af4158015610b32573d6000803e3d6000fd5b505050506040513d601f19601f82011682018060405250810190610b569190614263565b9050600054816020015114610b9d5760405162461bcd60e51b815260206004820152600d60248201526c151a5b19481bd8d8dd5c1a5959609a1b6044820152606401610210565b600054816040015114610dee576000610bb4613fcb565b6040808401516000908152622dc6ce9290920160205290819020815160a081019092528054829060ff166001811115610bfd57634e487b7160e01b600052602160045260246000fd5b6001811115610c1c57634e487b7160e01b600052602160045260246000fd5b81526020016000820160019054906101000a90046001600160a01b03166001600160a01b03166001600160a01b0316815260200160018201548152602001600282015481526020016003820154815250509050836001600160a01b031681602001516001600160a01b031614610ce25760405162461bcd60e51b815260206004820152602560248201527f43616e206f6e6c7920737061776e2074726f6f7020696e20706c617965722773604482015264206261736560d81b6064820152608401610210565b6040516355c6801760e11b81526004810184905273__$8a461d6baeda20cc8b97c0d95fb84681dd$__9063ab8d002e9060240160206040518083038186803b158015610d2d57600080fd5b505af4158015610d41573d6000803e3d6000fd5b505050506040513d601f19601f82011682018060405250810190610d659190614060565b158015610d935750600081516001811115610d9057634e487b7160e01b600052602160045260246000fd5b14155b15610dec5760405162461bcd60e51b8152602060048201526024808201527f43616e206f6e6c7920737061776e2077617465722074726f6f707320696e20706044820152636f72747360e01b6064820152608401610210565b505b604051630cbad10f60e21b81528451600482015260208501516024820152604481018390526001600160a01b038416606482015260009073__$8a461d6baeda20cc8b97c0d95fb84681dd$__906332eb443c9060840160206040518083038186803b158015610e5c57600080fd5b505af4158015610e70573d6000803e3d6000fd5b505050506040513d601f19601f82011682018060405250810190610e9491906142c7565b90507f0224a232bfc1cdf83a29442d7fc98c1bd70e4a4d0c0e888ed6c01677e45b7042848287604051610ec99392919061435c565b60405180910390a15050505050565b604051600162ba669960e01b03198152815160048201526020820151602482015273__$8a461d6baeda20cc8b97c0d95fb84681dd$__9063ff4599679060440160206040518083038186803b158015610f3057600080fd5b505af4158015610f44573d6000803e3d6000fd5b505050506040513d601f19601f82011682018060405250810190610f689190614060565b610f845760405162461bcd60e51b8152600401610210906143b4565b6000610f8e613fcb565b6000848152622dc6d191909101602090815260409182902082516101208101845281546001600160a01b031681526001820154818401526002820154818501526003820154606082015260048201546080820152600582015460a0820152600682015460c0820152835180850185526007830154815260088301548185015260e082015260098201805485518186028101860190965280865291949293610100860193929083018282801561106257602002820191906000526020600020905b81548152602001906001019080831161104e575b5050509190925250508151919250506001600160a01b031633146110c85760405162461bcd60e51b815260206004820152601f60248201527f43616e206f6e6c7920626174746c65207573696e67206f776e2074726f6f70006044820152606401610210565b60e081015160405163d18036a960e01b815273__$8a461d6baeda20cc8b97c0d95fb84681dd$__9163d18036a99161110591908690600401614437565b60206040518083038186803b15801561111d57600080fd5b505af4158015611131573d6000803e3d6000fd5b505050506040513d601f19601f820116820180604052508101906111559190614060565b1561119b5760405162461bcd60e51b815260206004820152601660248201527520b63932b0b23c9030ba103232b9ba34b730ba34b7b760511b6044820152606401610210565b60e08101516040516314adce4360e21b8152815160048201526020918201516024820152835160448201529083015160648201526001608482015273__$8a461d6baeda20cc8b97c0d95fb84681dd$__906352b7390c9060a40160206040518083038186803b15801561120d57600080fd5b505af4158015611221573d6000803e3d6000fd5b505050506040513d601f19601f820116820180604052508101906112459190614060565b6112615760405162461bcd60e51b815260040161021090614387565b60208101516040516387900eed60e01b8152600481019190915273__$8a461d6baeda20cc8b97c0d95fb84681dd$__906387900eed9060240160206040518083038186803b1580156112b257600080fd5b505af41580156112c6573d6000803e3d6000fd5b505050506040513d601f19601f820116820180604052508101906112ea91906142c7565b81608001516112f7613fcb565b622dc6c901546113079190614516565b101561134d5760405162461bcd60e51b815260206004820152601560248201527441747461636b656420746f6f20726563656e746c7960581b6044820152606401610210565b60405163342a412360e01b8152825160048201526020830151602482015260009073__$8a461d6baeda20cc8b97c0d95fb84681dd$__9063342a41239060440160606040518083038186803b1580156113a557600080fd5b505af41580156113b9573d6000803e3d6000fd5b505050506040513d601f19601f820116820180604052508101906113dd9190614263565b9050600080600080600080548660200151146116f95760006113fd613fcb565b6020808901516000908152622dc6d192909201815260409182902082516101208101845281546001600160a01b031681526001820154818401526002820154818501526003820154606082015260048201546080820152600582015460a0820152600682015460c0820152835180850185526007830154815260088301548185015260e08201526009820180548551818602810186019096528086529194929361010086019392908301828280156114d457602002820191906000526020600020905b8154815260200190600101908083116114c0575b5050509190925250508151919250506001600160a01b031633141561153b5760405162461bcd60e51b815260206004820152601760248201527f43616e6e6f742061747461636b206f776e2074726f6f700000000000000000006044820152606401610210565b602081015160405163357de1eb60e01b815260048101919091526000965073__$8a461d6baeda20cc8b97c0d95fb84681dd$__9063357de1eb9060240160206040518083038186803b15801561159057600080fd5b505af41580156115a4573d6000803e3d6000fd5b505050506040513d601f19601f820116820180604052508101906115c891906142c7565b6020820151604051630e67e8b560e31b815291965073__$8a461d6baeda20cc8b97c0d95fb84681dd$__9163733f45a8916116099160040190815260200190565b60206040518083038186803b15801561162157600080fd5b505af4158015611635573d6000803e3d6000fd5b505050506040513d601f19601f8201168201806040525081019061165991906142c7565b6020820151604051639f07295d60e01b815291955073__$8a461d6baeda20cc8b97c0d95fb84681dd$__91639f07295d9161169a9160040190815260200190565b60206040518083038186803b1580156116b257600080fd5b505af41580156116c6573d6000803e3d6000fd5b505050506040513d601f19601f820116820180604052508101906116ea91906142c7565b92508060c00151915050611866565b600054866040015114156117455760405162461bcd60e51b81526020600482015260136024820152724e6f2074617267657420746f2061747461636b60681b6044820152606401610210565b600061174f613fcb565b6040808901516000908152622dc6ce9290920160205290819020815160a081019092528054829060ff16600181111561179857634e487b7160e01b600052602160045260246000fd5b60018111156117b757634e487b7160e01b600052602160045260246000fd5b815281546001600160a01b036101009091048116602080840191909152600184015460408401526002840154606084015260039093015460809092019190915290820151919250163314156118475760405162461bcd60e51b815260206004820152601660248201527543616e6e6f742061747461636b206f776e206261736560501b6044820152606401610210565b6001955080604001519450806060015193506000925080608001519150505b60405163faf3edd160e01b81526004810185905273__$8a461d6baeda20cc8b97c0d95fb84681dd$__9063faf3edd19060240160206040518083038186803b1580156118b157600080fd5b505af41580156118c5573d6000803e3d6000fd5b505050506040513d601f19601f820116820180604052508101906118e99190614060565b15611cb6576020870151604051639f07295d60e01b815260009173__$8a461d6baeda20cc8b97c0d95fb84681dd$__91639f07295d9161192f9160040190815260200190565b60206040518083038186803b15801561194757600080fd5b505af415801561195b573d6000803e3d6000fd5b505050506040513d601f19601f8201168201806040525081019061197f91906142c7565b9050818110611991576000915061199e565b61199b8183614516565b91505b8515611a8e57816119ad613fcb565b622dc6ce01600089604001518152602001908152602001600020600301819055506000805160206145ba833981519152338b73__$8a461d6baeda20cc8b97c0d95fb84681dd$__633d8e5b308b604001516040518263ffffffff1660e01b8152600401611a1c91815260200190565b60206040518083038186803b158015611a3457600080fd5b505af4158015611a48573d6000803e3d6000fd5b505050506040513d601f19601f82011682018060405250810190611a6c919061403d565b8a60400151604051611a819493929190614332565b60405180910390a1611cb4565b81611a97613fcb565b622dc6d101600089602001518152602001908152602001600020600601819055506000805160206145ba833981519152338b73__$8a461d6baeda20cc8b97c0d95fb84681dd$__63a596a1068b602001516040518263ffffffff1660e01b8152600401611b0691815260200190565b60206040518083038186803b158015611b1e57600080fd5b505af4158015611b32573d6000803e3d6000fd5b505050506040513d601f19601f82011682018060405250810190611b56919061403d565b8a60200151604051611b6b9493929190614332565b60405180910390a181611cb457602087015160405163877fbaf160e01b815273__$8a461d6baeda20cc8b97c0d95fb84681dd$__9163877fbaf191611bb4918d9160040161445d565b60006040518083038186803b158015611bcc57600080fd5b505af4158015611be0573d6000803e3d6000fd5b5050505060208701516040516303d8e5b360e41b815260048101919091527fae995c79a88e396955e94cb3d6a80e56e1269ee8f5f9c3ab36de945cb05affbe9073__$8a461d6baeda20cc8b97c0d95fb84681dd$__90633d8e5b309060240160206040518083038186803b158015611c5757600080fd5b505af4158015611c6b573d6000803e3d6000fd5b505050506040513d601f19601f82011682018060405250810190611c8f919061403d565b6020808a0151604080516001600160a01b039094168452918301520160405180910390a15b505b60405163faf3edd160e01b81526004810184905273__$8a461d6baeda20cc8b97c0d95fb84681dd$__9063faf3edd19060240160206040518083038186803b158015611d0157600080fd5b505af4158015611d15573d6000803e3d6000fd5b505050506040513d601f19601f82011682018060405250810190611d399190614060565b15611fb6578415611e065760408087015190516303d8e5b360e41b81526000805160206145ba8339815191529173__$8a461d6baeda20cc8b97c0d95fb84681dd$__91633d8e5b3091611d929160040190815260200190565b60206040518083038186803b158015611daa57600080fd5b505af4158015611dbe573d6000803e3d6000fd5b505050506040513d601f19601f82011682018060405250810190611de2919061403d565b8760400151338c604051611df99493929190614332565b60405180910390a1611ec4565b60208601516040516352cb508360e11b81526000805160206145ba8339815191529173__$8a461d6baeda20cc8b97c0d95fb84681dd$__9163a596a10691611e549160040190815260200190565b60206040518083038186803b158015611e6c57600080fd5b505af4158015611e80573d6000803e3d6000fd5b505050506040513d601f19601f82011682018060405250810190611ea4919061403d565b8760200151338c604051611ebb9493929190614332565b60405180910390a15b8660c001518210611f7b5760e087015160405163877fbaf160e01b815273__$8a461d6baeda20cc8b97c0d95fb84681dd$__9163877fbaf191611f0c91908d9060040161445d565b60006040518083038186803b158015611f2457600080fd5b505af4158015611f38573d6000803e3d6000fd5b505060408051338152602081018d90527fae995c79a88e396955e94cb3d6a80e56e1269ee8f5f9c3ab36de945cb05affbe935001905060405180910390a1611fb6565b81611f84613fcb565b622dc6d1016000886020015181526020019081526020016000206006016000828254611fb09190614516565b90915550505b505050505050505050565b60405163342a412360e01b8152815160048201526020820151602482015260009073__$8a461d6baeda20cc8b97c0d95fb84681dd$__9063342a41239060440160606040518083038186803b15801561201957600080fd5b505af415801561202d573d6000803e3d6000fd5b505050506040513d601f19601f820116820180604052508101906120519190614263565b9050600054816040015114156120795760405162461bcd60e51b8152600401610210906143e1565b60408082015190516303d8e5b360e41b8152339173__$8a461d6baeda20cc8b97c0d95fb84681dd$__91633d8e5b30916120b99160040190815260200190565b60206040518083038186803b1580156120d157600080fd5b505af41580156120e5573d6000803e3d6000fd5b505050506040513d601f19601f82011682018060405250810190612109919061403d565b6001600160a01b03161461215f5760405162461bcd60e51b815260206004820152601c60248201527f43616e206f6e6c792070726f6475636520696e206f776e2062617365000000006044820152606401610210565b6000548160200151146121b45760405162461bcd60e51b815260206004820152601e60248201527f42617365206f6363757069656420627920616e6f746865722074726f6f7000006044820152606401610210565b60006121be613fcb565b622dc6cb016000836040015181526020019081526020016000206040518060400160405290816000820154815260200160018201548152505090506000548160000151141561224f5760405162461bcd60e51b815260206004820152601b60248201527f4e6f2070726f64756374696f6e20666f756e6420696e206261736500000000006044820152606401610210565b806020015161225c613fcb565b622dc6c9015461226c9190614516565b8151604051632f877ccb60e21b8152600481019190915273__$8a461d6baeda20cc8b97c0d95fb84681dd$__9063be1df32c9060240160206040518083038186803b1580156122ba57600080fd5b505af41580156122ce573d6000803e3d6000fd5b505050506040513d601f19601f820116820180604052508101906122f291906142c7565b111561234f5760405162461bcd60e51b815260206004820152602660248201527f54726f6f70206e65656473206d6f72652065706f63687320666f722070726f646044820152653ab1ba34b7b760d11b6064820152608401610210565b8051604051630cbad10f60e21b81528451600482015260208501516024820152604481019190915233606482015260009073__$8a461d6baeda20cc8b97c0d95fb84681dd$__906332eb443c9060840160206040518083038186803b1580156123b757600080fd5b505af41580156123cb573d6000803e3d6000fd5b505050506040513d601f19601f820116820180604052508101906123ef91906142c7565b90507f0224a232bfc1cdf83a29442d7fc98c1bd70e4a4d0c0e888ed6c01677e45b70423382866040516107189392919061435c565b604051600162ba669960e01b03198152815160048201526020820151602482015273__$8a461d6baeda20cc8b97c0d95fb84681dd$__9063ff4599679060440160206040518083038186803b15801561247c57600080fd5b505af4158015612490573d6000803e3d6000fd5b505050506040513d601f19601f820116820180604052508101906124b49190614060565b6124d05760405162461bcd60e51b8152600401610210906143b4565b60006124da613fcb565b6000848152622dc6d191909101602090815260409182902082516101208101845281546001600160a01b031681526001820154818401526002820154818501526003820154606082015260048201546080820152600582015460a0820152600682015460c0820152835180850185526007830154815260088301548185015260e08201526009820180548551818602810186019096528086529194929361010086019392908301828280156125ae57602002820191906000526020600020905b81548152602001906001019080831161259a575b5050509190925250508151919250506001600160a01b031633146126145760405162461bcd60e51b815260206004820152601f60248201527f43616e206f6e6c7920636170747572652077697468206f776e2074726f6f70006044820152606401610210565b60e08101516040516314adce4360e21b8152815160048201526020918201516024820152835160448201529083015160648201526001608482015273__$8a461d6baeda20cc8b97c0d95fb84681dd$__906352b7390c9060a40160206040518083038186803b15801561268657600080fd5b505af415801561269a573d6000803e3d6000fd5b505050506040513d601f19601f820116820180604052508101906126be9190614060565b6126da5760405162461bcd60e51b815260040161021090614387565b60208101516040516355c6801760e11b8152600481019190915273__$8a461d6baeda20cc8b97c0d95fb84681dd$__9063ab8d002e9060240160206040518083038186803b15801561272b57600080fd5b505af415801561273f573d6000803e3d6000fd5b505050506040513d601f19601f820116820180604052508101906127639190614060565b6127bb5760405162461bcd60e51b815260206004820152602360248201527f4f6e6c792061206c616e642074726f6f702063616e206361707475726520626160448201526273657360e81b6064820152608401610210565b60405163342a412360e01b8152825160048201526020830151602482015260009073__$8a461d6baeda20cc8b97c0d95fb84681dd$__9063342a41239060440160606040518083038186803b15801561281357600080fd5b505af4158015612827573d6000803e3d6000fd5b505050506040513d601f19601f8201168201806040525081019061284b9190614263565b9050600054816040015114156128985760405162461bcd60e51b81526020600482015260126024820152714e6f206261736520746f206361707475726560701b6044820152606401610210565b60408082015190516303d8e5b360e41b8152339173__$8a461d6baeda20cc8b97c0d95fb84681dd$__91633d8e5b30916128d89160040190815260200190565b60206040518083038186803b1580156128f057600080fd5b505af4158015612904573d6000803e3d6000fd5b505050506040513d601f19601f82011682018060405250810190612928919061403d565b6001600160a01b031614156129775760405162461bcd60e51b815260206004820152601560248201527410985cd948185b1c9958591e4818d85c1d1d5c9959605a1b6044820152606401610210565b6000548160200151146129c85760405162461bcd60e51b815260206004820152601960248201527811195cdd1a5b985d1a5bdb881d1a5b19481bd8d8dd5c1a5959603a1b6044820152606401610210565b604080820151905163044a21dd60e31b815260009173__$8a461d6baeda20cc8b97c0d95fb84681dd$__916322510ee891612a099160040190815260200190565b60206040518083038186803b158015612a2157600080fd5b505af4158015612a35573d6000803e3d6000fd5b505050506040513d601f19601f82011682018060405250810190612a5991906142c7565b1115612a9e5760405162461bcd60e51b815260206004820152601460248201527313995959081d1bc8185d1d1858dac8199a5c9cdd60621b6044820152606401610210565b600054612aa9613fcb565b6009018360e00151600001516103e88110612ad457634e487b7160e01b600052603260045260246000fd5b610bb802018360e00151602001516103e88110612b0157634e487b7160e01b600052603260045260246000fd5b600302016001018190555082612b15613fcb565b6000868152622dc6d191909101602090815260409091208251600782015591015160089091015533612b45613fcb565b6040808401516000908152622dc6ce92909201602052902080546001600160a01b039290921661010002610100600160a81b0319909216919091179055612b8a613fcb565b604082810180516000908152622dc6cb93909301602090815282842084815560010193909355518151338152928301879052908201527f746c135c6a9dcae5aed7b5c2ed677b2442befe9f3c236ab24d165059cf63ad8690606001610718565b612bf2613fcb565b546001600160a01b03163314612c0757600080fd5b60405163342a412360e01b8152825160048201526020830151602482015260009073__$8a461d6baeda20cc8b97c0d95fb84681dd$__9063342a41239060440160606040518083038186803b158015612c5f57600080fd5b505af4158015612c73573d6000803e3d6000fd5b505050506040513d601f19601f82011682018060405250810190612c979190614263565b60409081015190516303d8e5b360e41b81526004810182905290915060009073__$8a461d6baeda20cc8b97c0d95fb84681dd$__90633d8e5b309060240160206040518083038186803b158015612ced57600080fd5b505af4158015612d01573d6000803e3d6000fd5b505050506040513d601f19601f82011682018060405250810190612d25919061403d565b6001600160a01b031614612d6b5760405162461bcd60e51b815260206004820152600d60248201526c2130b9b29034b9903a30b5b2b760991b6044820152606401610210565b612d73613fcb565b6007018054600181018255600091825260209091200180546001600160a01b0319166001600160a01b0384161790556040805180820190915280612db5613fcb565b622dc6c9015481526001602090910152612dcd613fcb565b6001600160a01b038416600090815260089190910160209081526040909120825181559101516001909101805460ff191691151591909117905581612e10613fcb565b622dc6ce01600083815260200190815260200160002060000160016101000a8154816001600160a01b0302191690836001600160a01b031602179055507ff0a6a142d1cdc04619a8fd8924155cd64ff41b31e4226fb7ffa08e5ade8d6f9d8284604051612e7e92919061430b565b60405180910390a1505050565b60405163342a412360e01b8152825160048201526020830151602482015260009073__$8a461d6baeda20cc8b97c0d95fb84681dd$__9063342a41239060440160606040518083038186803b158015612ee357600080fd5b505af4158015612ef7573d6000803e3d6000fd5b505050506040513d601f19601f82011682018060405250810190612f1b9190614263565b905060005481604001511415612f435760405162461bcd60e51b8152600401610210906143e1565b60408082015190516303d8e5b360e41b8152339173__$8a461d6baeda20cc8b97c0d95fb84681dd$__91633d8e5b3091612f839160040190815260200190565b60206040518083038186803b158015612f9b57600080fd5b505af4158015612faf573d6000803e3d6000fd5b505050506040513d601f19601f82011682018060405250810190612fd3919061403d565b6001600160a01b0316146130295760405162461bcd60e51b815260206004820152601c60248201527f43616e206f6e6c792070726f6475636520696e206f776e2062617365000000006044820152606401610210565b604051630d7db19960e41b815273__$8a461d6baeda20cc8b97c0d95fb84681dd$__9063d7db199090613060908490600401614474565b60206040518083038186803b15801561307857600080fd5b505af415801561308c573d6000803e3d6000fd5b505050506040513d601f19601f820116820180604052508101906130b09190614060565b15801561313d57506040516355c6801760e11b81526004810183905273__$8a461d6baeda20cc8b97c0d95fb84681dd$__9063ab8d002e9060240160206040518083038186803b15801561310357600080fd5b505af4158015613117573d6000803e3d6000fd5b505050506040513d601f19601f8201168201806040525081019061313b9190614060565b155b156131965760405162461bcd60e51b815260206004820152602360248201527f4f6e6c7920706f7274732063616e2070726f647563652077617465722074726f6044820152626f707360e81b6064820152608401610210565b6000546131a1613fcb565b6040808401516000908152622dc6cb92909201602052902054146132005760405162461bcd60e51b81526020600482015260166024820152754261736520616c72656164792070726f647563696e6760501b6044820152606401610210565b6040518060400160405280838152602001613219613fcb565b622dc6c901549052613229613fcb565b604080840180516000908152622dc6cb93909301602090815292829020845181559383015160019094019390935591518251338152918201529081018390527f9620217d1cc9c776bf452b145f77ef9c2f4b6dc4ab6221d2db13ef5f18f56c5a90606001612e7e565b604051600162ba669960e01b03198152815160048201526020820151602482015273__$8a461d6baeda20cc8b97c0d95fb84681dd$__9063ff4599679060440160206040518083038186803b1580156132ea57600080fd5b505af41580156132fe573d6000803e3d6000fd5b505050506040513d601f19601f820116820180604052508101906133229190614060565b61333e5760405162461bcd60e51b8152600401610210906143b4565b6000613348613fcb565b6000848152622dc6d191909101602090815260409182902082516101208101845281546001600160a01b031681526001820154818401526002820154818501526003820154606082015260048201546080820152600582015460a0820152600682015460c0820152835180850185526007830154815260088301548185015260e082015260098201805485518186028101860190965280865291949293610100860193929083018282801561341c57602002820191906000526020600020905b815481526020019060010190808311613408575b5050509190925250508151919250506001600160a01b031633146134825760405162461bcd60e51b815260206004820152601760248201527f43616e206f6e6c79206d6f7665206f776e2074726f6f700000000000000000006044820152606401610210565b60e081015160405163d18036a960e01b815273__$8a461d6baeda20cc8b97c0d95fb84681dd$__9163d18036a9916134bf91908690600401614437565b60206040518083038186803b1580156134d757600080fd5b505af41580156134eb573d6000803e3d6000fd5b505050506040513d601f19601f8201168201806040525081019061350f9190614060565b156135555760405162461bcd60e51b815260206004820152601660248201527520b63932b0b23c9030ba103232b9ba34b730ba34b7b760511b6044820152606401610210565b60e08101516040516314adce4360e21b8152815160048201526020918201516024820152835160448201529083015160648201526001608482015273__$8a461d6baeda20cc8b97c0d95fb84681dd$__906352b7390c9060a40160206040518083038186803b1580156135c757600080fd5b505af41580156135db573d6000803e3d6000fd5b505050506040513d601f19601f820116820180604052508101906135ff9190614060565b61361b5760405162461bcd60e51b815260040161021090614387565b60608101516020820151604051631b66033160e31b8152600481019190915273__$8a461d6baeda20cc8b97c0d95fb84681dd$__9063db3019889060240160206040518083038186803b15801561367157600080fd5b505af4158015613685573d6000803e3d6000fd5b505050506040513d601f19601f820116820180604052508101906136a991906142c7565b82604001516136b6613fcb565b622dc6c901546136c69190614516565b1061377857602082015160405163d7eeafa360e01b8152600481019190915273__$8a461d6baeda20cc8b97c0d95fb84681dd$__9063d7eeafa39060240160206040518083038186803b15801561371c57600080fd5b505af4158015613730573d6000803e3d6000fd5b505050506040513d601f19601f8201168201806040525081019061375491906142c7565b90508061375f613fcb565b6000868152622dc6d19190910160205260409020600301555b60608201516137c95760405162461bcd60e51b815260206004820152601860248201527f4e6f206d6f766573206c65667420746869732065706f636800000000000000006044820152606401610210565b60405163342a412360e01b8152835160048201526020840151602482015260009073__$8a461d6baeda20cc8b97c0d95fb84681dd$__9063342a41239060440160606040518083038186803b15801561382157600080fd5b505af4158015613835573d6000803e3d6000fd5b505050506040513d601f19601f820116820180604052508101906138599190614263565b60208401516040516355c6801760e11b815291925073__$8a461d6baeda20cc8b97c0d95fb84681dd$__9163ab8d002e9161389a9160040190815260200190565b60206040518083038186803b1580156138b257600080fd5b505af41580156138c6573d6000803e3d6000fd5b505050506040513d601f19601f820116820180604052508101906138ea9190614060565b1561395c5760028151600281111561391257634e487b7160e01b600052602160045260246000fd5b14156139575760405162461bcd60e51b815260206004820152601460248201527321b0b73737ba1036b7bb329037b7103bb0ba32b960611b6044820152606401610210565b613a54565b60028151600281111561397f57634e487b7160e01b600052602160045260246000fd5b14158015613a115750604051630d7db19960e41b815273__$8a461d6baeda20cc8b97c0d95fb84681dd$__9063d7db1990906139bf908490600401614474565b60206040518083038186803b1580156139d757600080fd5b505af41580156139eb573d6000803e3d6000fd5b505050506040513d601f19601f82011682018060405250810190613a0f9190614060565b155b15613a545760405162461bcd60e51b815260206004820152601360248201527210d85b9b9bdd081b5bdd99481bdb881b185b99606a1b6044820152606401610210565b600054816040015114158015613b01575060408082015190516303d8e5b360e41b8152339173__$8a461d6baeda20cc8b97c0d95fb84681dd$__91633d8e5b3091613aa59160040190815260200190565b60206040518083038186803b158015613abd57600080fd5b505af4158015613ad1573d6000803e3d6000fd5b505050506040513d601f19601f82011682018060405250810190613af5919061403d565b6001600160a01b031614155b15613b4e5760405162461bcd60e51b815260206004820152601e60248201527f43616e6e6f74206d6f7665206f6e746f206f70706f6e656e74206261736500006044820152606401610210565b600054816020015114613d5c57604051631172592d60e31b815273__$8a461d6baeda20cc8b97c0d95fb84681dd$__90638b92c96890613b92908490600401614474565b60206040518083038186803b158015613baa57600080fd5b505af4158015613bbe573d6000803e3d6000fd5b505050506040513d601f19601f82011682018060405250810190613be29190614060565b613c2a5760405162461bcd60e51b815260206004820152601960248201527811195cdd1a5b985d1a5bdb881d1a5b19481bd8d8dd5c1a5959603a1b6044820152606401610210565b60208101516040516352cb508360e11b8152339173__$8a461d6baeda20cc8b97c0d95fb84681dd$__9163a596a10691613c6a9160040190815260200190565b60206040518083038186803b158015613c8257600080fd5b505af4158015613c96573d6000803e3d6000fd5b505050506040513d601f19601f82011682018060405250810190613cba919061403d565b6001600160a01b031614613d225760405162461bcd60e51b815260206004820152602960248201527f43616e6e6f74206d6f7665206f6e746f206f70706f6e656e742074726f6f70206044820152681d1c985b9cdc1bdc9d60ba1b6064820152608401610210565b613d2a613fcb565b6020808301516000908152622dc6d1929092018152604082206009018054600181018255908352912001859055613dc1565b84613d65613fcb565b60090185600001516103e88110613d8c57634e487b7160e01b600052603260045260246000fd5b610bb8020185602001516103e88110613db557634e487b7160e01b600052603260045260246000fd5b60030201600101819055505b600054613dcc613fcb565b6009018460e00151600001516103e88110613df757634e487b7160e01b600052603260045260246000fd5b610bb802018460e00151602001516103e88110613e2457634e487b7160e01b600052603260045260246000fd5b600302016001018190555083613e38613fcb565b6000878152622dc6d1919091016020908152604090912082516007820155910151600890910155613e67613fcb565b6000868152622dc6d19190910160205260408120600301805491613e8a8361452d565b91905055506000613e99613fcb565b622dc6d1016000878152602001908152602001600020600901805480602002602001604051908101604052809291908181526020018280548015613efc57602002820191906000526020600020905b815481526020019060010190808311613ee8575b50505050509050600081511115613f885760005b8151811015613f865785613f22613fcb565b622dc6d1016000848481518110613f4957634e487b7160e01b600052603260045260246000fd5b6020908102919091018101518252818101929092526040016000208251600782015591015160089091015580613f7e81614544565b915050613f10565b505b7fa7782439b83e57044d60e67405bf17689b58e4edba6110dd5a0b65d532972d87338787604051613fbb9392919061435c565b60405180910390a1505050505050565b7f8d1bebda6a12a792ffba01f92494c5be0cd4ce8e2d8e46d2c616016d7e70fd2090565b600060408284031215614000578081fd5b6040516040810181811067ffffffffffffffff821117156140235761402361458b565b604052823581526020928301359281019290925250919050565b60006020828403121561404e578081fd5b8151614059816145a1565b9392505050565b600060208284031215614071578081fd5b81518015158114614059578182fd5b600060408284031215614091578081fd5b6140598383613fef565b600080606083850312156140ad578081fd5b6140b78484613fef565b915060408301356140c7816145a1565b809150509250929050565b6000806000608084860312156140e6578081fd5b6140f08585613fef565b92506040840135614100816145a1565b929592945050506060919091013590565b60008060608385031215614123578182fd5b61412d8484613fef565b9150604083013567ffffffffffffffff80821115614149578283fd5b818501915085601f83011261415c578283fd5b813561416f61416a826144da565b6144a9565b80828252602082019150602085018960208560051b8801011115614191578687fd5b865b848110156142295785823511156141a8578788fd5b813587018b603f8201126141ba578889fd5b60208101356141cb61416a826144da565b80828252602082019150604084018f60408560051b87010111156141ed578c8dfd5b8c94505b83851015614210578035835260019490940193602092830192016141f1565b5087525050602094850194929092019150600101614193565b5096999098509650505050505050565b6000806060838503121561424b578182fd5b6142558484613fef565b946040939093013593505050565b600060608284031215614274578081fd5b6040516060810181811067ffffffffffffffff821117156142975761429761458b565b6040528251600381106142a8578283fd5b8152602083810151908201526040928301519281019290925250919050565b6000602082840312156142d8578081fd5b5051919050565b600080606083850312156142f1578182fd5b823591506143028460208501613fef565b90509250929050565b6001600160a01b038316815260608101614059602083018480518252602090810151910152565b6001600160a01b039485168152602081019390935292166040820152606081019190915260800190565b6001600160a01b03939093168352602080840192909252805160408401520151606082015260800190565b6020808252601390820152722232b9ba34b730ba34b7b7103a37b7903330b960691b604082015260600190565b60208082526013908201527215185c99d95d081bdd5d081bd988189bdd5b99606a1b604082015260600190565b6020808252600d908201526c139bc818985cd948199bdd5b99609a1b604082015260600190565b8251815260208084015190820152606081016002831061442a5761442a614575565b8260408301529392505050565b825181526020808401518183015282516040830152820151606082015260808101614059565b82518152602080840151908201526060810161442a565b815160608201906003811061448b5761448b614575565b80835250602083015160208301526040830151604083015292915050565b604051601f8201601f1916810167ffffffffffffffff811182821017156144d2576144d261458b565b604052919050565b600067ffffffffffffffff8211156144f4576144f461458b565b5060051b60200190565b600082198211156145115761451161455f565b500190565b6000828210156145285761452861455f565b500390565b60008161453c5761453c61455f565b506000190190565b60006000198214156145585761455861455f565b5060010190565b634e487b7160e01b600052601160045260246000fd5b634e487b7160e01b600052602160045260246000fd5b634e487b7160e01b600052604160045260246000fd5b6001600160a01b03811681146145b657600080fd5b5056fe392967f48a99f35df9fe179b05d020c46fc27acd36945082b2430515d473ffdda264697066735822122074d2b5f6ee566e218c9f5fb10a2d8fbb508037f683425e9268b5f8a35be34b1464736f6c63430008040033",
    "linkReferences": {
      "contracts/libraries/GameUtil.sol": {
        "Util": [
          {
            "start": 415,
            "length": 20
          },
          {
            "start": 595,
            "length": 20
          },
          {
            "start": 1231,
            "length": 20
          },
          {
            "start": 1682,
            "length": 20
          },
          {
            "start": 2144,
            "length": 20
          },
          {
            "start": 2829,
            "length": 20
          },
          {
            "start": 3356,
            "length": 20
          },
          {
            "start": 3659,
            "length": 20
          },
          {
            "start": 3871,
            "length": 20
          },
          {
            "start": 4352,
            "length": 20
          },
          {
            "start": 4604,
            "length": 20
          },
          {
            "start": 4769,
            "length": 20
          },
          {
            "start": 5012,
            "length": 20
          },
          {
            "start": 5503,
            "length": 20
          },
          {
            "start": 5635,
            "length": 20
          },
          {
            "start": 5780,
            "length": 20
          },
          {
            "start": 6304,
            "length": 20
          },
          {
            "start": 6441,
            "length": 20
          },
          {
            "start": 6661,
            "length": 20
          },
          {
            "start": 6895,
            "length": 20
          },
          {
            "start": 7088,
            "length": 20
          },
          {
            "start": 7238,
            "length": 20
          },
          {
            "start": 7408,
            "length": 20
          },
          {
            "start": 7564,
            "length": 20
          },
          {
            "start": 7758,
            "length": 20
          },
          {
            "start": 7943,
            "length": 20
          },
          {
            "start": 8200,
            "length": 20
          },
          {
            "start": 8371,
            "length": 20
          },
          {
            "start": 8873,
            "length": 20
          },
          {
            "start": 9126,
            "length": 20
          },
          {
            "start": 9323,
            "length": 20
          },
          {
            "start": 9845,
            "length": 20
          },
          {
            "start": 10010,
            "length": 20
          },
          {
            "start": 10242,
            "length": 20
          },
          {
            "start": 10450,
            "length": 20
          },
          {
            "start": 10755,
            "length": 20
          },
          {
            "start": 11342,
            "length": 20
          },
          {
            "start": 11484,
            "length": 20
          },
          {
            "start": 11986,
            "length": 20
          },
          {
            "start": 12157,
            "length": 20
          },
          {
            "start": 12380,
            "length": 20
          },
          {
            "start": 12530,
            "length": 20
          },
          {
            "start": 13017,
            "length": 20
          },
          {
            "start": 13498,
            "length": 20
          },
          {
            "start": 13750,
            "length": 20
          },
          {
            "start": 13920,
            "length": 20
          },
          {
            "start": 14091,
            "length": 20
          },
          {
            "start": 14352,
            "length": 20
          },
          {
            "start": 14484,
            "length": 20
          },
          {
            "start": 14779,
            "length": 20
          },
          {
            "start": 15007,
            "length": 20
          },
          {
            "start": 15246,
            "length": 20
          },
          {
            "start": 15460,
            "length": 20
          }
        ]
      }
    }
  },
  "methodIdentifiers": {
    "battle(uint256,(uint256,uint256))": "c3c5ec4c",
    "captureBase(uint256,(uint256,uint256))": "d91c2983",
    "endProduction((uint256,uint256))": "d08b70f4",
    "initializePlayer((uint256,uint256),address)": "d9a8ae7d",
    "move(uint256,(uint256,uint256))": "fa3c7db0",
    "repair((uint256,uint256))": "0a8ac907",
    "setMapChunk((uint256,uint256),uint256[][])": "31b9f0d1",
    "spawnTroop((uint256,uint256),address,uint256)": "60a03a2a",
    "startProduction((uint256,uint256),uint256)": "f7d12dd0",
    "updateEpoch()": "36f4fb02"
  },
  "id": 3
}