{
  "abi": [
    {
      "anonymous": false,
      "inputs": [
        {
          "indexed": false,
          "internalType": "address",
          "name": "_player",
          "type": "address"
        },
        {
          "components": [
            {
              "internalType": "uint256",
              "name": "x",
              "type": "uint256"
            },
            {
              "internalType": "uint256",
              "name": "y",
              "type": "uint256"
            }
          ],
          "indexed": false,
          "internalType": "struct Position",
          "name": "_origin",
          "type": "tuple"
        },
        {
          "components": [
            {
              "internalType": "uint256",
              "name": "x",
              "type": "uint256"
            },
            {
              "internalType": "uint256",
              "name": "y",
              "type": "uint256"
            }
          ],
          "indexed": false,
          "internalType": "struct Position",
          "name": "_target",
          "type": "tuple"
        },
        {
          "indexed": false,
          "internalType": "uint256",
          "name": "_attackerWorldBlockId",
          "type": "uint256"
        },
        {
          "indexed": false,
          "internalType": "uint256",
          "name": "_targetWorldBlockId",
          "type": "uint256"
        },
        {
          "indexed": false,
          "internalType": "uint256",
          "name": "_strength",
          "type": "uint256"
        }
      ],
      "name": "AttackItem",
      "type": "event"
    },
    {
      "anonymous": false,
      "inputs": [
        {
          "indexed": false,
          "internalType": "address",
          "name": "_player",
          "type": "address"
        },
        {
          "components": [
            {
              "internalType": "uint256",
              "name": "x",
              "type": "uint256"
            },
            {
              "internalType": "uint256",
              "name": "y",
              "type": "uint256"
            }
          ],
          "indexed": false,
          "internalType": "struct Position",
          "name": "_pos",
          "type": "tuple"
        },
        {
          "indexed": false,
          "internalType": "uint256",
          "name": "_health",
          "type": "uint256"
        },
        {
          "indexed": false,
          "internalType": "uint256",
          "name": "_resourceUsed",
          "type": "uint256"
        }
      ],
      "name": "ChangeBlockStrength",
      "type": "event"
    },
    {
      "anonymous": false,
      "inputs": [
        {
          "indexed": false,
          "internalType": "address",
          "name": "_player",
          "type": "address"
        },
        {
          "indexed": false,
          "internalType": "uint256",
          "name": "_blockId",
          "type": "uint256"
        }
      ],
      "name": "Craft",
      "type": "event"
    },
    {
      "anonymous": false,
      "inputs": [
        {
          "indexed": false,
          "internalType": "address",
          "name": "_player",
          "type": "address"
        },
        {
          "indexed": false,
          "internalType": "uint256",
          "name": "_epoch",
          "type": "uint256"
        },
        {
          "indexed": false,
          "internalType": "uint256",
          "name": "_time",
          "type": "uint256"
        }
      ],
      "name": "EpochUpdate",
      "type": "event"
    },
    {
      "anonymous": false,
      "inputs": [
        {
          "indexed": false,
          "internalType": "address",
          "name": "_player",
          "type": "address"
        },
        {
          "components": [
            {
              "internalType": "uint256",
              "name": "x",
              "type": "uint256"
            },
            {
              "internalType": "uint256",
              "name": "y",
              "type": "uint256"
            }
          ],
          "indexed": false,
          "internalType": "struct Position",
          "name": "_pos",
          "type": "tuple"
        },
        {
          "indexed": false,
          "internalType": "uint256",
          "name": "_itemId",
          "type": "uint256"
        }
      ],
      "name": "MineItem",
      "type": "event"
    },
    {
      "anonymous": false,
      "inputs": [
        {
          "indexed": false,
          "internalType": "address",
          "name": "_player",
          "type": "address"
        },
        {
          "components": [
            {
              "internalType": "uint256",
              "name": "x",
              "type": "uint256"
            },
            {
              "internalType": "uint256",
              "name": "y",
              "type": "uint256"
            }
          ],
          "indexed": false,
          "internalType": "struct Position",
          "name": "_pos",
          "type": "tuple"
        }
      ],
      "name": "Move",
      "type": "event"
    },
    {
      "anonymous": false,
      "inputs": [
        {
          "indexed": false,
          "internalType": "address",
          "name": "_player",
          "type": "address"
        },
        {
          "components": [
            {
              "internalType": "uint256",
              "name": "x",
              "type": "uint256"
            },
            {
              "internalType": "uint256",
              "name": "y",
              "type": "uint256"
            }
          ],
          "indexed": false,
          "internalType": "struct Position",
          "name": "_startPos",
          "type": "tuple"
        },
        {
          "components": [
            {
              "internalType": "uint256",
              "name": "x",
              "type": "uint256"
            },
            {
              "internalType": "uint256",
              "name": "y",
              "type": "uint256"
            }
          ],
          "indexed": false,
          "internalType": "struct Position",
          "name": "_endPos",
          "type": "tuple"
        },
        {
          "indexed": false,
          "internalType": "uint256",
          "name": "_worldBlockId",
          "type": "uint256"
        },
        {
          "indexed": false,
          "internalType": "uint256",
          "name": "_time",
          "type": "uint256"
        }
      ],
      "name": "MoveBlock",
      "type": "event"
    },
    {
      "anonymous": false,
      "inputs": [
        {
          "indexed": false,
          "internalType": "address",
          "name": "_player",
          "type": "address"
        },
        {
          "components": [
            {
              "internalType": "uint256",
              "name": "x",
              "type": "uint256"
            },
            {
              "internalType": "uint256",
              "name": "y",
              "type": "uint256"
            }
          ],
          "indexed": false,
          "internalType": "struct Position",
          "name": "_pos",
          "type": "tuple"
        }
      ],
      "name": "NewPlayer",
      "type": "event"
    },
    {
      "anonymous": false,
      "inputs": [
        {
          "indexed": false,
          "internalType": "address",
          "name": "_player",
          "type": "address"
        },
        {
          "components": [
            {
              "internalType": "uint256",
              "name": "x",
              "type": "uint256"
            },
            {
              "internalType": "uint256",
              "name": "y",
              "type": "uint256"
            }
          ],
          "indexed": false,
          "internalType": "struct Position",
          "name": "_pos",
          "type": "tuple"
        },
        {
          "indexed": false,
          "internalType": "uint256",
          "name": "_worldBlockId",
          "type": "uint256"
        },
        {
          "components": [
            {
              "internalType": "uint256",
              "name": "blockId",
              "type": "uint256"
            },
            {
              "internalType": "uint256",
              "name": "health",
              "type": "uint256"
            },
            {
              "internalType": "address",
              "name": "owner",
              "type": "address"
            },
            {
              "internalType": "uint256",
              "name": "lastAttacked",
              "type": "uint256"
            },
            {
              "internalType": "uint256",
              "name": "lastMoved",
              "type": "uint256"
            },
            {
              "internalType": "bool",
              "name": "occupiable",
              "type": "bool"
            }
          ],
          "indexed": false,
          "internalType": "struct BlockData",
          "name": "_blockData",
          "type": "tuple"
        }
      ],
      "name": "Place",
      "type": "event"
    },
    {
      "inputs": [
        {
          "internalType": "address",
          "name": "_player",
          "type": "address"
        },
        {
          "components": [
            {
              "internalType": "uint256",
              "name": "x",
              "type": "uint256"
            },
            {
              "internalType": "uint256",
              "name": "y",
              "type": "uint256"
            }
          ],
          "internalType": "struct Position",
          "name": "_pos",
          "type": "tuple"
        }
      ],
      "name": "_setOccupierAtPosition",
      "outputs": [],
      "stateMutability": "nonpayable",
      "type": "function"
    },
    {
      "inputs": [
        {
          "components": [
            {
              "internalType": "uint256",
              "name": "x",
              "type": "uint256"
            },
            {
              "internalType": "uint256",
              "name": "y",
              "type": "uint256"
            }
          ],
          "internalType": "struct Position",
          "name": "_origin",
          "type": "tuple"
        },
        {
          "components": [
            {
              "internalType": "uint256",
              "name": "x",
              "type": "uint256"
            },
            {
              "internalType": "uint256",
              "name": "y",
              "type": "uint256"
            }
          ],
          "internalType": "struct Position",
          "name": "_target",
          "type": "tuple"
        }
      ],
      "name": "attack",
      "outputs": [],
      "stateMutability": "nonpayable",
      "type": "function"
    },
    {
      "inputs": [
        {
          "internalType": "uint256",
          "name": "_itemId",
          "type": "uint256"
        }
      ],
      "name": "craft",
      "outputs": [],
      "stateMutability": "nonpayable",
      "type": "function"
    },
    {
      "inputs": [
        {
          "components": [
            {
              "internalType": "uint256",
              "name": "x",
              "type": "uint256"
            },
            {
              "internalType": "uint256",
              "name": "y",
              "type": "uint256"
            }
          ],
          "internalType": "struct Position",
          "name": "_pos",
          "type": "tuple"
        },
        {
          "internalType": "uint256",
          "name": "_defaultCurrencyIdx",
          "type": "uint256"
        }
      ],
      "name": "initializePlayer",
      "outputs": [],
      "stateMutability": "nonpayable",
      "type": "function"
    },
    {
      "inputs": [
        {
          "components": [
            {
              "internalType": "uint256",
              "name": "x",
              "type": "uint256"
            },
            {
              "internalType": "uint256",
              "name": "y",
              "type": "uint256"
            }
          ],
          "internalType": "struct Position",
          "name": "_pos",
          "type": "tuple"
        }
      ],
      "name": "mine",
      "outputs": [],
      "stateMutability": "nonpayable",
      "type": "function"
    },
    {
      "inputs": [
        {
          "components": [
            {
              "internalType": "uint256",
              "name": "x",
              "type": "uint256"
            },
            {
              "internalType": "uint256",
              "name": "y",
              "type": "uint256"
            }
          ],
          "internalType": "struct Position",
          "name": "_pos",
          "type": "tuple"
        }
      ],
      "name": "move",
      "outputs": [],
      "stateMutability": "nonpayable",
      "type": "function"
    },
    {
      "inputs": [
        {
          "components": [
            {
              "internalType": "uint256",
              "name": "x",
              "type": "uint256"
            },
            {
              "internalType": "uint256",
              "name": "y",
              "type": "uint256"
            }
          ],
          "internalType": "struct Position",
          "name": "_startPos",
          "type": "tuple"
        },
        {
          "components": [
            {
              "internalType": "uint256",
              "name": "x",
              "type": "uint256"
            },
            {
              "internalType": "uint256",
              "name": "y",
              "type": "uint256"
            }
          ],
          "internalType": "struct Position",
          "name": "_targetPos",
          "type": "tuple"
        }
      ],
      "name": "moveBlock",
      "outputs": [],
      "stateMutability": "nonpayable",
      "type": "function"
    },
    {
      "inputs": [
        {
          "components": [
            {
              "internalType": "uint256",
              "name": "x",
              "type": "uint256"
            },
            {
              "internalType": "uint256",
              "name": "y",
              "type": "uint256"
            }
          ],
          "internalType": "struct Position",
          "name": "_pos",
          "type": "tuple"
        },
        {
          "internalType": "uint256",
          "name": "_blockId",
          "type": "uint256"
        }
      ],
      "name": "place",
      "outputs": [],
      "stateMutability": "nonpayable",
      "type": "function"
    },
    {
      "inputs": [
        {
          "components": [
            {
              "internalType": "uint256",
              "name": "x",
              "type": "uint256"
            },
            {
              "internalType": "uint256",
              "name": "y",
              "type": "uint256"
            }
          ],
          "internalType": "struct Position",
          "name": "_startPos",
          "type": "tuple"
        },
        {
          "internalType": "uint256[][]",
          "name": "_blocks",
          "type": "uint256[][]"
        }
      ],
      "name": "setMapRegion",
      "outputs": [],
      "stateMutability": "nonpayable",
      "type": "function"
    },
    {
      "inputs": [],
      "name": "updateEpoch",
      "outputs": [],
      "stateMutability": "nonpayable",
      "type": "function"
    }
  ],
  "bytecode": {
    "object": "0x608060405234801561001057600080fd5b50613344806100206000396000f3fe608060405234801561001057600080fd5b506004361061009e5760003560e01c80637e77eee4116100665780637e77eee4146100f957806380e8c9da1461010c57806386e68be31461011f578063e4efc90714610132578063f3917bd21461014557600080fd5b80630421d36f146100a357806319a8bbd8146100b857806335f09198146100cb57806336f4fb02146100de5780634dd1b244146100e6575b600080fd5b6100b66100b1366004612eb7565b610158565b005b6100b66100c6366004612d79565b610732565b6100b66100d9366004612ee2565b610ad3565b6100b6610eb7565b6100b66100f4366004612d94565b610fa3565b6100b6610107366004612d79565b611222565b6100b661011a366004612ee2565b6114ed565b6100b661012d366004612af9565b611934565b6100b6610140366004612eb7565b6119b3565b6100b6610153366004612f84565b611f66565b60405163ee8bc57960e01b8152825160048201526020830151602482015260009073__$addd8c1c9a6687457e8e4f326e39dfd0da$__9063ee8bc5799060440160a06040518083038186803b1580156101b057600080fd5b505af41580156101c4573d6000803e3d6000fd5b505050506040513d601f19601f820116820180604052508101906101e89190612f0c565b9050600073__$addd8c1c9a6687457e8e4f326e39dfd0da$__63074a801683602001516040518263ffffffff1660e01b815260040161022991815260200190565b60c06040518083038186803b15801561024157600080fd5b505af4158015610255573d6000803e3d6000fd5b505050506040513d601f19601f820116820180604052508101906102799190612b4f565b8051604051637b5bee1d60e01b8152600481019190915290915060009073__$addd8c1c9a6687457e8e4f326e39dfd0da$__90637b5bee1d9060240160006040518083038186803b1580156102cd57600080fd5b505af41580156102e1573d6000803e3d6000fd5b505050506040513d6000823e601f3d908101601f191682016040526103099190810190612b6a565b90508061014001518260600151426103219190613298565b10156103745760405162461bcd60e51b815260206004820152601760248201527f656e67696e652f61747461636b2d6e6f742d726561647900000000000000000060448201526064015b60405180910390fd5b4261037d6122c0565b6020858101516000908152624c4b51929092018152604080832060030193909355915163ee8bc57960e01b8152865160048201529186015160248301529073__$addd8c1c9a6687457e8e4f326e39dfd0da$__9063ee8bc5799060440160a06040518083038186803b1580156103f257600080fd5b505af4158015610406573d6000803e3d6000fd5b505050506040513d601f19601f8201168201806040525081019061042a9190612f0c565b90508060200151846020015114156104845760405162461bcd60e51b815260206004820152601e60248201527f656e67696e652f61747461636b65722d73616d652d61732d7461726765740000604482015260640161036b565b60405163dda42c6b60e01b8152855160048201526020860151602482015260009073__$addd8c1c9a6687457e8e4f326e39dfd0da$__9063dda42c6b9060440160c06040518083038186803b1580156104dc57600080fd5b505af41580156104f0573d6000803e3d6000fd5b505050506040513d601f19601f820116820180604052508101906105149190612b4f565b610120840151604051633eb0f3eb60e01b8152895160048201526020808b01516024830152895160448301528901516064820152608481019190915290915073__$addd8c1c9a6687457e8e4f326e39dfd0da$__90633eb0f3eb9060a40160206040518083038186803b15801561058a57600080fd5b505af415801561059e573d6000803e3d6000fd5b505050506040513d601f19601f820116820180604052508101906105c29190612b2e565b6105cb57600080fd5b600083610100015182602001516105e29190613298565b9050806105ed6122c0565b6020808601516000908152624c4b519290920190526040902060010155806106df576106176122c0565b6020848101516000908152624c4b519290920181526040808320838155600181018490556002810180546001600160a01b03191690556003810184905560048082018590556005909101805460ff19169055905163f4215cb560e01b81528a5191810191909152908901516024820152604481019190915273__$addd8c1c9a6687457e8e4f326e39dfd0da$__9063f4215cb59060640160006040518083038186803b1580156106c657600080fd5b505af41580156106da573d6000803e3d6000fd5b505050505b7f2fabb78da474be115f4b49cdebffe7291483235dd43820c04d79ea4cb6f18b55338989896020015187602001518660405161072096959493929190613049565b60405180910390a15050505050505050565b60405163304df33f60e01b8152815160048201526020820151602482015260009073__$addd8c1c9a6687457e8e4f326e39dfd0da$__9063304df33f9060440160206040518083038186803b15801561078a57600080fd5b505af415801561079e573d6000803e3d6000fd5b505050506040513d601f19601f820116820180604052508101906107c29190612f9c565b9050600a8161080e5760405162461bcd60e51b8152602060048201526018602482015277656e67696e652f6e6f6e6578697374656e742d626c6f636b60401b604482015260640161036b565b60405163197047f560e11b815233600482015273__$addd8c1c9a6687457e8e4f326e39dfd0da$__90633eb0f3eb90859083906332e08fea906024016101006040518083038186803b15801561086357600080fd5b505af4158015610877573d6000803e3d6000fd5b505050506040513d601f19601f8201168201806040525081019061089b9190612ce0565b60c001516040516001600160e01b031960e085901b1681528251600482015260209283015160248201528151604482015291015160648201526001608482015260a40160206040518083038186803b1580156108f657600080fd5b505af415801561090a573d6000803e3d6000fd5b505050506040513d601f19601f8201168201806040525081019061092e9190612b2e565b61094a5760405162461bcd60e51b815260040161036b906131a7565b6040516303a5400b60e11b81526004810183905260009073__$addd8c1c9a6687457e8e4f326e39dfd0da$__9063074a80169060240160c06040518083038186803b15801561099857600080fd5b505af41580156109ac573d6000803e3d6000fd5b505050506040513d601f19601f820116820180604052508101906109d09190612b4f565b8051604051637b5bee1d60e01b8152600481019190915290915060009073__$addd8c1c9a6687457e8e4f326e39dfd0da$__90637b5bee1d9060240160006040518083038186803b158015610a2457600080fd5b505af4158015610a38573d6000803e3d6000fd5b505050506040513d6000823e601f3d908101601f19168201604052610a609190810190612b6a565b8051909150610aa75760405162461bcd60e51b8152602060048201526013602482015272656e67696e652f6e6f742d6d696e6561626c6560681b604482015260640161036b565b8160200151831015610ac257610abd85336122e4565b610acc565b610acc853361247c565b5050505050565b60405163197047f560e11b815233600482015273__$addd8c1c9a6687457e8e4f326e39dfd0da$__906332e08fea906024016101006040518083038186803b158015610b1e57600080fd5b505af4158015610b32573d6000803e3d6000fd5b505050506040513d601f19601f82011682018060405250810190610b569190612ce0565b5115610bae5760405162461bcd60e51b815260206004820152602160248201527f656e67696e652f706c617965722d616c72656164792d696e697469616c697a656044820152601960fa1b606482015260840161036b565b60405163613c264360e11b8152825160048201526020830151602482015273__$addd8c1c9a6687457e8e4f326e39dfd0da$__9063c2784c869060440160206040518083038186803b158015610c0357600080fd5b505af4158015610c17573d6000803e3d6000fd5b505050506040513d601f19601f82011682018060405250810190610c3b9190612b2e565b15610c885760405162461bcd60e51b815260206004820152601860248201527f656e67696e652f6c6f636174696f6e2d6f636375706965640000000000000000604482015260640161036b565b6000610c926122c0565b6000016040518060e001604052908160008201548152602001600182015481526020016002820154815260200160038201548152602001600482015481526020016005820154815260200160068201548152505090506040518060e00160405280600115158152602001428152602001336001600160a01b0316815260200182604001518152602001826060015181526020016000815260200184815250610d386122c0565b336000908152624c4b4b9190910160209081526040918290208351815460ff1916901515178155838201516001820155918301516002830180546001600160a01b0319166001600160a01b03909216919091179055606083015160038301556080830151600483015560a0830151600583015560c0909201518051600683015590910151600790910155610dca6122c0565b624c4b4a018054600181018255600091825260209091200180546001600160a01b03191633908117909155610dff9084611934565b73__$addd8c1c9a6687457e8e4f326e39dfd0da$__63795646883384610e236122c0565b6004908101546040516001600160e01b031960e087901b168152610e4994939201613186565b60006040518083038186803b158015610e6157600080fd5b505af4158015610e75573d6000803e3d6000fd5b505050507ff0a6a142d1cdc04619a8fd8924155cd64ff41b31e4226fb7ffa08e5ade8d6f9d3384604051610eaa929190612fd7565b60405180910390a1505050565b610ebf6122c0565b624c4b530154610ecd6122c0565b624c4b540154610edd9042613298565b1015610f1d5760405162461bcd60e51b815260206004820152600f60248201526e65706f63682f7072656d617475726560881b604482015260640161036b565b610f256122c0565b624c4b52018054906000610f38836132af565b919050555042610f466122c0565b624c4b5301557f5487c54c1942411aae2a77d0d4f5909e0d168929ec476a74bbfdcd4274edb9b633610f766122c0565b624c4b520154610f846122c0565b624c4b530154604051610f9993929190613186565b60405180910390a1565b60005b815181101561121d5760005b82600081518110610fd357634e487b7160e01b600052603260045260246000fd5b60200260200101515181101561120a57600060405180604001604052808487600001516110009190613280565b81526020018387602001516110159190613280565b8152509050600084848151811061103c57634e487b7160e01b600052603260045260246000fd5b6020026020010151838151811061106357634e487b7160e01b600052603260045260246000fd5b6020026020010151905080600014156110ef576040516330cb442b60e11b815282516004820152602083015160248201526000604482015273__$addd8c1c9a6687457e8e4f326e39dfd0da$__9063619688569060640160006040518083038186803b1580156110d257600080fd5b505af41580156110e6573d6000803e3d6000fd5b505050506111f5565b604051631554de5360e31b81523360048201526024810182905260009073__$addd8c1c9a6687457e8e4f326e39dfd0da$__9063aaa6f2989060440160e06040518083038186803b15801561114357600080fd5b505af4158015611157573d6000803e3d6000fd5b505050506040513d601f19601f8201168201806040525081019061117b9190612fb4565b506040516330cb442b60e11b815284516004820152602085015160248201526044810182905290915073__$addd8c1c9a6687457e8e4f326e39dfd0da$__9063619688569060640160006040518083038186803b1580156111db57600080fd5b505af41580156111ef573d6000803e3d6000fd5b50505050505b50508080611202906132af565b915050610fb2565b5080611215816132af565b915050610fa6565b505050565b604051637a52984360e01b815273__$addd8c1c9a6687457e8e4f326e39dfd0da$__90637a5298439061125b9033908590600401612fd7565b60206040518083038186803b15801561127357600080fd5b505af4158015611287573d6000803e3d6000fd5b505050506040513d601f19601f820116820180604052508101906112ab9190612b2e565b6112ed5760405162461bcd60e51b8152602060048201526013602482015272656e67696e652f696e76616c69642d6d6f766560681b604482015260640161036b565b604051633c1e3a4f60e21b815233600482015273__$addd8c1c9a6687457e8e4f326e39dfd0da$__9063f078e93c9060240160206040518083038186803b15801561133757600080fd5b505af415801561134b573d6000803e3d6000fd5b505050506040513d601f19601f8201168201806040525081019061136f9190612b2e565b6113b45760405162461bcd60e51b8152602060048201526016602482015275195b99da5b994bdb5bdd994b5b9bdd0b58dbdbdb195960521b604482015260640161036b565b426113bd6122c0565b336000818152624c4b4b92909201602052604080832060050193909355915163197047f560e11b815260048101929092529073__$addd8c1c9a6687457e8e4f326e39dfd0da$__906332e08fea906024016101006040518083038186803b15801561142757600080fd5b505af415801561143b573d6000803e3d6000fd5b505050506040513d601f19601f8201168201806040525081019061145f9190612ce0565b60c001519050611470600082611934565b816114796122c0565b336000818152624c4b4b92909201602090815260409092208351600682015592909101516007909201919091556114b09083611934565b7f525cefd038552f5a70d0f20bb3d87cebf1bca8b381ca6f9514e5448e62e6477433836040516114e1929190612fd7565b60405180910390a15050565b604051631ccd4c1560e01b81523360048201526024810182905273__$addd8c1c9a6687457e8e4f326e39dfd0da$__90631ccd4c159060440160206040518083038186803b15801561153e57600080fd5b505af4158015611552573d6000803e3d6000fd5b505050506040513d601f19601f820116820180604052508101906115769190612f9c565b6115c25760405162461bcd60e51b815260206004820152601d60248201527f656e67696e652f696e73756666696369656e742d696e76656e746f7279000000604482015260640161036b565b60405163197047f560e11b815233600482015260009073__$addd8c1c9a6687457e8e4f326e39dfd0da$__906332e08fea906024016101006040518083038186803b15801561161057600080fd5b505af4158015611624573d6000803e3d6000fd5b505050506040513d601f19601f820116820180604052508101906116489190612ce0565b835160c08201515191925014158061166c575082602001518160c001516020015114155b6116b85760405162461bcd60e51b815260206004820152601c60248201527f656e67696e652f63616e6e6f742d7374616e642d6f6e2d626c6f636b00000000604482015260640161036b565b60c0810151604051633eb0f3eb60e01b8152845160048201526020808601516024830152825160448301529091015160648201526001608482015273__$addd8c1c9a6687457e8e4f326e39dfd0da$__90633eb0f3eb9060a40160206040518083038186803b15801561172a57600080fd5b505af415801561173e573d6000803e3d6000fd5b505050506040513d601f19601f820116820180604052508101906117629190612b2e565b61177e5760405162461bcd60e51b815260040161036b906131a7565b6040516290fa4160e71b815273__$addd8c1c9a6687457e8e4f326e39dfd0da$__9063487d2080906117b99033908690600190600401613186565b60006040518083038186803b1580156117d157600080fd5b505af41580156117e5573d6000803e3d6000fd5b5050604051631554de5360e31b8152336004820152602481018590526000925082915073__$addd8c1c9a6687457e8e4f326e39dfd0da$__9063aaa6f2989060440160e06040518083038186803b15801561183f57600080fd5b505af4158015611853573d6000803e3d6000fd5b505050506040513d601f19601f820116820180604052508101906118779190612fb4565b6040516330cb442b60e11b8152875160048201526020880151602482015260448101839052919350915073__$addd8c1c9a6687457e8e4f326e39dfd0da$__9063619688569060640160006040518083038186803b1580156118d857600080fd5b505af41580156118ec573d6000803e3d6000fd5b505050507f3a6bd5e4fff76b6df661d5bb1874d95b93be36f83b6cee47c06b9a9aca4bf50233868484604051611925949392919061310d565b60405180910390a15050505050565b8161193d6122c0565b60070182600001516103e8811061196457634e487b7160e01b600052603260045260246000fd5b611388020182602001516103e8811061198d57634e487b7160e01b600052603260045260246000fd5b6005020180546001600160a01b0319166001600160a01b03929092169190911790555050565b60405163ee8bc57960e01b8152825160048201526020830151602482015260009073__$addd8c1c9a6687457e8e4f326e39dfd0da$__9063ee8bc5799060440160a06040518083038186803b158015611a0b57600080fd5b505af4158015611a1f573d6000803e3d6000fd5b505050506040513d601f19601f82011682018060405250810190611a439190612f0c565b60405163ee8bc57960e01b8152835160048201526020840151602482015290915060009073__$addd8c1c9a6687457e8e4f326e39dfd0da$__9063ee8bc5799060440160a06040518083038186803b158015611a9e57600080fd5b505af4158015611ab2573d6000803e3d6000fd5b505050506040513d601f19601f82011682018060405250810190611ad69190612f0c565b9050600073__$addd8c1c9a6687457e8e4f326e39dfd0da$__63074a801684602001516040518263ffffffff1660e01b8152600401611b1791815260200190565b60c06040518083038186803b158015611b2f57600080fd5b505af4158015611b43573d6000803e3d6000fd5b505050506040513d601f19601f82011682018060405250810190611b679190612b4f565b8051604051637b5bee1d60e01b8152600481019190915290915060009073__$addd8c1c9a6687457e8e4f326e39dfd0da$__90637b5bee1d9060240160006040518083038186803b158015611bbb57600080fd5b505af4158015611bcf573d6000803e3d6000fd5b505050506040513d6000823e601f3d908101601f19168201604052611bf79190810190612b6a565b90508060e00151826080015142611c0e9190613298565b1015611c535760405162461bcd60e51b815260206004820152601460248201527332b733b4b73297b6b7bb3296b1b7b7b63237bbb760611b604482015260640161036b565b82516001600160a01b031615611cab5760405162461bcd60e51b815260206004820152601860248201527f656e67696e652f626c6f636b206973206f636375706965640000000000000000604482015260640161036b565b604051633eb0f3eb60e01b81528651600482015260208088015160248301528651604483015286015160648201526001608482015273__$addd8c1c9a6687457e8e4f326e39dfd0da$__90633eb0f3eb9060a40160206040518083038186803b158015611d1757600080fd5b505af4158015611d2b573d6000803e3d6000fd5b505050506040513d601f19601f82011682018060405250810190611d4f9190612b2e565b611d6b5760405162461bcd60e51b815260040161036b906131a7565b83516001600160a01b031615611db65760405162461bcd60e51b815260206004820152601060248201526f32b733b4b73297b737ba16b7bbb732b960811b604482015260640161036b565b602083015115611e085760405162461bcd60e51b815260206004820152601c60248201527f656e67696e652f7461726765742d74696c652d6e6f742d656d70747900000000604482015260640161036b565b42611e116122c0565b6020868101516000908152624c4b5192909201815260408083206004908101949094555163f4215cb560e01b81528951938101939093528801516024830152604482015273__$addd8c1c9a6687457e8e4f326e39dfd0da$__9063f4215cb59060640160006040518083038186803b158015611e8c57600080fd5b505af4158015611ea0573d6000803e3d6000fd5b5050505060208481015160405163f4215cb560e01b815287516004820152918701516024830152604482015273__$addd8c1c9a6687457e8e4f326e39dfd0da$__9063f4215cb59060640160006040518083038186803b158015611f0357600080fd5b505af4158015611f17573d6000803e3d6000fd5b505050507f64745c5786becb6d1e6520aa9c17deb5baf5aa92e506b8e346e36b0cab68010b338787876020015142604051611f56959493929190612ffe565b60405180910390a1505050505050565b611f6e6122c0565b624c4b490154811115611fbe5760405162461bcd60e51b8152602060048201526018602482015277656e67696e652f6e6f6e6578697374656e742d626c6f636b60401b604482015260640161036b565b604051637b5bee1d60e01b81526004810182905260009073__$addd8c1c9a6687457e8e4f326e39dfd0da$__90637b5bee1d9060240160006040518083038186803b15801561200c57600080fd5b505af4158015612020573d6000803e3d6000fd5b505050506040513d6000823e601f3d908101601f191682016040526120489190810190612b6a565b905060005b8160a001515181101561221c5760008260a00151828151811061208057634e487b7160e01b600052603260045260246000fd5b6020026020010151905060008360c0015183815181106120b057634e487b7160e01b600052603260045260246000fd5b6020908102919091010151604051631ccd4c1560e01b81523360048201526024810184905290915060009073__$addd8c1c9a6687457e8e4f326e39dfd0da$__90631ccd4c159060440160206040518083038186803b15801561211257600080fd5b505af4158015612126573d6000803e3d6000fd5b505050506040513d601f19601f8201168201806040525081019061214a9190612f9c565b90508181101561219c5760405162461bcd60e51b815260206004820152601c60248201527f656e67696e652f696e73756666696369656e742d6d6174657269616c00000000604482015260640161036b565b6040516290fa4160e71b815273__$addd8c1c9a6687457e8e4f326e39dfd0da$__9063487d2080906121d690339087908790600401613186565b60006040518083038186803b1580156121ee57600080fd5b505af4158015612202573d6000803e3d6000fd5b505050505050508080612214906132af565b91505061204d565b50604051630f2ac8d160e31b815273__$addd8c1c9a6687457e8e4f326e39dfd0da$__906379564688906122599033908690600190600401613186565b60006040518083038186803b15801561227157600080fd5b505af4158015612285573d6000803e3d6000fd5b505060408051338152602081018690527f82bf558222c4c37aae80230f0a656373f327bcc6f1ac1ef73c385d4dec21b22393500190506114e1565b7f8d1bebda6a12a792ffba01f92494c5be0cd4ce8e2d8e46d2c616016d7e70fd2090565b60405163304df33f60e01b8152825160048201526020830151602482015260009073__$addd8c1c9a6687457e8e4f326e39dfd0da$__9063304df33f9060440160206040518083038186803b15801561233c57600080fd5b505af4158015612350573d6000803e3d6000fd5b505050506040513d601f19601f820116820180604052508101906123749190612f9c565b604051638ca0796f60e01b8152845160048201526020850151602482015290915060009073__$addd8c1c9a6687457e8e4f326e39dfd0da$__90638ca0796f9060440160c06040518083038186803b1580156123cf57600080fd5b505af41580156123e3573d6000803e3d6000fd5b505050506040513d601f19601f820116820180604052508101906124079190612b4f565b90506000600a826020015161241c9190613298565b9050806124276122c0565b624c4b51016000858152602001908152602001600020600101819055507ffeaa69dcd8e43189f482de674e5e3c5921a6a02b779d665d807650436427e07c848683620f424060405161192594939291906130d4565b60405163ee8bc57960e01b8152825160048201526020830151602482015260009073__$addd8c1c9a6687457e8e4f326e39dfd0da$__9063ee8bc5799060440160a06040518083038186803b1580156124d457600080fd5b505af41580156124e8573d6000803e3d6000fd5b505050506040513d601f19601f8201168201806040525081019061250c9190612f0c565b604051638ca0796f60e01b8152845160048201526020850151602482015290915060009073__$addd8c1c9a6687457e8e4f326e39dfd0da$__90638ca0796f9060440160c06040518083038186803b15801561256757600080fd5b505af415801561257b573d6000803e3d6000fd5b505050506040513d601f19601f8201168201806040525081019061259f9190612b4f565b8051604051637b5bee1d60e01b8152600481019190915290915060009073__$addd8c1c9a6687457e8e4f326e39dfd0da$__90637b5bee1d9060240160006040518083038186803b1580156125f357600080fd5b505af4158015612607573d6000803e3d6000fd5b505050506040513d6000823e601f3d908101601f1916820160405261262f9190810190612b6a565b608081015180519192509060009061264957506001612742565b60005b825181101561274057600073__$addd8c1c9a6687457e8e4f326e39dfd0da$__631ccd4c158986858151811061269257634e487b7160e01b600052603260045260246000fd5b60200260200101516040518363ffffffff1660e01b81526004016126cb9291906001600160a01b03929092168252602082015260400190565b60206040518083038186803b1580156126e357600080fd5b505af41580156126f7573d6000803e3d6000fd5b505050506040513d601f19601f8201168201806040525081019061271b9190612f9c565b9050801561272d576001925050612740565b5080612738816132af565b91505061264c565b505b806127845760405162461bcd60e51b8152602060048201526012602482015271195b99da5b994bdd1bdbdb0b5b995959195960721b604482015260640161036b565b8351604051630f2ac8d160e31b815273__$addd8c1c9a6687457e8e4f326e39dfd0da$__916379564688916127c0918a91600190600401613186565b60006040518083038186803b1580156127d857600080fd5b505af41580156127ec573d6000803e3d6000fd5b505050506127f86122c0565b6020868101516000908152624c4b519290920181526040808320838155600181018490556002810180546001600160a01b03191690556003810184905560048082018590556005909101805460ff19169055905163f4215cb560e01b81528a5191810191909152908901516024820152604481019190915273__$addd8c1c9a6687457e8e4f326e39dfd0da$__9063f4215cb59060640160006040518083038186803b1580156128a757600080fd5b505af41580156128bb573d6000803e3d6000fd5b505085516040517fce3b212d41fe6818967f790d9d31dddc5a36b46b1e3ae9d8f0907834e3d0e08f93506128f3925089918b9161309f565b60405180910390a150505050505050565b600082601f830112612914578081fd5b815160206129296129248361325c565b61322b565b80838252828201915082860187848660051b8901011115612948578586fd5b855b858110156129665781518452928401929084019060010161294a565b5090979650505050505050565b8051801515811461298357600080fd5b919050565b600082601f830112612998578081fd5b815167ffffffffffffffff8111156129b2576129b26132e0565b60206129c6601f8301601f1916820161322b565b82815285828487010111156129d9578384fd5b835b838110156129f65785810183015182820184015282016129db565b83811115612a0657848385840101525b5095945050505050565b600060c08284031215612a21578081fd5b60405160c0810181811067ffffffffffffffff82111715612a4457612a446132e0565b806040525080915082518152602083015160208201526040830151612a68816132f6565b806040830152506060830151606082015260808301516080820152612a8f60a08401612973565b60a08201525092915050565b600060408284031215612aac578081fd5b612ab46131de565b9050813581526020820135602082015292915050565b600060408284031215612adb578081fd5b612ae36131de565b9050815181526020820151602082015292915050565b60008060608385031215612b0b578182fd5b8235612b16816132f6565b9150612b258460208501612a9b565b90509250929050565b600060208284031215612b3f578081fd5b612b4882612973565b9392505050565b600060c08284031215612b60578081fd5b612b488383612a10565b600060208284031215612b7b578081fd5b815167ffffffffffffffff80821115612b92578283fd5b908301906101c08286031215612ba6578283fd5b612bae613207565b612bb783612973565b8152612bc560208401612973565b6020820152612bd660408401612973565b604082015260608301516060820152608083015182811115612bf6578485fd5b612c0287828601612904565b60808301525060a083015182811115612c19578485fd5b612c2587828601612904565b60a08301525060c083015182811115612c3c578485fd5b612c4887828601612904565b60c08301525060e08381015190820152610100808401519082015261012080840151908201526101408084015190820152610160612c87818501612973565b908201526101808381015183811115612c9e578586fd5b612caa88828701612988565b8284015250506101a08084015183811115612cc3578586fd5b612ccf88828701612988565b918301919091525095945050505050565b60006101008284031215612cf2578081fd5b60405160e0810181811067ffffffffffffffff82111715612d1557612d156132e0565b604052612d2183612973565b8152602083015160208201526040830151612d3b816132f6565b80604083015250606083015160608201526080830151608082015260a083015160a0820152612d6d8460c08501612aca565b60c08201529392505050565b600060408284031215612d8a578081fd5b612b488383612a9b565b60008060608385031215612da6578182fd5b612db08484612a9b565b9150604083013567ffffffffffffffff80821115612dcc578283fd5b818501915085601f830112612ddf578283fd5b8135612ded6129248261325c565b80828252602082019150602085018960208560051b8801011115612e0f578687fd5b865b84811015612ea7578582351115612e26578788fd5b813587018b603f820112612e38578889fd5b6020810135612e496129248261325c565b80828252602082019150604084018f60408560051b8701011115612e6b578c8dfd5b8c94505b83851015612e8e57803583526001949094019360209283019201612e6f565b5087525050602094850194929092019150600101612e11565b5096999098509650505050505050565b60008060808385031215612ec9578182fd5b612ed38484612a9b565b9150612b258460408501612a9b565b60008060608385031215612ef4578182fd5b612efe8484612a9b565b946040939093013593505050565b600060a08284031215612f1d578081fd5b60405160a0810181811067ffffffffffffffff82111715612f4057612f406132e0565b6040528251612f4e816132f6565b80825250602083015160208201526040830151604082015260608301516060820152608083015160808201528091505092915050565b600060208284031215612f95578081fd5b5035919050565b600060208284031215612fad578081fd5b5051919050565b60008060e08385031215612fc6578182fd5b82519150612b258460208501612a10565b6001600160a01b038316815260608101612b48602083018480518252602090810151910152565b6001600160a01b038616815260e08101613025602083018780518252602090810151910152565b845160608301526020850151608083015260a082019390935260c001529392505050565b6001600160a01b03871681526101008101613071602083018880518252602090810151910152565b85516060830152602086015160808301528460a08301528360c08301528260e0830152979650505050505050565b6001600160a01b0384168152608081016130c6602083018580518252602090810151910152565b826060830152949350505050565b6001600160a01b038516815260a081016130fb602083018680518252602090810151910152565b60608201939093526080015292915050565b6001600160a01b038581168252610140820190613137602084018780518252602090810151910152565b84606084015283516080840152602084015160a08401528060408501511660c084015250606083015160e0830152608083015161010083015260a0830151151561012083015295945050505050565b6001600160a01b039390931683526020830191909152604082015260600190565b60208082526017908201527f656e67696e652f696e76616c69642d64697374616e6365000000000000000000604082015260600190565b6040805190810167ffffffffffffffff81118282101715613201576132016132e0565b60405290565b6040516101c0810167ffffffffffffffff81118282101715613201576132016132e0565b604051601f8201601f1916810167ffffffffffffffff81118282101715613254576132546132e0565b604052919050565b600067ffffffffffffffff821115613276576132766132e0565b5060051b60200190565b60008219821115613293576132936132ca565b500190565b6000828210156132aa576132aa6132ca565b500390565b60006000198214156132c3576132c36132ca565b5060010190565b634e487b7160e01b600052601160045260246000fd5b634e487b7160e01b600052604160045260246000fd5b6001600160a01b038116811461330b57600080fd5b5056fea2646970667358221220f6a7a2a0651b02f126d1e0e72cae7bdc21e46ae898635c85973553a6d17e00f664736f6c63430008040033",
    "linkReferences": {
      "/Users/K.Z./Desktop/projects/engine/contracts/libraries/GameUtil.sol": {
        "GameUtils": [
          {
            "start": 411,
            "length": 20
          },
          {
            "start": 526,
            "length": 20
          },
          {
            "start": 696,
            "length": 20
          },
          {
            "start": 989,
            "length": 20
          },
          {
            "start": 1223,
            "length": 20
          },
          {
            "start": 1397,
            "length": 20
          },
          {
            "start": 1713,
            "length": 20
          },
          {
            "start": 1909,
            "length": 20
          },
          {
            "start": 2115,
            "length": 20
          },
          {
            "start": 2435,
            "length": 20
          },
          {
            "start": 2575,
            "length": 20
          },
          {
            "start": 2824,
            "length": 20
          },
          {
            "start": 3054,
            "length": 20
          },
          {
            "start": 3617,
            "length": 20
          },
          {
            "start": 4285,
            "length": 20
          },
          {
            "start": 4398,
            "length": 20
          },
          {
            "start": 4550,
            "length": 20
          },
          {
            "start": 4689,
            "length": 20
          },
          {
            "start": 4898,
            "length": 20
          },
          {
            "start": 5137,
            "length": 20
          },
          {
            "start": 5417,
            "length": 20
          },
          {
            "start": 5626,
            "length": 20
          },
          {
            "start": 5909,
            "length": 20
          },
          {
            "start": 6060,
            "length": 20
          },
          {
            "start": 6186,
            "length": 20
          },
          {
            "start": 6339,
            "length": 20
          },
          {
            "start": 6646,
            "length": 20
          },
          {
            "start": 6793,
            "length": 20
          },
          {
            "start": 6908,
            "length": 20
          },
          {
            "start": 7078,
            "length": 20
          },
          {
            "start": 7426,
            "length": 20
          },
          {
            "start": 7799,
            "length": 20
          },
          {
            "start": 7918,
            "length": 20
          },
          {
            "start": 8183,
            "length": 20
          },
          {
            "start": 8445,
            "length": 20
          },
          {
            "start": 8650,
            "length": 20
          },
          {
            "start": 8780,
            "length": 20
          },
          {
            "start": 8999,
            "length": 20
          },
          {
            "start": 9146,
            "length": 20
          },
          {
            "start": 9407,
            "length": 20
          },
          {
            "start": 9554,
            "length": 20
          },
          {
            "start": 9694,
            "length": 20
          },
          {
            "start": 9849,
            "length": 20
          },
          {
            "start": 10165,
            "length": 20
          },
          {
            "start": 10386,
            "length": 20
          }
        ]
      }
    }
  }
}