{
  "abi": [
    {
      "anonymous": false,
      "inputs": [
        {
          "indexed": false,
          "internalType": "address",
          "name": "_player",
          "type": "address"
        },
        {
          "indexed": false,
          "internalType": "uint256",
          "name": "_troopId",
          "type": "uint256"
        },
        {
          "indexed": false,
          "internalType": "address",
          "name": "_targetPlayer",
          "type": "address"
        },
        {
          "indexed": false,
          "internalType": "uint256",
          "name": "_targetId",
          "type": "uint256"
        }
      ],
      "name": "Attacked",
      "type": "event"
    },
    {
      "anonymous": false,
      "inputs": [
        {
          "indexed": false,
          "internalType": "address",
          "name": "_player",
          "type": "address"
        },
        {
          "indexed": false,
          "internalType": "uint256",
          "name": "_troopId",
          "type": "uint256"
        },
        {
          "indexed": false,
          "internalType": "uint256",
          "name": "_baseId",
          "type": "uint256"
        }
      ],
      "name": "BaseCaptured",
      "type": "event"
    },
    {
      "anonymous": false,
      "inputs": [
        {
          "indexed": false,
          "internalType": "address",
          "name": "_player",
          "type": "address"
        },
        {
          "indexed": false,
          "internalType": "uint256",
          "name": "_troopId",
          "type": "uint256"
        }
      ],
      "name": "Death",
      "type": "event"
    },
    {
      "anonymous": false,
      "inputs": [
        {
          "indexed": false,
          "internalType": "uint256",
          "name": "_epoch",
          "type": "uint256"
        },
        {
          "indexed": false,
          "internalType": "uint256",
          "name": "_time",
          "type": "uint256"
        }
      ],
      "name": "EpochUpdate",
      "type": "event"
    },
    {
      "anonymous": false,
      "inputs": [
        {
          "indexed": false,
          "internalType": "address",
          "name": "_player",
          "type": "address"
        },
        {
          "indexed": false,
          "internalType": "uint256",
          "name": "_troopId",
          "type": "uint256"
        },
        {
          "components": [
            {
              "internalType": "uint256",
              "name": "x",
              "type": "uint256"
            },
            {
              "internalType": "uint256",
              "name": "y",
              "type": "uint256"
            }
          ],
          "indexed": false,
          "internalType": "struct Position",
          "name": "_pos",
          "type": "tuple"
        }
      ],
      "name": "Moved",
      "type": "event"
    },
    {
      "anonymous": false,
      "inputs": [
        {
          "indexed": false,
          "internalType": "address",
          "name": "_player",
          "type": "address"
        },
        {
          "components": [
            {
              "internalType": "uint256",
              "name": "x",
              "type": "uint256"
            },
            {
              "internalType": "uint256",
              "name": "y",
              "type": "uint256"
            }
          ],
          "indexed": false,
          "internalType": "struct Position",
          "name": "_pos",
          "type": "tuple"
        }
      ],
      "name": "NewPlayer",
      "type": "event"
    },
    {
      "anonymous": false,
      "inputs": [
        {
          "indexed": false,
          "internalType": "address",
          "name": "_player",
          "type": "address"
        },
        {
          "indexed": false,
          "internalType": "uint256",
          "name": "_troopId",
          "type": "uint256"
        },
        {
          "components": [
            {
              "internalType": "uint256",
              "name": "x",
              "type": "uint256"
            },
            {
              "internalType": "uint256",
              "name": "y",
              "type": "uint256"
            }
          ],
          "indexed": false,
          "internalType": "struct Position",
          "name": "_pos",
          "type": "tuple"
        }
      ],
      "name": "ProductionFinished",
      "type": "event"
    },
    {
      "anonymous": false,
      "inputs": [
        {
          "indexed": false,
          "internalType": "address",
          "name": "_player",
          "type": "address"
        },
        {
          "indexed": false,
          "internalType": "uint256",
          "name": "_baseId",
          "type": "uint256"
        },
        {
          "indexed": false,
          "internalType": "uint256",
          "name": "_troopTypeId",
          "type": "uint256"
        }
      ],
      "name": "ProductionStarted",
      "type": "event"
    },
    {
      "anonymous": false,
      "inputs": [
        {
          "indexed": false,
          "internalType": "address",
          "name": "_player",
          "type": "address"
        },
        {
          "indexed": false,
          "internalType": "uint256",
          "name": "_troopId",
          "type": "uint256"
        }
      ],
      "name": "Recovered",
      "type": "event"
    },
    {
      "inputs": [
        {
          "internalType": "uint256",
          "name": "_troopId",
          "type": "uint256"
        },
        {
          "components": [
            {
              "internalType": "uint256",
              "name": "x",
              "type": "uint256"
            },
            {
              "internalType": "uint256",
              "name": "y",
              "type": "uint256"
            }
          ],
          "internalType": "struct Position",
          "name": "_targetPos",
          "type": "tuple"
        }
      ],
      "name": "battle",
      "outputs": [],
      "stateMutability": "nonpayable",
      "type": "function"
    },
    {
      "inputs": [
        {
          "internalType": "uint256",
          "name": "_troopId",
          "type": "uint256"
        },
        {
          "components": [
            {
              "internalType": "uint256",
              "name": "x",
              "type": "uint256"
            },
            {
              "internalType": "uint256",
              "name": "y",
              "type": "uint256"
            }
          ],
          "internalType": "struct Position",
          "name": "_targetPos",
          "type": "tuple"
        }
      ],
      "name": "captureBase",
      "outputs": [],
      "stateMutability": "nonpayable",
      "type": "function"
    },
    {
      "inputs": [
        {
          "components": [
            {
              "internalType": "uint256",
              "name": "x",
              "type": "uint256"
            },
            {
              "internalType": "uint256",
              "name": "y",
              "type": "uint256"
            }
          ],
          "internalType": "struct Position",
          "name": "_pos",
          "type": "tuple"
        }
      ],
      "name": "endProduction",
      "outputs": [],
      "stateMutability": "nonpayable",
      "type": "function"
    },
    {
      "inputs": [
        {
          "components": [
            {
              "internalType": "uint256",
              "name": "x",
              "type": "uint256"
            },
            {
              "internalType": "uint256",
              "name": "y",
              "type": "uint256"
            }
          ],
          "internalType": "struct Position",
          "name": "_pos",
          "type": "tuple"
        },
        {
          "internalType": "address",
          "name": "_player",
          "type": "address"
        }
      ],
      "name": "initializePlayer",
      "outputs": [],
      "stateMutability": "nonpayable",
      "type": "function"
    },
    {
      "inputs": [
        {
          "internalType": "uint256",
          "name": "_troopId",
          "type": "uint256"
        },
        {
          "components": [
            {
              "internalType": "uint256",
              "name": "x",
              "type": "uint256"
            },
            {
              "internalType": "uint256",
              "name": "y",
              "type": "uint256"
            }
          ],
          "internalType": "struct Position",
          "name": "_targetPos",
          "type": "tuple"
        }
      ],
      "name": "move",
      "outputs": [],
      "stateMutability": "nonpayable",
      "type": "function"
    },
    {
      "inputs": [
        {
          "components": [
            {
              "internalType": "uint256",
              "name": "x",
              "type": "uint256"
            },
            {
              "internalType": "uint256",
              "name": "y",
              "type": "uint256"
            }
          ],
          "internalType": "struct Position",
          "name": "_pos",
          "type": "tuple"
        }
      ],
      "name": "repair",
      "outputs": [],
      "stateMutability": "nonpayable",
      "type": "function"
    },
    {
      "inputs": [
        {
          "components": [
            {
              "internalType": "uint256",
              "name": "x",
              "type": "uint256"
            },
            {
              "internalType": "uint256",
              "name": "y",
              "type": "uint256"
            }
          ],
          "internalType": "struct Position",
          "name": "_pos",
          "type": "tuple"
        },
        {
          "internalType": "uint256",
          "name": "_troopTypeId",
          "type": "uint256"
        }
      ],
      "name": "startProduction",
      "outputs": [],
      "stateMutability": "nonpayable",
      "type": "function"
    },
    {
      "inputs": [],
      "name": "updateEpoch",
      "outputs": [],
      "stateMutability": "nonpayable",
      "type": "function"
    }
  ],
  "bytecode": {
    "object": "0x608060405234801561001057600080fd5b50613aa7806100206000396000f3fe608060405234801561001057600080fd5b50600436106100885760003560e01c8063d91c29831161005b578063d91c2983146100d0578063d9a8ae7d146100e3578063f7d12dd0146100f6578063fa3c7db01461010957600080fd5b80630a8ac9071461008d57806336f4fb02146100a2578063c3c5ec4c146100aa578063d08b70f4146100bd575b600080fd5b6100a061009b3660046137f6565b61011c565b005b6100a0610606565b6100a06100b836600461388a565b610713565b6100a06100cb3660046137f6565b611871565b6100a06100de36600461388a565b611e3a565b6100a06100f1366004613811565b6125be565b6100a0610104366004613848565b6127e4565b6100a061011736600461388a565b612c1e565b60006101266136d5565b60080182600001516103e8811061014d57634e487b7160e01b600052603260045260246000fd5b610bb8020182602001516103e8811061017657634e487b7160e01b600052603260045260246000fd5b6040805160608101909152600391909102919091018054829060ff1660028111156101b157634e487b7160e01b600052602160045260246000fd5b60028111156101d057634e487b7160e01b600052602160045260246000fd5b8152600182015460208201526002909101546040918201528101519091506102135760405162461bcd60e51b815260040161020a90613961565b60405180910390fd5b60408082015190516303d8e5b360e41b8152339173__$8a461d6baeda20cc8b97c0d95fb84681dd$__91633d8e5b30916102539160040190815260200190565b60206040518083038186803b15801561026b57600080fd5b505af415801561027f573d6000803e3d6000fd5b505050506040513d601f19601f820116820180604052508101906102a391906137b3565b6001600160a01b0316146102f95760405162461bcd60e51b815260206004820152601b60248201527f43616e206f6e6c792072657061697220696e206f776e20626173650000000000604482015260640161020a565b602081015161033f5760405162461bcd60e51b81526020600482015260126024820152712737903a3937b7b8103a37903932b830b4b960711b604482015260640161020a565b60006103496136d5565b6020808401516000908152622dc6cf929092018152604091829020825160e08101845281546001600160a01b031681526001820154818401526002820154818501526003820154606082015260048201546080820152835180850185526005830154815260068301548185015260a08201526007820180548551818602810186019096528086529194929360c0860193929083018282801561040a57602002820191906000526020600020905b8154815260200190600101908083116103f6575b5050509190925250505060208101516040516383bcfd8b60e01b815291925073__$8a461d6baeda20cc8b97c0d95fb84681dd$__916383bcfd8b916104559160040190815260200190565b60206040518083038186803b15801561046d57600080fd5b505af4158015610481573d6000803e3d6000fd5b505050506040513d601f19601f820116820180604052508101906104a59190613872565b8160800151106104f75760405162461bcd60e51b815260206004820152601c60248201527f54726f6f7020616c72656164792061742066756c6c206865616c746800000000604482015260640161020a565b6104ff6136d5565b6020808401516000908152622dc6cf9290920190526040812060040180549161052783613a08565b909155505060208101516040516383bcfd8b60e01b8152600481019190915273__$8a461d6baeda20cc8b97c0d95fb84681dd$__906383bcfd8b9060240160206040518083038186803b15801561057d57600080fd5b505af4158015610591573d6000803e3d6000fd5b505050506040513d601f19601f820116820180604052508101906105b59190613872565b816080015114156106015760208083015160408051338152928301919091527f8c1256b8896378cd5044f80c202f9772b9d77dc85c8a6eb51967210b09bfaa2891015b60405180910390a15b505050565b61060e6136d5565b6004015461061a6136d5565b622dc6c9015461062a90426139f1565b101561068d5760405162461bcd60e51b815260206004820152602c60248201527f4e6f7420656e6f7567682074696d652068617320656c61707365642073696e6360448201526b0ca40d8c2e6e840cae0dec6d60a31b606482015260840161020a565b6106956136d5565b622dc6c80180549060006106a883613a08565b9190505550426106b66136d5565b622dc6c901557fcb62e14f4587604f4099c842d98789e47ebdd0ccbf6fd86a0581aa337a602eb16106e56136d5565b622dc6c801546106f36136d5565b622dc6c901546040805192835260208301919091520160405180910390a1565b604051600162ba669960e01b03198152815160048201526020820151602482015273__$8a461d6baeda20cc8b97c0d95fb84681dd$__9063ff4599679060440160206040518083038186803b15801561076b57600080fd5b505af415801561077f573d6000803e3d6000fd5b505050506040513d601f19601f820116820180604052508101906107a391906137d6565b6107bf5760405162461bcd60e51b815260040161020a90613934565b60006107c96136d5565b6000848152622dc6cf919091016020908152604091829020825160e08101845281546001600160a01b031681526001820154818401526002820154818501526003820154606082015260048201546080820152835180850185526005830154815260068301548185015260a08201526007820180548551818602810186019096528086529194929360c0860193929083018282801561088757602002820191906000526020600020905b815481526020019060010190808311610873575b5050509190925250505060a081015160405163d18036a960e01b815291925073__$8a461d6baeda20cc8b97c0d95fb84681dd$__9163d18036a9916108d0918690600401613988565b60206040518083038186803b1580156108e857600080fd5b505af41580156108fc573d6000803e3d6000fd5b505050506040513d601f19601f8201168201806040525081019061092091906137d6565b156109665760405162461bcd60e51b815260206004820152601660248201527520b63932b0b23c9030ba103232b9ba34b730ba34b7b760511b604482015260640161020a565b60a08101516040516314adce4360e21b8152815160048201526020918201516024820152835160448201529083015160648201526001608482015273__$8a461d6baeda20cc8b97c0d95fb84681dd$__906352b7390c9060a40160206040518083038186803b1580156109d857600080fd5b505af41580156109ec573d6000803e3d6000fd5b505050506040513d601f19601f82011682018060405250810190610a1091906137d6565b610a2c5760405162461bcd60e51b815260040161020a90613907565b60208101516040516387900eed60e01b8152600481019190915273__$8a461d6baeda20cc8b97c0d95fb84681dd$__906387900eed9060240160206040518083038186803b158015610a7d57600080fd5b505af4158015610a91573d6000803e3d6000fd5b505050506040513d601f19601f82011682018060405250810190610ab59190613872565b8160600151610ac26136d5565b622dc6c80154610ad291906139f1565b1015610b185760405162461bcd60e51b815260206004820152601560248201527441747461636b656420746f6f20726563656e746c7960581b604482015260640161020a565b6000610b226136d5565b60080183600001516103e88110610b4957634e487b7160e01b600052603260045260246000fd5b610bb8020183602001516103e88110610b7257634e487b7160e01b600052603260045260246000fd5b6040805160608101909152600391909102919091018054829060ff166002811115610bad57634e487b7160e01b600052602160045260246000fd5b6002811115610bcc57634e487b7160e01b600052602160045260246000fd5b815260200160018201548152602001600282015481525050905060008060008060008560400151600014610d1f576000610c046136d5565b6040808901516000908152622dc6cc9290920160205290819020815160a081019092528054829060ff166001811115610c4d57634e487b7160e01b600052602160045260246000fd5b6001811115610c6c57634e487b7160e01b600052602160045260246000fd5b815281546001600160a01b03610100909104811660208084019190915260018401546040840152600284015460608401526003909301546080909201919091529082015191925016331415610cfc5760405162461bcd60e51b815260206004820152601660248201527543616e6e6f742061747461636b206f776e206261736560501b604482015260640161020a565b600195508060400151945080606001519350600092508060800151915050611052565b6020860151610d665760405162461bcd60e51b81526020600482015260136024820152724e6f2074617267657420746f2061747461636b60681b604482015260640161020a565b6000610d706136d5565b6020808901516000908152622dc6cf929092018152604091829020825160e08101845281546001600160a01b031681526001820154818401526002820154818501526003820154606082015260048201546080820152835180850185526005830154815260068301548185015260a08201526007820180548551818602810186019096528086529194929360c08601939290830182828015610e3157602002820191906000526020600020905b815481526020019060010190808311610e1d575b5050509190925250508151919250506001600160a01b0316331415610e985760405162461bcd60e51b815260206004820152601760248201527f43616e6e6f742061747461636b206f776e2074726f6f70000000000000000000604482015260640161020a565b602081015160405163357de1eb60e01b815260048101919091526000965073__$8a461d6baeda20cc8b97c0d95fb84681dd$__9063357de1eb9060240160206040518083038186803b158015610eed57600080fd5b505af4158015610f01573d6000803e3d6000fd5b505050506040513d601f19601f82011682018060405250810190610f259190613872565b6020820151604051630e67e8b560e31b815291965073__$8a461d6baeda20cc8b97c0d95fb84681dd$__9163733f45a891610f669160040190815260200190565b60206040518083038186803b158015610f7e57600080fd5b505af4158015610f92573d6000803e3d6000fd5b505050506040513d601f19601f82011682018060405250810190610fb69190613872565b6020820151604051639f07295d60e01b815291955073__$8a461d6baeda20cc8b97c0d95fb84681dd$__91639f07295d91610ff79160040190815260200190565b60206040518083038186803b15801561100f57600080fd5b505af4158015611023573d6000803e3d6000fd5b505050506040513d601f19601f820116820180604052508101906110479190613872565b925080608001519150505b60405163faf3edd160e01b81526004810185905273__$8a461d6baeda20cc8b97c0d95fb84681dd$__9063faf3edd19060240160206040518083038186803b15801561109d57600080fd5b505af41580156110b1573d6000803e3d6000fd5b505050506040513d601f19601f820116820180604052508101906110d591906137d6565b15611507576020870151604051639f07295d60e01b815260009173__$8a461d6baeda20cc8b97c0d95fb84681dd$__91639f07295d9161111b9160040190815260200190565b60206040518083038186803b15801561113357600080fd5b505af4158015611147573d6000803e3d6000fd5b505050506040513d601f19601f8201168201806040525081019061116b9190613872565b905081811061117d576000915061118a565b61118781836139f1565b91505b851561127a57816111996136d5565b622dc6cc0160008960400151815260200190815260200160002060030181905550600080516020613a52833981519152338b73__$8a461d6baeda20cc8b97c0d95fb84681dd$__633d8e5b308b604001516040518263ffffffff1660e01b815260040161120891815260200190565b60206040518083038186803b15801561122057600080fd5b505af4158015611234573d6000803e3d6000fd5b505050506040513d601f19601f8201168201806040525081019061125891906137b3565b8a6040015160405161126d94939291906138dd565b60405180910390a1611505565b816112836136d5565b622dc6cf0160008960200151815260200190815260200160002060040181905550600080516020613a52833981519152338b73__$8a461d6baeda20cc8b97c0d95fb84681dd$__63a596a1068b602001516040518263ffffffff1660e01b81526004016112f291815260200190565b60206040518083038186803b15801561130a57600080fd5b505af415801561131e573d6000803e3d6000fd5b505050506040513d601f19601f8201168201806040525081019061134291906137b3565b8a6020015160405161135794939291906138dd565b60405180910390a18161150557602087015160405163304c0add60e01b8152600481019190915273__$8a461d6baeda20cc8b97c0d95fb84681dd$__9063304c0add9060240160006040518083038186803b1580156113b557600080fd5b505af41580156113c9573d6000803e3d6000fd5b5050505060006113d76136d5565b6008018a600001516103e881106113fe57634e487b7160e01b600052603260045260246000fd5b610bb802018a602001516103e8811061142757634e487b7160e01b600052603260045260246000fd5b60030201600101819055507fae995c79a88e396955e94cb3d6a80e56e1269ee8f5f9c3ab36de945cb05affbe73__$8a461d6baeda20cc8b97c0d95fb84681dd$__633d8e5b3089602001516040518263ffffffff1660e01b815260040161149091815260200190565b60206040518083038186803b1580156114a857600080fd5b505af41580156114bc573d6000803e3d6000fd5b505050506040513d601f19601f820116820180604052508101906114e091906137b3565b6020808a0151604080516001600160a01b039094168452918301520160405180910390a15b505b60405163faf3edd160e01b81526004810184905273__$8a461d6baeda20cc8b97c0d95fb84681dd$__9063faf3edd19060240160206040518083038186803b15801561155257600080fd5b505af4158015611566573d6000803e3d6000fd5b505050506040513d601f19601f8201168201806040525081019061158a91906137d6565b156118665784156116575760408087015190516303d8e5b360e41b8152600080516020613a528339815191529173__$8a461d6baeda20cc8b97c0d95fb84681dd$__91633d8e5b30916115e39160040190815260200190565b60206040518083038186803b1580156115fb57600080fd5b505af415801561160f573d6000803e3d6000fd5b505050506040513d601f19601f8201168201806040525081019061163391906137b3565b8760400151338c60405161164a94939291906138dd565b60405180910390a1611715565b60208601516040516352cb508360e11b8152600080516020613a528339815191529173__$8a461d6baeda20cc8b97c0d95fb84681dd$__9163a596a106916116a59160040190815260200190565b60206040518083038186803b1580156116bd57600080fd5b505af41580156116d1573d6000803e3d6000fd5b505050506040513d601f19601f820116820180604052508101906116f591906137b3565b8760200151338c60405161170c94939291906138dd565b60405180910390a15b8660800151821061182b5760405163304c0add60e01b8152600481018a905273__$8a461d6baeda20cc8b97c0d95fb84681dd$__9063304c0add9060240160006040518083038186803b15801561176b57600080fd5b505af415801561177f573d6000803e3d6000fd5b50505050600061178d6136d5565b6008018860a00151600001516103e881106117b857634e487b7160e01b600052603260045260246000fd5b610bb802018860a00151602001516103e881106117e557634e487b7160e01b600052603260045260246000fd5b600302016001015560408051338152602081018b90527fae995c79a88e396955e94cb3d6a80e56e1269ee8f5f9c3ab36de945cb05affbe910160405180910390a1611866565b816118346136d5565b622dc6cf01600088602001518152602001908152602001600020600401600082825461186091906139f1565b90915550505b505050505050505050565b600061187b6136d5565b60080182600001516103e881106118a257634e487b7160e01b600052603260045260246000fd5b610bb8020182602001516103e881106118cb57634e487b7160e01b600052603260045260246000fd5b6040805160608101909152600391909102919091018054829060ff16600281111561190657634e487b7160e01b600052602160045260246000fd5b600281111561192557634e487b7160e01b600052602160045260246000fd5b81526001820154602082015260029091015460409182015281015190915061195f5760405162461bcd60e51b815260040161020a90613961565b60408082015190516303d8e5b360e41b8152339173__$8a461d6baeda20cc8b97c0d95fb84681dd$__91633d8e5b309161199f9160040190815260200190565b60206040518083038186803b1580156119b757600080fd5b505af41580156119cb573d6000803e3d6000fd5b505050506040513d601f19601f820116820180604052508101906119ef91906137b3565b6001600160a01b031614611a455760405162461bcd60e51b815260206004820152601c60248201527f43616e206f6e6c792070726f6475636520696e206f776e206261736500000000604482015260640161020a565b602081015115611a975760405162461bcd60e51b815260206004820152601e60248201527f42617365206f6363757069656420627920616e6f746865722074726f6f700000604482015260640161020a565b6000611aa16136d5565b6040808401516000908152622dc6ca9290920160209081529181902081518083019092528054808352600190910154928201929092529150611b255760405162461bcd60e51b815260206004820152601b60248201527f4e6f2070726f64756374696f6e20666f756e6420696e20626173650000000000604482015260640161020a565b8060200151611b326136d5565b622dc6c80154611b4291906139f1565b8151604051632f877ccb60e21b8152600481019190915273__$8a461d6baeda20cc8b97c0d95fb84681dd$__9063be1df32c9060240160206040518083038186803b158015611b9057600080fd5b505af4158015611ba4573d6000803e3d6000fd5b505050506040513d601f19601f82011682018060405250810190611bc89190613872565b1115611c255760405162461bcd60e51b815260206004820152602660248201527f54726f6f70206e65656473206d6f72652065706f63687320666f722070726f646044820152653ab1ba34b7b760d11b606482015260840161020a565b6040805160e08101825233815282516020820152606091600091908101611c4a6136d5565b622dc6c801548152602001611c5d6136d5565b622dc6c80154815284516040516383bcfd8b60e01b8152600481019190915260209091019073__$8a461d6baeda20cc8b97c0d95fb84681dd$__906383bcfd8b9060240160206040518083038186803b158015611cb957600080fd5b505af4158015611ccd573d6000803e3d6000fd5b505050506040513d601f19601f82011682018060405250810190611cf19190613872565b81526020018681526020018381525090506000611d0c6136d5565b622dc6ce01549050611d1c6136d5565b622dc6cd018054600181018255600091825260209091200181905581611d406136d5565b6000838152622dc6cf919091016020908152604091829020835181546001600160a01b0319166001600160a01b03909116178155838201516001820155918301516002830155606083015160038301556080830151600483015560a083015180516005840155810151600683015560c08301518051611dc592600785019201906136f9565b50905050611dd16136d5565b622dc6ce018054906000611de483613a08565b9091555050604080513381526020808201849052885182840152880151606082015290517f8a6de5fda7b1f11b898755eff962bf6c36dc2bd4d066e66c23ba0bce0cf466ec9181900360800190a1505050505050565b604051600162ba669960e01b03198152815160048201526020820151602482015273__$8a461d6baeda20cc8b97c0d95fb84681dd$__9063ff4599679060440160206040518083038186803b158015611e9257600080fd5b505af4158015611ea6573d6000803e3d6000fd5b505050506040513d601f19601f82011682018060405250810190611eca91906137d6565b611ee65760405162461bcd60e51b815260040161020a90613934565b6000611ef06136d5565b6000848152622dc6cf919091016020908152604091829020825160e08101845281546001600160a01b031681526001820154818401526002820154818501526003820154606082015260048201546080820152835180850185526005830154815260068301548185015260a08201526007820180548551818602810186019096528086529194929360c08601939290830182828015611fae57602002820191906000526020600020905b815481526020019060010190808311611f9a575b5050509190925250505060a08101516040516314adce4360e21b8152815160048201526020918201516024820152845160448201529084015160648201526001608482015290915073__$8a461d6baeda20cc8b97c0d95fb84681dd$__906352b7390c9060a40160206040518083038186803b15801561202d57600080fd5b505af4158015612041573d6000803e3d6000fd5b505050506040513d601f19601f8201168201806040525081019061206591906137d6565b6120815760405162461bcd60e51b815260040161020a90613907565b60208101516040516381959f8d60e01b8152600481019190915273__$8a461d6baeda20cc8b97c0d95fb84681dd$__906381959f8d9060240160206040518083038186803b1580156120d257600080fd5b505af41580156120e6573d6000803e3d6000fd5b505050506040513d601f19601f8201168201806040525081019061210a91906137d6565b6121565760405162461bcd60e51b815260206004820152601e60248201527f4f6e6c7920616e2061726d792063616e20636170747572652062617365730000604482015260640161020a565b60006121606136d5565b60080183600001516103e8811061218757634e487b7160e01b600052603260045260246000fd5b610bb8020183602001516103e881106121b057634e487b7160e01b600052603260045260246000fd5b6040805160608101909152600391909102919091018054829060ff1660028111156121eb57634e487b7160e01b600052602160045260246000fd5b600281111561220a57634e487b7160e01b600052602160045260246000fd5b8152600182015460208201526002909101546040918201528101519091506122695760405162461bcd60e51b81526020600482015260126024820152714e6f206261736520746f206361707475726560701b604482015260640161020a565b60408082015190516303d8e5b360e41b8152339173__$8a461d6baeda20cc8b97c0d95fb84681dd$__91633d8e5b30916122a99160040190815260200190565b60206040518083038186803b1580156122c157600080fd5b505af41580156122d5573d6000803e3d6000fd5b505050506040513d601f19601f820116820180604052508101906122f991906137b3565b6001600160a01b031614156123485760405162461bcd60e51b815260206004820152601560248201527410985cd948185b1c9958591e4818d85c1d1d5c9959605a1b604482015260640161020a565b6020810151156123965760405162461bcd60e51b815260206004820152601960248201527811195cdd1a5b985d1a5bdb881d1a5b19481bd8d8dd5c1a5959603a1b604482015260640161020a565b604080820151905163044a21dd60e31b815260009173__$8a461d6baeda20cc8b97c0d95fb84681dd$__916322510ee8916123d79160040190815260200190565b60206040518083038186803b1580156123ef57600080fd5b505af4158015612403573d6000803e3d6000fd5b505050506040513d601f19601f820116820180604052508101906124279190613872565b111561246c5760405162461bcd60e51b815260206004820152601460248201527313995959081d1bc8185d1d1858dac8199a5c9cdd60621b604482015260640161020a565b60006124766136d5565b6008018360a00151600001516103e881106124a157634e487b7160e01b600052603260045260246000fd5b610bb802018360a00151602001516103e881106124ce57634e487b7160e01b600052603260045260246000fd5b6003020160010181905550826124e26136d5565b6000868152622dc6cf919091016020908152604090912082516005820155910151600690910155336125126136d5565b6040808401516000908152622dc6cc92909201602052902080546001600160a01b039290921661010002610100600160a81b03199092169190911790556125576136d5565b604082810180516000908152622dc6ca9390930160209081528284208481556001019390935551815133815292830187905282820152517f746c135c6a9dcae5aed7b5c2ed677b2442befe9f3c236ab24d165059cf63ad869181900360600190a150505050565b600073__$8a461d6baeda20cc8b97c0d95fb84681dd$__633d8e5b306125e26136d5565b60080185600001516103e8811061260957634e487b7160e01b600052603260045260246000fd5b610bb8020185602001516103e8811061263257634e487b7160e01b600052603260045260246000fd5b60030201600201546040518263ffffffff1660e01b815260040161265891815260200190565b60206040518083038186803b15801561267057600080fd5b505af4158015612684573d6000803e3d6000fd5b505050506040513d601f19601f820116820180604052508101906126a891906137b3565b6001600160a01b031614156126ef5760405162461bcd60e51b815260206004820152600d60248201526c2130b9b29034b9903a30b5b2b760991b604482015260640161020a565b6126f76136d5565b6006018054600181018255600091825260209091200180546001600160a01b0319166001600160a01b03831617905560408051606081019091528061273a6136d5565b622dc6c801548152600160208201526040018390526127576136d5565b6001600160a01b03831660009081526007919091016020908152604091829020835181558382015160018201805460ff191691151591909117905592820151805160028501550151600390920191909155517ff0a6a142d1cdc04619a8fd8924155cd64ff41b31e4226fb7ffa08e5ade8d6f9d906127d890839085906138b6565b60405180910390a15050565b60006127ee6136d5565b60080183600001516103e8811061281557634e487b7160e01b600052603260045260246000fd5b610bb8020183602001516103e8811061283e57634e487b7160e01b600052603260045260246000fd5b6040805160608101909152600391909102919091018054829060ff16600281111561287957634e487b7160e01b600052602160045260246000fd5b600281111561289857634e487b7160e01b600052602160045260246000fd5b8152600182015460208201526002909101546040918201528101519091506128d25760405162461bcd60e51b815260040161020a90613961565b60408082015190516303d8e5b360e41b8152339173__$8a461d6baeda20cc8b97c0d95fb84681dd$__91633d8e5b30916129129160040190815260200190565b60206040518083038186803b15801561292a57600080fd5b505af415801561293e573d6000803e3d6000fd5b505050506040513d601f19601f8201168201806040525081019061296291906137b3565b6001600160a01b0316146129b85760405162461bcd60e51b815260206004820152601c60248201527f43616e206f6e6c792070726f6475636520696e206f776e206261736500000000604482015260640161020a565b604051630d7db19960e41b815273__$8a461d6baeda20cc8b97c0d95fb84681dd$__9063d7db1990906129ef9084906004016139ae565b60206040518083038186803b158015612a0757600080fd5b505af4158015612a1b573d6000803e3d6000fd5b505050506040513d601f19601f82011682018060405250810190612a3f91906137d6565b158015612acc57506040516381959f8d60e01b81526004810183905273__$8a461d6baeda20cc8b97c0d95fb84681dd$__906381959f8d9060240160206040518083038186803b158015612a9257600080fd5b505af4158015612aa6573d6000803e3d6000fd5b505050506040513d601f19601f82011682018060405250810190612aca91906137d6565b155b15612b255760405162461bcd60e51b815260206004820152602360248201527f4f6e6c7920706f7274732063616e2070726f647563652077617465722074726f6044820152626f707360e81b606482015260840161020a565b612b2d6136d5565b6040808301516000908152622dc6ca9290920160205290205415612b8c5760405162461bcd60e51b81526020600482015260166024820152754261736520616c72656164792070726f647563696e6760501b604482015260640161020a565b6040518060400160405280838152602001612ba56136d5565b622dc6c801549052612bb56136d5565b604080840180516000908152622dc6ca93909301602090815292829020845181559383015160019094019390935591518251338152918201529081018390527f9620217d1cc9c776bf452b145f77ef9c2f4b6dc4ab6221d2db13ef5f18f56c5a906060016105f8565b604051600162ba669960e01b03198152815160048201526020820151602482015273__$8a461d6baeda20cc8b97c0d95fb84681dd$__9063ff4599679060440160206040518083038186803b158015612c7657600080fd5b505af4158015612c8a573d6000803e3d6000fd5b505050506040513d601f19601f82011682018060405250810190612cae91906137d6565b612cca5760405162461bcd60e51b815260040161020a90613934565b6000612cd46136d5565b6000848152622dc6cf919091016020908152604091829020825160e08101845281546001600160a01b031681526001820154818401526002820154818501526003820154606082015260048201546080820152835180850185526005830154815260068301548185015260a08201526007820180548551818602810186019096528086529194929360c08601939290830182828015612d9257602002820191906000526020600020905b815481526020019060010190808311612d7e575b5050509190925250505060a081015160405163d18036a960e01b815291925073__$8a461d6baeda20cc8b97c0d95fb84681dd$__9163d18036a991612ddb918690600401613988565b60206040518083038186803b158015612df357600080fd5b505af4158015612e07573d6000803e3d6000fd5b505050506040513d601f19601f82011682018060405250810190612e2b91906137d6565b15612e715760405162461bcd60e51b815260206004820152601660248201527520b63932b0b23c9030ba103232b9ba34b730ba34b7b760511b604482015260640161020a565b73__$8a461d6baeda20cc8b97c0d95fb84681dd$__6352b7390c8260a001518473__$8a461d6baeda20cc8b97c0d95fb84681dd$__639f7c43cd86602001516040518263ffffffff1660e01b8152600401612ece91815260200190565b60206040518083038186803b158015612ee657600080fd5b505af4158015612efa573d6000803e3d6000fd5b505050506040513d601f19601f82011682018060405250810190612f1e9190613872565b6040516001600160e01b031960e086901b1681528351600482015260209384015160248201528251604482015292909101516064830152608482015260a40160206040518083038186803b158015612f7557600080fd5b505af4158015612f89573d6000803e3d6000fd5b505050506040513d601f19601f82011682018060405250810190612fad91906137d6565b612fc95760405162461bcd60e51b815260040161020a90613907565b6020810151604051631b66033160e31b8152600481019190915273__$8a461d6baeda20cc8b97c0d95fb84681dd$__9063db3019889060240160206040518083038186803b15801561301a57600080fd5b505af415801561302e573d6000803e3d6000fd5b505050506040513d601f19601f820116820180604052508101906130529190613872565b816040015161305f6136d5565b622dc6c8015461306f91906139f1565b10156130b25760405162461bcd60e51b81526020600482015260126024820152714d6f76656420746f6f20726563656e746c7960701b604482015260640161020a565b60006130bc6136d5565b60080183600001516103e881106130e357634e487b7160e01b600052603260045260246000fd5b610bb8020183602001516103e8811061310c57634e487b7160e01b600052603260045260246000fd5b6040805160608101909152600391909102919091018054829060ff16600281111561314757634e487b7160e01b600052602160045260246000fd5b600281111561316657634e487b7160e01b600052602160045260246000fd5b815260200160018201548152602001600282015481525050905073__$8a461d6baeda20cc8b97c0d95fb84681dd$__6381959f8d83602001516040518263ffffffff1660e01b81526004016131bd91815260200190565b60206040518083038186803b1580156131d557600080fd5b505af41580156131e9573d6000803e3d6000fd5b505050506040513d601f19601f8201168201806040525081019061320d91906137d6565b1561327f5760008151600281111561323557634e487b7160e01b600052602160045260246000fd5b141561327a5760405162461bcd60e51b815260206004820152601460248201527321b0b73737ba1036b7bb329037b7103bb0ba32b960611b604482015260640161020a565b613377565b6000815160028111156132a257634e487b7160e01b600052602160045260246000fd5b141580156133345750604051630d7db19960e41b815273__$8a461d6baeda20cc8b97c0d95fb84681dd$__9063d7db1990906132e29084906004016139ae565b60206040518083038186803b1580156132fa57600080fd5b505af415801561330e573d6000803e3d6000fd5b505050506040513d601f19601f8201168201806040525081019061333291906137d6565b155b156133775760405162461bcd60e51b815260206004820152601360248201527210d85b9b9bdd081b5bdd99481bdb881b185b99606a1b604482015260640161020a565b60208101511561348a57604051631172592d60e31b815273__$8a461d6baeda20cc8b97c0d95fb84681dd$__90638b92c968906133b89084906004016139ae565b60206040518083038186803b1580156133d057600080fd5b505af41580156133e4573d6000803e3d6000fd5b505050506040513d601f19601f8201168201806040525081019061340891906137d6565b6134505760405162461bcd60e51b815260206004820152601960248201527811195cdd1a5b985d1a5bdb881d1a5b19481bd8d8dd5c1a5959603a1b604482015260640161020a565b6134586136d5565b6020808301516000908152622dc6cf9290920181526040822060070180546001810182559083529120018490556134ef565b836134936136d5565b60080184600001516103e881106134ba57634e487b7160e01b600052603260045260246000fd5b610bb8020184602001516103e881106134e357634e487b7160e01b600052603260045260246000fd5b60030201600101819055505b60006134f96136d5565b6008018360a00151600001516103e8811061352457634e487b7160e01b600052603260045260246000fd5b610bb802018360a00151602001516103e8811061355157634e487b7160e01b600052603260045260246000fd5b6003020160010181905550826135656136d5565b6000868152622dc6cf91909101602090815260408220835160058201559201516006909201919091556135966136d5565b622dc6cf0160008681526020019081526020016000206007018054806020026020016040519081016040528092919081815260200182805480156135f957602002820191906000526020600020905b8154815260200190600101908083116135e5575b505050505090506000815111156136855760005b8151811015613683578461361f6136d5565b622dc6cf01600084848151811061364657634e487b7160e01b600052603260045260246000fd5b602090810291909101810151825281810192909252604001600020825160058201559101516006909101558061367b81613a08565b91505061360d565b505b604080513381526020808201889052865182840152860151606082015290517fa7782439b83e57044d60e67405bf17689b58e4edba6110dd5a0b65d532972d879181900360800190a15050505050565b7f8d1bebda6a12a792ffba01f92494c5be0cd4ce8e2d8e46d2c616016d7e70fd2090565b828054828255906000526020600020908101928215613734579160200282015b82811115613734578251825591602001919060010190613719565b50613740929150613744565b5090565b5b808211156137405760008155600101613745565b60006040828403121561376a578081fd5b6040516040810181811067ffffffffffffffff8211171561379957634e487b7160e01b83526041600452602483fd5b604052823581526020928301359281019290925250919050565b6000602082840312156137c4578081fd5b81516137cf81613a39565b9392505050565b6000602082840312156137e7578081fd5b815180151581146137cf578182fd5b600060408284031215613807578081fd5b6137cf8383613759565b60008060608385031215613823578081fd5b61382d8484613759565b9150604083013561383d81613a39565b809150509250929050565b6000806060838503121561385a578182fd5b6138648484613759565b946040939093013593505050565b600060208284031215613883578081fd5b5051919050565b6000806060838503121561389c578182fd5b823591506138ad8460208501613759565b90509250929050565b6001600160a01b0383168152606081016137cf602083018480518252602090810151910152565b6001600160a01b039485168152602081019390935292166040820152606081019190915260800190565b6020808252601390820152722232b9ba34b730ba34b7b7103a37b7903330b960691b604082015260600190565b60208082526013908201527215185c99d95d081bdd5d081bd988189bdd5b99606a1b604082015260600190565b6020808252600d908201526c139bc818985cd948199bdd5b99609a1b604082015260600190565b8251815260208084015181830152825160408301528201516060820152608081016137cf565b81516060820190600381106139d357634e487b7160e01b600052602160045260246000fd5b80835250602083015160208301526040830151604083015292915050565b600082821015613a0357613a03613a23565b500390565b6000600019821415613a1c57613a1c613a23565b5060010190565b634e487b7160e01b600052601160045260246000fd5b6001600160a01b0381168114613a4e57600080fd5b5056fe392967f48a99f35df9fe179b05d020c46fc27acd36945082b2430515d473ffdda2646970667358221220cf24930d52001af3f63dd4b5bddfb7c6a8b107feb2220593d88929a42df5a37364736f6c63430008040033",
    "linkReferences": {
      "contracts/libraries/GameUtil.sol": {
        "Util": [
          {
            "start": 585,
            "length": 20
          },
          {
            "start": 1099,
            "length": 20
          },
          {
            "start": 1384,
            "length": 20
          },
          {
            "start": 1878,
            "length": 20
          },
          {
            "start": 2248,
            "length": 20
          },
          {
            "start": 2499,
            "length": 20
          },
          {
            "start": 2664,
            "length": 20
          },
          {
            "start": 3800,
            "length": 20
          },
          {
            "start": 3932,
            "length": 20
          },
          {
            "start": 4077,
            "length": 20
          },
          {
            "start": 4232,
            "length": 20
          },
          {
            "start": 4369,
            "length": 20
          },
          {
            "start": 4589,
            "length": 20
          },
          {
            "start": 4823,
            "length": 20
          },
          {
            "start": 5024,
            "length": 20
          },
          {
            "start": 5237,
            "length": 20
          },
          {
            "start": 5437,
            "length": 20
          },
          {
            "start": 5593,
            "length": 20
          },
          {
            "start": 5787,
            "length": 20
          },
          {
            "start": 5974,
            "length": 20
          },
          {
            "start": 6549,
            "length": 20
          },
          {
            "start": 7035,
            "length": 20
          },
          {
            "start": 7332,
            "length": 20
          },
          {
            "start": 7805,
            "length": 20
          },
          {
            "start": 8216,
            "length": 20
          },
          {
            "start": 8381,
            "length": 20
          },
          {
            "start": 8863,
            "length": 20
          },
          {
            "start": 9165,
            "length": 20
          },
          {
            "start": 9698,
            "length": 20
          },
          {
            "start": 10504,
            "length": 20
          },
          {
            "start": 10727,
            "length": 20
          },
          {
            "start": 10877,
            "length": 20
          },
          {
            "start": 11361,
            "length": 20
          },
          {
            "start": 11731,
            "length": 20
          },
          {
            "start": 11923,
            "length": 20
          },
          {
            "start": 11955,
            "length": 20
          },
          {
            "start": 12293,
            "length": 20
          },
          {
            "start": 12706,
            "length": 20
          },
          {
            "start": 13018,
            "length": 20
          },
          {
            "start": 13232,
            "length": 20
          }
        ]
      }
    }
  },
  "methodIdentifiers": {
    "battle(uint256,(uint256,uint256))": "c3c5ec4c",
    "captureBase(uint256,(uint256,uint256))": "d91c2983",
    "endProduction((uint256,uint256))": "d08b70f4",
    "initializePlayer((uint256,uint256),address)": "d9a8ae7d",
    "move(uint256,(uint256,uint256))": "fa3c7db0",
    "repair((uint256,uint256))": "0a8ac907",
    "startProduction((uint256,uint256),uint256)": "f7d12dd0",
    "updateEpoch()": "36f4fb02"
  },
  "id": 4
}