{
  "abi": [
    {
      "inputs": [
        {
          "internalType": "uint256",
          "name": "_troopId",
          "type": "uint256"
        },
        {
          "components": [
            {
              "internalType": "uint256",
              "name": "x",
              "type": "uint256"
            },
            {
              "internalType": "uint256",
              "name": "y",
              "type": "uint256"
            }
          ],
          "internalType": "struct Position",
          "name": "_targetPos",
          "type": "tuple"
        }
      ],
      "name": "battle",
      "outputs": [],
      "stateMutability": "nonpayable",
      "type": "function"
    },
    {
      "inputs": [
        {
          "internalType": "uint256",
          "name": "_troopId",
          "type": "uint256"
        },
        {
          "components": [
            {
              "internalType": "uint256",
              "name": "x",
              "type": "uint256"
            },
            {
              "internalType": "uint256",
              "name": "y",
              "type": "uint256"
            }
          ],
          "internalType": "struct Position",
          "name": "_targetPos",
          "type": "tuple"
        }
      ],
      "name": "captureBase",
      "outputs": [],
      "stateMutability": "nonpayable",
      "type": "function"
    },
    {
      "inputs": [
        {
          "components": [
            {
              "internalType": "uint256",
              "name": "x",
              "type": "uint256"
            },
            {
              "internalType": "uint256",
              "name": "y",
              "type": "uint256"
            }
          ],
          "internalType": "struct Position",
          "name": "_pos",
          "type": "tuple"
        }
      ],
      "name": "endProduction",
      "outputs": [],
      "stateMutability": "nonpayable",
      "type": "function"
    },
    {
      "inputs": [
        {
          "components": [
            {
              "internalType": "uint256",
              "name": "x",
              "type": "uint256"
            },
            {
              "internalType": "uint256",
              "name": "y",
              "type": "uint256"
            }
          ],
          "internalType": "struct Position",
          "name": "_pos",
          "type": "tuple"
        },
        {
          "internalType": "address",
          "name": "_player",
          "type": "address"
        }
      ],
      "name": "initializePlayer",
      "outputs": [],
      "stateMutability": "nonpayable",
      "type": "function"
    },
    {
      "inputs": [
        {
          "internalType": "uint256",
          "name": "_troopId",
          "type": "uint256"
        },
        {
          "components": [
            {
              "internalType": "uint256",
              "name": "x",
              "type": "uint256"
            },
            {
              "internalType": "uint256",
              "name": "y",
              "type": "uint256"
            }
          ],
          "internalType": "struct Position",
          "name": "_targetPos",
          "type": "tuple"
        }
      ],
      "name": "move",
      "outputs": [],
      "stateMutability": "nonpayable",
      "type": "function"
    },
    {
      "inputs": [
        {
          "components": [
            {
              "internalType": "uint256",
              "name": "x",
              "type": "uint256"
            },
            {
              "internalType": "uint256",
              "name": "y",
              "type": "uint256"
            }
          ],
          "internalType": "struct Position",
          "name": "_pos",
          "type": "tuple"
        }
      ],
      "name": "repair",
      "outputs": [],
      "stateMutability": "nonpayable",
      "type": "function"
    },
    {
      "inputs": [
        {
          "components": [
            {
              "internalType": "uint256",
              "name": "x",
              "type": "uint256"
            },
            {
              "internalType": "uint256",
              "name": "y",
              "type": "uint256"
            }
          ],
          "internalType": "struct Position",
          "name": "_startPos",
          "type": "tuple"
        },
        {
          "internalType": "uint256[][]",
          "name": "_chunk",
          "type": "uint256[][]"
        }
      ],
      "name": "setMapChunk",
      "outputs": [],
      "stateMutability": "nonpayable",
      "type": "function"
    },
    {
      "inputs": [
        {
          "components": [
            {
              "internalType": "uint256",
              "name": "x",
              "type": "uint256"
            },
            {
              "internalType": "uint256",
              "name": "y",
              "type": "uint256"
            }
          ],
          "internalType": "struct Position",
          "name": "_pos",
          "type": "tuple"
        },
        {
          "internalType": "address",
          "name": "_player",
          "type": "address"
        },
        {
          "internalType": "uint256",
          "name": "_troopTypeId",
          "type": "uint256"
        }
      ],
      "name": "spawnTroop",
      "outputs": [],
      "stateMutability": "nonpayable",
      "type": "function"
    },
    {
      "inputs": [
        {
          "components": [
            {
              "internalType": "uint256",
              "name": "x",
              "type": "uint256"
            },
            {
              "internalType": "uint256",
              "name": "y",
              "type": "uint256"
            }
          ],
          "internalType": "struct Position",
          "name": "_pos",
          "type": "tuple"
        },
        {
          "internalType": "uint256",
          "name": "_troopTypeId",
          "type": "uint256"
        }
      ],
      "name": "startProduction",
      "outputs": [],
      "stateMutability": "nonpayable",
      "type": "function"
    },
    {
      "inputs": [
        {
          "components": [
            {
              "internalType": "uint256",
              "name": "x",
              "type": "uint256"
            },
            {
              "internalType": "uint256",
              "name": "y",
              "type": "uint256"
            }
          ],
          "internalType": "struct Position",
          "name": "_pos",
          "type": "tuple"
        },
        {
          "internalType": "address",
          "name": "_player",
          "type": "address"
        }
      ],
      "name": "transferBaseOwnership",
      "outputs": [],
      "stateMutability": "nonpayable",
      "type": "function"
    },
    {
      "inputs": [],
      "name": "updateEpoch",
      "outputs": [],
      "stateMutability": "nonpayable",
      "type": "function"
    }
  ],
  "bytecode": {
    "object": "0x60806040526000805534801561001457600080fd5b50615346806100246000396000f3fe608060405234801561001057600080fd5b50600436106100a95760003560e01c8063c3c5ec4c11610071578063c3c5ec4c14610104578063d08b70f414610117578063d91c29831461012a578063d9a8ae7d1461013d578063f7d12dd014610150578063fa3c7db01461016357600080fd5b80630a8ac907146100ae57806331b9f0d1146100c357806336f4fb02146100d657806360a03a2a146100de578063954b855d146100f1575b600080fd5b6100c16100bc366004614b5c565b610176565b005b6100c16100d1366004614bed565b610773565b6100c16109fb565b6100c16100ec366004614bae565b610b08565b6100c16100ff366004614b77565b610f6f565b6100c1610112366004614df1565b611215565b6100c1610125366004614b5c565b61262b565b6100c1610138366004614df1565b612ad1565b6100c161014b366004614b77565b6132ba565b6100c161015e366004614d10565b6135e6565b6100c1610171366004614df1565b6139f1565b60405163342a412360e01b8152815160048201526020820151602482015260009073__$8a461d6baeda20cc8b97c0d95fb84681dd$__9063342a41239060440160606040518083038186803b1580156101ce57600080fd5b505af41580156101e2573d6000803e3d6000fd5b505050506040513d601f19601f820116820180604052508101906102069190614d3a565b9050600054816040015114156102375760405162461bcd60e51b815260040161022e90615112565b60405180910390fd5b60408082015190516303d8e5b360e41b8152339173__$8a461d6baeda20cc8b97c0d95fb84681dd$__91633d8e5b30916102779160040190815260200190565b60206040518083038186803b15801561028f57600080fd5b505af41580156102a3573d6000803e3d6000fd5b505050506040513d601f19601f820116820180604052508101906102c79190614a95565b6001600160a01b03161461031d5760405162461bcd60e51b815260206004820152601b60248201527f43616e206f6e6c792072657061697220696e206f776e20626173650000000000604482015260640161022e565b60208101516000548114156103695760405162461bcd60e51b81526020600482015260126024820152712737903a3937b7b8103a37903932b830b4b960711b604482015260640161022e565b600061037361487b565b6000838152622dc6d291909101602090815260409182902082516101208101845281546001600160a01b031681526001820154818401526002820154818501526003820154606082015260048201546080820152600582015460a0820152600682015460c0820152835180850185526007830154815260088301548185015260e082015260098201805485518186028101860190965280865291949293610100860193929083018282801561044757602002820191906000526020600020905b815481526020019060010190808311610433575b5050509190925250508151919250506001600160a01b031633146104ad5760405162461bcd60e51b815260206004820152601960248201527f43616e206f6e6c7920726570616972206f776e2074726f6f7000000000000000604482015260640161022e565b60208101516040516383bcfd8b60e01b8152600481019190915273__$8a461d6baeda20cc8b97c0d95fb84681dd$__906383bcfd8b9060240160206040518083038186803b1580156104fe57600080fd5b505af4158015610512573d6000803e3d6000fd5b505050506040513d601f19601f820116820180604052508101906105369190614dd9565b8160c00151106105885760405162461bcd60e51b815260206004820152601c60248201527f54726f6f7020616c72656164792061742066756c6c206865616c746800000000604482015260640161022e565b60018160a0015161059761487b565b622dc6ca01546105a7919061526d565b10156105ed5760405162461bcd60e51b8152602060048201526015602482015274526570616972656420746f6f20726563656e746c7960581b604482015260640161022e565b60c081018051906105fd8261529b565b90525060c081015161060d61487b565b6000848152622dc6d291909101602052604090206006015561062d61487b565b622dc6ca015461063b61487b565b6000848152622dc6d2919091016020908152604091829020600501929092558482015160c084015182513381529384019190915282820152517f8c6ef3a83ce15ee809a6310211efd15d7eb305c557db89478d972c2778f73cd99181900360600190a160208101516040516383bcfd8b60e01b8152600481019190915273__$8a461d6baeda20cc8b97c0d95fb84681dd$__906383bcfd8b9060240160206040518083038186803b1580156106ef57600080fd5b505af4158015610703573d6000803e3d6000fd5b505050506040513d601f19601f820116820180604052508101906107279190614dd9565b8160c00151141561076d5760408051338152602081018490527f8c1256b8896378cd5044f80c202f9772b9d77dc85c8a6eb51967210b09bfaa2891015b60405180910390a15b50505050565b61077b61487b565b546001600160a01b031633146107a35760405162461bcd60e51b815260040161022e90615092565b60005b81518110156109f65760005b826000815181106107d357634e487b7160e01b600052603260045260246000fd5b6020026020010151518110156109e357600060405180604001604052808487600001516108009190615255565b81526020018387602001516108159190615255565b8152509050600084848151811061083c57634e487b7160e01b600052603260045260246000fd5b6020026020010151838151811061086357634e487b7160e01b600052603260045260246000fd5b602002602001015190506003811061092557600081600314610886576001610889565b60005b6040516339e83f3b60e21b815290915073__$8a461d6baeda20cc8b97c0d95fb84681dd$__9063e7a0fcec906108c59086908590600401615139565b60206040518083038186803b1580156108dd57600080fd5b505af41580156108f1573d6000803e3d6000fd5b505050506040513d601f19601f820116820180604052508101906109159190614dd9565b5061092160038361526d565b9150505b80600281111561094557634e487b7160e01b600052602160045260246000fd5b61094d61487b565b600a0183600001516103e8811061097457634e487b7160e01b600052603260045260246000fd5b610bb8020183602001516103e8811061099d57634e487b7160e01b600052603260045260246000fd5b60030201805460ff191660018360028111156109c957634e487b7160e01b600052602160045260246000fd5b0217905550505080806109db9061529b565b9150506107b2565b50806109ee8161529b565b9150506107a6565b505050565b610a0361487b565b60060154610a0f61487b565b622dc6cb0154610a1f904261526d565b1015610a825760405162461bcd60e51b815260206004820152602c60248201527f4e6f7420656e6f7567682074696d652068617320656c61707365642073696e6360448201526b0ca40d8c2e6e840cae0dec6d60a31b606482015260840161022e565b610a8a61487b565b622dc6ca018054906000610a9d8361529b565b919050555042610aab61487b565b622dc6cb01557fcb62e14f4587604f4099c842d98789e47ebdd0ccbf6fd86a0581aa337a602eb1610ada61487b565b622dc6ca0154610ae861487b565b622dc6cb01546040805192835260208301919091520160405180910390a1565b610b1061487b565b546001600160a01b03163314610b385760405162461bcd60e51b815260040161022e90615092565b60405163342a412360e01b8152835160048201526020840151602482015260009073__$8a461d6baeda20cc8b97c0d95fb84681dd$__9063342a41239060440160606040518083038186803b158015610b9057600080fd5b505af4158015610ba4573d6000803e3d6000fd5b505050506040513d601f19601f82011682018060405250810190610bc89190614d3a565b9050600054816020015114610c0f5760405162461bcd60e51b815260206004820152600d60248201526c151a5b19481bd8d8dd5c1a5959609a1b604482015260640161022e565b600054816040015114610e7a576000610c2661487b565b6040808401516000908152622dc6cf9290920160205290819020815160a081019092528054829060ff166001811115610c6f57634e487b7160e01b600052602160045260246000fd5b6001811115610c8e57634e487b7160e01b600052602160045260246000fd5b81526020016000820160019054906101000a90046001600160a01b03166001600160a01b03166001600160a01b0316815260200160018201548152602001600282015481526020016003820154815250509050836001600160a01b031681602001516001600160a01b031614158015610d13575060208101516001600160a01b031615155b15610d6e5760405162461bcd60e51b815260206004820152602560248201527f43616e206f6e6c7920737061776e2074726f6f7020696e20706c617965722773604482015264206261736560d81b606482015260840161022e565b6040516355c6801760e11b81526004810184905273__$8a461d6baeda20cc8b97c0d95fb84681dd$__9063ab8d002e9060240160206040518083038186803b158015610db957600080fd5b505af4158015610dcd573d6000803e3d6000fd5b505050506040513d601f19601f82011682018060405250810190610df19190614ab8565b158015610e1f5750600081516001811115610e1c57634e487b7160e01b600052602160045260246000fd5b14155b15610e785760405162461bcd60e51b8152602060048201526024808201527f43616e206f6e6c7920737061776e2077617465722074726f6f707320696e20706044820152636f72747360e01b606482015260840161022e565b505b604051630cbad10f60e21b81528451600482015260208501516024820152604481018390526001600160a01b0384166064820152600090819073__$8a461d6baeda20cc8b97c0d95fb84681dd$__906332eb443c9060840160006040518083038186803b158015610eea57600080fd5b505af4158015610efe573d6000803e3d6000fd5b505050506040513d6000823e601f3d908101601f19168201604052610f269190810190614e1d565b915091507fa4499f4acaa7c58f1df4c9adc999d0c9ef0dcae3d4e4fdab0b1929a4ce4b267385838389604051610f5f9493929190614f90565b60405180910390a1505050505050565b610f7761487b565b546001600160a01b03163314610f9f5760405162461bcd60e51b815260040161022e90615092565b60405163342a412360e01b8152825160048201526020830151602482015260009073__$8a461d6baeda20cc8b97c0d95fb84681dd$__9063342a41239060440160606040518083038186803b158015610ff757600080fd5b505af415801561100b573d6000803e3d6000fd5b505050506040513d601f19601f8201168201806040525081019061102f9190614d3a565b9050600054816040015114156110575760405162461bcd60e51b815260040161022e90615112565b60005481602001511461109c5760405162461bcd60e51b815260206004820152600d60248201526c151a5b19481bd8d8dd5c1a5959609a1b604482015260640161022e565b6040808201519051632231a81d60e21b815260009173__$8a461d6baeda20cc8b97c0d95fb84681dd$__916388c6a074916110dd9160040190815260200190565b60a06040518083038186803b1580156110f557600080fd5b505af4158015611109573d6000803e3d6000fd5b505050506040513d601f19601f8201168201806040525081019061112d9190614ad8565b9050826001600160a01b031681602001516001600160a01b031614156111955760405162461bcd60e51b815260206004820152601e60248201527f4261736520616c72656164792062656c6f6e677320746f20706c617965720000604482015260640161022e565b8261119e61487b565b604084810180516000908152622dc6cf9390930160209081528284208054610100600160a81b0319166101006001600160a01b03978816021790559254905182519488168552928401528201527f746c135c6a9dcae5aed7b5c2ed677b2442befe9f3c236ab24d165059cf63ad8690606001610764565b604051600162ba669960e01b03198152815160048201526020820151602482015273__$8a461d6baeda20cc8b97c0d95fb84681dd$__9063ff4599679060440160206040518083038186803b15801561126d57600080fd5b505af4158015611281573d6000803e3d6000fd5b505050506040513d601f19601f820116820180604052508101906112a59190614ab8565b6112c15760405162461bcd60e51b815260040161022e906150e5565b60006112cb61487b565b6000848152622dc6d291909101602090815260409182902082516101208101845281546001600160a01b031681526001820154818401526002820154818501526003820154606082015260048201546080820152600582015460a0820152600682015460c0820152835180850185526007830154815260088301548185015260e082015260098201805485518186028101860190965280865291949293610100860193929083018282801561139f57602002820191906000526020600020905b81548152602001906001019080831161138b575b5050509190925250508151919250506001600160a01b031633146114055760405162461bcd60e51b815260206004820152601f60248201527f43616e206f6e6c7920626174746c65207573696e67206f776e2074726f6f7000604482015260640161022e565b60e081015160405163d18036a960e01b815273__$8a461d6baeda20cc8b97c0d95fb84681dd$__9163d18036a99161144291908690600401615158565b60206040518083038186803b15801561145a57600080fd5b505af415801561146e573d6000803e3d6000fd5b505050506040513d601f19601f820116820180604052508101906114929190614ab8565b156114d85760405162461bcd60e51b815260206004820152601660248201527520b63932b0b23c9030ba103232b9ba34b730ba34b7b760511b604482015260640161022e565b60e08101516040516314adce4360e21b8152815160048201526020918201516024820152835160448201529083015160648201526001608482015273__$8a461d6baeda20cc8b97c0d95fb84681dd$__906352b7390c9060a40160206040518083038186803b15801561154a57600080fd5b505af415801561155e573d6000803e3d6000fd5b505050506040513d601f19601f820116820180604052508101906115829190614ab8565b61159e5760405162461bcd60e51b815260040161022e906150b8565b60208101516040516387900eed60e01b8152600481019190915273__$8a461d6baeda20cc8b97c0d95fb84681dd$__906387900eed9060240160206040518083038186803b1580156115ef57600080fd5b505af4158015611603573d6000803e3d6000fd5b505050506040513d601f19601f820116820180604052508101906116279190614dd9565b816080015161163461487b565b622dc6ca0154611644919061526d565b101561168a5760405162461bcd60e51b815260206004820152601560248201527441747461636b656420746f6f20726563656e746c7960581b604482015260640161022e565b61169261487b565b622dc6ca01546116a061487b565b6000858152622dc6d291909101602090815260408083206004908101949094555163342a412360e01b815285519381019390935284015160248301529073__$8a461d6baeda20cc8b97c0d95fb84681dd$__9063342a41239060440160606040518083038186803b15801561171457600080fd5b505af4158015611728573d6000803e3d6000fd5b505050506040513d601f19601f8201168201806040525081019061174c9190614d3a565b9050600080600080600061175e61489f565b61179a6040805160a08101909152806000815260200160006001600160a01b031681526020016000815260200160008152602001600081525090565b600054886020015114611aaa576117af61487b565b6020808a01516000908152622dc6d292909201815260409182902082516101208101845281546001600160a01b031681526001820154818401526002820154818501526003820154606082015260048201546080820152600582015460a0820152600682015460c0820152835180850185526007830154815260088301548185015260e082015260098201805485518186028101860190965280865291949293610100860193929083018282801561188657602002820191906000526020600020905b815481526020019060010190808311611872575b5050509190925250508151919350506001600160a01b03163314156118ed5760405162461bcd60e51b815260206004820152601760248201527f43616e6e6f742061747461636b206f776e2074726f6f70000000000000000000604482015260640161022e565b602082015160405163357de1eb60e01b815260048101919091526000975073__$8a461d6baeda20cc8b97c0d95fb84681dd$__9063357de1eb9060240160206040518083038186803b15801561194257600080fd5b505af4158015611956573d6000803e3d6000fd5b505050506040513d601f19601f8201168201806040525081019061197a9190614dd9565b6020830151604051630e67e8b560e31b815291975073__$8a461d6baeda20cc8b97c0d95fb84681dd$__9163733f45a8916119bb9160040190815260200190565b60206040518083038186803b1580156119d357600080fd5b505af41580156119e7573d6000803e3d6000fd5b505050506040513d601f19601f82011682018060405250810190611a0b9190614dd9565b6020830151604051639f07295d60e01b815291965073__$8a461d6baeda20cc8b97c0d95fb84681dd$__91639f07295d91611a4c9160040190815260200190565b60206040518083038186803b158015611a6457600080fd5b505af4158015611a78573d6000803e3d6000fd5b505050506040513d601f19601f82011682018060405250810190611a9c9190614dd9565b93508160c001519250611c14565b60005488604001511415611af65760405162461bcd60e51b81526020600482015260136024820152724e6f2074617267657420746f2061747461636b60681b604482015260640161022e565b611afe61487b565b6040808a01516000908152622dc6cf9290920160205290819020815160a081019092528054829060ff166001811115611b4757634e487b7160e01b600052602160045260246000fd5b6001811115611b6657634e487b7160e01b600052602160045260246000fd5b815281546001600160a01b03610100909104811660208084019190915260018401546040840152600284015460608401526003909301546080909201919091529082015191925016331415611bf65760405162461bcd60e51b815260206004820152601660248201527543616e6e6f742061747461636b206f776e206261736560501b604482015260640161022e565b60019650806040015195508060600151945060009350806080015192505b611c1c61487b565b622dc6ca0154611c2a61487b565b60008d8152622dc6d29190910160205260409020600401555b604051639743bddd60e01b8152600481018c905260009073__$8a461d6baeda20cc8b97c0d95fb84681dd$__90639743bddd9060240160006040518083038186803b158015611c9157600080fd5b505af4158015611ca5573d6000803e3d6000fd5b505050506040513d6000823e601f3d908101601f19168201604052611ccd9190810190614d9e565b60c00151118015611d7457506020880151604051639743bddd60e01b815260009173__$8a461d6baeda20cc8b97c0d95fb84681dd$__91639743bddd91611d1a9160040190815260200190565b60006040518083038186803b158015611d3257600080fd5b505af4158015611d46573d6000803e3d6000fd5b505050506040513d6000823e601f3d908101601f19168201604052611d6e9190810190614d9e565b60c00151115b156121715760405163faf3edd160e01b81526004810187905273__$8a461d6baeda20cc8b97c0d95fb84681dd$__9063faf3edd19060240160206040518083038186803b158015611dc457600080fd5b505af4158015611dd8573d6000803e3d6000fd5b505050506040513d601f19601f82011682018060405250810190611dfc9190614ab8565b15611fff576020890151604051639f07295d60e01b815260009173__$8a461d6baeda20cc8b97c0d95fb84681dd$__91639f07295d91611e429160040190815260200190565b60206040518083038186803b158015611e5a57600080fd5b505af4158015611e6e573d6000803e3d6000fd5b505050506040513d601f19601f82011682018060405250810190611e929190614dd9565b905083811015611ead57611ea6818561526d565b9350611ffd565b6000935087611ffd5760208981015160405163877fbaf160e01b81528d516004820152918d01516024830152604482015273__$8a461d6baeda20cc8b97c0d95fb84681dd$__9063877fbaf19060640160006040518083038186803b158015611f1557600080fd5b505af4158015611f29573d6000803e3d6000fd5b5050505060208901516040516303d8e5b360e41b815260048101919091527fae995c79a88e396955e94cb3d6a80e56e1269ee8f5f9c3ab36de945cb05affbe9073__$8a461d6baeda20cc8b97c0d95fb84681dd$__90633d8e5b309060240160206040518083038186803b158015611fa057600080fd5b505af4158015611fb4573d6000803e3d6000fd5b505050506040513d601f19601f82011682018060405250810190611fd89190614a95565b6020808c0151604080516001600160a01b039094168452918301520160405180910390a15b505b8261200957612171565b60405163faf3edd160e01b81526004810186905273__$8a461d6baeda20cc8b97c0d95fb84681dd$__9063faf3edd19060240160206040518083038186803b15801561205457600080fd5b505af4158015612068573d6000803e3d6000fd5b505050506040513d601f19601f8201168201806040525081019061208c9190614ab8565b1561216c578860c001518410156120b757838960c0018181516120af919061526d565b905250611c43565b60e089015160405163877fbaf160e01b8152815160048201526020909101516024820152604481018c905273__$8a461d6baeda20cc8b97c0d95fb84681dd$__9063877fbaf19060640160006040518083038186803b15801561211957600080fd5b505af415801561212d573d6000803e3d6000fd5b505060408051338152602081018f90527fae995c79a88e396955e94cb3d6a80e56e1269ee8f5f9c3ab36de945cb05affbe935001905060405180910390a15b611c43565b604051639743bddd60e01b8152600481018c9052339073__$8a461d6baeda20cc8b97c0d95fb84681dd$__90639743bddd9060240160006040518083038186803b1580156121be57600080fd5b505af41580156121d2573d6000803e3d6000fd5b505050506040513d6000823e601f3d908101601f191682016040526121fa9190810190614d9e565b516001600160a01b03161415612485578860c0015161221761487b565b60008d8152622dc6d2919091016020526040908190206006019190915551639743bddd60e01b8152600481018c905273__$8a461d6baeda20cc8b97c0d95fb84681dd$__90639743bddd9060240160006040518083038186803b15801561227d57600080fd5b505af4158015612291573d6000803e3d6000fd5b505050506040513d6000823e601f3d908101601f191682016040526122b99190810190614d9e565b985086156123bb5760006122cb61487b565b60408a810180516000908152622dc6cf939093016020529181902060030192909255519051632231a81d60e21b8152600481019190915273__$8a461d6baeda20cc8b97c0d95fb84681dd$__906388c6a0749060240160a06040518083038186803b15801561233957600080fd5b505af415801561234d573d6000803e3d6000fd5b505050506040513d601f19601f820116820180604052508101906123719190614ad8565b90507fd3f5fe8fc5025f9b7967712a4a8537cd694e1c2c5776dfecceee2a0f03f4b698338c8b8b60400151856040516123ae959493929190614fcf565b60405180910390a161261e565b6020880151604051639743bddd60e01b8152600481019190915273__$8a461d6baeda20cc8b97c0d95fb84681dd$__90639743bddd9060240160006040518083038186803b15801561240c57600080fd5b505af4158015612420573d6000803e3d6000fd5b505050506040513d6000823e601f3d908101601f191682016040526124489190810190614d9e565b91507f9695a7ff4731c48550282b3671fd6094b35643ec5d7d07ae369155fd99f5825d338c8b8b60200151866040516123ae959493929190615047565b604051639743bddd60e01b8152600481018c905273__$8a461d6baeda20cc8b97c0d95fb84681dd$__90639743bddd9060240160006040518083038186803b1580156124d057600080fd5b505af41580156124e4573d6000803e3d6000fd5b505050506040513d6000823e601f3d908101601f1916820160405261250c9190810190614d9e565b9850861561251d57826122cb61487b565b8261252661487b565b622dc6d20160008a6020015181526020019081526020016000206006018190555073__$8a461d6baeda20cc8b97c0d95fb84681dd$__639743bddd89602001516040518263ffffffff1660e01b815260040161258491815260200190565b60006040518083038186803b15801561259c57600080fd5b505af41580156125b0573d6000803e3d6000fd5b505050506040513d6000823e601f3d908101601f191682016040526125d89190810190614d9e565b91507f9695a7ff4731c48550282b3671fd6094b35643ec5d7d07ae369155fd99f5825d338c8b8b6020015186604051612615959493929190615047565b60405180910390a15b5050505050505050505050565b60405163342a412360e01b8152815160048201526020820151602482015260009073__$8a461d6baeda20cc8b97c0d95fb84681dd$__9063342a41239060440160606040518083038186803b15801561268357600080fd5b505af4158015612697573d6000803e3d6000fd5b505050506040513d601f19601f820116820180604052508101906126bb9190614d3a565b9050600054816040015114156126e35760405162461bcd60e51b815260040161022e90615112565b60408082015190516303d8e5b360e41b8152339173__$8a461d6baeda20cc8b97c0d95fb84681dd$__91633d8e5b30916127239160040190815260200190565b60206040518083038186803b15801561273b57600080fd5b505af415801561274f573d6000803e3d6000fd5b505050506040513d601f19601f820116820180604052508101906127739190614a95565b6001600160a01b0316146127c95760405162461bcd60e51b815260206004820152601c60248201527f43616e206f6e6c792070726f6475636520696e206f776e206261736500000000604482015260640161022e565b60005481602001511461281e5760405162461bcd60e51b815260206004820152601e60248201527f42617365206f6363757069656420627920616e6f746865722074726f6f700000604482015260640161022e565b600061282861487b565b622dc6cc01600083604001518152602001908152602001600020604051806040016040529081600082015481526020016001820154815250509050600054816000015114156128b95760405162461bcd60e51b815260206004820152601b60248201527f4e6f2070726f64756374696f6e20666f756e6420696e20626173650000000000604482015260640161022e565b80602001516128c661487b565b622dc6ca01546128d6919061526d565b8151604051632f877ccb60e21b8152600481019190915273__$8a461d6baeda20cc8b97c0d95fb84681dd$__9063be1df32c9060240160206040518083038186803b15801561292457600080fd5b505af4158015612938573d6000803e3d6000fd5b505050506040513d601f19601f8201168201806040525081019061295c9190614dd9565b11156129b95760405162461bcd60e51b815260206004820152602660248201527f54726f6f70206e65656473206d6f72652065706f63687320666f722070726f646044820152653ab1ba34b7b760d11b606482015260840161022e565b8051604051630cbad10f60e21b815284516004820152602085015160248201526044810191909152336064820152600090819073__$8a461d6baeda20cc8b97c0d95fb84681dd$__906332eb443c9060840160006040518083038186803b158015612a2357600080fd5b505af4158015612a37573d6000803e3d6000fd5b505050506040513d6000823e601f3d908101601f19168201604052612a5f9190810190614e1d565b91509150612a6b61487b565b6040808601516000908152622dc6cc9290920160205280822082815560010191909155517fa4499f4acaa7c58f1df4c9adc999d0c9ef0dcae3d4e4fdab0b1929a4ce4b267390612ac2903390859085908a90614f90565b60405180910390a15050505050565b604051600162ba669960e01b03198152815160048201526020820151602482015273__$8a461d6baeda20cc8b97c0d95fb84681dd$__9063ff4599679060440160206040518083038186803b158015612b2957600080fd5b505af4158015612b3d573d6000803e3d6000fd5b505050506040513d601f19601f82011682018060405250810190612b619190614ab8565b612b7d5760405162461bcd60e51b815260040161022e906150e5565b6000612b8761487b565b6000848152622dc6d291909101602090815260409182902082516101208101845281546001600160a01b031681526001820154818401526002820154818501526003820154606082015260048201546080820152600582015460a0820152600682015460c0820152835180850185526007830154815260088301548185015260e0820152600982018054855181860281018601909652808652919492936101008601939290830182828015612c5b57602002820191906000526020600020905b815481526020019060010190808311612c47575b5050509190925250508151919250506001600160a01b03163314612cc15760405162461bcd60e51b815260206004820152601f60248201527f43616e206f6e6c7920636170747572652077697468206f776e2074726f6f7000604482015260640161022e565b60e08101516040516314adce4360e21b8152815160048201526020918201516024820152835160448201529083015160648201526001608482015273__$8a461d6baeda20cc8b97c0d95fb84681dd$__906352b7390c9060a40160206040518083038186803b158015612d3357600080fd5b505af4158015612d47573d6000803e3d6000fd5b505050506040513d601f19601f82011682018060405250810190612d6b9190614ab8565b612d875760405162461bcd60e51b815260040161022e906150b8565b60208101516040516355c6801760e11b8152600481019190915273__$8a461d6baeda20cc8b97c0d95fb84681dd$__9063ab8d002e9060240160206040518083038186803b158015612dd857600080fd5b505af4158015612dec573d6000803e3d6000fd5b505050506040513d601f19601f82011682018060405250810190612e109190614ab8565b612e685760405162461bcd60e51b815260206004820152602360248201527f4f6e6c792061206c616e642074726f6f702063616e206361707475726520626160448201526273657360e81b606482015260840161022e565b60405163342a412360e01b8152825160048201526020830151602482015260009073__$8a461d6baeda20cc8b97c0d95fb84681dd$__9063342a41239060440160606040518083038186803b158015612ec057600080fd5b505af4158015612ed4573d6000803e3d6000fd5b505050506040513d601f19601f82011682018060405250810190612ef89190614d3a565b905060005481604001511415612f455760405162461bcd60e51b81526020600482015260126024820152714e6f206261736520746f206361707475726560701b604482015260640161022e565b60408082015190516303d8e5b360e41b8152339173__$8a461d6baeda20cc8b97c0d95fb84681dd$__91633d8e5b3091612f859160040190815260200190565b60206040518083038186803b158015612f9d57600080fd5b505af4158015612fb1573d6000803e3d6000fd5b505050506040513d601f19601f82011682018060405250810190612fd59190614a95565b6001600160a01b031614156130215760405162461bcd60e51b815260206004820152601260248201527110985cd948185b1c9958591e481bdddb995960721b604482015260640161022e565b6000548160200151146130725760405162461bcd60e51b815260206004820152601960248201527811195cdd1a5b985d1a5bdb881d1a5b19481bd8d8dd5c1a5959603a1b604482015260640161022e565b604080820151905163044a21dd60e31b815260009173__$8a461d6baeda20cc8b97c0d95fb84681dd$__916322510ee8916130b39160040190815260200190565b60206040518083038186803b1580156130cb57600080fd5b505af41580156130df573d6000803e3d6000fd5b505050506040513d601f19601f820116820180604052508101906131039190614dd9565b11156131485760405162461bcd60e51b815260206004820152601460248201527313995959081d1bc8185d1d1858dac8199a5c9cdd60621b604482015260640161022e565b60005461315361487b565b600a018360e00151600001516103e8811061317e57634e487b7160e01b600052603260045260246000fd5b610bb802018360e00151602001516103e881106131ab57634e487b7160e01b600052603260045260246000fd5b6003020160010181905550826131bf61487b565b6000868152622dc6d2919091016020908152604090912082516007820155910151600890910155336131ef61487b565b6040808401516000908152622dc6cf92909201602052902080546001600160a01b039290921661010002610100600160a81b0319909216919091179055600161323661487b565b6040808401516000908152622dc6cf9290920160205290206003015561325a61487b565b604082810180516000908152622dc6cc93909301602090815282842084815560010193909355518151338152928301879052908201527f746c135c6a9dcae5aed7b5c2ed677b2442befe9f3c236ab24d165059cf63ad8690606001610764565b6132c261487b565b546001600160a01b031633146132ea5760405162461bcd60e51b815260040161022e90615092565b60405163342a412360e01b8152825160048201526020830151602482015260009073__$8a461d6baeda20cc8b97c0d95fb84681dd$__9063342a41239060440160606040518083038186803b15801561334257600080fd5b505af4158015613356573d6000803e3d6000fd5b505050506040513d601f19601f8201168201806040525081019061337a9190614d3a565b60409081015190516303d8e5b360e41b81526004810182905290915060009073__$8a461d6baeda20cc8b97c0d95fb84681dd$__90633d8e5b309060240160206040518083038186803b1580156133d057600080fd5b505af41580156133e4573d6000803e3d6000fd5b505050506040513d601f19601f820116820180604052508101906134089190614a95565b6001600160a01b03161461344e5760405162461bcd60e51b815260206004820152600d60248201526c2130b9b29034b9903a30b5b2b760991b604482015260640161022e565b61345661487b565b6001600160a01b0383166000908152600991909101602052604090206001015460ff16156134c65760405162461bcd60e51b815260206004820152601a60248201527f506c6179657220616c726561647920696e697469616c697a6564000000000000604482015260640161022e565b6134ce61487b565b6008018054600181018255600091825260209091200180546001600160a01b0319166001600160a01b038416179055604080518082019091528061351061487b565b622dc6ca01548152600160209091015261352861487b565b6001600160a01b038416600090815260099190910160209081526040909120825181559101516001909101805460ff19169115159190911790558161356b61487b565b622dc6cf01600083815260200190815260200160002060000160016101000a8154816001600160a01b0302191690836001600160a01b031602179055507ff0a6a142d1cdc04619a8fd8924155cd64ff41b31e4226fb7ffa08e5ade8d6f9d82846040516135d9929190614f3d565b60405180910390a1505050565b60405163342a412360e01b8152825160048201526020830151602482015260009073__$8a461d6baeda20cc8b97c0d95fb84681dd$__9063342a41239060440160606040518083038186803b15801561363e57600080fd5b505af4158015613652573d6000803e3d6000fd5b505050506040513d601f19601f820116820180604052508101906136769190614d3a565b90506000548160400151141561369e5760405162461bcd60e51b815260040161022e90615112565b60408082015190516303d8e5b360e41b8152339173__$8a461d6baeda20cc8b97c0d95fb84681dd$__91633d8e5b30916136de9160040190815260200190565b60206040518083038186803b1580156136f657600080fd5b505af415801561370a573d6000803e3d6000fd5b505050506040513d601f19601f8201168201806040525081019061372e9190614a95565b6001600160a01b0316146137845760405162461bcd60e51b815260206004820152601c60248201527f43616e206f6e6c792070726f6475636520696e206f776e206261736500000000604482015260640161022e565b6040516355c6801760e11b81526004810183905273__$8a461d6baeda20cc8b97c0d95fb84681dd$__9063ab8d002e9060240160206040518083038186803b1580156137cf57600080fd5b505af41580156137e3573d6000803e3d6000fd5b505050506040513d601f19601f820116820180604052508101906138079190614ab8565b1580156138985750604051630d7db19960e41b815273__$8a461d6baeda20cc8b97c0d95fb84681dd$__9063d7db19909061384690849060040161517e565b60206040518083038186803b15801561385e57600080fd5b505af4158015613872573d6000803e3d6000fd5b505050506040513d601f19601f820116820180604052508101906138969190614ab8565b155b156138f15760405162461bcd60e51b815260206004820152602360248201527f4f6e6c7920706f7274732063616e2070726f647563652077617465722074726f6044820152626f707360e81b606482015260840161022e565b6000546138fc61487b565b6040808401516000908152622dc6cc929092016020529020541461395b5760405162461bcd60e51b81526020600482015260166024820152754261736520616c72656164792070726f647563696e6760501b604482015260640161022e565b6000604051806040016040528084815260200161397661487b565b622dc6ca0154905290508061398961487b565b622dc6cc0160008460400151815260200190815260200160002060008201518160000155602082015181600101559050507fa203be1c2674ecde68f7ef2c7ba014f4695df9fc4ab4b41020407939ec588faf3383604001518360405161076493929190614f64565b604051600162ba669960e01b03198152815160048201526020820151602482015273__$8a461d6baeda20cc8b97c0d95fb84681dd$__9063ff4599679060440160206040518083038186803b158015613a4957600080fd5b505af4158015613a5d573d6000803e3d6000fd5b505050506040513d601f19601f82011682018060405250810190613a819190614ab8565b613a9d5760405162461bcd60e51b815260040161022e906150e5565b6000613aa761487b565b6000848152622dc6d291909101602090815260409182902082516101208101845281546001600160a01b031681526001820154818401526002820154818501526003820154606082015260048201546080820152600582015460a0820152600682015460c0820152835180850185526007830154815260088301548185015260e0820152600982018054855181860281018601909652808652919492936101008601939290830182828015613b7b57602002820191906000526020600020905b815481526020019060010190808311613b67575b5050509190925250508151919250506001600160a01b03163314613be15760405162461bcd60e51b815260206004820152601760248201527f43616e206f6e6c79206d6f7665206f776e2074726f6f70000000000000000000604482015260640161022e565b60e081015160405163d18036a960e01b815273__$8a461d6baeda20cc8b97c0d95fb84681dd$__9163d18036a991613c1e91908690600401615158565b60206040518083038186803b158015613c3657600080fd5b505af4158015613c4a573d6000803e3d6000fd5b505050506040513d601f19601f82011682018060405250810190613c6e9190614ab8565b15613cb45760405162461bcd60e51b815260206004820152601660248201527520b63932b0b23c9030ba103232b9ba34b730ba34b7b760511b604482015260640161022e565b60e08101516040516314adce4360e21b8152815160048201526020918201516024820152835160448201529083015160648201526001608482015273__$8a461d6baeda20cc8b97c0d95fb84681dd$__906352b7390c9060a40160206040518083038186803b158015613d2657600080fd5b505af4158015613d3a573d6000803e3d6000fd5b505050506040513d601f19601f82011682018060405250810190613d5e9190614ab8565b613d7a5760405162461bcd60e51b815260040161022e906150b8565b60608101516000613d8961487b565b622dc6ca01546020840151604051631b66033160e31b815291925073__$8a461d6baeda20cc8b97c0d95fb84681dd$__9163db30198891613dd09160040190815260200190565b60206040518083038186803b158015613de857600080fd5b505af4158015613dfc573d6000803e3d6000fd5b505050506040513d601f19601f82011682018060405250810190613e209190614dd9565b6040840151613e2f908361526d565b10613ee157602083015160405163d7eeafa360e01b8152600481019190915273__$8a461d6baeda20cc8b97c0d95fb84681dd$__9063d7eeafa39060240160206040518083038186803b158015613e8557600080fd5b505af4158015613e99573d6000803e3d6000fd5b505050506040513d601f19601f82011682018060405250810190613ebd9190614dd9565b915081613ec861487b565b6000878152622dc6d29190910160205260409020600301555b81613f2e5760405162461bcd60e51b815260206004820152601860248201527f4e6f206d6f766573206c65667420746869732065706f63680000000000000000604482015260640161022e565b60405163342a412360e01b8152845160048201526020850151602482015260009073__$8a461d6baeda20cc8b97c0d95fb84681dd$__9063342a41239060440160606040518083038186803b158015613f8657600080fd5b505af4158015613f9a573d6000803e3d6000fd5b505050506040513d601f19601f82011682018060405250810190613fbe9190614d3a565b60208501516040516355c6801760e11b815291925073__$8a461d6baeda20cc8b97c0d95fb84681dd$__9163ab8d002e91613fff9160040190815260200190565b60206040518083038186803b15801561401757600080fd5b505af415801561402b573d6000803e3d6000fd5b505050506040513d601f19601f8201168201806040525081019061404f9190614ab8565b80156140df5750604051631172592d60e31b815273__$8a461d6baeda20cc8b97c0d95fb84681dd$__90638b92c9689061408d90849060040161517e565b60206040518083038186803b1580156140a557600080fd5b505af41580156140b9573d6000803e3d6000fd5b505050506040513d601f19601f820116820180604052508101906140dd9190614ab8565b155b156141515760028151600281111561410757634e487b7160e01b600052602160045260246000fd5b141561414c5760405162461bcd60e51b815260206004820152601460248201527321b0b73737ba1036b7bb329037b7103bb0ba32b960611b604482015260640161022e565b614249565b60028151600281111561417457634e487b7160e01b600052602160045260246000fd5b141580156142065750604051630d7db19960e41b815273__$8a461d6baeda20cc8b97c0d95fb84681dd$__9063d7db1990906141b490849060040161517e565b60206040518083038186803b1580156141cc57600080fd5b505af41580156141e0573d6000803e3d6000fd5b505050506040513d601f19601f820116820180604052508101906142049190614ab8565b155b156142495760405162461bcd60e51b815260206004820152601360248201527210d85b9b9bdd081b5bdd99481bdb881b185b99606a1b604482015260640161022e565b6000548160400151141580156142f6575060408082015190516303d8e5b360e41b8152339173__$8a461d6baeda20cc8b97c0d95fb84681dd$__91633d8e5b309161429a9160040190815260200190565b60206040518083038186803b1580156142b257600080fd5b505af41580156142c6573d6000803e3d6000fd5b505050506040513d601f19601f820116820180604052508101906142ea9190614a95565b6001600160a01b031614155b156143435760405162461bcd60e51b815260206004820152601e60248201527f43616e6e6f74206d6f7665206f6e746f206f70706f6e656e7420626173650000604482015260640161022e565b6000548160200151146145e957604051631172592d60e31b815273__$8a461d6baeda20cc8b97c0d95fb84681dd$__90638b92c9689061438790849060040161517e565b60206040518083038186803b15801561439f57600080fd5b505af41580156143b3573d6000803e3d6000fd5b505050506040513d601f19601f820116820180604052508101906143d79190614ab8565b1580614469575060208401516040516355c6801760e11b8152600481019190915273__$8a461d6baeda20cc8b97c0d95fb84681dd$__9063ab8d002e9060240160206040518083038186803b15801561442f57600080fd5b505af4158015614443573d6000803e3d6000fd5b505050506040513d601f19601f820116820180604052508101906144679190614ab8565b155b156144b25760405162461bcd60e51b815260206004820152601960248201527811195cdd1a5b985d1a5bdb881d1a5b19481bd8d8dd5c1a5959603a1b604482015260640161022e565b6020810151604051639743bddd60e01b8152339173__$8a461d6baeda20cc8b97c0d95fb84681dd$__91639743bddd916144f29160040190815260200190565b60006040518083038186803b15801561450a57600080fd5b505af415801561451e573d6000803e3d6000fd5b505050506040513d6000823e601f3d908101601f191682016040526145469190810190614d9e565b516001600160a01b0316146145af5760405162461bcd60e51b815260206004820152602960248201527f43616e6e6f74206d6f7665206f6e746f206f70706f6e656e742074726f6f70206044820152681d1c985b9cdc1bdc9d60ba1b606482015260840161022e565b6145b761487b565b6020808301516000908152622dc6d292909201815260408220600901805460018101825590835291200186905561464e565b856145f261487b565b600a0186600001516103e8811061461957634e487b7160e01b600052603260045260246000fd5b610bb8020186602001516103e8811061464257634e487b7160e01b600052603260045260246000fd5b60030201600101819055505b60005461465961487b565b600a018560e00151600001516103e8811061468457634e487b7160e01b600052603260045260246000fd5b610bb802018560e00151602001516103e881106146b157634e487b7160e01b600052603260045260246000fd5b6003020160010181905550846146c561487b565b6000888152622dc6d29190910160209081526040909120825160078201559101516008909101556146f461487b565b6000878152622dc6d2919091016020526040812060030180549161471783615284565b91905055508161472561487b565b6000888152622dc6d291909101602052604081206002019190915561474861487b565b622dc6d20160008881526020019081526020016000206009018054806020026020016040519081016040528092919081815260200182805480156147ab57602002820191906000526020600020905b815481526020019060010190808311614797575b505050505090506000815111156148375760005b815181101561483557866147d161487b565b622dc6d20160008484815181106147f857634e487b7160e01b600052603260045260246000fd5b602090810291909101810151825281810192909252604001600020825160078201559101516008909101558061482d8161529b565b9150506147bf565b505b7fa7782439b83e57044d60e67405bf17689b58e4edba6110dd5a0b65d532972d8733888860405161486a93929190614f64565b60405180910390a150505050505050565b7f8d1bebda6a12a792ffba01f92494c5be0cd4ce8e2d8e46d2c616016d7e70fd2090565b60405180610120016040528060006001600160a01b03168152602001600081526020016000815260200160008152602001600081526020016000815260200160008152602001614902604051806040016040528060008152602001600081525090565b8152602001606081525090565b805161491a816152f8565b919050565b600082601f83011261492f578081fd5b8151602061494461493f83615231565b615200565b80838252828201915082860187848660051b8901011115614963578586fd5b855b8581101561498157815184529284019290840190600101614965565b5090979650505050505050565b60006040828403121561499f578081fd5b6149a76151b3565b9050813581526020820135602082015292915050565b6000604082840312156149ce578081fd5b6149d66151b3565b9050815181526020820151602082015292915050565b600061014082840312156149fe578081fd5b614a066151dc565b9050614a118261490f565b81526020820151602082015260408201516040820152606082015160608201526080820151608082015260a082015160a082015260c082015160c0820152614a5c8360e084016149bd565b60e082015261012082015167ffffffffffffffff811115614a7c57600080fd5b614a888482850161491f565b6101008301525092915050565b600060208284031215614aa6578081fd5b8151614ab1816152f8565b9392505050565b600060208284031215614ac9578081fd5b81518015158114614ab1578182fd5b600060a08284031215614ae9578081fd5b60405160a0810181811067ffffffffffffffff82111715614b0c57614b0c6152e2565b604052825160028110614b1d578283fd5b81526020830151614b2d816152f8565b806020830152506040830151604082015260608301516060820152608083015160808201528091505092915050565b600060408284031215614b6d578081fd5b614ab1838361498e565b60008060608385031215614b89578081fd5b614b93848461498e565b91506040830135614ba3816152f8565b809150509250929050565b600080600060808486031215614bc2578081fd5b614bcc858561498e565b92506040840135614bdc816152f8565b929592945050506060919091013590565b60008060608385031215614bff578182fd5b614c09848461498e565b9150604083013567ffffffffffffffff80821115614c25578283fd5b818501915085601f830112614c38578283fd5b8135614c4661493f82615231565b80828252602082019150602085018960208560051b8801011115614c68578687fd5b865b84811015614d00578582351115614c7f578788fd5b813587018b603f820112614c91578889fd5b6020810135614ca261493f82615231565b80828252602082019150604084018f60408560051b8701011115614cc4578c8dfd5b8c94505b83851015614ce757803583526001949094019360209283019201614cc8565b5087525050602094850194929092019150600101614c6a565b5096999098509650505050505050565b60008060608385031215614d22578182fd5b614d2c848461498e565b946040939093013593505050565b600060608284031215614d4b578081fd5b6040516060810181811067ffffffffffffffff82111715614d6e57614d6e6152e2565b604052825160038110614d7f578283fd5b8152602083810151908201526040928301519281019290925250919050565b600060208284031215614daf578081fd5b815167ffffffffffffffff811115614dc5578182fd5b614dd1848285016149ec565b949350505050565b600060208284031215614dea578081fd5b5051919050565b60008060608385031215614e03578182fd5b82359150614e14846020850161498e565b90509250929050565b60008060408385031215614e2f578182fd5b82519150602083015167ffffffffffffffff811115614e4c578182fd5b614e58858286016149ec565b9150509250929050565b6000815180845260208085019450808401835b83811015614e9157815187529582019590820190600101614e75565b509495945050505050565b60028110614eac57614eac6152cc565b9052565b80516001600160a01b0316825260006101406020830151602085015260408301516040850152606083015160608501526080830151608085015260a083015160a085015260c083015160c085015260e0830151614f1a60e086018280518252602090810151910152565b5061010083015181610120860152614f3482860182614e62565b95945050505050565b6001600160a01b038316815260608101614ab1602083018480518252602090810151910152565b6001600160a01b0384168152602080820184905282516040830152820151606082015260808101614dd1565b60018060a01b038516815283602082015260a060408201526000614fb760a0830185614eb0565b83516060840152602084015160808401529050614f34565b6001600160a01b0386811682526020820186905261012060408301819052600091614ffc84830188614eb0565b9250856060850152615012608085018651614e9c565b60208501511660a084015250604083015160c0830152606083015160e083015260809092015161010090910152949350505050565b60018060a01b038616815284602082015260a06040820152600061506e60a0830186614eb0565b84606084015282810360808401526150868185614eb0565b98975050505050505050565b6020808252600c908201526b155b985d5d1a1bdc9a5e995960a21b604082015260600190565b6020808252601390820152722232b9ba34b730ba34b7b7103a37b7903330b960691b604082015260600190565b60208082526013908201527215185c99d95d081bdd5d081bd988189bdd5b99606a1b604082015260600190565b6020808252600d908201526c139bc818985cd948199bdd5b99609a1b604082015260600190565b825181526020808401519082015260608101614ab16040830184614e9c565b825181526020808401518183015282516040830152820151606082015260808101614ab1565b8151606082019060038110615195576151956152cc565b80835250602083015160208301526040830151604083015292915050565b6040805190810167ffffffffffffffff811182821017156151d6576151d66152e2565b60405290565b604051610120810167ffffffffffffffff811182821017156151d6576151d66152e2565b604051601f8201601f1916810167ffffffffffffffff81118282101715615229576152296152e2565b604052919050565b600067ffffffffffffffff82111561524b5761524b6152e2565b5060051b60200190565b60008219821115615268576152686152b6565b500190565b60008282101561527f5761527f6152b6565b500390565b600081615293576152936152b6565b506000190190565b60006000198214156152af576152af6152b6565b5060010190565b634e487b7160e01b600052601160045260246000fd5b634e487b7160e01b600052602160045260246000fd5b634e487b7160e01b600052604160045260246000fd5b6001600160a01b038116811461530d57600080fd5b5056fea2646970667358221220c0fef4161b683266a10ff8c9c05ef398dd1ed7cb01699a1a9977be5aa621dca564736f6c63430008040033",
    "linkReferences": {
      "contracts/libraries/GameUtil.sol": {
        "Util": [
          {
            "start": 445,
            "length": 20
          },
          {
            "start": 625,
            "length": 20
          },
          {
            "start": 1261,
            "length": 20
          },
          {
            "start": 1758,
            "length": 20
          },
          {
            "start": 2239,
            "length": 20
          },
          {
            "start": 2943,
            "length": 20
          },
          {
            "start": 3496,
            "length": 20
          },
          {
            "start": 3801,
            "length": 20
          },
          {
            "start": 4070,
            "length": 20
          },
          {
            "start": 4311,
            "length": 20
          },
          {
            "start": 4700,
            "length": 20
          },
          {
            "start": 5181,
            "length": 20
          },
          {
            "start": 5433,
            "length": 20
          },
          {
            "start": 5598,
            "length": 20
          },
          {
            "start": 5891,
            "length": 20
          },
          {
            "start": 6449,
            "length": 20
          },
          {
            "start": 6581,
            "length": 20
          },
          {
            "start": 6726,
            "length": 20
          },
          {
            "start": 7296,
            "length": 20
          },
          {
            "start": 7444,
            "length": 20
          },
          {
            "start": 7603,
            "length": 20
          },
          {
            "start": 7740,
            "length": 20
          },
          {
            "start": 7940,
            "length": 20
          },
          {
            "start": 8079,
            "length": 20
          },
          {
            "start": 8259,
            "length": 20
          },
          {
            "start": 8456,
            "length": 20
          },
          {
            "start": 8621,
            "length": 20
          },
          {
            "start": 8812,
            "length": 20
          },
          {
            "start": 9000,
            "length": 20
          },
          {
            "start": 9211,
            "length": 20
          },
          {
            "start": 9407,
            "length": 20
          },
          {
            "start": 9581,
            "length": 20
          },
          {
            "start": 9842,
            "length": 20
          },
          {
            "start": 10013,
            "length": 20
          },
          {
            "start": 10515,
            "length": 20
          },
          {
            "start": 10770,
            "length": 20
          },
          {
            "start": 11032,
            "length": 20
          },
          {
            "start": 11554,
            "length": 20
          },
          {
            "start": 11719,
            "length": 20
          },
          {
            "start": 11951,
            "length": 20
          },
          {
            "start": 12159,
            "length": 20
          },
          {
            "start": 12461,
            "length": 20
          },
          {
            "start": 13105,
            "length": 20
          },
          {
            "start": 13247,
            "length": 20
          },
          {
            "start": 13869,
            "length": 20
          },
          {
            "start": 14040,
            "length": 20
          },
          {
            "start": 14270,
            "length": 20
          },
          {
            "start": 14402,
            "length": 20
          },
          {
            "start": 14904,
            "length": 20
          },
          {
            "start": 15385,
            "length": 20
          },
          {
            "start": 15637,
            "length": 20
          },
          {
            "start": 15818,
            "length": 20
          },
          {
            "start": 15988,
            "length": 20
          },
          {
            "start": 16245,
            "length": 20
          },
          {
            "start": 16377,
            "length": 20
          },
          {
            "start": 16521,
            "length": 20
          },
          {
            "start": 16816,
            "length": 20
          },
          {
            "start": 17044,
            "length": 20
          },
          {
            "start": 17283,
            "length": 20
          },
          {
            "start": 17438,
            "length": 20
          },
          {
            "start": 17644,
            "length": 20
          }
        ]
      }
    }
  },
  "methodIdentifiers": {
    "battle(uint256,(uint256,uint256))": "c3c5ec4c",
    "captureBase(uint256,(uint256,uint256))": "d91c2983",
    "endProduction((uint256,uint256))": "d08b70f4",
    "initializePlayer((uint256,uint256),address)": "d9a8ae7d",
    "move(uint256,(uint256,uint256))": "fa3c7db0",
    "repair((uint256,uint256))": "0a8ac907",
    "setMapChunk((uint256,uint256),uint256[][])": "31b9f0d1",
    "spawnTroop((uint256,uint256),address,uint256)": "60a03a2a",
    "startProduction((uint256,uint256),uint256)": "f7d12dd0",
    "transferBaseOwnership((uint256,uint256),address)": "954b855d",
    "updateEpoch()": "36f4fb02"
  },
  "id": 3
}