{
  "abi": [
    {
      "inputs": [],
      "name": "arithmeticError",
      "outputs": [
        {
          "internalType": "bytes",
          "name": "",
          "type": "bytes"
        }
      ],
      "stateMutability": "view",
      "type": "function"
    },
    {
      "inputs": [],
      "name": "assertionError",
      "outputs": [
        {
          "internalType": "bytes",
          "name": "",
          "type": "bytes"
        }
      ],
      "stateMutability": "view",
      "type": "function"
    },
    {
      "inputs": [],
      "name": "divisionError",
      "outputs": [
        {
          "internalType": "bytes",
          "name": "",
          "type": "bytes"
        }
      ],
      "stateMutability": "view",
      "type": "function"
    },
    {
      "inputs": [],
      "name": "encodeStorageError",
      "outputs": [
        {
          "internalType": "bytes",
          "name": "",
          "type": "bytes"
        }
      ],
      "stateMutability": "view",
      "type": "function"
    },
    {
      "inputs": [],
      "name": "enumConversionError",
      "outputs": [
        {
          "internalType": "bytes",
          "name": "",
          "type": "bytes"
        }
      ],
      "stateMutability": "view",
      "type": "function"
    },
    {
      "inputs": [],
      "name": "indexOOBError",
      "outputs": [
        {
          "internalType": "bytes",
          "name": "",
          "type": "bytes"
        }
      ],
      "stateMutability": "view",
      "type": "function"
    },
    {
      "inputs": [],
      "name": "lowLevelError",
      "outputs": [
        {
          "internalType": "bytes",
          "name": "",
          "type": "bytes"
        }
      ],
      "stateMutability": "view",
      "type": "function"
    },
    {
      "inputs": [],
      "name": "memOverflowError",
      "outputs": [
        {
          "internalType": "bytes",
          "name": "",
          "type": "bytes"
        }
      ],
      "stateMutability": "view",
      "type": "function"
    },
    {
      "inputs": [],
      "name": "popError",
      "outputs": [
        {
          "internalType": "bytes",
          "name": "",
          "type": "bytes"
        }
      ],
      "stateMutability": "view",
      "type": "function"
    },
    {
      "inputs": [],
      "name": "zeroVarError",
      "outputs": [
        {
          "internalType": "bytes",
          "name": "",
          "type": "bytes"
        }
      ],
      "stateMutability": "view",
      "type": "function"
    }
  ],
  "bytecode": {
    "object": "0x61027561003a600b82828239805160001a60731461002d57634e487b7160e01b600052600060045260246000fd5b30600052607381538281f3fe73000000000000000000000000000000000000000030146080604052600436106100a85760003560e01c8063ac3d92c611610070578063ac3d92c6146100eb578063b22dc54d14610101578063b67689da14610109578063d160e4de14610111578063fa784a441461011957600080fd5b806305ee8612146100ad57806310332977146100cb5780631de45560146100d35780638995290f146100db578063986c5f68146100e3575b600080fd5b6100b5610121565b6040516100c291906101ec565b60405180910390f35b6100b561015c565b6100b561016e565b6100b5610180565b6100b5610192565b6100b56040518060200160405280600081525081565b6100b56101a4565b6100b56101b6565b6100b56101c8565b6100b56101da565b604051603260248201526044015b60408051601f198184030181529190526020810180516001600160e01b0316634e487b7160e01b17905281565b6040516001602482015260440161012f565b6040516021602482015260440161012f565b6040516011602482015260440161012f565b6040516041602482015260440161012f565b6040516031602482015260440161012f565b6040516051602482015260440161012f565b6040516022602482015260440161012f565b6040516012602482015260440161012f565b6000602080835283518082850152825b81811015610218578581018301518582016040015282016101fc565b818111156102295783604083870101525b50601f01601f191692909201604001939250505056fea26469706673582212203bca2207fa3a8a24ed1f7a6146ad253d8e3c7984b3ecf4534c903ceea2b6a39f64736f6c63430008040033",
    "linkReferences": {}
  }
}