{
  "abi": [
    {
      "anonymous": false,
      "inputs": [
        {
          "indexed": false,
          "internalType": "uint256",
          "name": "_worldBlockId",
          "type": "uint256"
        },
        {
          "components": [
            {
              "internalType": "uint256",
              "name": "blockId",
              "type": "uint256"
            },
            {
              "internalType": "uint256",
              "name": "health",
              "type": "uint256"
            },
            {
              "internalType": "address",
              "name": "owner",
              "type": "address"
            },
            {
              "internalType": "uint256",
              "name": "lastAttacked",
              "type": "uint256"
            },
            {
              "internalType": "uint256",
              "name": "lastMoved",
              "type": "uint256"
            },
            {
              "internalType": "bool",
              "name": "occupiable",
              "type": "bool"
            }
          ],
          "indexed": false,
          "internalType": "struct BlockData",
          "name": "_worldBlockData",
          "type": "tuple"
        }
      ],
      "name": "ChangeBlockProperty",
      "type": "event"
    },
    {
      "anonymous": false,
      "inputs": [
        {
          "indexed": false,
          "internalType": "address",
          "name": "_player",
          "type": "address"
        },
        {
          "indexed": false,
          "internalType": "address",
          "name": "_recipient",
          "type": "address"
        },
        {
          "indexed": false,
          "internalType": "uint256",
          "name": "_id",
          "type": "uint256"
        },
        {
          "indexed": false,
          "internalType": "uint256",
          "name": "_amount",
          "type": "uint256"
        }
      ],
      "name": "Transfer",
      "type": "event"
    },
    {
      "inputs": [
        {
          "components": [
            {
              "internalType": "uint256",
              "name": "x",
              "type": "uint256"
            },
            {
              "internalType": "uint256",
              "name": "y",
              "type": "uint256"
            }
          ],
          "internalType": "struct Position",
          "name": "_position",
          "type": "tuple"
        }
      ],
      "name": "_encodePos",
      "outputs": [
        {
          "internalType": "string",
          "name": "",
          "type": "string"
        }
      ],
      "stateMutability": "pure",
      "type": "function"
    },
    {
      "inputs": [],
      "name": "_getAllPlayerAddresses",
      "outputs": [
        {
          "internalType": "address[]",
          "name": "",
          "type": "address[]"
        }
      ],
      "stateMutability": "view",
      "type": "function"
    },
    {
      "inputs": [
        {
          "components": [
            {
              "internalType": "uint256",
              "name": "x",
              "type": "uint256"
            },
            {
              "internalType": "uint256",
              "name": "y",
              "type": "uint256"
            }
          ],
          "internalType": "struct Position",
          "name": "_pos",
          "type": "tuple"
        }
      ],
      "name": "_getBlockAtPos",
      "outputs": [
        {
          "internalType": "uint256",
          "name": "",
          "type": "uint256"
        }
      ],
      "stateMutability": "view",
      "type": "function"
    },
    {
      "inputs": [
        {
          "components": [
            {
              "internalType": "uint256",
              "name": "x",
              "type": "uint256"
            },
            {
              "internalType": "uint256",
              "name": "y",
              "type": "uint256"
            }
          ],
          "internalType": "struct Position",
          "name": "_pos",
          "type": "tuple"
        }
      ],
      "name": "_getBlockDataAtPos",
      "outputs": [
        {
          "components": [
            {
              "internalType": "uint256",
              "name": "blockId",
              "type": "uint256"
            },
            {
              "internalType": "uint256",
              "name": "health",
              "type": "uint256"
            },
            {
              "internalType": "address",
              "name": "owner",
              "type": "address"
            },
            {
              "internalType": "uint256",
              "name": "lastAttacked",
              "type": "uint256"
            },
            {
              "internalType": "uint256",
              "name": "lastMoved",
              "type": "uint256"
            },
            {
              "internalType": "bool",
              "name": "occupiable",
              "type": "bool"
            }
          ],
          "internalType": "struct BlockData",
          "name": "",
          "type": "tuple"
        }
      ],
      "stateMutability": "view",
      "type": "function"
    },
    {
      "inputs": [],
      "name": "_getCurrentEpoch",
      "outputs": [
        {
          "internalType": "uint256",
          "name": "",
          "type": "uint256"
        }
      ],
      "stateMutability": "view",
      "type": "function"
    },
    {
      "inputs": [
        {
          "components": [
            {
              "internalType": "uint256",
              "name": "x",
              "type": "uint256"
            },
            {
              "internalType": "uint256",
              "name": "y",
              "type": "uint256"
            }
          ],
          "internalType": "struct Position",
          "name": "_pos",
          "type": "tuple"
        }
      ],
      "name": "_getIndexFromPosition",
      "outputs": [
        {
          "internalType": "uint256",
          "name": "",
          "type": "uint256"
        }
      ],
      "stateMutability": "view",
      "type": "function"
    },
    {
      "inputs": [
        {
          "internalType": "address",
          "name": "_player",
          "type": "address"
        }
      ],
      "name": "_getInventoryByPlayer",
      "outputs": [
        {
          "components": [
            {
              "internalType": "uint256[]",
              "name": "craftItemIds",
              "type": "uint256[]"
            },
            {
              "internalType": "uint256[]",
              "name": "craftItemAmounts",
              "type": "uint256[]"
            }
          ],
          "internalType": "struct Recipe",
          "name": "",
          "type": "tuple"
        }
      ],
      "stateMutability": "view",
      "type": "function"
    },
    {
      "inputs": [
        {
          "internalType": "uint256",
          "name": "_blockId",
          "type": "uint256"
        }
      ],
      "name": "_getItem",
      "outputs": [
        {
          "components": [
            {
              "internalType": "bool",
              "name": "mineable",
              "type": "bool"
            },
            {
              "internalType": "bool",
              "name": "craftable",
              "type": "bool"
            },
            {
              "internalType": "bool",
              "name": "occupiable",
              "type": "bool"
            },
            {
              "internalType": "uint256",
              "name": "health",
              "type": "uint256"
            },
            {
              "internalType": "uint256[]",
              "name": "mineItemIds",
              "type": "uint256[]"
            },
            {
              "internalType": "uint256[]",
              "name": "craftItemIds",
              "type": "uint256[]"
            },
            {
              "internalType": "uint256[]",
              "name": "craftItemAmounts",
              "type": "uint256[]"
            },
            {
              "internalType": "uint256",
              "name": "moveCooldown",
              "type": "uint256"
            },
            {
              "internalType": "uint256",
              "name": "attackDamage",
              "type": "uint256"
            },
            {
              "internalType": "uint256",
              "name": "attackRange",
              "type": "uint256"
            },
            {
              "internalType": "uint256",
              "name": "attackCooldown",
              "type": "uint256"
            },
            {
              "internalType": "bool",
              "name": "programmable",
              "type": "bool"
            },
            {
              "internalType": "string",
              "name": "abiEncoding",
              "type": "string"
            },
            {
              "internalType": "string",
              "name": "contractAddr",
              "type": "string"
            }
          ],
          "internalType": "struct Item",
          "name": "",
          "type": "tuple"
        }
      ],
      "stateMutability": "view",
      "type": "function"
    },
    {
      "inputs": [
        {
          "internalType": "address",
          "name": "_player",
          "type": "address"
        },
        {
          "internalType": "uint256",
          "name": "_blockId",
          "type": "uint256"
        }
      ],
      "name": "_getItemAmountById",
      "outputs": [
        {
          "internalType": "uint256",
          "name": "",
          "type": "uint256"
        }
      ],
      "stateMutability": "view",
      "type": "function"
    },
    {
      "inputs": [
        {
          "internalType": "address",
          "name": "_player",
          "type": "address"
        }
      ],
      "name": "_getPlayer",
      "outputs": [
        {
          "components": [
            {
              "internalType": "bool",
              "name": "initialized",
              "type": "bool"
            },
            {
              "internalType": "uint256",
              "name": "initTimestamp",
              "type": "uint256"
            },
            {
              "internalType": "address",
              "name": "playerAddr",
              "type": "address"
            },
            {
              "internalType": "uint256",
              "name": "health",
              "type": "uint256"
            },
            {
              "internalType": "uint256",
              "name": "reach",
              "type": "uint256"
            },
            {
              "internalType": "uint256",
              "name": "lastMoved",
              "type": "uint256"
            },
            {
              "components": [
                {
                  "internalType": "uint256",
                  "name": "x",
                  "type": "uint256"
                },
                {
                  "internalType": "uint256",
                  "name": "y",
                  "type": "uint256"
                }
              ],
              "internalType": "struct Position",
              "name": "position",
              "type": "tuple"
            }
          ],
          "internalType": "struct PlayerData",
          "name": "playerData",
          "type": "tuple"
        }
      ],
      "stateMutability": "view",
      "type": "function"
    },
    {
      "inputs": [
        {
          "internalType": "uint256",
          "name": "k",
          "type": "uint256"
        }
      ],
      "name": "_getPositionFromIndex",
      "outputs": [
        {
          "components": [
            {
              "internalType": "uint256",
              "name": "x",
              "type": "uint256"
            },
            {
              "internalType": "uint256",
              "name": "y",
              "type": "uint256"
            }
          ],
          "internalType": "struct Position",
          "name": "",
          "type": "tuple"
        }
      ],
      "stateMutability": "view",
      "type": "function"
    },
    {
      "inputs": [
        {
          "components": [
            {
              "internalType": "uint256",
              "name": "x",
              "type": "uint256"
            },
            {
              "internalType": "uint256",
              "name": "y",
              "type": "uint256"
            }
          ],
          "internalType": "struct Position",
          "name": "_pos",
          "type": "tuple"
        }
      ],
      "name": "_getTileData",
      "outputs": [
        {
          "components": [
            {
              "internalType": "address",
              "name": "occupier",
              "type": "address"
            },
            {
              "internalType": "uint256",
              "name": "worldBlockId",
              "type": "uint256"
            },
            {
              "internalType": "uint256",
              "name": "tileType",
              "type": "uint256"
            },
            {
              "internalType": "uint256",
              "name": "lastOccupied",
              "type": "uint256"
            },
            {
              "internalType": "uint256",
              "name": "tileContractId",
              "type": "uint256"
            }
          ],
          "internalType": "struct Tile",
          "name": "",
          "type": "tuple"
        }
      ],
      "stateMutability": "view",
      "type": "function"
    },
    {
      "inputs": [
        {
          "internalType": "string",
          "name": "_towerId",
          "type": "string"
        }
      ],
      "name": "_getTower",
      "outputs": [
        {
          "components": [
            {
              "internalType": "uint256",
              "name": "rewardPerEpoch",
              "type": "uint256"
            },
            {
              "internalType": "uint256",
              "name": "itemId",
              "type": "uint256"
            },
            {
              "internalType": "uint256",
              "name": "lastCapturedEpoch",
              "type": "uint256"
            },
            {
              "internalType": "address",
              "name": "owner",
              "type": "address"
            }
          ],
          "internalType": "struct Tower",
          "name": "",
          "type": "tuple"
        }
      ],
      "stateMutability": "view",
      "type": "function"
    },
    {
      "inputs": [
        {
          "internalType": "uint256",
          "name": "_worldBlockIdx",
          "type": "uint256"
        }
      ],
      "name": "_getWorldBlockData",
      "outputs": [
        {
          "components": [
            {
              "internalType": "uint256",
              "name": "blockId",
              "type": "uint256"
            },
            {
              "internalType": "uint256",
              "name": "health",
              "type": "uint256"
            },
            {
              "internalType": "address",
              "name": "owner",
              "type": "address"
            },
            {
              "internalType": "uint256",
              "name": "lastAttacked",
              "type": "uint256"
            },
            {
              "internalType": "uint256",
              "name": "lastMoved",
              "type": "uint256"
            },
            {
              "internalType": "bool",
              "name": "occupiable",
              "type": "bool"
            }
          ],
          "internalType": "struct BlockData",
          "name": "",
          "type": "tuple"
        }
      ],
      "stateMutability": "view",
      "type": "function"
    },
    {
      "inputs": [
        {
          "components": [
            {
              "internalType": "uint256",
              "name": "x",
              "type": "uint256"
            },
            {
              "internalType": "uint256",
              "name": "y",
              "type": "uint256"
            }
          ],
          "internalType": "struct Position",
          "name": "_pos",
          "type": "tuple"
        }
      ],
      "name": "_getWorldBlockDataOnPos",
      "outputs": [
        {
          "components": [
            {
              "internalType": "uint256",
              "name": "blockId",
              "type": "uint256"
            },
            {
              "internalType": "uint256",
              "name": "health",
              "type": "uint256"
            },
            {
              "internalType": "address",
              "name": "owner",
              "type": "address"
            },
            {
              "internalType": "uint256",
              "name": "lastAttacked",
              "type": "uint256"
            },
            {
              "internalType": "uint256",
              "name": "lastMoved",
              "type": "uint256"
            },
            {
              "internalType": "bool",
              "name": "occupiable",
              "type": "bool"
            }
          ],
          "internalType": "struct BlockData",
          "name": "",
          "type": "tuple"
        }
      ],
      "stateMutability": "view",
      "type": "function"
    },
    {
      "inputs": [
        {
          "internalType": "address",
          "name": "_player",
          "type": "address"
        }
      ],
      "name": "_isMoveCooled",
      "outputs": [
        {
          "internalType": "bool",
          "name": "",
          "type": "bool"
        }
      ],
      "stateMutability": "view",
      "type": "function"
    },
    {
      "inputs": [
        {
          "components": [
            {
              "internalType": "uint256",
              "name": "x",
              "type": "uint256"
            },
            {
              "internalType": "uint256",
              "name": "y",
              "type": "uint256"
            }
          ],
          "internalType": "struct Position",
          "name": "_pos",
          "type": "tuple"
        }
      ],
      "name": "_isOccupied",
      "outputs": [
        {
          "internalType": "bool",
          "name": "",
          "type": "bool"
        }
      ],
      "stateMutability": "view",
      "type": "function"
    },
    {
      "inputs": [
        {
          "internalType": "address",
          "name": "_player",
          "type": "address"
        },
        {
          "components": [
            {
              "internalType": "uint256",
              "name": "x",
              "type": "uint256"
            },
            {
              "internalType": "uint256",
              "name": "y",
              "type": "uint256"
            }
          ],
          "internalType": "struct Position",
          "name": "_pos",
          "type": "tuple"
        }
      ],
      "name": "_isValidMove",
      "outputs": [
        {
          "internalType": "bool",
          "name": "",
          "type": "bool"
        }
      ],
      "stateMutability": "view",
      "type": "function"
    },
    {
      "inputs": [
        {
          "components": [
            {
              "internalType": "uint256",
              "name": "x",
              "type": "uint256"
            },
            {
              "internalType": "uint256",
              "name": "y",
              "type": "uint256"
            }
          ],
          "internalType": "struct Position",
          "name": "p1",
          "type": "tuple"
        },
        {
          "components": [
            {
              "internalType": "uint256",
              "name": "x",
              "type": "uint256"
            },
            {
              "internalType": "uint256",
              "name": "y",
              "type": "uint256"
            }
          ],
          "internalType": "struct Position",
          "name": "p2",
          "type": "tuple"
        },
        {
          "internalType": "uint256",
          "name": "_dist",
          "type": "uint256"
        }
      ],
      "name": "_withinDistance",
      "outputs": [
        {
          "internalType": "bool",
          "name": "",
          "type": "bool"
        }
      ],
      "stateMutability": "pure",
      "type": "function"
    },
    {
      "inputs": [],
      "name": "getWorldBlockNonce",
      "outputs": [
        {
          "internalType": "uint256",
          "name": "",
          "type": "uint256"
        }
      ],
      "stateMutability": "view",
      "type": "function"
    }
  ],
  "bytecode": {
    "object": "0x61225061003a600b82828239805160001a60731461002d57634e487b7160e01b600052600060045260246000fd5b30600052607381538281f3fe73000000000000000000000000000000000000000030146080604052600436106101e45760003560e01c80637b5bee1d1161010e578063dc8afb63116100ac578063f095277c1161007b578063f095277c14610509578063f17dd70714610529578063f4215cb51461030c578063fad86c3c1461054957600080fd5b8063dc8afb631461046a578063dda42c6b1461048a578063ee8bc5791461049d578063f078e93c146104f657600080fd5b8063a1088b6b116100e8578063a1088b6b146103d2578063a3c53338146103da578063aaa6f29814610429578063c2784c861461045757600080fd5b80637b5bee1d1461037f5780638ca0796f1461039f57806395785915146103b257600080fd5b806332e08fea116101865780636196885611610155578063619688561461030c578063777e12f01461032c578063795646881461034c5780637a5298431461036c57600080fd5b806332e08fea146102945780633eb0f3eb146102b45780633f261e07146102d7578063487d2080146102ec57600080fd5b80631f309d04116101c25780631f309d04146102425780632760be8a146102625780632912004f14610279578063304df33f1461028157600080fd5b806303810c01146101e9578063074a80161461020f5780631ccd4c151461022f575b600080fd5b6101fc6101f7366004611d79565b610569565b6040519081526020015b60405180910390f35b61022261021d366004611dfb565b61064f565b6040516102069190611f37565b6101fc61023d366004611bb5565b6106c9565b81801561024e57600080fd5b506101fc61025d366004611cf5565b610706565b81801561026e57600080fd5b50610277610798565b005b6101fc6107ba565b6101fc61028f366004611d79565b6107cf565b6102a76102a2366004611b68565b610838565b6040516102069190612064565b6102c76102c2366004611d94565b6108cf565b6040519015158152602001610206565b6102df61095e565b6040516102069190611ed7565b8180156102f857600080fd5b50610277610307366004611c19565b6109cb565b81801561031857600080fd5b50610277610327366004611dd1565b610a5a565b81801561033857600080fd5b50610277610347366004611bde565b610ac2565b81801561035857600080fd5b50610277610367366004611c19565b610c17565b6102c761037a366004611b82565b610c6f565b61039261038d366004611dfb565b610d5b565b6040516102069190611f45565b6102226103ad366004611d79565b61109c565b6103c56103c0366004611d79565b6110b0565b6040516102069190611f24565b6101fc6110ec565b6103ed6103e8366004611c4b565b611101565b60405161020691908151815260208083015190820152604080830151908201526060918201516001600160a01b03169181019190915260800190565b81801561043557600080fd5b50610449610444366004611bb5565b61119c565b604051610206929190612129565b6102c7610465366004611d79565b611213565b81801561047657600080fd5b50610277610485366004611c19565b6112c2565b610222610498366004611d79565b611451565b6104b06104ab366004611d79565b61146e565b604051610206919081516001600160a01b031681526020808301519082015260408083015190820152606080830151908201526080918201519181019190915260a00190565b6102c7610504366004611b68565b611553565b61051c610517366004611b68565b61159d565b60405161020691906120e7565b81801561053557600080fd5b50610277610544366004611bde565b61178f565b61055c610557366004611dfb565b61182b565b60405161020691906120d0565b60008061057461193c565b6040805160e081018252825481526001830154602082018190526002840154928201929092526003830154606082015260048301546080820152600583015460a082015260069092015460c0830152845191925060009182916105d79190611960565b915091506000806105ec8388602001516119b4565b915091508315806105fb575081155b156106455760405162461bcd60e51b81526020600482015260156024820152740a6c2ccca9ac2e8d05ed2dcecc2d8d2c85adac2e8d605b1b60448201526064015b60405180910390fd5b9695505050505050565b610657611a4b565b61065f61193c565b6000928352624c4b51016020908152604092839020835160c0810185528154815260018201549281019290925260028101546001600160a01b031693820193909352600383015460608201526004830154608082015260059092015460ff16151560a08301525090565b60006106d361193c565b6001600160a01b0384166000908152624c4b4c919091016020908152604080832085845290915290205490505b92915050565b6000806107116107ba565b90508261071c61193c565b6000838152624c4b5191909101602090815260409182902083518155908301516001820155908201516002820180546001600160a01b0319166001600160a01b03909216919091179055606082015160038201556080820151600482015560a0909101516005909101805460ff19169115159190911790556107005b6107a061193c565b624c4b500180549060006107b3836121d3565b9190505550565b60006107c461193c565b624c4b500154905090565b60006107d961193c565b60070182600001516103e8811061080057634e487b7160e01b600052603260045260246000fd5b611388020182602001516103e8811061082957634e487b7160e01b600052603260045260246000fd5b60050201600101549050919050565b610840611a8c565b61084861193c565b6001600160a01b039283166000908152624c4b4b919091016020908152604091829020825160e081018452815460ff16151581526001820154818401526002820154909516858401526003810154606086015260048101546080860152600581015460a0860152825180840190935260068101548352600701549082015260c08301525090565b81518351600091829110156108f157845184516108ec9190612155565b6108ff565b835185516108ff9190612155565b9050600084602001518660200151101561092c57856020015185602001516109279190612155565b610940565b846020015186602001516109409190612155565b90508382111580156109525750838111155b925050505b9392505050565b606061096861193c565b624c4b4a018054806020026020016040519081016040528092919081815260200182805480156109c157602002820191906000526020600020905b81546001600160a01b031681526001909101906020018083116109a3575b5050505050905090565b806109d461193c565b6001600160a01b0385166000908152624c4b4c919091016020908152604080832086845290915281208054909190610a0d908490612155565b90915550610a1b905061193c565b6001600160a01b0384166000908152624c4b4c9190910160209081526040808320858452909152902054610a5557610a5583836000610ac2565b505050565b80610a6361193c565b60070183600001516103e88110610a8a57634e487b7160e01b600052603260045260246000fd5b611388020183602001516103e88110610ab357634e487b7160e01b600052603260045260246000fd5b60050201600101819055505050565b60008060005b610ad061193c565b6001600160a01b0387166000908152624c4b4d919091016020526040902054811015610b685784610aff61193c565b6001600160a01b0388166000908152624c4b4d9190910160205260409020805483908110610b3d57634e487b7160e01b600052603260045260246000fd5b90600052602060002001541415610b5657809250600191505b80610b60816121d3565b915050610ac8565b5082610bcb578015610bc657610b7c61193c565b6001600160a01b0386166000908152624c4b4d9190910160205260409020805483908110610bba57634e487b7160e01b600052603260045260246000fd5b60009182526020822001555b610c10565b8215610c105780610c1057610bde61193c565b6001600160a01b0386166000908152624c4b4d9190910160209081526040822080546001810182559083529120018490555b5050505050565b610c2383836001610ac2565b80610c2c61193c565b6001600160a01b0385166000908152624c4b4c919091016020908152604080832086845290915281208054909190610c6590849061213d565b9091555050505050565b600080610c7b84610838565b60c0015190506000610c8b61193c565b6040805160e0810182528254808252600184015460208301526002840154928201929092526003830154606082015260048301546080820152600583015460a082015260069092015460c08301528551919250600091108015610cf2575081516020860151105b8015610cfc575060015b8015610d06575060015b905080610d195760009350505050610700565b610d25858460016108cf565b610d355760009350505050610700565b610d3e85611213565b15610d4f5760009350505050610700565b50600195945050505050565b610dd5604051806101c00160405280600015158152602001600015158152602001600015158152602001600081526020016060815260200160608152602001606081526020016000815260200160008152602001600081526020016000815260200160001515815260200160608152602001606081525090565b610ddd61193c565b6000838152624c4b4891909101602090815260409182902082516101c081018452815460ff80821615158352610100820481161515838601526201000090910416151581850152600182015460608201526002820180548551818602810186019096528086529194929360808601939290830182828015610e7d57602002820191906000526020600020905b815481526020019060010190808311610e69575b5050505050815260200160038201805480602002602001604051908101604052809291908181526020018280548015610ed557602002820191906000526020600020905b815481526020019060010190808311610ec1575b5050505050815260200160048201805480602002602001604051908101604052809291908181526020018280548015610f2d57602002820191906000526020600020905b815481526020019060010190808311610f19575b505050918352505060058201546020820152600682015460408201526007820154606082015260088201546080820152600982015460ff16151560a0820152600a8201805460c090920191610f8190612198565b80601f0160208091040260200160405190810160405280929190818152602001828054610fad90612198565b8015610ffa5780601f10610fcf57610100808354040283529160200191610ffa565b820191906000526020600020905b815481529060010190602001808311610fdd57829003601f168201915b50505050508152602001600b8201805461101390612198565b80601f016020809104026020016040519081016040528092919081815260200182805461103f90612198565b801561108c5780601f106110615761010080835404028352916020019161108c565b820191906000526020600020905b81548152906001019060200180831161106f57829003601f168201915b5050505050815250509050919050565b6110a4611a4b565b61070061021d836107cf565b6060816000015182602001516040516020016110d6929190918252602082015260400190565b6040516020818303038152906040529050919050565b60006110f661193c565b624c4b520154905090565b611135604051806080016040528060008152602001600081526020016000815260200160006001600160a01b031681525090565b61113d61193c565b624c4b4f01826040516111509190611ebb565b90815260408051918290036020908101832060808401835280548452600181015491840191909152600281015491830191909152600301546001600160a01b0316606082015292915050565b60006111a6611a4b565b60006111b184610d5b565b905060006040518060c0016040528086815260200183606001518152602001876001600160a01b031681526020016000815260200160008152602001836040015115158152509050600061120482610706565b945090925050505b9250929050565b60008061121e61193c565b60070183600001516103e8811061124557634e487b7160e01b600052603260045260246000fd5b611388020183602001516103e8811061126e57634e487b7160e01b600052603260045260246000fd5b60050201546001600160a01b03161461128957506001919050565b600061129483611451565b90508060a00151156112a95750600092915050565b8051156112b95750600192915050565b50600092915050565b60006112cd33610838565b60c00151905060006112de85610838565b60c001519050336001600160a01b038616141561133d5760405162461bcd60e51b815260206004820181905260248201527f73746f726167652f726563697069656e742d73616d652d61732d73656e646572604482015260640161063c565b611349828260056108cf565b61138c5760405162461bcd60e51b815260206004820152601460248201527373746f726167652f6e6f742d696e2d72616e676560601b604482015260640161063c565b8261139733866106c9565b116113e45760405162461bcd60e51b815260206004820152601a60248201527f73746f726167652f696e73756666696369656e742d626c6f636b000000000000604482015260640161063c565b6113ef3385856109cb565b6113fa858585610c17565b604080513381526001600160a01b0387166020820152908101859052606081018490527f9ed053bb818ff08b8353cd46f78db1f0799f31c9e4458fdb425c10eccd2efc449060800160405180910390a15050505050565b611459611a4b565b6107006114658361146e565b6020015161064f565b6114a96040518060a0016040528060006001600160a01b03168152602001600081526020016000815260200160008152602001600081525090565b6114b161193c565b60070182600001516103e881106114d857634e487b7160e01b600052603260045260246000fd5b611388020182602001516103e8811061150157634e487b7160e01b600052603260045260246000fd5b6040805160a0810182526005929092029290920180546001600160a01b031682526001810154602083015260028101549282019290925260038201546060820152600490910154608082015292915050565b600061155d61193c565b6005015461156961193c565b6001600160a01b0384166000908152624c4b4b9190910160205260409020600501546115959042612155565b101592915050565b604080518082019091526060808252602082015260006115bb61193c565b6001600160a01b0384166000908152624c4b4d91909101602052604081205491508167ffffffffffffffff81111561160357634e487b7160e01b600052604160045260246000fd5b60405190808252806020026020018201604052801561162c578160200160208202803683370190505b50905060005b8281101561170157600061164461193c565b6001600160a01b0387166000908152624c4b4d919091016020526040902080548390811061168257634e487b7160e01b600052603260045260246000fd5b9060005260206000200154905061169761193c565b6001600160a01b0387166000908152624c4b4c919091016020908152604080832084845290915290205483518490849081106116e357634e487b7160e01b600052603260045260246000fd5b602090810291909101015250806116f9816121d3565b915050611632565b50604051806040016040528061171561193c565b6001600160a01b0387166000908152624c4b4d9190910160209081526040918290208054835181840281018401909452808452909183018282801561177957602002820191906000526020600020905b815481526020019060010190808311611765575b5050509183525050602001919091529392505050565b806117e2578161179d61193c565b624c4b4b016000856001600160a01b03166001600160a01b0316815260200190815260200160002060030160008282546117d79190612155565b925050819055611825565b816117eb61193c565b624c4b4b016000856001600160a01b03166001600160a01b031681526020019081526020016000206003016000828254610c65919061213d565b50505050565b6040805180820190915260008082526020820152600061184961193c565b6000016040518060e001604052908160008201548152602001600182015481526020016002820154815260200160038201548152602001600482015481526020016005820154815260200160068201548152505090506000806118b08584602001516119cf565b915091506000806118c5878660000151611a0d565b915091508315806118d4575081155b156119215760405162461bcd60e51b815260206004820152601960248201527f536166654d6174682f696e76616c69642d6469766973696f6e00000000000000604482015260640161063c565b60408051808201909152928352602083015250949350505050565b7f8d1bebda6a12a792ffba01f92494c5be0cd4ce8e2d8e46d2c616016d7e70fd2090565b60008083611974575060019050600061120c565b8383028385828161199557634e487b7160e01b600052601260045260246000fd5b04146119a857600080925092505061120c565b60019590945092505050565b600080838301848110156119a857600080925092505061120c565b600080826119e25750600090508061120c565b6001838581611a0157634e487b7160e01b600052601260045260246000fd5b04915091509250929050565b60008082611a205750600090508061120c565b6001838581611a3f57634e487b7160e01b600052601260045260246000fd5b06915091509250929050565b6040518060c00160405280600081526020016000815260200160006001600160a01b0316815260200160008152602001600081526020016000151581525090565b6040518060e001604052806000151581526020016000815260200160006001600160a01b03168152602001600081526020016000815260200160008152602001611ae9604051806040016040528060008152602001600081525090565b905290565b80356001600160a01b0381168114611b0557600080fd5b919050565b80358015158114611b0557600080fd5b600060408284031215611b2b578081fd5b6040516040810181811067ffffffffffffffff82111715611b4e57611b4e612204565b604052823581526020928301359281019290925250919050565b600060208284031215611b79578081fd5b61095782611aee565b60008060608385031215611b94578081fd5b611b9d83611aee565b9150611bac8460208501611b1a565b90509250929050565b60008060408385031215611bc7578182fd5b611bd083611aee565b946020939093013593505050565b600080600060608486031215611bf2578081fd5b611bfb84611aee565b925060208401359150611c1060408501611b0a565b90509250925092565b600080600060608486031215611c2d578283fd5b611c3684611aee565b95602085013595506040909401359392505050565b600060208284031215611c5c578081fd5b813567ffffffffffffffff80821115611c73578283fd5b818401915084601f830112611c86578283fd5b813581811115611c9857611c98612204565b604051601f8201601f19908116603f01168101908382118183101715611cc057611cc0612204565b81604052828152876020848701011115611cd8578586fd5b826020860160208301379182016020019490945295945050505050565b600060c08284031215611d06578081fd5b60405160c0810181811067ffffffffffffffff82111715611d2957611d29612204565b80604052508235815260208301356020820152611d4860408401611aee565b60408201526060830135606082015260808301356080820152611d6d60a08401611b0a565b60a08201529392505050565b600060408284031215611d8a578081fd5b6109578383611b1a565b600080600060a08486031215611da8578283fd5b611db28585611b1a565b9250611dc18560408601611b1a565b9150608084013590509250925092565b60008060608385031215611de3578182fd5b611ded8484611b1a565b946040939093013593505050565b600060208284031215611e0c578081fd5b5035919050565b6000815180845260208085019450808401835b83811015611e4257815187529582019590820190600101611e26565b509495945050505050565b60008151808452611e6581602086016020860161216c565b601f01601f19169290920160200192915050565b80518252602080820151908301526040808201516001600160a01b031690830152606080820151908301526080808201519083015260a0908101511515910152565b60008251611ecd81846020870161216c565b9190910192915050565b6020808252825182820181905260009190848201906040850190845b81811015611f185783516001600160a01b031683529284019291840191600101611ef3565b50909695505050505050565b6020815260006109576020830184611e4d565b60c081016107008284611e79565b60208152611f5860208201835115159052565b60006020830151611f6d604084018215159052565b5060408301518015156060840152506060830151608083015260808301516101c08060a0850152611fa26101e0850183611e13565b915060a0850151601f19808685030160c0870152611fc08483611e13565b935060c08701519150808685030160e0870152611fdd8483611e13565b60e088015161010088810191909152880151610120808901919091528801516101408089019190915288015161016080890191909152880151909450915061018061202b8188018415159052565b808801519250506101a08187860301818801526120488584611e4d565b9088015187820390920184880152935090506106458382611e4d565b6000610100820190508251151582526020830151602083015260018060a01b036040840151166040830152606083015160608301526080830151608083015260a083015160a083015260c08301516120c960c084018280518252602090810151910152565b5092915050565b815181526020808301519082015260408101610700565b6020815260008251604060208401526121036060840182611e13565b90506020840151601f198483030160408501526121208282611e13565b95945050505050565b82815260e081016109576020830184611e79565b60008219821115612150576121506121ee565b500190565b600082821015612167576121676121ee565b500390565b60005b8381101561218757818101518382015260200161216f565b838111156118255750506000910152565b600181811c908216806121ac57607f821691505b602082108114156121cd57634e487b7160e01b600052602260045260246000fd5b50919050565b60006000198214156121e7576121e76121ee565b5060010190565b634e487b7160e01b600052601160045260246000fd5b634e487b7160e01b600052604160045260246000fdfea2646970667358221220b7e18a912995723e7521e8198fedae54b207e599ded1494e8be4b7804fed981a64736f6c63430008040033",
    "linkReferences": {}
  }
}