{
  "abi": [
    {
      "inputs": [
        {
          "internalType": "uint256",
          "name": "_troopTypeId",
          "type": "uint256"
        }
      ],
      "name": "_getAttackCooldown",
      "outputs": [
        {
          "internalType": "uint256",
          "name": "",
          "type": "uint256"
        }
      ],
      "stateMutability": "view",
      "type": "function"
    },
    {
      "inputs": [
        {
          "internalType": "uint256",
          "name": "_troopTypeId",
          "type": "uint256"
        }
      ],
      "name": "_getAttackFactor",
      "outputs": [
        {
          "internalType": "uint256",
          "name": "",
          "type": "uint256"
        }
      ],
      "stateMutability": "view",
      "type": "function"
    },
    {
      "inputs": [
        {
          "internalType": "uint256",
          "name": "_baseId",
          "type": "uint256"
        }
      ],
      "name": "_getBaseHealth",
      "outputs": [
        {
          "internalType": "uint256",
          "name": "",
          "type": "uint256"
        }
      ],
      "stateMutability": "view",
      "type": "function"
    },
    {
      "inputs": [
        {
          "internalType": "uint256",
          "name": "_baseId",
          "type": "uint256"
        }
      ],
      "name": "_getBaseOwner",
      "outputs": [
        {
          "internalType": "address",
          "name": "",
          "type": "address"
        }
      ],
      "stateMutability": "view",
      "type": "function"
    },
    {
      "inputs": [
        {
          "internalType": "uint256",
          "name": "_troopId",
          "type": "uint256"
        }
      ],
      "name": "_getCargoCapacity",
      "outputs": [
        {
          "internalType": "uint256",
          "name": "",
          "type": "uint256"
        }
      ],
      "stateMutability": "view",
      "type": "function"
    },
    {
      "inputs": [
        {
          "internalType": "uint256",
          "name": "_troopTypeId",
          "type": "uint256"
        }
      ],
      "name": "_getDamagePerHit",
      "outputs": [
        {
          "internalType": "uint256",
          "name": "",
          "type": "uint256"
        }
      ],
      "stateMutability": "view",
      "type": "function"
    },
    {
      "inputs": [
        {
          "internalType": "uint256",
          "name": "_troopTypeId",
          "type": "uint256"
        }
      ],
      "name": "_getDefenseFactor",
      "outputs": [
        {
          "internalType": "uint256",
          "name": "",
          "type": "uint256"
        }
      ],
      "stateMutability": "view",
      "type": "function"
    },
    {
      "inputs": [
        {
          "internalType": "uint256",
          "name": "_troopTypeId",
          "type": "uint256"
        }
      ],
      "name": "_getEpochsToProduce",
      "outputs": [
        {
          "internalType": "uint256",
          "name": "",
          "type": "uint256"
        }
      ],
      "stateMutability": "view",
      "type": "function"
    },
    {
      "inputs": [
        {
          "internalType": "uint256",
          "name": "_troopTypeId",
          "type": "uint256"
        }
      ],
      "name": "_getMaxHealth",
      "outputs": [
        {
          "internalType": "uint256",
          "name": "",
          "type": "uint256"
        }
      ],
      "stateMutability": "view",
      "type": "function"
    },
    {
      "inputs": [
        {
          "internalType": "uint256",
          "name": "_troopTypeId",
          "type": "uint256"
        }
      ],
      "name": "_getMovementCooldown",
      "outputs": [
        {
          "internalType": "uint256",
          "name": "",
          "type": "uint256"
        }
      ],
      "stateMutability": "view",
      "type": "function"
    },
    {
      "inputs": [
        {
          "internalType": "uint256",
          "name": "_troopTypeId",
          "type": "uint256"
        }
      ],
      "name": "_getSpeed",
      "outputs": [
        {
          "internalType": "uint256",
          "name": "",
          "type": "uint256"
        }
      ],
      "stateMutability": "view",
      "type": "function"
    },
    {
      "inputs": [
        {
          "components": [
            {
              "internalType": "uint256",
              "name": "x",
              "type": "uint256"
            },
            {
              "internalType": "uint256",
              "name": "y",
              "type": "uint256"
            }
          ],
          "internalType": "struct Position",
          "name": "_pos",
          "type": "tuple"
        }
      ],
      "name": "_getTileAt",
      "outputs": [
        {
          "components": [
            {
              "internalType": "enum TERRAIN",
              "name": "terrain",
              "type": "TERRAIN"
            },
            {
              "internalType": "uint256",
              "name": "occupantId",
              "type": "uint256"
            },
            {
              "internalType": "uint256",
              "name": "baseId",
              "type": "uint256"
            }
          ],
          "internalType": "struct Tile",
          "name": "",
          "type": "tuple"
        }
      ],
      "stateMutability": "view",
      "type": "function"
    },
    {
      "inputs": [
        {
          "internalType": "uint256",
          "name": "_troopId",
          "type": "uint256"
        }
      ],
      "name": "_getTroopOwner",
      "outputs": [
        {
          "internalType": "address",
          "name": "",
          "type": "address"
        }
      ],
      "stateMutability": "view",
      "type": "function"
    },
    {
      "inputs": [
        {
          "internalType": "uint256",
          "name": "_troopId",
          "type": "uint256"
        }
      ],
      "name": "_getTroopPos",
      "outputs": [
        {
          "components": [
            {
              "internalType": "uint256",
              "name": "x",
              "type": "uint256"
            },
            {
              "internalType": "uint256",
              "name": "y",
              "type": "uint256"
            }
          ],
          "internalType": "struct Position",
          "name": "",
          "type": "tuple"
        }
      ],
      "stateMutability": "view",
      "type": "function"
    },
    {
      "inputs": [
        {
          "components": [
            {
              "internalType": "enum TERRAIN",
              "name": "terrain",
              "type": "TERRAIN"
            },
            {
              "internalType": "uint256",
              "name": "occupantId",
              "type": "uint256"
            },
            {
              "internalType": "uint256",
              "name": "baseId",
              "type": "uint256"
            }
          ],
          "internalType": "struct Tile",
          "name": "_tile",
          "type": "tuple"
        }
      ],
      "name": "_hasPort",
      "outputs": [
        {
          "internalType": "bool",
          "name": "",
          "type": "bool"
        }
      ],
      "stateMutability": "view",
      "type": "function"
    },
    {
      "inputs": [
        {
          "components": [
            {
              "internalType": "enum TERRAIN",
              "name": "terrain",
              "type": "TERRAIN"
            },
            {
              "internalType": "uint256",
              "name": "occupantId",
              "type": "uint256"
            },
            {
              "internalType": "uint256",
              "name": "baseId",
              "type": "uint256"
            }
          ],
          "internalType": "struct Tile",
          "name": "_tile",
          "type": "tuple"
        }
      ],
      "name": "_hasTroopTransport",
      "outputs": [
        {
          "internalType": "bool",
          "name": "",
          "type": "bool"
        }
      ],
      "stateMutability": "view",
      "type": "function"
    },
    {
      "inputs": [
        {
          "components": [
            {
              "internalType": "uint256",
              "name": "x",
              "type": "uint256"
            },
            {
              "internalType": "uint256",
              "name": "y",
              "type": "uint256"
            }
          ],
          "internalType": "struct Position",
          "name": "_p",
          "type": "tuple"
        }
      ],
      "name": "_inBound",
      "outputs": [
        {
          "internalType": "bool",
          "name": "",
          "type": "bool"
        }
      ],
      "stateMutability": "view",
      "type": "function"
    },
    {
      "inputs": [
        {
          "internalType": "uint256",
          "name": "_troopTypeId",
          "type": "uint256"
        }
      ],
      "name": "_isLandTroop",
      "outputs": [
        {
          "internalType": "bool",
          "name": "",
          "type": "bool"
        }
      ],
      "stateMutability": "view",
      "type": "function"
    },
    {
      "inputs": [
        {
          "internalType": "uint256",
          "name": "_salt",
          "type": "uint256"
        },
        {
          "internalType": "uint256",
          "name": "_max",
          "type": "uint256"
        }
      ],
      "name": "_random",
      "outputs": [
        {
          "internalType": "uint256",
          "name": "",
          "type": "uint256"
        }
      ],
      "stateMutability": "view",
      "type": "function"
    },
    {
      "inputs": [
        {
          "components": [
            {
              "internalType": "uint256",
              "name": "x",
              "type": "uint256"
            },
            {
              "internalType": "uint256",
              "name": "y",
              "type": "uint256"
            }
          ],
          "internalType": "struct Position",
          "name": "_p1",
          "type": "tuple"
        },
        {
          "components": [
            {
              "internalType": "uint256",
              "name": "x",
              "type": "uint256"
            },
            {
              "internalType": "uint256",
              "name": "y",
              "type": "uint256"
            }
          ],
          "internalType": "struct Position",
          "name": "_p2",
          "type": "tuple"
        }
      ],
      "name": "_samePos",
      "outputs": [
        {
          "internalType": "bool",
          "name": "",
          "type": "bool"
        }
      ],
      "stateMutability": "pure",
      "type": "function"
    },
    {
      "inputs": [
        {
          "internalType": "uint256",
          "name": "_strikeFactor",
          "type": "uint256"
        }
      ],
      "name": "_strike",
      "outputs": [
        {
          "internalType": "bool",
          "name": "",
          "type": "bool"
        }
      ],
      "stateMutability": "view",
      "type": "function"
    },
    {
      "inputs": [
        {
          "components": [
            {
              "internalType": "uint256",
              "name": "x",
              "type": "uint256"
            },
            {
              "internalType": "uint256",
              "name": "y",
              "type": "uint256"
            }
          ],
          "internalType": "struct Position",
          "name": "_p1",
          "type": "tuple"
        },
        {
          "components": [
            {
              "internalType": "uint256",
              "name": "x",
              "type": "uint256"
            },
            {
              "internalType": "uint256",
              "name": "y",
              "type": "uint256"
            }
          ],
          "internalType": "struct Position",
          "name": "_p2",
          "type": "tuple"
        },
        {
          "internalType": "uint256",
          "name": "_dist",
          "type": "uint256"
        }
      ],
      "name": "_withinDist",
      "outputs": [
        {
          "internalType": "bool",
          "name": "",
          "type": "bool"
        }
      ],
      "stateMutability": "pure",
      "type": "function"
    }
  ],
  "bytecode": {
    "object": "0x61122661003a600b82828239805160001a60731461002d57634e487b7160e01b600052600060045260246000fd5b30600052607381538281f3fe730000000000000000000000000000000000000000301460806040526004361061017d5760003560e01c80639f7c43cd116100e8578063d7db1990116100a1578063e9e3eaa11161007b578063e9e3eaa114610382578063f45be7cd14610395578063faf3edd1146103c3578063ff459967146103d657600080fd5b8063d7db19901461033c578063db3019881461034f578063e7a0fcec1461036257600080fd5b80639f7c43cd146102ca578063a596a106146102dd578063a617deda146102f0578063ab8d002e14610303578063be1df32c14610316578063d18036a91461032957600080fd5b8063733f45a81161013a578063733f45a81461024957806383bcfd8b1461025c578063877fbaf11461026f57806387900eed146102915780638b92c968146102a45780639f07295d146102b757600080fd5b806322510ee81461018257806332eb443c146101a8578063342a4123146101c8578063357de1eb146101e85780633d8e5b30146101fb57806352b7390c14610226575b600080fd5b61019561019036600461110c565b6103e9565b6040519081526020015b60405180910390f35b8180156101b457600080fd5b506101956101c3366004611051565b61040c565b6101db6101d6366004610f61565b6105e8565b60405161019f9190611145565b6101956101f636600461110c565b6106dd565b61020e61020936600461110c565b610700565b6040516001600160a01b03909116815260200161019f565b610239610234366004610fea565b61072e565b604051901515815260200161019f565b61019561025736600461110c565b6107bb565b61019561026a36600461110c565b6107de565b81801561027b57600080fd5b5061028f61028a366004611027565b610801565b005b61019561029f36600461110c565b610a02565b6102396102b236600461109c565b610a25565b6101956102c536600461110c565b610a3c565b6101956102d836600461110c565b610a5f565b61020e6102eb36600461110c565b610a82565b6101956102fe36600461110c565b610aab565b61023961031136600461110c565b610af2565b61019561032436600461110c565b610b18565b610239610337366004610fb6565b610b3b565b61023961034a36600461109c565b610b5d565b61019561035d36600461110c565b610baa565b81801561036e57600080fd5b5061019561037d366004610f7c565b610bcd565b610195610390366004611124565b610d7c565b6103a86103a336600461110c565b610dc0565b6040805182518152602092830151928101929092520161019f565b6102396103d136600461110c565b610e0c565b6102396103e4366004610f61565b610e27565b60006103f3610e62565b6000928352622dc6ce0160205250604090206003015490565b600060606000604051806101000160405280856001600160a01b0316815260200186815260200161043b610e62565b622dc6c90154815260200161044e610e62565b622dc6c901548152602001610461610e62565b622dc6c901548152602001610475876107de565b81526020018781526020018381525090506000610490610e62565b622dc6d0015490506104a0610e62565b622dc6cf0180546001810182556000918252602090912001819055816104c4610e62565b6000838152622dc6d1919091016020908152604091829020835181546001600160a01b0319166001600160a01b03909116178155838201516001820155918301516002830155606083015160038301556080830151600483015560a0830151600583015560c083015180516006840155810151600783015560e083015180516105539260088501920190610e86565b5090505061055f610e62565b622dc6d00180549060006105728361119f565b919050555080610580610e62565b60090188600001516103e881106105a757634e487b7160e01b600052603260045260246000fd5b610bb8020188602001516103e881106105d057634e487b7160e01b600052603260045260246000fd5b60030201600101819055508093505050509392505050565b61060d6040805160608101909152806000815260200160008152602001600081525090565b610615610e62565b60090182600001516103e8811061063c57634e487b7160e01b600052603260045260246000fd5b610bb8020182602001516103e8811061066557634e487b7160e01b600052603260045260246000fd5b6040805160608101909152600391909102919091018054829060ff1660028111156106a057634e487b7160e01b600052602160045260246000fd5b60028111156106bf57634e487b7160e01b600052602160045260246000fd5b81526001820154602082015260029091015460409091015292915050565b60006106e7610e62565b6000928352622dc6d30160205250604090206004015490565b600061070a610e62565b6000928352622dc6ce0160205250604090205461010090046001600160a01b031690565b8151835160009182911015610750578451845161074b9190611188565b61075e565b8351855161075e9190611188565b9050600084602001518660200151101561078b57856020015185602001516107869190611188565b61079f565b8460200151866020015161079f9190611188565b90508382111580156107b15750838111155b9695505050505050565b60006107c5610e62565b6000928352622dc6d30160205250604090206005015490565b60006107e8610e62565b6000928352622dc6d30160205250604090206002015490565b600061080b610e62565b622dc6d101600083815260200190815260200160002060080180548060200260200160405190810160405280929190818152602001828054801561086e57602002820191906000526020600020905b81548152602001906001019080831161085a575b5050505050905060005b815181101561092e57610889610e62565b622dc6d10160008383815181106108b057634e487b7160e01b600052603260045260246000fd5b6020908102919091018101518252810191909152604001600090812080546001600160a01b031916815560018101829055600281018290556003810182905560048101829055600581018290556006810182905560078101829055906109196008830182610ed1565b505080806109269061119f565b915050610878565b50610937610e62565b6000838152622dc6d1919091016020526040812080546001600160a01b031916815560018101829055600281018290556003810182905560048101829055600581018290556006810182905560078101829055906109986008830182610ed1565b50506109a2610e62565b60090183600001516103e881106109c957634e487b7160e01b600052603260045260246000fd5b610bb8020183602001516103e881106109f257634e487b7160e01b600052603260045260246000fd5b6003020160010160009055505050565b6000610a0c610e62565b6000928352622dc6d30160205250604090206009015490565b600080610a358360200151610aab565b1192915050565b6000610a46610e62565b6000928352622dc6d30160205250604090206003015490565b6000610a69610e62565b6000928352622dc6d30160205250604090206001015490565b6000610a8c610e62565b6000928352622dc6d1016020525060409020546001600160a01b031690565b6000610ab5610e62565b622dc6d3016000610ac4610e62565b6000948552622dc6d10160209081526040808620600101548352908201929092520190912060060154919050565b6000610afc610e62565b6000928352622dc6d3016020525060409020600a015460ff1690565b6000610b22610e62565b6000928352622dc6d30160205250604090206007015490565b80518251600091148015610b56575081602001518360200151145b9392505050565b600080610b68610e62565b6040808501516000908152622dc6ce9290920160205290205460ff166001811115610ba357634e487b7160e01b600052602160045260246000fd5b1492915050565b6000610bb4610e62565b6000928352622dc6d30160205250604090206008015490565b6000806040518060a00160405280846001811115610bfb57634e487b7160e01b600052602160045260246000fd5b815260200160006001600160a01b031681526020016001815260200160018152602001600181525090506000610c2f610e62565b622dc6cd01549050610c3f610e62565b622dc6cc018054600181018255600091825260209091200181905581610c63610e62565b6000838152622dc6ce919091016020526040902081518154829060ff191660018381811115610ca257634e487b7160e01b600052602160045260246000fd5b0217905550602082015181546001600160a01b0390911661010002610100600160a81b03199091161781556040820151600182015560608201516002820155608090910151600390910155610cf5610e62565b622dc6cd018054906000610d088361119f565b919050555080610d16610e62565b60090186600001516103e88110610d3d57634e487b7160e01b600052603260045260246000fd5b610bb8020186602001516103e88110610d6657634e487b7160e01b600052603260045260246000fd5b6003020160020181905550809250505092915050565b6040805142602082015244918101919091526060810183905260009082906080016040516020818303038152906040528051906020012060001c610b5691906111ba565b6040805180820190915260008082526020820152610ddc610e62565b6000928352622dc6d101602090815260409283902083518085019094526006810154845260070154908301525090565b6000600181610e1c826064610d7c565b939093109392505050565b6000610e31610e62565b600101548251108015610e42575060015b8015610e5c5750610e51610e62565b600201546020830151105b92915050565b7f8d1bebda6a12a792ffba01f92494c5be0cd4ce8e2d8e46d2c616016d7e70fd2090565b828054828255906000526020600020908101928215610ec1579160200282015b82811115610ec1578251825591602001919060010190610ea6565b50610ecd929150610ef2565b5090565b5080546000825590600052602060002090810190610eef9190610ef2565b50565b5b80821115610ecd5760008155600101610ef3565b600060408284031215610f18578081fd5b6040516040810181811067ffffffffffffffff82111715610f4757634e487b7160e01b83526041600452602483fd5b604052823581526020928301359281019290925250919050565b600060408284031215610f72578081fd5b610b568383610f07565b60008060608385031215610f8e578081fd5b610f988484610f07565b9150604083013560028110610fab578182fd5b809150509250929050565b60008060808385031215610fc8578182fd5b610fd28484610f07565b9150610fe18460408501610f07565b90509250929050565b600080600060a08486031215610ffe578081fd5b6110088585610f07565b92506110178560408601610f07565b9150608084013590509250925092565b60008060608385031215611039578182fd5b6110438484610f07565b946040939093013593505050565b600080600060808486031215611065578283fd5b61106f8585610f07565b92506040840135915060608401356001600160a01b0381168114611091578182fd5b809150509250925092565b6000606082840312156110ad578081fd5b6040516060810181811067ffffffffffffffff821117156110dc57634e487b7160e01b83526041600452602483fd5b6040528235600381106110ed578283fd5b8152602083810135908201526040928301359281019290925250919050565b60006020828403121561111d578081fd5b5035919050565b60008060408385031215611136578182fd5b50508035926020909101359150565b815160608201906003811061116a57634e487b7160e01b600052602160045260246000fd5b80835250602083015160208301526040830151604083015292915050565b60008282101561119a5761119a6111da565b500390565b60006000198214156111b3576111b36111da565b5060010190565b6000826111d557634e487b7160e01b81526012600452602481fd5b500690565b634e487b7160e01b600052601160045260246000fdfea26469706673582212202c6bac90e439a3f0b9b54e54c355bfa3227be1d5ed9642f16786af63a817750664736f6c63430008040033",
    "linkReferences": {}
  },
  "methodIdentifiers": {
    "_addBase(Position,BASE_NAME)": "e7a0fcec",
    "_addTroop(Position,uint256,address)": "32eb443c",
    "_getAttackCooldown(uint256)": "87900eed",
    "_getAttackFactor(uint256)": "357de1eb",
    "_getBaseHealth(uint256)": "22510ee8",
    "_getBaseOwner(uint256)": "3d8e5b30",
    "_getCargoCapacity(uint256)": "a617deda",
    "_getDamagePerHit(uint256)": "9f07295d",
    "_getDefenseFactor(uint256)": "733f45a8",
    "_getEpochsToProduce(uint256)": "be1df32c",
    "_getMaxHealth(uint256)": "83bcfd8b",
    "_getMovementCooldown(uint256)": "db301988",
    "_getSpeed(uint256)": "9f7c43cd",
    "_getTileAt(Position)": "342a4123",
    "_getTroopOwner(uint256)": "a596a106",
    "_getTroopPos(uint256)": "f45be7cd",
    "_hasPort(Tile)": "d7db1990",
    "_hasTroopTransport(Tile)": "8b92c968",
    "_inBound(Position)": "ff459967",
    "_isLandTroop(uint256)": "ab8d002e",
    "_random(uint256,uint256)": "e9e3eaa1",
    "_removeTroop(Position,uint256)": "877fbaf1",
    "_samePos(Position,Position)": "d18036a9",
    "_strike(uint256)": "faf3edd1",
    "_withinDist(Position,Position,uint256)": "52b7390c"
  },
  "id": 10
}