{
  "abi": [
    {
      "inputs": [
        {
          "internalType": "uint256",
          "name": "_troopTypeId",
          "type": "uint256"
        }
      ],
      "name": "_getAttackCooldown",
      "outputs": [
        {
          "internalType": "uint256",
          "name": "",
          "type": "uint256"
        }
      ],
      "stateMutability": "view",
      "type": "function"
    },
    {
      "inputs": [
        {
          "internalType": "uint256",
          "name": "_troopTypeId",
          "type": "uint256"
        }
      ],
      "name": "_getAttackFactor",
      "outputs": [
        {
          "internalType": "uint256",
          "name": "",
          "type": "uint256"
        }
      ],
      "stateMutability": "view",
      "type": "function"
    },
    {
      "inputs": [
        {
          "internalType": "uint256",
          "name": "_baseId",
          "type": "uint256"
        }
      ],
      "name": "_getBaseHealth",
      "outputs": [
        {
          "internalType": "uint256",
          "name": "",
          "type": "uint256"
        }
      ],
      "stateMutability": "view",
      "type": "function"
    },
    {
      "inputs": [
        {
          "internalType": "uint256",
          "name": "_baseId",
          "type": "uint256"
        }
      ],
      "name": "_getBaseOwner",
      "outputs": [
        {
          "internalType": "address",
          "name": "",
          "type": "address"
        }
      ],
      "stateMutability": "view",
      "type": "function"
    },
    {
      "inputs": [
        {
          "internalType": "uint256",
          "name": "_troopId",
          "type": "uint256"
        }
      ],
      "name": "_getCargoCapacity",
      "outputs": [
        {
          "internalType": "uint256",
          "name": "",
          "type": "uint256"
        }
      ],
      "stateMutability": "view",
      "type": "function"
    },
    {
      "inputs": [
        {
          "internalType": "uint256",
          "name": "_troopTypeId",
          "type": "uint256"
        }
      ],
      "name": "_getDamagePerHit",
      "outputs": [
        {
          "internalType": "uint256",
          "name": "",
          "type": "uint256"
        }
      ],
      "stateMutability": "view",
      "type": "function"
    },
    {
      "inputs": [
        {
          "internalType": "uint256",
          "name": "_troopTypeId",
          "type": "uint256"
        }
      ],
      "name": "_getDefenseFactor",
      "outputs": [
        {
          "internalType": "uint256",
          "name": "",
          "type": "uint256"
        }
      ],
      "stateMutability": "view",
      "type": "function"
    },
    {
      "inputs": [
        {
          "internalType": "uint256",
          "name": "_troopTypeId",
          "type": "uint256"
        }
      ],
      "name": "_getEpochsToProduce",
      "outputs": [
        {
          "internalType": "uint256",
          "name": "",
          "type": "uint256"
        }
      ],
      "stateMutability": "view",
      "type": "function"
    },
    {
      "inputs": [
        {
          "internalType": "uint256",
          "name": "_troopTypeId",
          "type": "uint256"
        }
      ],
      "name": "_getMaxHealth",
      "outputs": [
        {
          "internalType": "uint256",
          "name": "",
          "type": "uint256"
        }
      ],
      "stateMutability": "view",
      "type": "function"
    },
    {
      "inputs": [
        {
          "internalType": "uint256",
          "name": "_troopTypeId",
          "type": "uint256"
        }
      ],
      "name": "_getMovementCooldown",
      "outputs": [
        {
          "internalType": "uint256",
          "name": "",
          "type": "uint256"
        }
      ],
      "stateMutability": "view",
      "type": "function"
    },
    {
      "inputs": [
        {
          "internalType": "uint256",
          "name": "_troopTypeId",
          "type": "uint256"
        }
      ],
      "name": "_getSpeed",
      "outputs": [
        {
          "internalType": "uint256",
          "name": "",
          "type": "uint256"
        }
      ],
      "stateMutability": "view",
      "type": "function"
    },
    {
      "inputs": [
        {
          "internalType": "uint256",
          "name": "_troopId",
          "type": "uint256"
        }
      ],
      "name": "_getTroopOwner",
      "outputs": [
        {
          "internalType": "address",
          "name": "",
          "type": "address"
        }
      ],
      "stateMutability": "view",
      "type": "function"
    },
    {
      "inputs": [
        {
          "internalType": "uint256",
          "name": "_troopId",
          "type": "uint256"
        }
      ],
      "name": "_getTroopPos",
      "outputs": [
        {
          "components": [
            {
              "internalType": "uint256",
              "name": "x",
              "type": "uint256"
            },
            {
              "internalType": "uint256",
              "name": "y",
              "type": "uint256"
            }
          ],
          "internalType": "struct Position",
          "name": "",
          "type": "tuple"
        }
      ],
      "stateMutability": "view",
      "type": "function"
    },
    {
      "inputs": [
        {
          "components": [
            {
              "internalType": "enum Terrain",
              "name": "terrain",
              "type": "Terrain"
            },
            {
              "internalType": "uint256",
              "name": "occupantId",
              "type": "uint256"
            },
            {
              "internalType": "uint256",
              "name": "baseId",
              "type": "uint256"
            }
          ],
          "internalType": "struct Tile",
          "name": "_tile",
          "type": "tuple"
        }
      ],
      "name": "_hasPort",
      "outputs": [
        {
          "internalType": "bool",
          "name": "",
          "type": "bool"
        }
      ],
      "stateMutability": "view",
      "type": "function"
    },
    {
      "inputs": [
        {
          "components": [
            {
              "internalType": "enum Terrain",
              "name": "terrain",
              "type": "Terrain"
            },
            {
              "internalType": "uint256",
              "name": "occupantId",
              "type": "uint256"
            },
            {
              "internalType": "uint256",
              "name": "baseId",
              "type": "uint256"
            }
          ],
          "internalType": "struct Tile",
          "name": "_tile",
          "type": "tuple"
        }
      ],
      "name": "_hasTroopTransport",
      "outputs": [
        {
          "internalType": "bool",
          "name": "",
          "type": "bool"
        }
      ],
      "stateMutability": "view",
      "type": "function"
    },
    {
      "inputs": [
        {
          "components": [
            {
              "internalType": "uint256",
              "name": "x",
              "type": "uint256"
            },
            {
              "internalType": "uint256",
              "name": "y",
              "type": "uint256"
            }
          ],
          "internalType": "struct Position",
          "name": "_p",
          "type": "tuple"
        }
      ],
      "name": "_inBound",
      "outputs": [
        {
          "internalType": "bool",
          "name": "",
          "type": "bool"
        }
      ],
      "stateMutability": "view",
      "type": "function"
    },
    {
      "inputs": [
        {
          "internalType": "uint256",
          "name": "_troopTypeId",
          "type": "uint256"
        }
      ],
      "name": "_isArmy",
      "outputs": [
        {
          "internalType": "bool",
          "name": "",
          "type": "bool"
        }
      ],
      "stateMutability": "view",
      "type": "function"
    },
    {
      "inputs": [
        {
          "internalType": "uint256",
          "name": "_salt",
          "type": "uint256"
        },
        {
          "internalType": "uint256",
          "name": "_max",
          "type": "uint256"
        }
      ],
      "name": "_random",
      "outputs": [
        {
          "internalType": "uint256",
          "name": "",
          "type": "uint256"
        }
      ],
      "stateMutability": "view",
      "type": "function"
    },
    {
      "inputs": [
        {
          "components": [
            {
              "internalType": "uint256",
              "name": "x",
              "type": "uint256"
            },
            {
              "internalType": "uint256",
              "name": "y",
              "type": "uint256"
            }
          ],
          "internalType": "struct Position",
          "name": "_p1",
          "type": "tuple"
        },
        {
          "components": [
            {
              "internalType": "uint256",
              "name": "x",
              "type": "uint256"
            },
            {
              "internalType": "uint256",
              "name": "y",
              "type": "uint256"
            }
          ],
          "internalType": "struct Position",
          "name": "_p2",
          "type": "tuple"
        }
      ],
      "name": "_samePos",
      "outputs": [
        {
          "internalType": "bool",
          "name": "",
          "type": "bool"
        }
      ],
      "stateMutability": "pure",
      "type": "function"
    },
    {
      "inputs": [
        {
          "internalType": "uint256",
          "name": "_strikeFactor",
          "type": "uint256"
        }
      ],
      "name": "_strike",
      "outputs": [
        {
          "internalType": "bool",
          "name": "",
          "type": "bool"
        }
      ],
      "stateMutability": "view",
      "type": "function"
    },
    {
      "inputs": [
        {
          "components": [
            {
              "internalType": "uint256",
              "name": "x",
              "type": "uint256"
            },
            {
              "internalType": "uint256",
              "name": "y",
              "type": "uint256"
            }
          ],
          "internalType": "struct Position",
          "name": "_p1",
          "type": "tuple"
        },
        {
          "components": [
            {
              "internalType": "uint256",
              "name": "x",
              "type": "uint256"
            },
            {
              "internalType": "uint256",
              "name": "y",
              "type": "uint256"
            }
          ],
          "internalType": "struct Position",
          "name": "_p2",
          "type": "tuple"
        },
        {
          "internalType": "uint256",
          "name": "_dist",
          "type": "uint256"
        }
      ],
      "name": "_withinDist",
      "outputs": [
        {
          "internalType": "bool",
          "name": "",
          "type": "bool"
        }
      ],
      "stateMutability": "pure",
      "type": "function"
    }
  ],
  "bytecode": {
    "object": "0x610b6a61003a600b82828239805160001a60731461002d57634e487b7160e01b600052600060045260246000fd5b30600052607381538281f3fe730000000000000000000000000000000000000000301460806040526004361061014c5760003560e01c80639f7c43cd116100c2578063d7db199011610086578063d7db1990146102cb578063db301988146102de578063e9e3eaa1146102f1578063f45be7cd14610304578063faf3edd114610332578063ff4599671461034557600080fd5b80639f7c43cd1461026c578063a596a1061461027f578063a617deda14610292578063be1df32c146102a5578063d18036a9146102b857600080fd5b8063733f45a811610114578063733f45a8146101fa57806381959f8d1461020d57806383bcfd8b1461022057806387900eed146102335780638b92c968146102465780639f07295d1461025957600080fd5b806322510ee814610151578063304c0add14610177578063357de1eb146101995780633d8e5b30146101ac57806352b7390c146101d7575b600080fd5b61016461015f366004610a93565b610358565b6040519081526020015b60405180910390f35b81801561018357600080fd5b50610197610192366004610a93565b61037b565b005b6101646101a7366004610a93565b61050a565b6101bf6101ba366004610a93565b61052d565b6040516001600160a01b03909116815260200161016e565b6101ea6101e53660046109e6565b61055b565b604051901515815260200161016e565b610164610208366004610a93565b6105e8565b6101ea61021b366004610a93565b61060b565b61016461022e366004610a93565b610631565b610164610241366004610a93565b610654565b6101ea610254366004610a23565b610677565b610164610267366004610a93565b61068e565b61016461027a366004610a93565b6106b1565b6101bf61028d366004610a93565b6106d4565b6101646102a0366004610a93565b6106fd565b6101646102b3366004610a93565b610744565b6101ea6102c63660046109b2565b610767565b6101ea6102d9366004610a23565b610789565b6101646102ec366004610a93565b6107d6565b6101646102ff366004610aab565b6107f9565b610317610312366004610a93565b61083d565b6040805182518152602092830151928101929092520161016e565b6101ea610340366004610a93565b610889565b6101ea610353366004610997565b6108a4565b60006103626108df565b6000928352622dc6cc0160205250604090206003015490565b60006103856108df565b622dc6cf0160008381526020019081526020016000206007018054806020026020016040519081016040528092919081815260200182805480156103e857602002820191906000526020600020905b8154815260200190600101908083116103d4575b5050505050905060005b81518110156104a1576104036108df565b622dc6cf01600083838151811061042a57634e487b7160e01b600052603260045260246000fd5b6020908102919091018101518252810191909152604001600090812080546001600160a01b03191681556001810182905560028101829055600381018290556004810182905560058101829055600681018290559061048c6007830182610903565b5050808061049990610ae3565b9150506103f2565b506104aa6108df565b6000838152622dc6cf919091016020526040812080546001600160a01b0319168155600181018290556002810182905560038101829055600481018290556005810182905560068101829055906105046007830182610903565b50505050565b60006105146108df565b6000928352622dc6d10160205250604090206004015490565b60006105376108df565b6000928352622dc6cc0160205250604090205461010090046001600160a01b031690565b815183516000918291101561057d57845184516105789190610acc565b61058b565b8351855161058b9190610acc565b905060008460200151866020015110156105b857856020015185602001516105b39190610acc565b6105cc565b846020015186602001516105cc9190610acc565b90508382111580156105de5750838111155b9695505050505050565b60006105f26108df565b6000928352622dc6d10160205250604090206005015490565b60006106156108df565b6000928352622dc6d1016020525060409020600a015460ff1690565b600061063b6108df565b6000928352622dc6d10160205250604090206002015490565b600061065e6108df565b6000928352622dc6d10160205250604090206009015490565b60008061068783602001516106fd565b1192915050565b60006106986108df565b6000928352622dc6d10160205250604090206003015490565b60006106bb6108df565b6000928352622dc6d10160205250604090206001015490565b60006106de6108df565b6000928352622dc6cf016020525060409020546001600160a01b031690565b60006107076108df565b622dc6d10160006107166108df565b6000948552622dc6cf0160209081526040808620600101548352908201929092520190912060060154919050565b600061074e6108df565b6000928352622dc6d10160205250604090206007015490565b80518251600091148015610782575081602001518360200151145b9392505050565b6000806107946108df565b6040808501516000908152622dc6cc9290920160205290205460ff1660018111156107cf57634e487b7160e01b600052602160045260246000fd5b1492915050565b60006107e06108df565b6000928352622dc6d10160205250604090206008015490565b6040805142602082015244918101919091526060810183905260009082906080016040516020818303038152906040528051906020012060001c6107829190610afe565b60408051808201909152600080825260208201526108596108df565b6000928352622dc6cf01602090815260409283902083518085019094526005810154845260060154908301525090565b60006001816108998260646107f9565b939093109392505050565b60006108ae6108df565b6001015482511080156108bf575060015b80156108d957506108ce6108df565b600201546020830151105b92915050565b7f8d1bebda6a12a792ffba01f92494c5be0cd4ce8e2d8e46d2c616016d7e70fd2090565b50805460008255906000526020600020908101906109219190610924565b50565b5b808211156109395760008155600101610925565b5090565b60006040828403121561094e578081fd5b6040516040810181811067ffffffffffffffff8211171561097d57634e487b7160e01b83526041600452602483fd5b604052823581526020928301359281019290925250919050565b6000604082840312156109a8578081fd5b610782838361093d565b600080608083850312156109c4578081fd5b6109ce848461093d565b91506109dd846040850161093d565b90509250929050565b600080600060a084860312156109fa578081fd5b610a04858561093d565b9250610a13856040860161093d565b9150608084013590509250925092565b600060608284031215610a34578081fd5b6040516060810181811067ffffffffffffffff82111715610a6357634e487b7160e01b83526041600452602483fd5b604052823560038110610a74578283fd5b8152602083810135908201526040928301359281019290925250919050565b600060208284031215610aa4578081fd5b5035919050565b60008060408385031215610abd578182fd5b50508035926020909101359150565b600082821015610ade57610ade610b1e565b500390565b6000600019821415610af757610af7610b1e565b5060010190565b600082610b1957634e487b7160e01b81526012600452602481fd5b500690565b634e487b7160e01b600052601160045260246000fdfea2646970667358221220213f48aaa9d888091681b8b638ad57d15276a986587c049074876dfb3df8564164736f6c63430008040033",
    "linkReferences": {}
  },
  "methodIdentifiers": {
    "_getAttackCooldown(uint256)": "87900eed",
    "_getAttackFactor(uint256)": "357de1eb",
    "_getBaseHealth(uint256)": "22510ee8",
    "_getBaseOwner(uint256)": "3d8e5b30",
    "_getCargoCapacity(uint256)": "a617deda",
    "_getDamagePerHit(uint256)": "9f07295d",
    "_getDefenseFactor(uint256)": "733f45a8",
    "_getEpochsToProduce(uint256)": "be1df32c",
    "_getMaxHealth(uint256)": "83bcfd8b",
    "_getMovementCooldown(uint256)": "db301988",
    "_getSpeed(uint256)": "9f7c43cd",
    "_getTroopOwner(uint256)": "a596a106",
    "_getTroopPos(uint256)": "f45be7cd",
    "_hasPort(Tile)": "d7db1990",
    "_hasTroopTransport(Tile)": "8b92c968",
    "_inBound(Position)": "ff459967",
    "_isArmy(uint256)": "81959f8d",
    "_random(uint256,uint256)": "e9e3eaa1",
    "_removeTroop(uint256)": "304c0add",
    "_samePos(Position,Position)": "d18036a9",
    "_strike(uint256)": "faf3edd1",
    "_withinDist(Position,Position,uint256)": "52b7390c"
  },
  "id": 11
}