{
  "abi": [
    {
      "anonymous": false,
      "inputs": [
        {
          "indexed": false,
          "internalType": "address",
          "name": "_player",
          "type": "address"
        },
        {
          "indexed": false,
          "internalType": "uint256",
          "name": "_troopId",
          "type": "uint256"
        },
        {
          "components": [
            {
              "internalType": "address",
              "name": "owner",
              "type": "address"
            },
            {
              "internalType": "uint256",
              "name": "troopTypeId",
              "type": "uint256"
            },
            {
              "internalType": "uint256",
              "name": "lastMoved",
              "type": "uint256"
            },
            {
              "internalType": "uint256",
              "name": "movesLeftInEpoch",
              "type": "uint256"
            },
            {
              "internalType": "uint256",
              "name": "lastAttacked",
              "type": "uint256"
            },
            {
              "internalType": "uint256",
              "name": "lastRepaired",
              "type": "uint256"
            },
            {
              "internalType": "uint256",
              "name": "health",
              "type": "uint256"
            },
            {
              "components": [
                {
                  "internalType": "uint256",
                  "name": "x",
                  "type": "uint256"
                },
                {
                  "internalType": "uint256",
                  "name": "y",
                  "type": "uint256"
                }
              ],
              "internalType": "struct Position",
              "name": "pos",
              "type": "tuple"
            },
            {
              "internalType": "uint256[]",
              "name": "cargoTroopIds",
              "type": "uint256[]"
            }
          ],
          "indexed": false,
          "internalType": "struct Troop",
          "name": "_troopInfo",
          "type": "tuple"
        },
        {
          "indexed": false,
          "internalType": "uint256",
          "name": "_targetBaseId",
          "type": "uint256"
        },
        {
          "components": [
            {
              "internalType": "enum BASE_NAME",
              "name": "name",
              "type": "uint8"
            },
            {
              "internalType": "address",
              "name": "owner",
              "type": "address"
            },
            {
              "internalType": "uint256",
              "name": "attackFactor",
              "type": "uint256"
            },
            {
              "internalType": "uint256",
              "name": "defenseFactor",
              "type": "uint256"
            },
            {
              "internalType": "uint256",
              "name": "health",
              "type": "uint256"
            }
          ],
          "indexed": false,
          "internalType": "struct Base",
          "name": "_targetBaseInfo",
          "type": "tuple"
        }
      ],
      "name": "AttackedBase",
      "type": "event"
    },
    {
      "anonymous": false,
      "inputs": [
        {
          "indexed": false,
          "internalType": "address",
          "name": "_player",
          "type": "address"
        },
        {
          "indexed": false,
          "internalType": "uint256",
          "name": "_troopId",
          "type": "uint256"
        },
        {
          "components": [
            {
              "internalType": "address",
              "name": "owner",
              "type": "address"
            },
            {
              "internalType": "uint256",
              "name": "troopTypeId",
              "type": "uint256"
            },
            {
              "internalType": "uint256",
              "name": "lastMoved",
              "type": "uint256"
            },
            {
              "internalType": "uint256",
              "name": "movesLeftInEpoch",
              "type": "uint256"
            },
            {
              "internalType": "uint256",
              "name": "lastAttacked",
              "type": "uint256"
            },
            {
              "internalType": "uint256",
              "name": "lastRepaired",
              "type": "uint256"
            },
            {
              "internalType": "uint256",
              "name": "health",
              "type": "uint256"
            },
            {
              "components": [
                {
                  "internalType": "uint256",
                  "name": "x",
                  "type": "uint256"
                },
                {
                  "internalType": "uint256",
                  "name": "y",
                  "type": "uint256"
                }
              ],
              "internalType": "struct Position",
              "name": "pos",
              "type": "tuple"
            },
            {
              "internalType": "uint256[]",
              "name": "cargoTroopIds",
              "type": "uint256[]"
            }
          ],
          "indexed": false,
          "internalType": "struct Troop",
          "name": "_troopInfo",
          "type": "tuple"
        },
        {
          "indexed": false,
          "internalType": "uint256",
          "name": "_targetTroopId",
          "type": "uint256"
        },
        {
          "components": [
            {
              "internalType": "address",
              "name": "owner",
              "type": "address"
            },
            {
              "internalType": "uint256",
              "name": "troopTypeId",
              "type": "uint256"
            },
            {
              "internalType": "uint256",
              "name": "lastMoved",
              "type": "uint256"
            },
            {
              "internalType": "uint256",
              "name": "movesLeftInEpoch",
              "type": "uint256"
            },
            {
              "internalType": "uint256",
              "name": "lastAttacked",
              "type": "uint256"
            },
            {
              "internalType": "uint256",
              "name": "lastRepaired",
              "type": "uint256"
            },
            {
              "internalType": "uint256",
              "name": "health",
              "type": "uint256"
            },
            {
              "components": [
                {
                  "internalType": "uint256",
                  "name": "x",
                  "type": "uint256"
                },
                {
                  "internalType": "uint256",
                  "name": "y",
                  "type": "uint256"
                }
              ],
              "internalType": "struct Position",
              "name": "pos",
              "type": "tuple"
            },
            {
              "internalType": "uint256[]",
              "name": "cargoTroopIds",
              "type": "uint256[]"
            }
          ],
          "indexed": false,
          "internalType": "struct Troop",
          "name": "_targetTroopInfo",
          "type": "tuple"
        }
      ],
      "name": "AttackedTroop",
      "type": "event"
    },
    {
      "anonymous": false,
      "inputs": [
        {
          "indexed": false,
          "internalType": "address",
          "name": "_player",
          "type": "address"
        },
        {
          "indexed": false,
          "internalType": "uint256",
          "name": "_troopId",
          "type": "uint256"
        },
        {
          "indexed": false,
          "internalType": "uint256",
          "name": "_baseId",
          "type": "uint256"
        }
      ],
      "name": "BaseCaptured",
      "type": "event"
    },
    {
      "anonymous": false,
      "inputs": [
        {
          "indexed": false,
          "internalType": "address",
          "name": "_player",
          "type": "address"
        },
        {
          "indexed": false,
          "internalType": "uint256",
          "name": "_troopId",
          "type": "uint256"
        }
      ],
      "name": "Death",
      "type": "event"
    },
    {
      "anonymous": false,
      "inputs": [
        {
          "indexed": false,
          "internalType": "uint256",
          "name": "_epoch",
          "type": "uint256"
        },
        {
          "indexed": false,
          "internalType": "uint256",
          "name": "_time",
          "type": "uint256"
        }
      ],
      "name": "EpochUpdate",
      "type": "event"
    },
    {
      "anonymous": false,
      "inputs": [
        {
          "indexed": false,
          "internalType": "address",
          "name": "_player",
          "type": "address"
        },
        {
          "indexed": false,
          "internalType": "uint256",
          "name": "_troopId",
          "type": "uint256"
        },
        {
          "components": [
            {
              "internalType": "uint256",
              "name": "x",
              "type": "uint256"
            },
            {
              "internalType": "uint256",
              "name": "y",
              "type": "uint256"
            }
          ],
          "indexed": false,
          "internalType": "struct Position",
          "name": "_pos",
          "type": "tuple"
        }
      ],
      "name": "Moved",
      "type": "event"
    },
    {
      "anonymous": false,
      "inputs": [
        {
          "indexed": false,
          "internalType": "address",
          "name": "_player",
          "type": "address"
        },
        {
          "components": [
            {
              "internalType": "uint256",
              "name": "x",
              "type": "uint256"
            },
            {
              "internalType": "uint256",
              "name": "y",
              "type": "uint256"
            }
          ],
          "indexed": false,
          "internalType": "struct Position",
          "name": "_pos",
          "type": "tuple"
        }
      ],
      "name": "NewPlayer",
      "type": "event"
    },
    {
      "anonymous": false,
      "inputs": [
        {
          "indexed": false,
          "internalType": "address",
          "name": "_player",
          "type": "address"
        },
        {
          "indexed": false,
          "internalType": "uint256",
          "name": "_troopId",
          "type": "uint256"
        },
        {
          "components": [
            {
              "internalType": "address",
              "name": "owner",
              "type": "address"
            },
            {
              "internalType": "uint256",
              "name": "troopTypeId",
              "type": "uint256"
            },
            {
              "internalType": "uint256",
              "name": "lastMoved",
              "type": "uint256"
            },
            {
              "internalType": "uint256",
              "name": "movesLeftInEpoch",
              "type": "uint256"
            },
            {
              "internalType": "uint256",
              "name": "lastAttacked",
              "type": "uint256"
            },
            {
              "internalType": "uint256",
              "name": "lastRepaired",
              "type": "uint256"
            },
            {
              "internalType": "uint256",
              "name": "health",
              "type": "uint256"
            },
            {
              "components": [
                {
                  "internalType": "uint256",
                  "name": "x",
                  "type": "uint256"
                },
                {
                  "internalType": "uint256",
                  "name": "y",
                  "type": "uint256"
                }
              ],
              "internalType": "struct Position",
              "name": "pos",
              "type": "tuple"
            },
            {
              "internalType": "uint256[]",
              "name": "cargoTroopIds",
              "type": "uint256[]"
            }
          ],
          "indexed": false,
          "internalType": "struct Troop",
          "name": "_troop",
          "type": "tuple"
        },
        {
          "components": [
            {
              "internalType": "uint256",
              "name": "x",
              "type": "uint256"
            },
            {
              "internalType": "uint256",
              "name": "y",
              "type": "uint256"
            }
          ],
          "indexed": false,
          "internalType": "struct Position",
          "name": "_pos",
          "type": "tuple"
        }
      ],
      "name": "NewTroop",
      "type": "event"
    },
    {
      "anonymous": false,
      "inputs": [
        {
          "indexed": false,
          "internalType": "address",
          "name": "_player",
          "type": "address"
        },
        {
          "indexed": false,
          "internalType": "uint256",
          "name": "_baseId",
          "type": "uint256"
        },
        {
          "components": [
            {
              "internalType": "uint256",
              "name": "troopTypeId",
              "type": "uint256"
            },
            {
              "internalType": "uint256",
              "name": "startEpoch",
              "type": "uint256"
            }
          ],
          "indexed": false,
          "internalType": "struct Production",
          "name": "_production",
          "type": "tuple"
        }
      ],
      "name": "ProductionStarted",
      "type": "event"
    },
    {
      "anonymous": false,
      "inputs": [
        {
          "indexed": false,
          "internalType": "address",
          "name": "_player",
          "type": "address"
        },
        {
          "indexed": false,
          "internalType": "uint256",
          "name": "_troopId",
          "type": "uint256"
        }
      ],
      "name": "Recovered",
      "type": "event"
    },
    {
      "anonymous": false,
      "inputs": [
        {
          "indexed": false,
          "internalType": "address",
          "name": "_player",
          "type": "address"
        },
        {
          "indexed": false,
          "internalType": "uint256",
          "name": "_troopId",
          "type": "uint256"
        },
        {
          "indexed": false,
          "internalType": "uint256",
          "name": "_health",
          "type": "uint256"
        }
      ],
      "name": "Repaired",
      "type": "event"
    },
    {
      "inputs": [
        {
          "internalType": "uint256",
          "name": "_troopTypeId",
          "type": "uint256"
        }
      ],
      "name": "_getAttackCooldown",
      "outputs": [
        {
          "internalType": "uint256",
          "name": "",
          "type": "uint256"
        }
      ],
      "stateMutability": "view",
      "type": "function"
    },
    {
      "inputs": [
        {
          "internalType": "uint256",
          "name": "_troopTypeId",
          "type": "uint256"
        }
      ],
      "name": "_getAttackFactor",
      "outputs": [
        {
          "internalType": "uint256",
          "name": "",
          "type": "uint256"
        }
      ],
      "stateMutability": "view",
      "type": "function"
    },
    {
      "inputs": [
        {
          "internalType": "uint256",
          "name": "_id",
          "type": "uint256"
        }
      ],
      "name": "_getBase",
      "outputs": [
        {
          "components": [
            {
              "internalType": "enum BASE_NAME",
              "name": "name",
              "type": "BASE_NAME"
            },
            {
              "internalType": "address",
              "name": "owner",
              "type": "address"
            },
            {
              "internalType": "uint256",
              "name": "attackFactor",
              "type": "uint256"
            },
            {
              "internalType": "uint256",
              "name": "defenseFactor",
              "type": "uint256"
            },
            {
              "internalType": "uint256",
              "name": "health",
              "type": "uint256"
            }
          ],
          "internalType": "struct Base",
          "name": "",
          "type": "tuple"
        }
      ],
      "stateMutability": "view",
      "type": "function"
    },
    {
      "inputs": [
        {
          "internalType": "uint256",
          "name": "_baseId",
          "type": "uint256"
        }
      ],
      "name": "_getBaseHealth",
      "outputs": [
        {
          "internalType": "uint256",
          "name": "",
          "type": "uint256"
        }
      ],
      "stateMutability": "view",
      "type": "function"
    },
    {
      "inputs": [
        {
          "internalType": "uint256",
          "name": "_baseId",
          "type": "uint256"
        }
      ],
      "name": "_getBaseOwner",
      "outputs": [
        {
          "internalType": "address",
          "name": "",
          "type": "address"
        }
      ],
      "stateMutability": "view",
      "type": "function"
    },
    {
      "inputs": [
        {
          "internalType": "uint256",
          "name": "_troopId",
          "type": "uint256"
        }
      ],
      "name": "_getCargoCapacity",
      "outputs": [
        {
          "internalType": "uint256",
          "name": "",
          "type": "uint256"
        }
      ],
      "stateMutability": "view",
      "type": "function"
    },
    {
      "inputs": [
        {
          "internalType": "uint256",
          "name": "_troopTypeId",
          "type": "uint256"
        }
      ],
      "name": "_getDamagePerHit",
      "outputs": [
        {
          "internalType": "uint256",
          "name": "",
          "type": "uint256"
        }
      ],
      "stateMutability": "view",
      "type": "function"
    },
    {
      "inputs": [
        {
          "internalType": "uint256",
          "name": "_troopTypeId",
          "type": "uint256"
        }
      ],
      "name": "_getDefenseFactor",
      "outputs": [
        {
          "internalType": "uint256",
          "name": "",
          "type": "uint256"
        }
      ],
      "stateMutability": "view",
      "type": "function"
    },
    {
      "inputs": [
        {
          "internalType": "uint256",
          "name": "_troopTypeId",
          "type": "uint256"
        }
      ],
      "name": "_getEpochsToProduce",
      "outputs": [
        {
          "internalType": "uint256",
          "name": "",
          "type": "uint256"
        }
      ],
      "stateMutability": "view",
      "type": "function"
    },
    {
      "inputs": [
        {
          "internalType": "uint256",
          "name": "_troopTypeId",
          "type": "uint256"
        }
      ],
      "name": "_getMaxHealth",
      "outputs": [
        {
          "internalType": "uint256",
          "name": "",
          "type": "uint256"
        }
      ],
      "stateMutability": "view",
      "type": "function"
    },
    {
      "inputs": [
        {
          "internalType": "uint256",
          "name": "_troopTypeId",
          "type": "uint256"
        }
      ],
      "name": "_getMovementCooldown",
      "outputs": [
        {
          "internalType": "uint256",
          "name": "",
          "type": "uint256"
        }
      ],
      "stateMutability": "view",
      "type": "function"
    },
    {
      "inputs": [
        {
          "internalType": "uint256",
          "name": "_troopTypeId",
          "type": "uint256"
        }
      ],
      "name": "_getMovesPerEpoch",
      "outputs": [
        {
          "internalType": "uint256",
          "name": "",
          "type": "uint256"
        }
      ],
      "stateMutability": "view",
      "type": "function"
    },
    {
      "inputs": [
        {
          "components": [
            {
              "internalType": "uint256",
              "name": "x",
              "type": "uint256"
            },
            {
              "internalType": "uint256",
              "name": "y",
              "type": "uint256"
            }
          ],
          "internalType": "struct Position",
          "name": "_pos",
          "type": "tuple"
        }
      ],
      "name": "_getTileAt",
      "outputs": [
        {
          "components": [
            {
              "internalType": "enum TERRAIN",
              "name": "terrain",
              "type": "TERRAIN"
            },
            {
              "internalType": "uint256",
              "name": "occupantId",
              "type": "uint256"
            },
            {
              "internalType": "uint256",
              "name": "baseId",
              "type": "uint256"
            }
          ],
          "internalType": "struct Tile",
          "name": "",
          "type": "tuple"
        }
      ],
      "stateMutability": "view",
      "type": "function"
    },
    {
      "inputs": [
        {
          "internalType": "uint256",
          "name": "_troopId",
          "type": "uint256"
        }
      ],
      "name": "_getTroop",
      "outputs": [
        {
          "components": [
            {
              "internalType": "address",
              "name": "owner",
              "type": "address"
            },
            {
              "internalType": "uint256",
              "name": "troopTypeId",
              "type": "uint256"
            },
            {
              "internalType": "uint256",
              "name": "lastMoved",
              "type": "uint256"
            },
            {
              "internalType": "uint256",
              "name": "movesLeftInEpoch",
              "type": "uint256"
            },
            {
              "internalType": "uint256",
              "name": "lastAttacked",
              "type": "uint256"
            },
            {
              "internalType": "uint256",
              "name": "lastRepaired",
              "type": "uint256"
            },
            {
              "internalType": "uint256",
              "name": "health",
              "type": "uint256"
            },
            {
              "components": [
                {
                  "internalType": "uint256",
                  "name": "x",
                  "type": "uint256"
                },
                {
                  "internalType": "uint256",
                  "name": "y",
                  "type": "uint256"
                }
              ],
              "internalType": "struct Position",
              "name": "pos",
              "type": "tuple"
            },
            {
              "internalType": "uint256[]",
              "name": "cargoTroopIds",
              "type": "uint256[]"
            }
          ],
          "internalType": "struct Troop",
          "name": "",
          "type": "tuple"
        }
      ],
      "stateMutability": "view",
      "type": "function"
    },
    {
      "inputs": [
        {
          "components": [
            {
              "internalType": "enum TERRAIN",
              "name": "terrain",
              "type": "TERRAIN"
            },
            {
              "internalType": "uint256",
              "name": "occupantId",
              "type": "uint256"
            },
            {
              "internalType": "uint256",
              "name": "baseId",
              "type": "uint256"
            }
          ],
          "internalType": "struct Tile",
          "name": "_tile",
          "type": "tuple"
        }
      ],
      "name": "_hasPort",
      "outputs": [
        {
          "internalType": "bool",
          "name": "",
          "type": "bool"
        }
      ],
      "stateMutability": "view",
      "type": "function"
    },
    {
      "inputs": [
        {
          "components": [
            {
              "internalType": "enum TERRAIN",
              "name": "terrain",
              "type": "TERRAIN"
            },
            {
              "internalType": "uint256",
              "name": "occupantId",
              "type": "uint256"
            },
            {
              "internalType": "uint256",
              "name": "baseId",
              "type": "uint256"
            }
          ],
          "internalType": "struct Tile",
          "name": "_tile",
          "type": "tuple"
        }
      ],
      "name": "_hasTroopTransport",
      "outputs": [
        {
          "internalType": "bool",
          "name": "",
          "type": "bool"
        }
      ],
      "stateMutability": "view",
      "type": "function"
    },
    {
      "inputs": [
        {
          "components": [
            {
              "internalType": "uint256",
              "name": "x",
              "type": "uint256"
            },
            {
              "internalType": "uint256",
              "name": "y",
              "type": "uint256"
            }
          ],
          "internalType": "struct Position",
          "name": "_p",
          "type": "tuple"
        }
      ],
      "name": "_inBound",
      "outputs": [
        {
          "internalType": "bool",
          "name": "",
          "type": "bool"
        }
      ],
      "stateMutability": "view",
      "type": "function"
    },
    {
      "inputs": [
        {
          "internalType": "uint256",
          "name": "_troopTypeId",
          "type": "uint256"
        }
      ],
      "name": "_isLandTroop",
      "outputs": [
        {
          "internalType": "bool",
          "name": "",
          "type": "bool"
        }
      ],
      "stateMutability": "view",
      "type": "function"
    },
    {
      "inputs": [
        {
          "internalType": "uint256",
          "name": "_max",
          "type": "uint256"
        }
      ],
      "name": "_random",
      "outputs": [
        {
          "internalType": "uint256",
          "name": "",
          "type": "uint256"
        }
      ],
      "stateMutability": "view",
      "type": "function"
    },
    {
      "inputs": [
        {
          "components": [
            {
              "internalType": "uint256",
              "name": "x",
              "type": "uint256"
            },
            {
              "internalType": "uint256",
              "name": "y",
              "type": "uint256"
            }
          ],
          "internalType": "struct Position",
          "name": "_p1",
          "type": "tuple"
        },
        {
          "components": [
            {
              "internalType": "uint256",
              "name": "x",
              "type": "uint256"
            },
            {
              "internalType": "uint256",
              "name": "y",
              "type": "uint256"
            }
          ],
          "internalType": "struct Position",
          "name": "_p2",
          "type": "tuple"
        }
      ],
      "name": "_samePos",
      "outputs": [
        {
          "internalType": "bool",
          "name": "",
          "type": "bool"
        }
      ],
      "stateMutability": "pure",
      "type": "function"
    },
    {
      "inputs": [
        {
          "internalType": "uint256",
          "name": "_strikeFactor",
          "type": "uint256"
        }
      ],
      "name": "_strike",
      "outputs": [
        {
          "internalType": "bool",
          "name": "",
          "type": "bool"
        }
      ],
      "stateMutability": "view",
      "type": "function"
    },
    {
      "inputs": [
        {
          "components": [
            {
              "internalType": "uint256",
              "name": "x",
              "type": "uint256"
            },
            {
              "internalType": "uint256",
              "name": "y",
              "type": "uint256"
            }
          ],
          "internalType": "struct Position",
          "name": "_p1",
          "type": "tuple"
        },
        {
          "components": [
            {
              "internalType": "uint256",
              "name": "x",
              "type": "uint256"
            },
            {
              "internalType": "uint256",
              "name": "y",
              "type": "uint256"
            }
          ],
          "internalType": "struct Position",
          "name": "_p2",
          "type": "tuple"
        },
        {
          "internalType": "uint256",
          "name": "_dist",
          "type": "uint256"
        }
      ],
      "name": "_withinDist",
      "outputs": [
        {
          "internalType": "bool",
          "name": "",
          "type": "bool"
        }
      ],
      "stateMutability": "pure",
      "type": "function"
    }
  ],
  "bytecode": {
    "object": "0x61170b61003a600b82828239805160001a60731461002d57634e487b7160e01b600052600060045260246000fd5b30600052607381538281f3fe730000000000000000000000000000000000000000301460806040526004361061017d5760003560e01c80638b92c968116100e8578063d18036a9116100a1578063db3019881161007b578063db3019881461039d578063e7a0fcec146103b0578063faf3edd1146103d0578063ff459967146103e357600080fd5b8063d18036a914610364578063d7db199014610377578063d7eeafa31461038a57600080fd5b80638b92c968146102e55780639743bddd146102f85780639f07295d14610318578063a617deda1461032b578063ab8d002e1461033e578063be1df32c1461035157600080fd5b806352b7390c1161013a57806352b7390c14610247578063733f45a81461026a57806383bcfd8b1461027d578063877fbaf11461029057806387900eed146102b257806388c6a074146102c557600080fd5b8063046d30c71461018257806322510ee8146101a857806332eb443c146101bb578063342a4123146101e9578063357de1eb146102095780633d8e5b301461021c575b600080fd5b610195610190366004611430565b6103f6565b6040519081526020015b60405180910390f35b6101956101b6366004611430565b610443565b8180156101c757600080fd5b506101db6101d6366004611375565b610466565b60405161019f9291906115a8565b6101fc6101f7366004611285565b61074f565b60405161019f9190611560565b610195610217366004611430565b610844565b61022f61022a366004611430565b610867565b6040516001600160a01b03909116815260200161019f565b61025a61025536600461130e565b610895565b604051901515815260200161019f565b610195610278366004611430565b61091f565b61019561028b366004611430565b610942565b81801561029c57600080fd5b506102b06102ab36600461134b565b610965565b005b6101956102c0366004611430565b610b74565b6102d86102d3366004611430565b610b97565b60405161019f919061150f565b61025a6102f33660046113c0565b610c7c565b61030b610306366004611430565b610c93565b60405161019f9190611595565b610195610326366004611430565b610d87565b610195610339366004611430565b610daa565b61025a61034c366004611430565b610df1565b61019561035f366004611430565b610e17565b61025a6103723660046112da565b610e3a565b61025a6103853660046113c0565b610e5c565b610195610398366004611430565b610ea9565b6101956103ab366004611430565b610ecc565b8180156103bc57600080fd5b506101956103cb3660046112a0565b610eef565b61025a6103de366004611430565b6110a4565b61025a6103f1366004611285565b6110dc565b6000814244610403611116565b622dc6d00160405160200161041a939291906115c9565b6040516020818303038152906040528051906020012060001c61043d9190611689565b92915050565b600061044d611116565b6000928352622dc6cf0160205250604090206003015490565b600061047061113a565b60606000604051806101200160405280866001600160a01b0316815260200187815260200161049d611116565b622dc6ca015481526020016104b188610ea9565b81526020016104be611116565b622dc6ca015481526020016104d1611116565b622dc6ca015481526020016104e588610942565b81526020018881526020018381525090506000610500611116565b622dc6d101549050610510611116565b622dc6d0018054600181018255600091825260209091200181905581610534611116565b6000838152622dc6d2919091016020908152604091829020835181546001600160a01b0319166001600160a01b03909116178155838201516001820155918301516002830155606083015160038301556080830151600483015560a0830151600583015560c0830151600683015560e083015180516007840155810151600883015561010083015180516105ce92600985019201906111aa565b509050506105da611116565b622dc6d10180549060006105ed8361166e565b9190505550806105fb611116565b600a0189600001516103e8811061062257634e487b7160e01b600052603260045260246000fd5b610bb8020189602001516103e8811061064b57634e487b7160e01b600052603260045260246000fd5b60030201600101819055508061065f611116565b6000838152622dc6d291909101602090815260409182902082516101208101845281546001600160a01b031681526001820154818401526002820154818501526003820154606082015260048201546080820152600582015460a0820152600682015460c0820152835180850185526007830154815260088301548185015260e0820152600982018054855181860281018601909652808652929491938593610100860193929183018282801561073557602002820191906000526020600020905b815481526020019060010190808311610721575b505050505081525050905094509450505050935093915050565b6107746040805160608101909152806000815260200160008152602001600081525090565b61077c611116565b600a0182600001516103e881106107a357634e487b7160e01b600052603260045260246000fd5b610bb8020182602001516103e881106107cc57634e487b7160e01b600052603260045260246000fd5b6040805160608101909152600391909102919091018054829060ff16600281111561080757634e487b7160e01b600052602160045260246000fd5b600281111561082657634e487b7160e01b600052602160045260246000fd5b81526001820154602082015260029091015460409091015292915050565b600061084e611116565b6000928352622dc6d40160205250604090206004015490565b6000610871611116565b6000928352622dc6cf0160205250604090205461010090046001600160a01b031690565b81518351600091829110156108b757845184516108b29190611657565b6108c5565b835185516108c59190611657565b905060008460200151866020015110156108f257856020015185602001516108ed9190611657565b610906565b846020015186602001516109069190611657565b9050836109138284611620565b11159695505050505050565b6000610929611116565b6000928352622dc6d40160205250604090206005015490565b600061094c611116565b6000928352622dc6d40160205250604090206002015490565b600061096f611116565b622dc6d20160008381526020019081526020016000206009018054806020026020016040519081016040528092919081815260200182805480156109d257602002820191906000526020600020905b8154815260200190600101908083116109be575b5050505050905060005b8151811015610a99576109ed611116565b622dc6d2016000838381518110610a1457634e487b7160e01b600052603260045260246000fd5b6020908102919091018101518252810191909152604001600090812080546001600160a01b0319168155600181018290556002810182905560038101829055600481018290556005810182905560068101829055600781018290556008810182905590610a8460098301826111f5565b50508080610a919061166e565b9150506109dc565b50610aa2611116565b6000838152622dc6d2919091016020526040812080546001600160a01b0319168155600181018290556002810182905560038101829055600481018290556005810182905560068101829055600781018290556008810182905590610b0a60098301826111f5565b5050610b14611116565b600a0183600001516103e88110610b3b57634e487b7160e01b600052603260045260246000fd5b610bb8020183602001516103e88110610b6457634e487b7160e01b600052603260045260246000fd5b6003020160010160009055505050565b6000610b7e611116565b6000928352622dc6d40160205250604090206009015490565b610bd36040805160a08101909152806000815260200160006001600160a01b031681526020016000815260200160008152602001600081525090565b610bdb611116565b6000838152622dc6cf91909101602052604090819020815160a081019092528054829060ff166001811115610c2057634e487b7160e01b600052602160045260246000fd5b6001811115610c3f57634e487b7160e01b600052602160045260246000fd5b8152815461010090046001600160a01b03166020820152600182015460408201526002820154606082015260039091015460809091015292915050565b600080610c8c8360200151610daa565b1192915050565b610c9b61113a565b610ca3611116565b6000838152622dc6d291909101602090815260409182902082516101208101845281546001600160a01b031681526001820154818401526002820154818501526003820154606082015260048201546080820152600582015460a0820152600682015460c0820152835180850185526007830154815260088301548185015260e0820152600982018054855181860281018601909652808652919492936101008601939290830182828015610d7757602002820191906000526020600020905b815481526020019060010190808311610d63575b5050505050815250509050919050565b6000610d91611116565b6000928352622dc6d40160205250604090206003015490565b6000610db4611116565b622dc6d4016000610dc3611116565b6000948552622dc6d20160209081526040808620600101548352908201929092520190912060060154919050565b6000610dfb611116565b6000928352622dc6d4016020525060409020600a015460ff1690565b6000610e21611116565b6000928352622dc6d40160205250604090206007015490565b80518251600091148015610e55575081602001518360200151145b9392505050565b600080610e67611116565b6040808501516000908152622dc6cf9290920160205290205460ff166001811115610ea257634e487b7160e01b600052602160045260246000fd5b1492915050565b6000610eb3611116565b6000928352622dc6d40160205250604090206001015490565b6000610ed6611116565b6000928352622dc6d40160205250604090206008015490565b6000806040518060a00160405280846001811115610f1d57634e487b7160e01b600052602160045260246000fd5b815260200160006001600160a01b031681526020016064815260200160648152602001600181525090506000610f51611116565b622dc6ce01549050610f61611116565b622dc6cd018054600181018255600091825260209091200181905581610f85611116565b6000838152622dc6cf919091016020526040902081518154829060ff191660018381811115610fc457634e487b7160e01b600052602160045260246000fd5b0217905550602082015181546001600160a01b0390911661010002610100600160a81b031990911617815560408201516001808301919091556060830151600283015560809092015160039091015561101b611116565b622dc6ce01600082825461102f9190611620565b9091555081905061103e611116565b600a0186600001516103e8811061106557634e487b7160e01b600052603260045260246000fd5b610bb8020186602001516103e8811061108e57634e487b7160e01b600052603260045260246000fd5b6003020160020181905550809250505092915050565b6000806110b160646103f6565b90506110bb611116565b600701546110c99084611638565b6110d4826064611638565b109392505050565b60006110e6611116565b6001015482511080156110f7575060015b801561043d5750611106611116565b6002015460208301511092915050565b7f8d1bebda6a12a792ffba01f92494c5be0cd4ce8e2d8e46d2c616016d7e70fd2090565b60405180610120016040528060006001600160a01b0316815260200160008152602001600081526020016000815260200160008152602001600081526020016000815260200161119d604051806040016040528060008152602001600081525090565b8152602001606081525090565b8280548282559060005260206000209081019282156111e5579160200282015b828111156111e55782518255916020019190600101906111ca565b506111f1929150611216565b5090565b50805460008255906000526020600020908101906112139190611216565b50565b5b808211156111f15760008155600101611217565b60006040828403121561123c578081fd5b6040516040810181811067ffffffffffffffff8211171561126b57634e487b7160e01b83526041600452602483fd5b604052823581526020928301359281019290925250919050565b600060408284031215611296578081fd5b610e55838361122b565b600080606083850312156112b2578081fd5b6112bc848461122b565b91506040830135600281106112cf578182fd5b809150509250929050565b600080608083850312156112ec578182fd5b6112f6848461122b565b9150611305846040850161122b565b90509250929050565b600080600060a08486031215611322578081fd5b61132c858561122b565b925061133b856040860161122b565b9150608084013590509250925092565b6000806060838503121561135d578182fd5b611367848461122b565b946040939093013593505050565b600080600060808486031215611389578283fd5b611393858561122b565b92506040840135915060608401356001600160a01b03811681146113b5578182fd5b809150509250925092565b6000606082840312156113d1578081fd5b6040516060810181811067ffffffffffffffff8211171561140057634e487b7160e01b83526041600452602483fd5b604052823560038110611411578283fd5b8152602083810135908201526040928301359281019290925250919050565b600060208284031215611441578081fd5b5035919050565b6000815180845260208085019450808401835b838110156114775781518752958201959082019060010161145b565b509495945050505050565b80516001600160a01b0316825260006101406020830151602085015260408301516040850152606083015160608501526080830151608085015260a083015160a085015260c083015160c085015260e08301516114ec60e086018280518252602090810151910152565b506101008301518161012086015261150682860182611448565b95945050505050565b815160a082019060028110611526576115266116bf565b82526020838101516001600160a01b0316908301526040808401519083015260608084015190830152608092830151929091019190915290565b8151606082019060038110611577576115776116bf565b80835250602083015160208301526040830151604083015292915050565b602081526000610e556020830184611482565b8281526040602082015260006115c16040830184611482565b949350505050565b60006060820185835260208581850152606060408501528185548084526080860191508685528285209350845b81811015611612578454835260019485019492840192016115f6565b509098975050505050505050565b60008219821115611633576116336116a9565b500190565b6000816000190483118215151615611652576116526116a9565b500290565b600082821015611669576116696116a9565b500390565b6000600019821415611682576116826116a9565b5060010190565b6000826116a457634e487b7160e01b81526012600452602481fd5b500690565b634e487b7160e01b600052601160045260246000fd5b634e487b7160e01b600052602160045260246000fdfea2646970667358221220b7c65f810cf240061fa38ed7d9f87cf72340de848c43f623670936c475e7ef2e64736f6c63430008040033",
    "linkReferences": {}
  },
  "methodIdentifiers": {
    "_addBase(Position,BASE_NAME)": "e7a0fcec",
    "_addTroop(Position,uint256,address)": "32eb443c",
    "_getAttackCooldown(uint256)": "87900eed",
    "_getAttackFactor(uint256)": "357de1eb",
    "_getBase(uint256)": "88c6a074",
    "_getBaseHealth(uint256)": "22510ee8",
    "_getBaseOwner(uint256)": "3d8e5b30",
    "_getCargoCapacity(uint256)": "a617deda",
    "_getDamagePerHit(uint256)": "9f07295d",
    "_getDefenseFactor(uint256)": "733f45a8",
    "_getEpochsToProduce(uint256)": "be1df32c",
    "_getMaxHealth(uint256)": "83bcfd8b",
    "_getMovementCooldown(uint256)": "db301988",
    "_getMovesPerEpoch(uint256)": "d7eeafa3",
    "_getTileAt(Position)": "342a4123",
    "_getTroop(uint256)": "9743bddd",
    "_hasPort(Tile)": "d7db1990",
    "_hasTroopTransport(Tile)": "8b92c968",
    "_inBound(Position)": "ff459967",
    "_isLandTroop(uint256)": "ab8d002e",
    "_random(uint256)": "046d30c7",
    "_removeTroop(Position,uint256)": "877fbaf1",
    "_samePos(Position,Position)": "d18036a9",
    "_strike(uint256)": "faf3edd1",
    "_withinDist(Position,Position,uint256)": "52b7390c"
  },
  "id": 10
}