{
  "abi": [
    {
      "inputs": [
        {
          "internalType": "uint256",
          "name": "_troopTypeId",
          "type": "uint256"
        }
      ],
      "name": "_getAttackCooldown",
      "outputs": [
        {
          "internalType": "uint256",
          "name": "",
          "type": "uint256"
        }
      ],
      "stateMutability": "view",
      "type": "function"
    },
    {
      "inputs": [
        {
          "internalType": "uint256",
          "name": "_troopTypeId",
          "type": "uint256"
        }
      ],
      "name": "_getAttackFactor",
      "outputs": [
        {
          "internalType": "uint256",
          "name": "",
          "type": "uint256"
        }
      ],
      "stateMutability": "view",
      "type": "function"
    },
    {
      "inputs": [
        {
          "internalType": "uint256",
          "name": "_baseId",
          "type": "uint256"
        }
      ],
      "name": "_getBaseHealth",
      "outputs": [
        {
          "internalType": "uint256",
          "name": "",
          "type": "uint256"
        }
      ],
      "stateMutability": "view",
      "type": "function"
    },
    {
      "inputs": [
        {
          "internalType": "uint256",
          "name": "_baseId",
          "type": "uint256"
        }
      ],
      "name": "_getBaseOwner",
      "outputs": [
        {
          "internalType": "address",
          "name": "",
          "type": "address"
        }
      ],
      "stateMutability": "view",
      "type": "function"
    },
    {
      "inputs": [
        {
          "internalType": "uint256",
          "name": "_troopId",
          "type": "uint256"
        }
      ],
      "name": "_getCargoCapacity",
      "outputs": [
        {
          "internalType": "uint256",
          "name": "",
          "type": "uint256"
        }
      ],
      "stateMutability": "view",
      "type": "function"
    },
    {
      "inputs": [
        {
          "internalType": "uint256",
          "name": "_troopTypeId",
          "type": "uint256"
        }
      ],
      "name": "_getDamagePerHit",
      "outputs": [
        {
          "internalType": "uint256",
          "name": "",
          "type": "uint256"
        }
      ],
      "stateMutability": "view",
      "type": "function"
    },
    {
      "inputs": [
        {
          "internalType": "uint256",
          "name": "_troopTypeId",
          "type": "uint256"
        }
      ],
      "name": "_getDefenseFactor",
      "outputs": [
        {
          "internalType": "uint256",
          "name": "",
          "type": "uint256"
        }
      ],
      "stateMutability": "view",
      "type": "function"
    },
    {
      "inputs": [
        {
          "internalType": "uint256",
          "name": "_troopTypeId",
          "type": "uint256"
        }
      ],
      "name": "_getEpochsToProduce",
      "outputs": [
        {
          "internalType": "uint256",
          "name": "",
          "type": "uint256"
        }
      ],
      "stateMutability": "view",
      "type": "function"
    },
    {
      "inputs": [
        {
          "internalType": "uint256",
          "name": "_troopTypeId",
          "type": "uint256"
        }
      ],
      "name": "_getMaxHealth",
      "outputs": [
        {
          "internalType": "uint256",
          "name": "",
          "type": "uint256"
        }
      ],
      "stateMutability": "view",
      "type": "function"
    },
    {
      "inputs": [
        {
          "internalType": "uint256",
          "name": "_troopTypeId",
          "type": "uint256"
        }
      ],
      "name": "_getMovementCooldown",
      "outputs": [
        {
          "internalType": "uint256",
          "name": "",
          "type": "uint256"
        }
      ],
      "stateMutability": "view",
      "type": "function"
    },
    {
      "inputs": [
        {
          "internalType": "uint256",
          "name": "_troopTypeId",
          "type": "uint256"
        }
      ],
      "name": "_getMovesPerEpoch",
      "outputs": [
        {
          "internalType": "uint256",
          "name": "",
          "type": "uint256"
        }
      ],
      "stateMutability": "view",
      "type": "function"
    },
    {
      "inputs": [
        {
          "components": [
            {
              "internalType": "uint256",
              "name": "x",
              "type": "uint256"
            },
            {
              "internalType": "uint256",
              "name": "y",
              "type": "uint256"
            }
          ],
          "internalType": "struct Position",
          "name": "_pos",
          "type": "tuple"
        }
      ],
      "name": "_getTileAt",
      "outputs": [
        {
          "components": [
            {
              "internalType": "enum TERRAIN",
              "name": "terrain",
              "type": "TERRAIN"
            },
            {
              "internalType": "uint256",
              "name": "occupantId",
              "type": "uint256"
            },
            {
              "internalType": "uint256",
              "name": "baseId",
              "type": "uint256"
            }
          ],
          "internalType": "struct Tile",
          "name": "",
          "type": "tuple"
        }
      ],
      "stateMutability": "view",
      "type": "function"
    },
    {
      "inputs": [
        {
          "internalType": "uint256",
          "name": "_troopId",
          "type": "uint256"
        }
      ],
      "name": "_getTroopOwner",
      "outputs": [
        {
          "internalType": "address",
          "name": "",
          "type": "address"
        }
      ],
      "stateMutability": "view",
      "type": "function"
    },
    {
      "inputs": [
        {
          "internalType": "uint256",
          "name": "_troopId",
          "type": "uint256"
        }
      ],
      "name": "_getTroopPos",
      "outputs": [
        {
          "components": [
            {
              "internalType": "uint256",
              "name": "x",
              "type": "uint256"
            },
            {
              "internalType": "uint256",
              "name": "y",
              "type": "uint256"
            }
          ],
          "internalType": "struct Position",
          "name": "",
          "type": "tuple"
        }
      ],
      "stateMutability": "view",
      "type": "function"
    },
    {
      "inputs": [
        {
          "components": [
            {
              "internalType": "enum TERRAIN",
              "name": "terrain",
              "type": "TERRAIN"
            },
            {
              "internalType": "uint256",
              "name": "occupantId",
              "type": "uint256"
            },
            {
              "internalType": "uint256",
              "name": "baseId",
              "type": "uint256"
            }
          ],
          "internalType": "struct Tile",
          "name": "_tile",
          "type": "tuple"
        }
      ],
      "name": "_hasPort",
      "outputs": [
        {
          "internalType": "bool",
          "name": "",
          "type": "bool"
        }
      ],
      "stateMutability": "view",
      "type": "function"
    },
    {
      "inputs": [
        {
          "components": [
            {
              "internalType": "enum TERRAIN",
              "name": "terrain",
              "type": "TERRAIN"
            },
            {
              "internalType": "uint256",
              "name": "occupantId",
              "type": "uint256"
            },
            {
              "internalType": "uint256",
              "name": "baseId",
              "type": "uint256"
            }
          ],
          "internalType": "struct Tile",
          "name": "_tile",
          "type": "tuple"
        }
      ],
      "name": "_hasTroopTransport",
      "outputs": [
        {
          "internalType": "bool",
          "name": "",
          "type": "bool"
        }
      ],
      "stateMutability": "view",
      "type": "function"
    },
    {
      "inputs": [
        {
          "components": [
            {
              "internalType": "uint256",
              "name": "x",
              "type": "uint256"
            },
            {
              "internalType": "uint256",
              "name": "y",
              "type": "uint256"
            }
          ],
          "internalType": "struct Position",
          "name": "_p",
          "type": "tuple"
        }
      ],
      "name": "_inBound",
      "outputs": [
        {
          "internalType": "bool",
          "name": "",
          "type": "bool"
        }
      ],
      "stateMutability": "view",
      "type": "function"
    },
    {
      "inputs": [
        {
          "internalType": "uint256",
          "name": "_troopTypeId",
          "type": "uint256"
        }
      ],
      "name": "_isLandTroop",
      "outputs": [
        {
          "internalType": "bool",
          "name": "",
          "type": "bool"
        }
      ],
      "stateMutability": "view",
      "type": "function"
    },
    {
      "inputs": [
        {
          "internalType": "uint256",
          "name": "_salt",
          "type": "uint256"
        },
        {
          "internalType": "uint256",
          "name": "_max",
          "type": "uint256"
        }
      ],
      "name": "_random",
      "outputs": [
        {
          "internalType": "uint256",
          "name": "",
          "type": "uint256"
        }
      ],
      "stateMutability": "view",
      "type": "function"
    },
    {
      "inputs": [
        {
          "components": [
            {
              "internalType": "uint256",
              "name": "x",
              "type": "uint256"
            },
            {
              "internalType": "uint256",
              "name": "y",
              "type": "uint256"
            }
          ],
          "internalType": "struct Position",
          "name": "_p1",
          "type": "tuple"
        },
        {
          "components": [
            {
              "internalType": "uint256",
              "name": "x",
              "type": "uint256"
            },
            {
              "internalType": "uint256",
              "name": "y",
              "type": "uint256"
            }
          ],
          "internalType": "struct Position",
          "name": "_p2",
          "type": "tuple"
        }
      ],
      "name": "_samePos",
      "outputs": [
        {
          "internalType": "bool",
          "name": "",
          "type": "bool"
        }
      ],
      "stateMutability": "pure",
      "type": "function"
    },
    {
      "inputs": [
        {
          "internalType": "uint256",
          "name": "_strikeFactor",
          "type": "uint256"
        }
      ],
      "name": "_strike",
      "outputs": [
        {
          "internalType": "bool",
          "name": "",
          "type": "bool"
        }
      ],
      "stateMutability": "view",
      "type": "function"
    },
    {
      "inputs": [
        {
          "components": [
            {
              "internalType": "uint256",
              "name": "x",
              "type": "uint256"
            },
            {
              "internalType": "uint256",
              "name": "y",
              "type": "uint256"
            }
          ],
          "internalType": "struct Position",
          "name": "_p1",
          "type": "tuple"
        },
        {
          "components": [
            {
              "internalType": "uint256",
              "name": "x",
              "type": "uint256"
            },
            {
              "internalType": "uint256",
              "name": "y",
              "type": "uint256"
            }
          ],
          "internalType": "struct Position",
          "name": "_p2",
          "type": "tuple"
        },
        {
          "internalType": "uint256",
          "name": "_dist",
          "type": "uint256"
        }
      ],
      "name": "_withinDist",
      "outputs": [
        {
          "internalType": "bool",
          "name": "",
          "type": "bool"
        }
      ],
      "stateMutability": "pure",
      "type": "function"
    }
  ],
  "bytecode": {
    "object": "0x61124d61003a600b82828239805160001a60731461002d57634e487b7160e01b600052600060045260246000fd5b30600052607381538281f3fe730000000000000000000000000000000000000000301460806040526004361061017d5760003560e01c8063a596a106116100e8578063d7eeafa3116100a1578063e9e3eaa11161007b578063e9e3eaa114610382578063f45be7cd14610395578063faf3edd1146103c3578063ff459967146103d657600080fd5b8063d7eeafa31461033c578063db3019881461034f578063e7a0fcec1461036257600080fd5b8063a596a106146102ca578063a617deda146102dd578063ab8d002e146102f0578063be1df32c14610303578063d18036a914610316578063d7db19901461032957600080fd5b8063733f45a81161013a578063733f45a81461024957806383bcfd8b1461025c578063877fbaf11461026f57806387900eed146102915780638b92c968146102a45780639f07295d146102b757600080fd5b806322510ee81461018257806332eb443c146101a8578063342a4123146101c8578063357de1eb146101e85780633d8e5b30146101fb57806352b7390c14610226575b600080fd5b610195610190366004611133565b6103e9565b6040519081526020015b60405180910390f35b8180156101b457600080fd5b506101956101c3366004611078565b61040c565b6101db6101d6366004610f88565b610601565b60405161019f919061116c565b6101956101f6366004611133565b6106f6565b61020e610209366004611133565b610719565b6040516001600160a01b03909116815260200161019f565b610239610234366004611011565b610747565b604051901515815260200161019f565b610195610257366004611133565b6107d4565b61019561026a366004611133565b6107f7565b81801561027b57600080fd5b5061028f61028a36600461104e565b61081a565b005b61019561029f366004611133565b610a29565b6102396102b23660046110c3565b610a4c565b6101956102c5366004611133565b610a63565b61020e6102d8366004611133565b610a86565b6101956102eb366004611133565b610aaf565b6102396102fe366004611133565b610af6565b610195610311366004611133565b610b1c565b610239610324366004610fdd565b610b3f565b6102396103373660046110c3565b610b61565b61019561034a366004611133565b610bae565b61019561035d366004611133565b610bd1565b81801561036e57600080fd5b5061019561037d366004610fa3565b610bf4565b61019561039036600461114b565b610da3565b6103a86103a3366004611133565b610de7565b6040805182518152602092830151928101929092520161019f565b6102396103d1366004611133565b610e33565b6102396103e4366004610f88565b610e4e565b60006103f3610e89565b6000928352622dc6ce0160205250604090206003015490565b600060606000604051806101200160405280856001600160a01b0316815260200186815260200161043b610e89565b622dc6c90154815260200161044f87610bae565b815260200161045c610e89565b622dc6c90154815260200161046f610e89565b622dc6c901548152602001610483876107f7565b8152602001878152602001838152509050600061049e610e89565b622dc6d0015490506104ae610e89565b622dc6cf0180546001810182556000918252602090912001819055816104d2610e89565b6000838152622dc6d1919091016020908152604091829020835181546001600160a01b0319166001600160a01b03909116178155838201516001820155918301516002830155606083015160038301556080830151600483015560a0830151600583015560c0830151600683015560e0830151805160078401558101516008830155610100830151805161056c9260098501920190610ead565b50905050610578610e89565b622dc6d001805490600061058b836111c6565b919050555080610599610e89565b60090188600001516103e881106105c057634e487b7160e01b600052603260045260246000fd5b610bb8020188602001516103e881106105e957634e487b7160e01b600052603260045260246000fd5b60030201600101819055508093505050509392505050565b6106266040805160608101909152806000815260200160008152602001600081525090565b61062e610e89565b60090182600001516103e8811061065557634e487b7160e01b600052603260045260246000fd5b610bb8020182602001516103e8811061067e57634e487b7160e01b600052603260045260246000fd5b6040805160608101909152600391909102919091018054829060ff1660028111156106b957634e487b7160e01b600052602160045260246000fd5b60028111156106d857634e487b7160e01b600052602160045260246000fd5b81526001820154602082015260029091015460409091015292915050565b6000610700610e89565b6000928352622dc6d30160205250604090206004015490565b6000610723610e89565b6000928352622dc6ce0160205250604090205461010090046001600160a01b031690565b8151835160009182911015610769578451845161076491906111af565b610777565b8351855161077791906111af565b905060008460200151866020015110156107a4578560200151856020015161079f91906111af565b6107b8565b846020015186602001516107b891906111af565b90508382111580156107ca5750838111155b9695505050505050565b60006107de610e89565b6000928352622dc6d30160205250604090206005015490565b6000610801610e89565b6000928352622dc6d30160205250604090206002015490565b6000610824610e89565b622dc6d101600083815260200190815260200160002060090180548060200260200160405190810160405280929190818152602001828054801561088757602002820191906000526020600020905b815481526020019060010190808311610873575b5050505050905060005b815181101561094e576108a2610e89565b622dc6d10160008383815181106108c957634e487b7160e01b600052603260045260246000fd5b6020908102919091018101518252810191909152604001600090812080546001600160a01b03191681556001810182905560028101829055600381018290556004810182905560058101829055600681018290556007810182905560088101829055906109396009830182610ef8565b50508080610946906111c6565b915050610891565b50610957610e89565b6000838152622dc6d1919091016020526040812080546001600160a01b03191681556001810182905560028101829055600381018290556004810182905560058101829055600681018290556007810182905560088101829055906109bf6009830182610ef8565b50506109c9610e89565b60090183600001516103e881106109f057634e487b7160e01b600052603260045260246000fd5b610bb8020183602001516103e88110610a1957634e487b7160e01b600052603260045260246000fd5b6003020160010160009055505050565b6000610a33610e89565b6000928352622dc6d30160205250604090206009015490565b600080610a5c8360200151610aaf565b1192915050565b6000610a6d610e89565b6000928352622dc6d30160205250604090206003015490565b6000610a90610e89565b6000928352622dc6d1016020525060409020546001600160a01b031690565b6000610ab9610e89565b622dc6d3016000610ac8610e89565b6000948552622dc6d10160209081526040808620600101548352908201929092520190912060060154919050565b6000610b00610e89565b6000928352622dc6d3016020525060409020600a015460ff1690565b6000610b26610e89565b6000928352622dc6d30160205250604090206007015490565b80518251600091148015610b5a575081602001518360200151145b9392505050565b600080610b6c610e89565b6040808501516000908152622dc6ce9290920160205290205460ff166001811115610ba757634e487b7160e01b600052602160045260246000fd5b1492915050565b6000610bb8610e89565b6000928352622dc6d30160205250604090206001015490565b6000610bdb610e89565b6000928352622dc6d30160205250604090206008015490565b6000806040518060a00160405280846001811115610c2257634e487b7160e01b600052602160045260246000fd5b815260200160006001600160a01b031681526020016001815260200160018152602001600181525090506000610c56610e89565b622dc6cd01549050610c66610e89565b622dc6cc018054600181018255600091825260209091200181905581610c8a610e89565b6000838152622dc6ce919091016020526040902081518154829060ff191660018381811115610cc957634e487b7160e01b600052602160045260246000fd5b0217905550602082015181546001600160a01b0390911661010002610100600160a81b03199091161781556040820151600182015560608201516002820155608090910151600390910155610d1c610e89565b622dc6cd018054906000610d2f836111c6565b919050555080610d3d610e89565b60090186600001516103e88110610d6457634e487b7160e01b600052603260045260246000fd5b610bb8020186602001516103e88110610d8d57634e487b7160e01b600052603260045260246000fd5b6003020160020181905550809250505092915050565b6040805142602082015244918101919091526060810183905260009082906080016040516020818303038152906040528051906020012060001c610b5a91906111e1565b6040805180820190915260008082526020820152610e03610e89565b6000928352622dc6d101602090815260409283902083518085019094526007810154845260080154908301525090565b6000600181610e43826064610da3565b939093109392505050565b6000610e58610e89565b600101548251108015610e69575060015b8015610e835750610e78610e89565b600201546020830151105b92915050565b7f8d1bebda6a12a792ffba01f92494c5be0cd4ce8e2d8e46d2c616016d7e70fd2090565b828054828255906000526020600020908101928215610ee8579160200282015b82811115610ee8578251825591602001919060010190610ecd565b50610ef4929150610f19565b5090565b5080546000825590600052602060002090810190610f169190610f19565b50565b5b80821115610ef45760008155600101610f1a565b600060408284031215610f3f578081fd5b6040516040810181811067ffffffffffffffff82111715610f6e57634e487b7160e01b83526041600452602483fd5b604052823581526020928301359281019290925250919050565b600060408284031215610f99578081fd5b610b5a8383610f2e565b60008060608385031215610fb5578081fd5b610fbf8484610f2e565b9150604083013560028110610fd2578182fd5b809150509250929050565b60008060808385031215610fef578182fd5b610ff98484610f2e565b91506110088460408501610f2e565b90509250929050565b600080600060a08486031215611025578081fd5b61102f8585610f2e565b925061103e8560408601610f2e565b9150608084013590509250925092565b60008060608385031215611060578182fd5b61106a8484610f2e565b946040939093013593505050565b60008060006080848603121561108c578283fd5b6110968585610f2e565b92506040840135915060608401356001600160a01b03811681146110b8578182fd5b809150509250925092565b6000606082840312156110d4578081fd5b6040516060810181811067ffffffffffffffff8211171561110357634e487b7160e01b83526041600452602483fd5b604052823560038110611114578283fd5b8152602083810135908201526040928301359281019290925250919050565b600060208284031215611144578081fd5b5035919050565b6000806040838503121561115d578182fd5b50508035926020909101359150565b815160608201906003811061119157634e487b7160e01b600052602160045260246000fd5b80835250602083015160208301526040830151604083015292915050565b6000828210156111c1576111c1611201565b500390565b60006000198214156111da576111da611201565b5060010190565b6000826111fc57634e487b7160e01b81526012600452602481fd5b500690565b634e487b7160e01b600052601160045260246000fdfea2646970667358221220b7c2ea6043c9c616678501aebf55a789deabe582822b2ad6a6375ebf15a25d9364736f6c63430008040033",
    "linkReferences": {}
  },
  "methodIdentifiers": {
    "_addBase(Position,BASE_NAME)": "e7a0fcec",
    "_addTroop(Position,uint256,address)": "32eb443c",
    "_getAttackCooldown(uint256)": "87900eed",
    "_getAttackFactor(uint256)": "357de1eb",
    "_getBaseHealth(uint256)": "22510ee8",
    "_getBaseOwner(uint256)": "3d8e5b30",
    "_getCargoCapacity(uint256)": "a617deda",
    "_getDamagePerHit(uint256)": "9f07295d",
    "_getDefenseFactor(uint256)": "733f45a8",
    "_getEpochsToProduce(uint256)": "be1df32c",
    "_getMaxHealth(uint256)": "83bcfd8b",
    "_getMovementCooldown(uint256)": "db301988",
    "_getMovesPerEpoch(uint256)": "d7eeafa3",
    "_getTileAt(Position)": "342a4123",
    "_getTroopOwner(uint256)": "a596a106",
    "_getTroopPos(uint256)": "f45be7cd",
    "_hasPort(Tile)": "d7db1990",
    "_hasTroopTransport(Tile)": "8b92c968",
    "_inBound(Position)": "ff459967",
    "_isLandTroop(uint256)": "ab8d002e",
    "_random(uint256,uint256)": "e9e3eaa1",
    "_removeTroop(Position,uint256)": "877fbaf1",
    "_samePos(Position,Position)": "d18036a9",
    "_strike(uint256)": "faf3edd1",
    "_withinDist(Position,Position,uint256)": "52b7390c"
  },
  "id": 10
}