{
  "abi": [
    {
      "inputs": [
        {
          "components": [
            {
              "internalType": "address",
              "name": "admin",
              "type": "address"
            },
            {
              "internalType": "uint256",
              "name": "worldWidth",
              "type": "uint256"
            },
            {
              "internalType": "uint256",
              "name": "worldHeight",
              "type": "uint256"
            },
            {
              "internalType": "uint256",
              "name": "numPorts",
              "type": "uint256"
            },
            {
              "internalType": "uint256",
              "name": "numCities",
              "type": "uint256"
            },
            {
              "internalType": "uint256",
              "name": "mapInterval",
              "type": "uint256"
            },
            {
              "internalType": "uint256",
              "name": "secondsPerTurn",
              "type": "uint256"
            }
          ],
          "internalType": "struct WorldConstants",
          "name": "_constants",
          "type": "tuple"
        },
        {
          "components": [
            {
              "internalType": "enum TROOP_NAME",
              "name": "name",
              "type": "uint8"
            },
            {
              "internalType": "uint256",
              "name": "speed",
              "type": "uint256"
            },
            {
              "internalType": "uint256",
              "name": "maxHealth",
              "type": "uint256"
            },
            {
              "internalType": "uint256",
              "name": "damagePerHit",
              "type": "uint256"
            },
            {
              "internalType": "uint256",
              "name": "attackFactor",
              "type": "uint256"
            },
            {
              "internalType": "uint256",
              "name": "defenseFactor",
              "type": "uint256"
            },
            {
              "internalType": "uint256",
              "name": "cargoCapacity",
              "type": "uint256"
            },
            {
              "internalType": "uint256",
              "name": "epochsToProduce",
              "type": "uint256"
            },
            {
              "internalType": "uint256",
              "name": "movementCooldown",
              "type": "uint256"
            },
            {
              "internalType": "uint256",
              "name": "attackCooldown",
              "type": "uint256"
            },
            {
              "internalType": "bool",
              "name": "isLandTroop",
              "type": "bool"
            }
          ],
          "internalType": "struct TroopType[]",
          "name": "_troopTypes",
          "type": "tuple[]"
        }
      ],
      "name": "init",
      "outputs": [],
      "stateMutability": "nonpayable",
      "type": "function"
    }
  ],
  "bytecode": {
    "object": "0x608060405234801561001057600080fd5b5061071d806100206000396000f3fe608060405234801561001057600080fd5b506004361061002b5760003560e01c8063747b43cc14610030575b600080fd5b61004361003e366004610557565b610045565b005b7fc8fcad8db84d3cc18b4c41d551ea0ee66dd599cde068d998e57d5e09332c131f60209081527f699d9daa71b280d05a152715774afa0a81a312594b2d731d6b0b2552b7d6f69f8054600160ff1991821681179092557ff97e938d8af42f52387bb74b8b526fda8f184cc2aa534340a8d75a88fbecc77580548216831790557f65d510a5d8f7ef134ec444f7f34ee808c8eeb5177cdfd16be0c40fe1ab43369580548216831790556307f5828d60e41b60009081527f5622121b47b8cd0120c4efe45dd5483242f54a3d49bd7679be565d47694918c38054909216909217905583517f8d1bebda6a12a792ffba01f92494c5be0cd4ce8e2d8e46d2c616016d7e70fd2080546001600160a01b0319166001600160a01b03909216919091179055908301517f8d1bebda6a12a792ffba01f92494c5be0cd4ce8e2d8e46d2c616016d7e70fd215560408301517f8d1bebda6a12a792ffba01f92494c5be0cd4ce8e2d8e46d2c616016d7e70fd225560608301517f8d1bebda6a12a792ffba01f92494c5be0cd4ce8e2d8e46d2c616016d7e70fd235560808301517f8d1bebda6a12a792ffba01f92494c5be0cd4ce8e2d8e46d2c616016d7e70fd245560a08301517f8d1bebda6a12a792ffba01f92494c5be0cd4ce8e2d8e46d2c616016d7e70fd255560c08301517f8d1bebda6a12a792ffba01f92494c5be0cd4ce8e2d8e46d2c616016d7e70fd26557fc8fcad8db84d3cc18b4c41d551ea0ee66dd599cde068d998e57d5e09332c131c905b82518110156103e9577f8d1bebda6a12a792ffba01f92494c5be0cd4ce8e2d8e46d2c616016d7e9ec3f26102a6826001610688565b8154600181018355600092835260209092209091015582518390829081106102de57634e487b7160e01b600052603260045260246000fd5b602002602001015161030d7f8d1bebda6a12a792ffba01f92494c5be0cd4ce8e2d8e46d2c616016d7e70fd2090565b622dc6d301600061031f846001610688565b8152602081019190915260400160002081518154829060ff1916600183600581111561035b57634e487b7160e01b600052602160045260246000fd5b02179055506020820151600182015560408201516002820155606082015160038201556080820151600482015560a0820151600582015560c0820151600682015560e082015160078201556101008201516008820155610120820151600982015561014090910151600a909101805460ff1916911515919091179055806103e1816106a0565b915050610271565b507f8d1bebda6a12a792ffba01f92494c5be0cd4ce8e2d8e46d2c616016d7e9ec3f08054906000610419836106a0565b9190505550505050565b600082601f830112610433578081fd5b8135602067ffffffffffffffff82111561044f5761044f6106d1565b61045d818360051b01610657565b828152818101908583016101608086028801850189101561047c578687fd5b865b868110156105255781838b031215610494578788fd5b61049c61060a565b6104a584610548565b8152838701358782015260408085013590820152606080850135908201526080808501359082015260a0808501359082015260c0808501359082015260e080850135908201526101008085013590820152610120808501359082015261014061050f818601610533565b908201528552938501939181019160010161047e565b509198975050505050505050565b8035801515811461054357600080fd5b919050565b80356006811061054357600080fd5b60008082840361010081121561056b578283fd5b60e0811215610578578283fd5b50610581610634565b83356001600160a01b0381168114610597578384fd5b808252506020840135602082015260408401356040820152606084013560608201526080840135608082015260a084013560a082015260c084013560c08201528092505060e083013567ffffffffffffffff8111156105f4578182fd5b61060085828601610423565b9150509250929050565b604051610160810167ffffffffffffffff8111828210171561062e5761062e6106d1565b60405290565b60405160e0810167ffffffffffffffff8111828210171561062e5761062e6106d1565b604051601f8201601f1916810167ffffffffffffffff81118282101715610680576106806106d1565b604052919050565b6000821982111561069b5761069b6106bb565b500190565b60006000198214156106b4576106b46106bb565b5060010190565b634e487b7160e01b600052601160045260246000fd5b634e487b7160e01b600052604160045260246000fdfea26469706673582212201b3ed4aa1b8455e0ff05f1ecbfcfdf63ecc70423ee6b7747090d3e9daf4e714764736f6c63430008040033",
    "linkReferences": {}
  },
  "methodIdentifiers": {
    "init((address,uint256,uint256,uint256,uint256,uint256,uint256),(uint8,uint256,uint256,uint256,uint256,uint256,uint256,uint256,uint256,uint256,bool)[])": "747b43cc"
  },
  "id": 15
}